S013000066622D61746D656C2D66772E73726563FF
S1130000B0C00020E9020000E5020000E5020000A3
S1130010E5020000E5020000E50200000000000027
S1130020000000000000000000000000E5020000E5
S1130030E502000000000000E5020000E502000007
S1130040E5020000E5020000E5020000E502000010
S1130050E5020000E5020000E5020000E502000000
S1130060E5020000E5020000E5020000B510000012
S1130070E5020000E5020000E5020000E5020000E0
S1130080E5020000990D0000A50D0000B10D00006F
S1130090E5020000E5020000E5020000E5020000C0
S11300A0E5020000E5020000E5020000E5020000B0
S11300B0E5020000910E0000A50E0000E50200001C
S11300C0E5020000E5020000E5020000E502000090
S11300D0E5020000E5020000E5020000E502000080
S11300E0E5020000E502000000000000000000003E
S11300F00000000005100000E5020000E502000019
S1130100E5020000E5020000E5020000E50200004F
S1130110E5020000E5020000E5020000E50200003F
S1130120E5020000E5020000E5020000E50200002F
S1130130E5020000E5020000E5020000E50200001F
S1130140E5020000E5020000E5020000E50200000F
S1130150E5020000E50200000000000000000000CD
S1130160000000000000000000000000000000008B
S1130170000000000000000000000000000000007B
S1130180E5020000E5020000E5020000E5020000CF
S113019000000000E5020000E5020000E5020000A6
S11301A0E5020000E5020000E5020000E5020000AF
S11301B0E5020000E5020000E5020000E50200009F
S11301C0E5020000E5020000E5020000E50200008F
S11301D0E502000000000000000000000000000034
S11301E0000000000000000000000000E502000024
S11301F0E5020000E5020000E50200000000000046
S1130200000000000000000000000000E502000003
S1130210E5020000E5020000E5020000E50200003E
S1130220E5020000E5020000E5020000E50200002E
S1130230E5020000E5020000E5020000E50200001E
S113024000000000E5020000E5020000E5020000F5
S1130250E5020000E5020000E5020000E5020000FE
S11302600000000010B5054C237833B9044B13B1DA
S11302700448AFF300800123237010BD0000002068
S113028000000000141A00000C4B43B10C480D4947
S113029010B5AFF300800C48036823B910BD0A48B9
S11302A0036833B97047094B002BF7D0BDE8104001
S11302B01847064B002BF5D0184700BF000000007C
S11302C0141A000004000020141A000000000000AA
S11302D008B5024B9847024B984708BD49070000F0
S11302E0E1170000FEE7000008B51C4B1C4A9A42C7
S11302F010D01C4B194A9A420CD2013B9B1A23F092
S1130300030304331344164951F8040B42F8040B55
S11303109A42F9D1144B154A9A420AD2013B9B1ACC
S113032023F0030304331344002142F8041B9342D3
S1130330FBD10F4B0F4A22F07F029A60D3F888203A
S113034042F47002C3F88820BFF34F8FBFF36F8F5E
S1130350094B9847094B9847FEE700BF000000206F
S1130360141A000000000020AC000020000000204F
S113037000ED00E0000000001118000075120000FC
S113038008B540202E4BC3F890002E4A536943F41D
S1130390806353612C4B20225A6002F1804202F5A3
S11303A000329A622949996293F8452002F0FB02CF
S11303B083F8452093F8452002F0FE0242F0010242
S11303C083F8452093F8322002F00F0283F832209C
S11303D058601F4A9A62996293F8462002F0FB0221
S11303E083F8462093F8462002F0FE0242F0010210
S11303F083F8462093F8332002F0F00283F8332088
S113040080225A6002F1804202F500329A629962B7
S113041093F8472002F0FB0283F8472093F8472023
S113042002F0FE0242F0010283F8472093F83320E1
S113043002F00F0283F83320064B984708BD00BF33
S1130440001C00400008004000800041000002C081
S113045040000240F9070000024A136943F04003D8
S1130460136170470008004008B5034B98470349DF
S11304700348044B984708BD59040000004000415C
S11304804C0000203908000030B45A4B4FF400658A
S1130490C3F88450584AC3F8A8205848C3F8A800A1
S11304A093F8CB2002F0FB0283F8CB2093F8CB2007
S11304B002F0FE0242F0010283F8CB2093F8B5204B
S11304C002F00F0242F0700283F8B5204FF48072FC
S11304D09A604B4999624FF040449C625A6193F888
S11304E0482002F0FB0283F8482093F8482002F0E9
S11304F0FE0242F0010283F8482093F8342002F00F
S1130500F00242F0070283F834204FF400729A603C
S113051001F5807199629C625A6193F8492002F056
S1130520FB0283F8492093F8492002F0FE0242F0CE
S1130530010283F8492093F8342002F00F0242F0BC
S1130540700283F834204FF4806199602D4A9A62D6
S11305509C62596193F84A2002F0FB0283F84A2016
S113056093F84A2002F0FE0242F0010283F84A2086
S113057093F8352002F0F00242F0070283F83520A8
S11305809D60214A9A629C625D6193F84B2002F05F
S1130590FB0283F84B2093F84B2002F0FE0242F05A
S11305A0010283F84B2093F8352002F00F0242F049
S11305B0700283F83520C3F88410144AC3F8A820C5
S11305C0C3F8A80093F8CA2002F0FB0283F8CA20FB
S11305D093F8CA2002F0FE0242F0010283F8CA2016
S11305E093F8B52002F0F00242F0070283F8B52038
S11305F030BC70470080004100080240000002C087
S113060000010040000400400008004000040240D3
S1130610064B1A6942F400521A611A6942F4001234
S11306201A61DA6942F40052DA6170470008004046
S113063008B5044B984704490448054B9847054BB3
S1130640984708BD11060000003400426C000020E9
S11306509D09000089040000164B93F8512002F014
S1130660FB0283F8512093F8512002F0FE0242F07D
S1130670010283F8512093F8382002F00F0242F06F
S1130680300283F8382093F8502002F0FB0283F8FC
S1130690502093F8502002F0FE0242F0010283F849
S11306A0502093F8382002F0F00242F0030283F85D
S11306B03820704700800041064B4022C3F8E020F8
S11306C04322C3F88C20044A936943F48063936102
S11306D0704700BF001C00400008004008B5044BF0
S11306E0984704490448054B9847054B984708BD6B
S11306F0B9060000004001417000002055090000C7
S113070059060000024A536943F4807353617047E9
S11307100008004008B5064B9847482205490120C7
S1130720054B98470548064B0360064B984708BDA0
S11307300507000058180000390B0000680000206D
S1130740002000400912000008B50C4B98470C4BE0
S113075098470C4B98470C4B98470C4A536943F401
S1130760007353610A4B984702460A490A480B4BE7
S113077098470B4B98470B4B984708BDA10B0000BB
S113078081030000690400003106000000080040F5
S1130790B1100000002400407C000020FD0A00008D
S11307A0DD0600001507000070B5124BD9688842B9
S11307B01DD00122032500241E46884287BF013232
S11307C0D4B202F1FF32D5B2A54212D32B195B1079
S11307D0DAB2022A0DD8134606EBC20149688142F7
S11307E0EBD1044A52F833301BB1984770BD012352
S11307F0F7E770BD1C00002008B5074B4FF0FF3130
S1130800596000221A60D9609A6059611A610348DC
S1130810034B984708BD00BF1C000020A907000037
S1130820B50C000008B5436903B1984708BD08B585
S1130830836903B1984708BD38B50D46044690B1A5
S1130840081C18BF012038220849094B984729463B
S11308502046084B9847034618B9074A2260074ABE
S11308606260184638BD0020EDE700BF7418000030
S1130870390B0000190E0000250800002F080000A5
S11308802DE9F8430F469046044620B329B3101CC3
S113089018BF0120B6221249124B9847043C124D4E
S11308A02046A8470028FBD0013F0026DFF84090EF
S11308B00D4D17F8011F2046C8472046A8470028B9
S11308C0FBD00136B6B2B045F3D82046074B984763
S11308D03046BDE8F8830020DCE70020DAE700BFFB
S11308E08C180000390B0000EB110000FF11000010
S11308F0DD1100002DE9F8430F4690460446E0B1AF
S1130900E9B1101C18BF01209C220E490E4B9847D8
S1130910013F0026043C0D4DDFF834902046A847E3
S11309200028FBD02046C84707F8010F0136B6B2AD
S1130930B045F3D83046BDE8F8830020E4E7002052
S1130940E2E700BF8C180000390B0000F51100002D
S1130950E311000038B50D46044690B1081C18BFD9
S1130960012035220849094B984729462046084B5F
S11309709847034618B9074AA260074A62601846B6
S113098038BD0020EDE700BF8C180000390B0000D3
S1130990A9110000F50800008108000038B50C46D4
S11309A0054658B1081C18BF012031220449054BE3
S11309B0984721462846044B984738BD0020F4E761
S11309C0A8180000390B0000ED0E000010B5044615
S11309D03F220549003018BF0120044B98472046A8
S11309E0034B984710BD00BFA8180000390B000046
S11309F0210F000038B50C46054658B1081C18BF35
S1130A0001204D220449054B984721462846044BB2
S1130A10984738BD0020F4E7A8180000390B0000FF
S1130A202D0F0000F8B5844607682FB18D683C4649
S1130A300026C2F1010E0BE00E4B9847F8BD73443B
S1130A40A0680344AB420AD22368264653B11C462D
S1130A5063689342F3D8A06803449B1AF2E7A74261
S1130A6004D034462046044B9847F8BD6046014BF9
S1130A709847F8BD610B00008D0B00002DE9F0478D
S1130A804469076901370761037E13F0010F13D12D
S1130A90037E13F0020F0FD154B36368FB1AA268EC
S1130AA0934207D3064600F11408DFF84890DFF8B4
S1130AB048A012E0BDE8F087037E43F0020303760A
S1130AC0BDE8F0877569E3682046984785B12C46F0
S1130AD06B68FB1AAA6893420AD34046C847237C32
S1130AE0012BEFD167603A4621464046D047E9E7FB
S1130AF0BDE8F087950B0000250A000038B50D46C7
S1130B00044678B1081C18BF01203B220649074B54
S1130B10984729462046064B984700202061054BFC
S1130B20236038BD0020F0E7C4180000390B000032
S1130B30491000007D0A000000B900BE7047036838
S1130B404BB18B4209D01B681BB19942FBD10120E8
S1130B507047002070470020704701207047000054
S1130B6038B504460D46064B984780F001003922FB
S1130B700449C0B2044B984723682B60256038BDF4
S1130B803F0B0000DC180000390B000003680B6009
S1130B900160704703680BB11A6802601846704719
S1130BA008B5084A13889BB21380074B9847074B34
S1130BB09847074B9847074B984740F6FF70064BFA
S1130BC0984708BD00400041B90E0000CD0E00005A
S1130BD0E10D0000E90E0000BD0D0000F0B583B08A
S1130BE02F4B5A690192019A5A612E4B1868F022D0
S1130BF02D49003018BF01202C4B9847019B002B36
S1130C004BD04FF0FF372A4D3BE0B64605EBCE0EF6
S1130C10DEF80470B7F1FF3F03D0224B1B6838465F
S1130C209847019B06FA04F423EA04040194019A08
S1130C3092FAA2F3B3FA83F3002A08BF4FF0FF330A
S1130C4018D01C46062BE0D0062233460320002190
S1130C509442C7BF0133D9B203F1FF33D8B2814202
S1130C60D8D84318C3F347039E4615F83320A2424D
S1130C70EED1CBE70A4B5A690192019A5A61019B62
S1130C805BB1019A92FAA2F3B3FA83F3002A0CBF80
S1130C904FF0FF330126D4D1ECE703B0F0BD00BF21
S1130CA0002800403400002014190000390B000013
S1130CB0FC180000354B5B6813F0010F1FD1334A59
S1130CC0536813F0030FFBD1304B1B7813F0020F62
S1130CD00DD02E4A137803F0FD031370536813F0FC
S1130CE0030FFBD1294A536813F0020FFBD10122F1
S1130CF0264B1A701A46536813F0030FFBD1234A8C
S1130D00536813F0010FFBD1204A137803F0EF036B
S1130D101370536813F0030FFBD11C4B00225A705D
S1130D209A609A611A635A63DA611A621A7842F015
S1130D3002021A701A46536813F0030FFBD1144BC6
S1130D404FF40032C3F88020BFF34F8FBFF36F8F8F
S1130D50C3F880211A604FF48022C3F88020BFF3C7
S1130D604F8FBFF36F8FC3F880211A604FF40022B6
S1130D70C3F88020BFF34F8FBFF36F8FC3F8802178
S1130D801A60044B18600020704700BF0028004020
S1130D9000E100E03400002008B5014B984708BD8D
S1130DA0DD0B000008B5014B984708BDDD0B0000C2
S1130DB008B5014B984708BDDD0B000010F0010F8A
S1130DC008D0054A054B1A62194643F6FD724B6872
S1130DD01342FCD1704700BF01010100001C004018
S1130DE00122014B5A7170470008004008B503699D
S1130DF01A8A12F0010F05D001221A82036853B136
S1130E00984708BD1A8A92B22AB140F25E221A8229
S1130E10436803B1984708BD38B50C46054650B33E
S1130E201648814214BF002001204B221449154B5F
S1130E3098472C61238823F0C0039B049B0C2380D8
S1130E40114B1D60114B4FF00051C3F88010BFF3DC
S1130E504F8FBFF36F8F4FF08042C3F88020BFF3F2
S1130E604F8FBFF36F8FC3F88011C3F880211960CF
S1130E701A60002038BD0020D7E700BF00400041C1
S1130E802C190000390B00003800002000E100E0BC
S1130E9008B5024B1868024B984708BD380000207B
S1130EA0ED0D000008B5024B1868024B984708BDC9
S1130EB038000020ED0D0000034BDA6902F47C5287
S1130EC0DA6101221A74704700140040044A054B89
S1130ED09A611A46136913F0020FFBD0704700BFE2
S1130EE006260003001000407047000038B50C4689
S1130EF0054670B1081C18BF012040220649074B63
S1130F0098472C6001232360112363600020A060B4
S1130F1038BD0020F1E700BF4C190000390B000078
S1130F20036802221A6000207047000070B505466D
S1130F300C4603680A7812F0200F1CBF8A681A63F3
S1130F400A7812F0100F05D0596B21F0FF012279B5
S1130F500A435A63227812F0400F06D05A6B22F4E7
S1130F607F02617942EA01425A6322689A632378D4
S1130F7013F0800F0CD12B681F4A1A602A68D369BA
S1130F8013F4806FFBD04FF48063D361002070BDF5
S1130F90296813F0200F1ABFA26802F180664FF08F
S1130FA080668B6B2369ABB1012082221349144BF9
S1130FB0984723699BB1E06838B1721E184413F84E
S1130FC0011B02F8011F8342F9D1BFF34F8FBFF316
S1130FD06F8FD0E76069003018BF0120E5E76369CF
S1130FE0E1680029F1D0013B314416F8012B03F8E4
S1130FF0012FB142F9D1E8E7020000014C190000C9
S1131000390B000000B583B00D4B9B78DBB2019324
S1131010019B13F0020F06D00A4B1B681BB1084A50
S11310205068984709E0019B13F0010F05D0054B68
S11310305B6813B1024A5068984703B05DF804FB3B
S1131040000002419800002038B50C4605463022C5
S11310501449003018BF0120134B9847EC6001235A
S1131060238048F2030223691342FCD1EB681A6916
S113107012F0010FFBD148F280021A8048F20301FA
S11310801A690A42FCD1EA6820231362136913F037
S1131090600FFBD1EB684FF480725A81034B1D60E3
S11310A0002038BD64190000390B00003C0000200A
S11310B00020704710B5084B1C68E3689B8913F443
S11310C0807F07D023680BB120469847E3684FF42C
S11310D080729A8110BD00BF3C00002070B487B0BC
S11310E006466C460C4D0FCD0FC495E8030084E80A
S11310F00300009BB3420CD0324601205DF820303F
S1131100934207D001300628F8D1002007B070BC04
S113111070470020C0B2F9E77C19000010B50446FE
S11311201D4B9847032808D040F2B7721B49002092
S11311301B4B98476FF00C0010BDE36913F0010FCF
S113114019D1E36913F0030FFBD1236813F0020FE5
S11311500BD0236823F002032360E36913F0030F29
S1131160FBD1E36913F0020FFBD111232360E36980
S113117013F0030FFBD1E36913F0010FFBD1094B0B
S11311802360E36913F0030FFBD14FF4A0636360A2
S113119020236362002010BDDD100000AC190000A4
S11311A0390B00001000200038B50C46054640F20B
S11311B0A6620749003018BF0120064B9847204615
S11311C0054B9847034600B92C60184638BD00BF4C
S11311D0AC190000390B00001D110000036899626E
S11311E070470368986AC0B270470368187EC0F3FA
S11311F0800070470368187EC0F38000704703685E
S113120004221A760020704710B5044630B30068F3
S1131210003018BF012050221449154B9847236809
S11312209A6812F00E0FFBD11A78D20918D19A6875
S113123012F00E0FFBD11A7812F0020F13D11A78A4
S113124002F0FB021A709A6812F00E0FFBD12268AA
S1131250537803F0F0035370002010BD0020DAE748
S11312606FF0100010BD6FF0100010BDC819000021
S1131270390B000080B582B00B4B98474FF40062E5
S11312800A4BC3F898201C4616461746C4F89470B7
S1131290042300220DEB030105480068054DA8470F
S11312A0C4F89860F2E700BFD1020000008000415A
S11312B0A8000020D717000000B589B000230193CF
S11312C002930393059301F0070141F090018DF817
S11312D004108DF808200423049307AB069301A996
S11312E0034B98479DF81C0009B05DF804FB00BF50
S11312F0F5090000F8B5074605260025044C3246DA
S113130029463846A04710F0010FF8D1F8BD00BFB8
S1131310B9120000F0B587B004461646002A14BF7F
S1131320062204220023009301930293039304935F
S1131330059301F0070141F010018DF800108DF8BC
S11313400420052219460B4B9847C0F34000B042D5
S11313500DD03546084F074E69462046B84705224A
S113136000212046B047C0F34000A842F4D107B0A2
S1131370F0BD00BFB9120000F5090000F0B587B058
S113138006460F460024009401940294059401F04B
S1131390070545F090058DF800504FF000054FF01B
S11313A0020E6EF305158DF801508DF80420042209
S11313B0039204930122064DA84769463046054B23
S11313C09847224639463046A84707B0F0BD00BFCB
S11313D015130000F509000070B586B005680024F7
S11313E0009401940494B0248DF800404FF000045C
S11313F0012666F305148DF8014008248DF8024097
S11314000B248DF80440029203930591037A4BB1A7
S11314106B238DF804309DF80030022262F302033E
S11314208DF8003069462846024B9847002006B0E4
S113143070BD00BFF5090000F8B504460F4601224F
S11314400021084DA8472046074EB047394620469C
S1131450064B98472046B047002211462046A8472D
S1131460F8BD00BF15130000F5120000F5090000D7
S11314702DE9F04F89B001921E46036800930023C2
S1131480029303930793B0238DF8083030238DF82B
S1131490093002238DF80C30049205960691370A20
S11314A023D08B460C4600254FF4807A019BA3EB96
S11314B00109DFF85080CDF814A004EB090304936C
S11314C0069402A90098C04704F580740135AF4220
S11314D0F1D12D020BEB0502019B1D4416F0FF0315
S11314E008D1002009B0BDE8F08F02A90098054B8F
S11314F09847F6E705930495069202A90098014BD4
S11315009847EEE7391400002DE9F04387B01546FB
S113151006680023009301930293039304930593B5
S113152030238DF800304FF00003022262F30513DC
S11315308DF8013041EA0503C3F30B03002B5ED1A0
S11315400C46052200213046314B984710F0010F1C
S113155003D0022007B0BDE8F08301220021304609
S11315602C4B984714B9B5F5001F07D2002D3FD076
S11315704FF0D809DFF8A480274F26E09DF800300B
S11315806FF345138DF80030C7238DF80430694696
S11315903046224B9847A5F5001530461E4B984718
S11315A0E4E7C4F30B036BBBB5F5805F2DD3029462
S11315B020238DF8043069463046C04704F5805432
S11315C0A5F580553046B84795B1A3B2002BE8D1B4
S11315D0B5F5803FE5D302948DF804906946304612
S11315E0C04704F58034A5F580353046B847EBE7AD
S11315F0002211463046074B98470020AAE76FF0B7
S11316000C00A7E76FF00C00A4E76FF00C00A1E753
S1131610B912000015130000F5120000F5090000CE
S1131620F0B589B0046800250195029503950595E8
S1131630F4238DF80430022343F050028DF8052082
S113164005228DF80620EB218DF808108DF809305D
S1131650012304930DF11F03069329462046174ED8
S1131660B0478DF81C00352229462046B0478DF836
S11316701D00332229462046B0478DF81E009DF8F0
S11316801D0010F0020F12D10D4F40F002008DF832
S11316901D0007AB012229462046B84735222946BA
S11316A02046B0478DF81D0010F0020FEDD001A9BF
S11316B02046044B9847002009B0F0BDB912000041
S11316C07D130000F509000030B587B005680024DB
S11316D000940194029403940494059410238DF8C7
S11316E00030FF238DF8043006492846064B9847FE
S11316F02846064B984769462846054B9847204696
S113170007B030BD003400429D090000CD0900003F
S1131710F50900002DE9F04182B006461746284A33
S1131720284B98473468052200212046264DA847B7
S11317308DF80400352200212046A8478DF80500C5
S1131740332200212046A8478DF806003772CFB90E
S11317509DF8050010F0020F2DD00025DFF86C80F5
S1131760194F20F002008DF8050001AB0122294633
S11317702046C047352229462046B84710F0020FBC
S1131780EFD118E09DF8050010F0020F13D10025E9
S1131790DFF838800C4F40F002008DF8050001ABF3
S11317A0012229462046C047352229462046B8470B
S11317B010F0020FEFD0304602B0BDE8F08100BF58
S11317C0E0190000D1170000B91200007D130000D9
S11317D001604260704710B544682468A04710BD9A
S11317E010B5064C2046064B984700222146054872
S11317F0054B9847054B186010BD00BF6C000020D6
S1131800CD0900004000002015170000A8000020AA
S113181070B50D4E0D4CA41BA4100025A54209D192
S11318200B4E0C4C00F0E6F8A41BA4100025A542B6
S113183005D170BD56F8253098470135EEE756F8C6
S1131840253098470135F2E7001A0000001A00001D
S1131850001A0000041A00002E2E2F68616C2F69F4
S11318606E636C7564652F68616C5F7764742E6851
S1131870000000002E2E2F68616C2F7372632F6896
S1131880616C5F666C6173682E6300002E2E2F6896
S1131890616C2F7372632F68616C5F6932635F736D
S11318A05F73796E632E63002E2E2F68616C2F7325
S11318B072632F68616C5F717370695F73796E63B3
S11318C02E6300002E2E2F68616C2F7372632F68B5
S11318D0616C5F74696D65722E6300002E2E2F6833
S11318E0616C2F7574696C732F7372632F757469CF
S11318F06C735F6C6973742E630000000500000054
S113190005000000060000000600000007000000BB
S1131910070000002E2E2F68706C2F6569632F68F6
S1131920706C5F6569632E63000000002E2E2F68C3
S1131930706C2F6E766D6374726C2F68706C5F6E52
S1131940766D6374726C2E63000000002E2E2F6877
S1131950706C2F717370692F68706C5F717370692C
S11319602E6300002E2E2F68706C2F7274632F6804
S1131970706C5F7274632E630000000000300040DE
S113198000340040002001410040014100000043B8
S113199000040043000000000000000000000000FC
S11319A00000000000000000000000002E2E2F6840
S11319B0706C2F736572636F6D2F68706C5F7365E5
S11319C072636F6D2E6300002E2E2F68706C2F775C
S11319D064742F68706C5F7764742E630000000079
S11319E0D91300007114000009150000211600002D
S11319F0C9160000F8B500BFF8BC08BC9E46704785
S1131A0089020000F8B500BFF8BC08BC9E467047C8
S1071A106502000067
S9030000FC
