:020000022000DC
:1060000000000120756302005D6302005F6302000F
:106010006163020063630200656302000000000028
:1060200000000000000000000000000067630200A4
:1060300069630200000000006B6302006D630200F0
:10604000B18702006F630200F58B0200A199020084
:106050006F6302006F630200718A02006F630200C7
:106060006F6302006F6302006F6302006F630200E0
:106070006F6302006F6302006F6302006F630200D0
:106080006F6302000D7902006F6302006F6302000C
:106090006F6302006F63020075C002006F6302004D
:1060A0006F6302006F6302006F6302006F630200A0
:1060B0006F6302006F630200000000000000000038
:1060C0006F6302006F6302006F6302006F63020080
:1060D0006F6302006F6302006F6302000000000044
:1060E00000000000000000000000000000000000B0
:1060F00000000000000000000000000000000000A0
:10610000000000000000000000000000000000008F
:10611000000000000000000000000000000000007F
:10612000000000000000000000000000000000006F
:10613000000000000000000000000000000000005F
:10614000000000000000000000000000000000004F
:10615000000000000000000000000000000000003F
:10616000000000000000000000000000000000002F
:10617000000000000000000000000000000000001F
:10618000000000000000000000000000000000000F
:1061900000000000000000000000000000000000FF
:1061A00000000000000000000000000000000000EF
:1061B00000000000000000000000000000000000DF
:1061C00000000000000000000000000000000000CF
:1061D00000000000000000000000000000000000BF
:1061E00000000000000000000000000000000000AF
:1061F000000000000000000000000000000000009F
:10620000354936480A1A02D0072291438D4634494F
:1062100034480A1A06D00722914381F309880222E2
:1062200082F3148830483149314A00F044F831484B
:106230003149324A00F03FF831483249324A00F0E1
:106240003AF832483249334A00F035F83248334997
:10625000334A00F030F833483349344A00F02BF821
:1062600033483449344A00F026F83448344900228F
:1062700000F02CF833483449002200F027F8334866
:106280003349091A082902DB002202604160314AC1
:1062900090471F481F49884205D00268043003B464
:1062A000904703BCF7E700208646EC46002000211B
:1062B000294A9047FEE7884207D0521A05D0037852
:1062C00001300B700131013AF9D17047884202D098
:1062D00002700130FAE770470000012000E0002062
:1062E000000001200000012030D60200D82A002042
:1062F000982E0020D0630200D0630200D4C60200B2
:1063000030D60200D82A0020D82A0020E0C7020098
:10631000E0C70200E0C70200E0C70200E0C70200D9
:10632000E0C70200E0C70200E0C7020030D602006A
:10633000F0D90200982E0020982E0020982E0020E0
:10634000D0450020D0450020D0450020D045002079
:10635000D06500209D630200C5A20200FEE7FEE7B3
:10636000FEE7FEE7FEE7FEE7FEE7FEE7FEE7FEE705
:1063700000F002B8FFF7FCBF0F484FF00701884359
:1063800085460E4880470E48016841F4700101605F
:10639000BFF34F8FBFF36F8FFFF732BF09480A4932
:1063A0000A4A884207D0521A05D0037801300B7090
:1063B0000131013AF9D170470000012051820200F9
:1063C00088ED00E0E0C70200D82A0020D82A00208B
:1063D0007047000007B5044B0093044A402300F0C7
:1063E00032F803B05DF804FBF1630200992E00203F
:1063F0002DE9F84389461446B2B10F4B0F4E0325E1
:10640000002743F00108224609EB0701002004F0B1
:1064100037FB0744241A48B933782BB14FF47A403C
:10642000C047013D02D13570BDE8F88301233370C8
:10643000002CE8D1F8E700BFE0C70200982E00204A
:10644000704704F051BBF0B595B01C46164608469F
:106450000D4601F0F0FD1A9B0D93CDE90864002470
:106460002346082205A928460A948DF82C400C944E
:1064700001F0FEFD079B0293069B03939DF81430E9
:106480008DF8114003F00302012A1DD1BDF814401C
:10649000059EC3F3C203C4F383148DF81030A20029
:1064A00008230EA9284601F0E3FDC6F3952608ABA4
:1064B0000093224602AB0EA9304600F05DFB284651
:1064C00001F0BDFD15B0F0BD022AF8D1BDF81640AF
:1064D000C3F3C203A4098DF810300827082C264600
:1064E00028BF08263B4632460EA9284601F0C0FDCB
:1064F000A41B08AB02AA31460EA8374400F0A0FB4B
:10650000002CEBD1DBE7000008B5FFF79AFF042170
:10651000034800F09FFA034B01225A7108BD00BFE7
:10652000D0C70200D82A0020037813F0040216D046
:1065300003F00303012B03D0022B09D00120704785
:106540000A6800880232C0F3831002440A60F5E74B
:106550000B684288023303EB92130B60EEE71046A0
:10656000704700002DE9F04F87B000230446851CDA
:106570000DF107000F4690468DF8073001F05AF8EC
:10658000454806683E60D0E90132134401339B1B45
:10659000824600F21C4600F5836900F21447AB42C4
:1065A0001BD30022B8F1000F70D0052363F307025C
:1065B00064F38912DAF80010DAF808309DF8070061
:1065C0000B4003330D444AF82320CAF8005001F071
:1065D00055F8012007B0BDE8F08F0121304601F0E9
:1065E0006EFA484601F081FA384601F07EFADAF890
:1065F0000400DAF808B0029000EA0B0003300AEB5E
:10660000800002A9FFF790FF029B50BB0BEA030238
:106610000AEB820203F1020CD2680392013303EA0F
:106620000B0B0AEB8B0B02F00302012ACDF808C01A
:10663000DBF80C1022D0022A16D08346384601F02F
:1066400057FA10B1029BCAF804305946304601F09F
:1066500036FADAE901231344DAF8002001339B1AF1
:106660009DE70BEA0300C9E7BDF80E309B09033331
:106670004FEA114B0CEB93030293DFE7BDF80C30AC
:10668000C3F383134FEA114B6344F5E7062363F327
:10669000070264F39F528DE7AC2F00200B4B0C4890
:1066A000FF2210B59A600022C3F81824C3E9002223
:1066B000C3F8142483F8202401F076FC044610B9B2
:1066C000044801F01DFD204610BD00BFAC2F002086
:1066D00034C7020004C8020030B50A4C71B10A4A3E
:1066E0000A49121BD20800239A4201D1002030BD72
:1066F00031F82350854202D00133F5E7034654F8C0
:106700003300F4E748C70200D0C70200D82A0020AF
:10671000094B013903EBC000032909D8DFE801F078
:106720000A020406042070470079704740797047D8
:10673000002070470220704748C70200034BD3E98E
:106740000030C31A58425841704700BFAC2F002098
:106750002DE9F04387B0FFF7F1FF0646002840F02F
:10676000FB807E4DC5F81804BFF34F8F6868AC6896
:1067700002902040033005EB800002A9FFF7D4FE11
:10678000029B18B1D5F81824002A5FD004EA03024E
:10679000991C013305EB8202234005EB8303D26889
:1067A000DB68049302F00303022B0392029162D18F
:1067B000BDF80E306A484FEA9318B8F1500FC14641
:1067C00028BF4FF0500969F38F1309F10801ADF8A4
:1067D0000E3001F001FC0746002800F0A88001F00F
:1067E0002AFC03A900230822384601F037FC02994D
:1067F00024EA01060136B600B14535D95FFA89F9B8
:106800007EB3F6B2A9EB0609214003315FFA89F4A1
:10681000B146544E05EB810108234A46384601F043
:106820001DFC36B109F1080322463146384601F015
:1068300015FC029B08F1030803EB98030293D5F8BB
:106840001834002B4BD1D5F810445BE02A689A42EB
:1068500004D86A60304607B0BDE8F08304EA03005C
:1068600088E740493446D7E72140033108234A46A8
:1068700005EB8101DAE7012B59D1BDF80C3038481E
:10688000C3F38311062928BF062161F3891302315E
:106890008900ADF80C3001F09FFB0746002846D078
:1068A00001F0C9FB0023082203A9384601F0D6FBFA
:1068B0000026BDF80C20C2F38312B300964203F108
:1068C0000803BCD202994A1C21400331029205EB15
:1068D00081010422384601F0C1FB0136E9E7384660
:1068E00001F0ADFBFFF72AFF80F00100C6B2B1E76F
:1068F000E3685B7923B1236839461B6820469847D3
:10690000E3681C68002CF3D1384601F098FB0DF1C8
:1069100007008DF8074000F08DFED5F818340BB94C
:10692000029B6B609DF8070000F0A8FEDAE7D5F83F
:10693000104454B90C4B0D480D49C01AC00800044E
:1069400040F0020000F06EF8CCE7236820469B6818
:106950009847E3681C68ECE700267BE7AC2F002033
:1069600034C70200B82F002048C7020078C70200D1
:1069700010C802002DE9F74F284C80460F4692467A
:1069800001A9012218469B46D4F80890FFF7EAFDBA
:1069900080B3019D0026A91C5E4506EB010233D1A0
:1069A00000211F4801F060F880F310006A1C02EA21
:1069B000090204EB8202000405EA0903033340EAFA
:1069C0001840D06014F8232068F3C50204F823208F
:1069D00034F8232066F3891224F8232054F8232066
:1069E00067F39F2244F8232002F0F80242F00102EC
:1069F00004F8232094F820341BB1FFF7A9FE0028E7
:106A0000FBD103B0BDE8F08F09EA020204EB820279
:106A10005AF82630D3600136BEE700BFAC2F002005
:106A2000C833002000231A46FFF7A4BF07B501238F
:106A3000019201AAFFF79EFF03B05DF804FB07B5C2
:106A4000CDE9002302236A46FFF794FF03B05DF807
:106A500004FB000030B50F49D1F810240023144680
:106A60003CB9C468237152B9C1F8100422601846B9
:106A700030BDE46825799D4206D02468F0E7D268ED
:106A8000116821601060F2E701330A2BE7D14FF063
:106A9000FF33ECE7AC2F0020094A38B50123D2F8C8
:106AA000104482F820341D4604B938BDE3685D7196
:106AB000236820465B689847E3681C68F4E700BFDA
:106AC000AC2F0020037A052B10B50C460FD0437A6B
:106AD00023B1084A0849204601F06DF807492046CD
:106AE00001F069F82046BDE8104001F059B8002ACD
:106AF000F8D0F3E75BC8020060C8020080C802005B
:106B0000C38873B504460D4633B1144A0092144944
:106B1000144A284601F04FF8217A05291CD0637ADF
:106B20004BB1A088FFF7F4FD0F4B104953F820201C
:106B3000284601F040F8227A0D4BA08853F82260D5
:106B40000021FFF7C9FD0B4903463246284602B033
:106B5000BDE8704001F02FB802B070BD5BC8020004
:106B60006BC8020063C8020028C8020060C80200A7
:106B700090C8020083C802002DE9F04385B01F468B
:106B80000C9D002306460C46904695F80C902B73FE
:106B900029463846FFF7B4FFB8F1060F09D8DFE8F9
:106BA00008F00412181F283340003146284601F02F
:106BB00002F8002229463846FFF784FF85F80C903A
:106BC00005B0BDE8F08322683146284600F0F3FFA7
:106BD000EFE7D4E900233146284600F0ECFFE8E770
:106BE000A36800933146D4E90023284600F0E3FF70
:106BF000DFE7E3680193A36800933146D4E90023FB
:106C0000284600F0D8FFD4E723690293E368019394
:106C1000A36800933146D4E90023284600F0CBFF57
:106C2000C7E76369039323690293E3680193A36849
:106C300000933146D4E90023284600F0BCFFB8E7B2
:106C400008292DE9F84F80460E4617461C463AD8CB
:106C5000002593F80C901D7319461046FFF750FF5E
:106C6000DFF884A0DFF884B0AE422ED918F80520F2
:106C70005946204600F09FFF0135082DF4D11849F0
:106C8000DFF86CB0204600F096FF4FF0000A564542
:106C900020D918F80A507E2D03D8284605F01AFC92
:106CA00000B92E252A465946204600F084FF0AF1F5
:106CB000010ABAF1080FEAD1012221463846FFF74E
:106CC00001FF84F80C90BDE8F88F5146204600F093
:106CD00072FFD1E70349204600F06DFFE7E700BFF0
:106CE00056C8020054C8020052C802004CC8020034
:106CF00058C80200C30710B507D4F0234008054A5E
:106D0000145C23401943115410BD0901C9B20F236B
:106D1000F4E700BF9834002030B5094B1C78094BCC
:106D2000196800239C4202DC0022104630BD11F895
:106D30003350854201EBC302F7D00133F2E700BFC5
:106D400068340020A834002070B504460D46FFF7D3
:106D5000E3FF30B1436823B129462046BDE87040C7
:106D6000184770BD034B044819680022490800F019
:106D700064BA00BF6C3400207034002010B5C0B27B
:106D8000FFF7CAFF0446007801F068FE63785A1ED8
:106D900053425341834208D1044BD3E900231343A8
:106DA00003D1BDE81040FFF7DDBF10BD90340020D7
:106DB00037B54308364AD35CC2074CBF1B0903F002
:106DC0000F0304460D46042B36D8DFE803F00326F4
:106DD0002D393D0081B30121FFF78CFF00230DF118
:106DE00007008DF8073000F025FC0122A4F12003F4
:106DF000C4F12000274902FA03F322FA00F003430A
:106E000002FA04F4D1E9002014430343C1E900432A
:106E10009DF8070000F032FC0EE0002918BF0221A7
:106E20002046FFF767FF07E041B10321FFF762FF4C
:106E300001212046FFF788FF03B030BD0121EFE7B5
:106E40000029F9D10421EBE709B10321E8E7FFF7B5
:106E500051FF29462046FFF777FF0DF107008DF817
:106E6000075000F0E7FB0122A4F12003C4F1200049
:106E7000084902FA03F322FA00F0034302FA04F489
:106E8000D1E9002022EA040420EA0303BEE700BFA0
:106E900098340020903400202DE9F041124E134F19
:106EA00000243378A34208DC114BD3E900231343B9
:106EB00018D0BDE8F041FFF755BF3D6805EBC408A9
:106EC00015F8340001F0CAFD98F801104B1E594224
:106ED00059410A1A514215F834005141FFF768FF31
:106EE0000134DEE7BDE8F08168340020A8340020DA
:106EF00090340020092AF7B505460C4616463DD9C0
:106F000001F0EAFCD8B11E4B1E481D601E4B1F4FFE
:106F10001C701F4B002110221E6005F054FB1D4BFE
:106F200000200021C3E90001013CE4B20326FF2C4C
:106F30000BD1194A1948002100F074F903E001F05F
:106F400093FC0028DFD003B0F0BD20B29DF80630DE
:106F50008DF8046005EBC00223F007038DF80630BE
:106F600001A9937815F830008DF805303A4601F004
:106F7000BDFC013CE4B20028D9D0E4E70720E2E7F9
:106F8000A834002098340020683400207D6D020071
:106F90006C34002090340020996E0200F0C802008A
:106FA00070B5084D084E00242B789C4201D3002078
:106FB00070BD3368012113F8340001F00BFD01347A
:106FC000F2E700BF68340020A83400201FB500217C
:106FD000039001AA44F20100CDE9011100F004F888
:106FE00005B05DF804FB000010B572B6FFF754FD64
:106FF000FFF7AEFB0028FBD1104B114C1149E41AEE
:10700000E408240444F00100FFF70CFD0E4B1B685C
:10701000DB0700D500BE0D4944F00200FFF702FD7A
:10702000BFF34F8F0A490B4BCA6802F4E062134367
:10703000CB60BFF34F8F00BFFDE700BF48C7020022
:1070400078C70200FFC80200F0ED00E00BC90200A3
:1070500000ED00E00400FA0549B152B1531E1A4098
:1070600007D1826001608380C260104670470E20A5
:1070700070470920704710B58468C2688388121B66
:10708000934208D3C26813400268D154C3680133E5
:10709000C360002010BD0420FCE78268C3689A42E8
:1070A0000AD08268838813400268D35C0B708368BF
:1070B000013383600020704705207047D0E9022328
:1070C000D1E90201994208BF90422CBF0120002063
:1070D000704700002DE900480C4800F002FC0C4B02
:1070E000D3E9002312EB000B43F1000C094BD3E969
:1070F00000239C4508BF93455846614603D21BF1C7
:1071000080704CF10001BDE8008800BFE02A00203B
:10711000B03400202835002037B505460C460A4813
:1071200001A900F010FC60B10570446001A9064897
:1071300000F033FC18B1054800F0D8FB002003B084
:1071400030BD0420FBE700BF14350020E02A0020FA
:10715000194B1B782DE9304804461BB900252846F9
:10716000BDE830880028F9D0037F03F0FF05002B2D
:10717000F4D0FFF7AFFFD4E90223994208BF904251
:1071800015D3236903B92377D4E9053098472169DA
:107190000029E3D0237F03F0FF05002BDED0D4E9E4
:1071A000022312EB010B43F1000CC4E902BC21469F
:1071B000024800F0C4FFD2E7B83400201CC9020026
:1071C00013B5114B11491868019008235822104833
:1071D00000F0A6FB044698B90E4A0F4801A900F03A
:1071E00071FA044660B901210B4800F05DFB0123F0
:1071F0000A4A0948194600F0C3FA094B01221A70DD
:10720000204602B010BD00BF18C90200BC340020E7
:107210001435002085720200E02A0020FFFF7F0065
:10722000B83400203AB103685A614A1E51425141B4
:107230001961002070470720704738B5037F044666
:107240000D4683B98261FFF745FF421941F1000302
:10725000C4E90223236903B1256121460020BDE86A
:107260003840FFF759BF002038BD0023014603779F
:107270000120FFF751BF0000014800F032BB00BF02
:10728000E02A00202DE9F04F85B0074600F014FBFE
:1072900040B1594AD2E9003113F1807341F1000144
:1072A000C2E900310021384600F015FB38B1534CDB
:1072B000236823B12068FFF74BFF002323600121DF
:1072C000384600F008FB20B1FFF704FF4C4BC3E940
:1072D000000103A94B48494D4B4C4C4E00F06DFB4F
:1072E000002845D1DFF820A1444CDFF828B15046F2
:1072F00000F03BFF2368002875D07BB12368D0E9FC
:107300000201D3E90223994208BF90422DD223689B
:107310001B7F1BB12168504600F011FF504600F062
:107320001EFFD0E9026305460193FFF7D3FE019BE0
:10733000B6EB000863EB0109B8F1010F79F1000326
:1073400044DB334EB0453FD9FFF796FF82194FF427
:1073500096030021584600F033FA00283ED12368F6
:1073600013B9384600F004FA256005B0BDE8F08F87
:107370000378012B1DD05BB1022B11D14FF0000A15
:10738000204600F0ECFE002833D080F81CA0F7E780
:1073900041680B7F23B901230B77204600F0CFFE15
:1073A00003A9184800F034FB03A9164800F005FBB8
:1073B00096E741682B68994202D100232B60EFE7E2
:1073C000204600F0D5FEEBE7AA68C0E7002158464A
:1073D00000F077FA2846FFF7BBFE01E00D28F9D050
:1073E0000023236083E7002BBFD1384600F0C4F9A7
:1073F000BBE701233370D3E7B034002030350020E1
:1074000028350020143500201CC90200B8340020A3
:10741000FFFFB400E02A00200648074A0378074926
:10742000D35C012213B1043002F044B80C3001F0F7
:1074300007BE00BFE82A0020A43500205C350020EC
:107440000648074A03780749D35C012213B1043088
:1074500001F0DCBF0C3001F09DBD00BFE82A002028
:10746000A43500205D35002037B50578012D05D005
:10747000002D32D0022D25D003B030BD037A13B9D0
:10748000FFF7CAFFF8E743681A4C19782046FFF760
:10749000F2FD80B18DF800500190174B68461B68D3
:1074A0009847A168E368A2885B1A9A42E8D2134B16
:1074B00001221A70E0E7A268E3689A42F1D08DF8E1
:1074C0000000EAE7C3688DF800500193FFF7A4FFBE
:1074D000094B68461B689847CEE709490948FFF7FA
:1074E000DCFD10B9FFF7ACFFC6E703238DF80030D1
:1074F000EEE700BF38350020343500204835002045
:107500005D3500204C350020F0B51F46234B89B077
:1075100006461A600C4600293DD08A882048096832
:10752000FFF79AFD002834D1A289A1681D48FFF712
:1075300093FD00282DD11C4D0FCD6C460FC495E84E
:107540000F0084E80F0073690693337C174A1848CC
:107550008DF81C70003318BF01238DF81430737C34
:10756000002B14BF0E2300238DF81530F36802930F
:10757000B36803933368019369467368009301F01D
:10758000B1F830B90B4B18703368013301D0FFF7F5
:1075900043FF09B0F0BD0720FBE700BF34350020F2
:1075A000383500204C35002034C9020069740200CF
:1075B000E82A00204835002070B5084C01460848EC
:1075C0002678FFF76AFD054636B100232370FFF7E2
:1075D00023FF08B1FFF7FAFC284670BD48350020AC
:1075E0003835002010B501460E48FFF744FD04462B
:1075F000A8B90D480D4A0378D35C63B1043001F09B
:107600004DFF60B90A490748FFF747FD38B9BDE8A3
:107610001040FFF715BF0C3001F006FDF1E72046E2
:1076200010BD00BF4C350020E82A0020A435002002
:107630005D35002070B5EFF3108672B60C4A946881
:1076400001239CB993600B4B0B4DD3F8801029405C
:107650001160C3F88050D3F8841051604FF0FF32AE
:10766000C3F88420047006B962B670BD0370FAE7EF
:107670006035002000E100E0FC06FFBD084B9A6881
:1076800010B55AB150B9EFF3108172B6054A1C68B3
:1076900014605C685460986001B962B610BD00BFA8
:1076A0006035002000E100E0435882B03BB1002388
:1076B000435043580193019B012002B07047184684
:1076C000FBE70000F8B5224B4679224D43F826200F
:1076D000214A224BF7009B1AEA19DB0812791B0496
:1076E00032B143F002001E49FFF79CF90820F8BDB3
:1076F00002680C88C2F8084590F904208978002AAD
:10770000A8BF02F1604CD4B2BABF04F00F0EDFF88C
:1077100058C00CF5614C4FEA4111C9B2B4BF0CF826
:107720000E108CF8001352090121DFF840C004F05C
:107730001F042F4401FA04F44CF82240397145F833
:107740003600084943F00300FFF76CF90020CEE74C
:10775000743500206C35002048C7020088C702003D
:1077600066C9020088C9020014ED00E000E100E0F3
:10777000036801221A607047036801225A6070474B
:1077800073B501F15005AD000068ADB24FF480341F
:107790008C400026C0F80843C0F84843465101F524
:1077A000A8714559019522F07F42019D40F82120A2
:1077B000C0F844430BB1C0F8044302B070BD0000F0
:1077C0002DE9F74F884699464FF48036036808F153
:1077D00050058E404FEA880AAD00C3F84863ADB249
:1077E000C3F80863074603EB0A00D3F804154FF00B
:1077F000000B22F07F44D0F84025C0F8401543F834
:1078000005B05B590093009B531A23F07F43012B73
:107810000BD1244B4FF4806043F0010398473B6841
:1078200043F805B05B590193019B3868D0F80455C3
:10783000C0F84463631B23F07F43012B1AD108F582
:10784000A878184B013440F8284043F001034FF466
:10785000806098473B68D3F804359D4208D13B6867
:107860000020C3F84463C3F8046303B0BDE8F08F9D
:107870000D20FAE78244C9F1FF19CAF84045D0F853
:107880000435E21A013A22F07F4209F57F49914519
:10789000EED3002AE3D10134CAF84045D0F80425DC
:1078A0009342DBE760C9020003680222C3F8442365
:1078B00009B1C3F8042370474FF482710068FFF7E1
:1078C000F3BE4FF4803303FA01F10368C3F84813A1
:1078D000C3F8081370475031890089B20068FFF778
:1078E000E3BE0368D3F804057047000090F9043044
:1078F00001215A0903F01F0301FA03F34032024940
:1079000041F82230704700BF00E100E0024B034A1B
:107910001B681068184700BF743500206C350020C4
:1079200010B561B1B2FBF3F403FB1424A4B244B963
:10793000C0E9001484608281C381204610BD0E20FE
:10794000FCE70920FAE737B550E8013F9DB2C4894A
:1079500025448489A54228BF2D1B0489A54202BF66
:10796000BFF32F8F002207E0C5EA030540E801546A
:10797000002CE9D14FF001028DF803200193019B07
:107980009DF803200B6002F0FF0322B10B88006812
:10799000184403B030BD1846FBE70A884B889A426A
:1079A00009D150E8012FC2EA024240E80123002B2E
:1079B000F7D1012070470020704737B550E8023FEB
:1079C0001FFAA3F5C488A54202BFBFF32F8F002280
:1079D0000DE0C48925448489A54228BF2D1BC3EA34
:1079E000054540E80254002CE8D14FF001028DF823
:1079F00003200193019B9DF803200B6002F0FF031D
:107A000022B14B880068184403B030BD1846FBE72C
:107A10000A884B889A4209D150E8022FC2EA2242D2
:107A200040E80223002BF7D1012070470020704767
:107A300001F01F024B090121914000EB830000F08F
:107A40001DB801F01F0301229A404B0900EB83008F
:107A5000D14300F029B84B0901F01F0150F8230071
:107A6000C84000F00100704750E8002F0B4640E886
:107A7000003C9CF0000FF7D11046704750E8003FE3
:107A800043EA010240E8002C9CF0000FF6D11046BA
:107A9000704750E8002F02EA010340E8003C9CF0E8
:107AA000000FF6D11046704750E8003F03EA01028C
:107AB00040E8002C9CF0000FF6D11046704750E8CB
:107AC000003F03EB010240E8002C9CF0000FF6D1D0
:107AD0001046704750E8003FA3EB010240E8002C3D
:107AE0009CF0000FF6D1104670470121FFF7C6BF8A
:107AF0000021FFF7CEBF10B590B1D0E90123016896
:107B00009B1ADBB20A60013BDBB2FF2B026802D199
:107B10000020107110BD11684C1C14600B70F2E74E
:107B20000E20F7E737B5054600240DF107008DF864
:107B30000740FFF77FFD2A686B68116899420ED9EC
:107B4000481E106011F8014CEB68298A01FB0434CF
:107B5000AB6811791B1ADBB2994238BF13719DF8DB
:107B60000700FFF78BFD204603B030BD37B5054653
:107B700000230DF107000C468DF80730FFF75AFD82
:107B80002A681368591C1160E968641A298AB4FBD1
:107B9000F1F41C709DF80700FFF770FD03B030BDD5
:107BA000826810B504462AB14369016800699847A4
:107BB0000023A36010BD0EB403B5039921B104AB3B
:107BC00001AA019300F074F802B05DF804EB03B071
:107BD00070470A2938B504460D4602D10D21FFF73A
:107BE000F8FFA3682268591CA160D554D4E901327A
:107BF0009A4204D32046BDE83840FFF7D1BF38BDD4
:107C00002DE9F84F9946DDE90A4317468246884632
:107C10000A460126BA420FD24E4538BF4E4613F0EF
:107C2000010B01D164B900240125B9F1010F1AD962
:107C300009F1FF397D43F8E7B2FBF7F20136E9E7D6
:107C40009B070ED5B9F1000F0CBF30252025A642A9
:107C5000EAD2013C29465046FFF7BBFF002CF6D183
:107C6000E1E72025F3E7B8FBF5F39F42E2D9DFF81F
:107C70003C90B8FBF5F3504619F8031005FB138848
:107C8000FFF7A7FFB5FBF7F3BD4207D2BBF1000F2B
:107C900002D00CB1A64203D3BDE8F88F1D46E8E739
:107CA00020215046013CFFF794FFF2E79AC90200F9
:107CB0002DE9F74F054617468846002900F0308128
:107CC00018F8011B49B92B7B002B00F029812846AD
:107CD00003B0BDE8F04FFFF763BF252940F0C08037
:107CE000002698F800302D2B424608F1010823D0D9
:107CF000302B24D02B2B25D000242A2B02F101017C
:107D000023D13B681A1D1B683A601C440A4613784D
:107D10002E2B26D101324FF00009104610F8011B1E
:107D2000A1F1300CBCF1090F1DD80A2303FB091384
:107D3000A3F130090246F0E746F00106D1E746F02C
:107D40000206CEE746F00406CBE711F8013CA3F1AA
:107D500030000928DBD80A2202FB0434303C0A46F2
:107D6000CBE74FF0000912F8011B01F0FB00682877
:107D70009046F8D069290ED04AD8582964D006D840
:107D800025296DD098F80030002B99D19BE7632905
:107D900062D06429F6D13A68D2F800A0111D8AEAAF
:107DA000EA723960A2EBEA724FF0010B092A5BDC40
:107DB000CB4538BFCB462CB1BAF1000F01DB7207BF
:107DC00000D5013CB30702D5B9F1000F04D0F0078C
:107DD00002D4002C4ED10024BAF1000F52DACAF1BD
:107DE000000A2D212846FFF7F4FE06F00302022ABE
:107DF00005D1B9F1000F02D1002C47D10024CDE903
:107E000000464B460A2251462846FFF7F9FEB9E7DD
:107E100073294CD014D87029B4D13B681A1D3A602C
:107E2000302128461C68FFF7D4FE78212846FFF74A
:107E3000D0FE00220823CDE9003221461022E3E7DC
:107E400075292BD078299DD139680A1D3A60CDE972
:107E500000464B46102228E03B681A1D19783A600C
:107E60002846FFF7B6FE8DE70A230BF1010BB2FBA4
:107E7000F3F29BE7A345AFD220212846013CFFF750
:107E8000A8FEA6E77107B0D52B21ABE7A345B6D274
:107E900030212846013CFFF79CFEADE73968CDE96B
:107EA00000460A1D3A604B460A220968ACE73B6867
:107EB0001A1D3A6016F00106D3F800A020D1BAF1DD
:107EC000000F03D0504604F0D3FB0646B44200D95D
:107ED000C4B90AF1FF3A1EE028460136FFF779FEE1
:107EE0001AF806100029F7D1A642BFF44BAF002CB8
:107EF0003FF448AF20212846013CFFF76AFEF3E734
:107F00000026EDE720212846013CFFF762FEDDE771
:107F10002846FFF75EFE1AF8011F0029F8D131E765
:107F200003B0BDE8F08F2DE9F047B0F80690447932
:107F3000D2F800A09DF8208009FB04F4043C06461A
:107F40000AEB0300A0420F4688BFA4EB030A191DE9
:107F5000C2F800A0B1FBF9F509FB15114DB9A9EB69
:107F60000104544528BF5446BAF1000F04D1BDE8BE
:107F7000F0873668013DF1E704317B19701822461D
:107F8000B8F1000F0ED001461846AAEB040A04F01F
:107F9000F1FAD145254436684C464FF0000128BF20
:107FA0005446E1E71946F0E7FFF7A5BDF8B5467975
:107FB0000146721E0546002393422D6803D3002418
:107FC000A64202D8F8BD0133F6E70F682846FFF74E
:107FD000CDFD01343946F3E72DE9F843068ACD1C7F
:107FE0000746FFF79FFD043E35440446B5FBF6F512
:107FF000F0B14FF48073EDB28380C680013D07601D
:1080000081464FF00008A84512D23846FFF78AFD96
:10801000064648B163790133637108F10108C9F874
:10802000000007608146EEE72046FFF7BFFF3446B9
:108030002046BDE8F88301210430FFF740BD10B5AC
:10804000012104460430FFF745FD10F0FF0F04D175
:108050002046BDE81040FFF7A9BF10BD1FB5039231
:108060000022009203AAFFF75EFF05B05DF804FB53
:108070001FB503920122009203AAFFF754FF05B037
:108080005DF804FB41DF7047064B10B500241C70FF
:10809000054B1C60BFF35F8F0449054800F039F8B9
:1080A000204610BD8035002084350020ACC9020078
:1080B0007835002007B500230DF107008DF8073053
:1080C000FFF7B8FAF1EE103A23F09F03E1EE103A11
:1080D000BFF35F8F094B4022C3F884219DF807004E
:1080E000FFF7CCFA03F0ACFF20B1FFF7CBFF03B0F2
:1080F0005DF804FB20BF40BF20BFF8E700E100E0CF
:10810000836800225A609A60C3E90422DA601A6028
:1081100070470B684A684360934208BF00230160C0
:1081200008BF43607047436843B102689168526872
:108130000B449342436004BF00234360704770B513
:10814000446806460D46206818B1B368294698472A
:1081500018B923682B60256070BD2468F3E7436875
:10816000186808B102681A60704743681868704759
:108170004368186800B97047884203D102681A60E2
:108180000120704703460068F4E7000010B50D4970
:10819000A1F59472914201D800200FE08B1ADB10F8
:1081A00003EBD3735B1002EBC30452F8333083420A
:1081B00005D802D204F10802ECE7606810BD214640
:1081C000E8E700BF08CB020008B5FFF7DFFF024B6E
:1081D000002808BF184608BDCAC902000C4B1B780E
:1081E000062B10D10B4B1B681A070CD10A4B1868D1
:1081F00000F0F003302B08D000F0E000A0F14003C5
:10820000584258417047002070470120704700BF16
:10821000E00F00F0E40F00F0E80F00F0094B1B78CE
:10822000062B0CD1084B1B681A0708D1074B18689E
:1082300000F0F000A0F13003584258417047002090
:10824000704700BFE00F00F0E40F00F0E80F00F00F
:1082500008B5FFF7C3FF28B17D4B7E4A1B68C3F307
:1082600004231360FFF7DAFF10B17B4B7B4A1A60DF
:10827000FFF7B4FF28B17A4B7A4A1B68C3F3423345
:108280001360FFF7CBFF20B1774AD36823F08073E8
:10829000D360FFF7A3FF40B14FF080430022C3F843
:1082A0000C21C3F81021C3F83825FFF7B7FF10B130
:1082B0006E4B03221A60FFF7B1FF40B16C4B0522F1
:1082C0001A6001229A6700229A603F225A60694B25
:1082D0001B78062B50D1684B1B6819074CD1674B94
:1082E0001B6803F0F003502B46D14FF08052644BD3
:1082F000D2F80414C3F82015D2F80814C3F82415D2
:10830000D2F80C14C3F82815D2F81014C3F82C15A1
:10831000D2F81414C3F83015D2F81814C3F8341571
:10832000D2F81C14C3F84015D2F82014C3F8441531
:10833000D2F82414C3F84815D2F82814C3F84C1501
:10834000D2F82C14C3F85015D2F83014C3F85415D1
:10835000D2F83414C3F86015D2F83814C3F8641591
:10836000D2F83C14C3F86815D2F84014C3F86C1561
:10837000D2F84424C3F87025FFF730FF28B1414BF1
:10838000414A1B6803F04F031360FFF727FF48B112
:108390004FF08043D3F80024D20744BF6FF00102AE
:1083A000C3F80024394B1B68062B08D1384B1B68D7
:1083B000062B01BF374A136843F480631360364AC3
:1083C000D2F8883043F47003C2F88830BFF34F8F7F
:1083D000BFF36F8F4FF01023D3F80022002A03DB86
:1083E000D3F80432002B2FDA2C4B0122C3F80425DA
:1083F000D3F80024002AFBD04FF010221521C2F838
:108400000012D3F80024002AFBD04FF010231522CD
:10841000C3F80422214B1A46D3F800140029FBD0DC
:108420000021C3F80415D2F80034002BFBD0BFF3B1
:108430004F8F19491A4BCA6802F4E0621343CB60AC
:10844000BFF34F8F00BFFDE7164B174A1A6008BDF8
:10845000240300104035014074C007400DF0ADBA50
:10846000440200103C050040F0ED00E0A005004093
:1084700010560040E00F00F0E40F00F0E80F00F0AD
:1084800000C0004058020010E40E0040300100100F
:10849000340100103C17004000ED00E000E0014016
:1084A0000400FA05FC2A00200090D003054A4FF092
:1084B000A043105CD3F8043523FA00F0C04300F069
:1084C00001007047C6CE0200044B1A5C01239340A2
:1084D0004FF0A042C2F80C35704700BFC6CE020074
:1084E000044B1A5C012393404FF0A042C2F80835B8
:1084F000704700BFC6CE020008B50020FFF7F0FFAE
:108500000120FFF7EDFF0220FFF7EAFF0320BDE89F
:108510000840FFF7E5BF08B50020FFF7D5FF0120B1
:10852000FFF7D2FF0220FFF7CFFF0320BDE808408E
:10853000FFF7CABF074A4FF0A041105CD1F80435DD
:108540000122824022EA03001340C1F80805C1F865
:108550000C357047C6CE0200014B185C704700BF57
:10856000C2CE020038B5074C051E04F1080318BF3F
:108570001C4623682BB11A6822605B68284698471E
:10858000F7E738BD9035002020B9054B01225A701D
:10859000FFF7E8BF012802D1014A9070F8E7704761
:1085A0008835002020B9034B01225A70FFF7DABF4B
:1085B000704700BF8835002038B50B4C237883B94D
:1085C0000A486360A3602361E36000F0C7F80546D2
:1085D00003F036FD08B900F0CDF8012323702846DA
:1085E00038BD8525FBE700BF88350020898502005E
:1085F00037B50B4C00230DF107008DF80730FFF75E
:1086000019F8E368013BE360E56815B900F0C4F8C8
:10861000A5709DF80700FFF731F803B030BD00BF2B
:1086200088350020012813B509D018B103281CD0C3
:1086300002B010BD0F4B0122C3F88020F8E70E4CAA
:1086400000230DF107008DF80730FEF7F3FF2378C4
:108650000BB9FFF7B1FFE3689DF807000133E36052
:108660000123A370FFF70AF8E2E700F083F8FFF7B1
:10867000BFFFDDE700E100E0883500201FB503788B
:108680008DF800304368019383688DF80830C36823
:108690000393054A054B684653F8213052F82110E0
:1086A000984705B05DF804FB9C350020A0350020FC
:1086B0001FB503788DF800304368019383688DF807
:1086C0000830C3680393054A054B684653F82130C8
:1086D00052F82110984705B05DF804FB9C35002046
:1086E000A0350020F0B5184B077891F81DE043F84D
:1086F0002720164B16460A6943F82720144B03F827
:1087000007E00C4684460FCC89B06D460FC594E84F
:108710000F0085E80F000497BEF1000F0AD0002E6D
:108720000C4A694608BF32460CF1040000F0A8FD6F
:1087300009B0F0BD002E084A694608BF32460CF168
:108740000C0000F06DFBF3E7A03500209C35002005
:10875000A43500207D860200B1860200044A137908
:1087600023B9012110609180184670478520704719
:10877000A8350020074B1A68D2075FBFC02283F8D4
:10878000002301221A604FF080430122C3F818250C
:10879000704700BF00E100E0044B01221A604FF077
:1087A0008042D2F81834DB03FBD470470C00004041
:1087B000154B07B51A687AB100221A601B6800933E
:1087C000009B4FF080430122C3F808230F4B5879D8
:1087D00010B95A711B6898470D4B1A6882B1002274
:1087E0001A601B680193019B4FF080430222C3F87B
:1087F0000823064B1B68012003B05DF804EB184703
:1088000003B05DF804FB00BF00010040A835002064
:108810000401004000F1804000F5C040002382B018
:10882000036003680193019B02B07047800000F170
:10883000A040D0F8003723F44033C0F80037D0F818
:10884000003743EA0141C0F800177047054B4FF06D
:10885000FF32072843F8202084BF1B1883F84820E4
:10886000704700BFB035002010B5174C94F8583051
:1088700043BB04F130032021FF22013911F0FF0135
:1088800003F8012BF9D1C8B2FFF7E0FF01310C2941
:10889000F9D1042200210D4803F095FE0C4BC022B3
:1088A00083F8062340221A604FF4BE70FFF7B2FF30
:1088B000084B4FF00042C3F80423012384F85830DA
:1088C000002010BD0820FCE7B03500200436002051
:1088D00000E100E000600040034B93F858000030D6
:1088E00018BF0120704700BFB0350020F0B5374BEE
:1088F0001C1894F93040002C1C4664DA8D78C5F3BE
:108900004005002D0BBF082300230C260826B34288
:1089100001D10420F0BD54F8237001373FD126184F
:1089200044F8232086F8303015B9E21882F8480060
:108930008A78550713D4D60733D5820002F1A042B6
:10894000D2F8005725F00205C2F80057204EC5089E
:1089500000F007070122BA40775D3A4372558A78E2
:108960000D7812F0020225D09B0003F1804303F53D
:10897000C0430202D3F8101521F4473121F44071AD
:10898000C3F810152D04D3F8101502F4F85205F4AD
:1089900040352A430A43C3F810250020BAE70133C3
:1089A000B5E74D7800F5E0724FF0A046AD0046F80F
:1089B0002250CBE7083B234493F8501041EA851539
:1089C00083F85050E9E70820A4E700BFB035002045
:1089D0000436002038B51F4C251895F93020072A99
:1089E00017DD224492F84810890903290CD14FF071
:1089F000A043D3F81035C34013F0010F08BF022184
:108A0000BDE83840FFF712BF012914BF032102213E
:108A1000F6E7D3B2072B1CD8930003F1804303F58C
:108A2000C043D3F8100540F00100C3F8100502F16F
:108A30004000800080B2FFF7EDFE51B195F9303073
:108A400054F823302BB1012303FA02F2024BC3F88E
:108A5000042338BDB0350020006000404FF0A04333
:108A6000D3F8103523FA00F000F001007047000041
:108A70002DE9F04F85B000245A4D01944FF48072D7
:108A8000012102F1804303F5C04390B21B68012B22
:108A900006D1D5F804330B4202D0FFF7BBFE0C43DE
:108AA0000432B2F5907F4FEA4101EAD14E4B1B6888
:108AB000012B0AD14FF4BE70FFF7ACFE4FF0A0437C
:108AC00044F00044D3F81035019314F0FF0F1AD08E
:108AD000464F00250126344210D0AB0003F18043FD
:108AE00003F5C043D3F81005D3F8101557F8253017
:108AF00023B1C1F30141C0F3042098470135082D8B
:108B00004FEA4606E7D1002C64DA00224FF0FF332B
:108B1000CDE90223354D01274FF0000A344E54466B
:108B20004FF0A04816F9012B531C46D0D2B222F0C8
:108B3000C0094FEAD90104A8084402F0070310F85D
:108B400004CC07FA03F31CEA030F36D005EB090C3B
:108B500092099CF930C055F82CB0BBF1000F0AD136
:108B6000032A2AD10DF1080E1EF801C04CEA030CAD
:108B70000EF801C001E0032AF4D009F5E07110F805
:108B80000C0C58F821101842C1F3014105D00229FC
:108B900013D1032A0BD1114604E003290DD1032A76
:108BA00005D102214846FFF741FE0134E4B2BBF192
:108BB000000F02D011464846D8470AF1010ABAF11F
:108BC000040FAFD134B14FF0A043019AD3F8103560
:108BD000934202D105B0BDE8F08F0193029B03934D
:108BE0009AE700BF006000407C610040B035002083
:108BF00000360020014B1B68184700BF0C360020D0
:108C00000E4B984237B50D4602D0002003B030BD60
:108C100000230DF107008DF80730FEF70BFD084B20
:108C20001C7914B901221D601A719DF80700FEF726
:108C300025FD002CE9D01120E8E700BF002000400E
:108C40000C3600200023435082B043580193019B0F
:108C500002B070470A4610B54FF48E71FFF7F2FF6D
:108C6000136A9168C95C136A01331362C0F81C155A
:108C700010BD024608B54FF492710068FFF7E2FF9D
:108C80004FF484711068FFF7DDFF136801221A604A
:108C900008BD8B690A4610B54FF4847123B9FFF7FC
:108CA000D1FFD0F8183510BDFFF7CCFF536AD1685B
:108CB000D0F81805C854536A01335362F3E7000033
:108CC0001FB501238DF80030044BCDE90110D3E925
:108CD00000126846904705B05DF804FB143600208A
:108CE00030B54D4AD2F8043313F4007F85B01546F1
:108CF0004FD0D2F82431002B4BD04FF49271104654
:108D0000FFF7A0FF4FF40173C2F80833434B93F809
:108D1000291009B9012151603F4902228DF8002034
:108D2000D1F88024C1F8802403929A690292DA680B
:108D300001920022C3E906226846D3E90012904757
:108D40003548D0F81C315BB134494A690B6A9A4204
:108D50000A464BD991F82830002B47D1FFF77AFF0C
:108D60002D4AD2F8443193B14FF4A2711046FFF767
:108D700069FF2A4B93F8291009B1012111609A6902
:108D80002AB100229A61586AD968FFF799FF05B0A5
:108D900030BDD5F804335B07D2D5D5F80831002BA8
:108DA000CED01E4C1C482146FFF773FF636AA269B0
:108DB0009A422346C4D1E269E1684AB12369E3607B
:108DC0000023606AA261E3616362FFF779FFB7E79E
:108DD00094F829200AB901226A600F4A4FF4017001
:108DE000C2F8080300229A61586AEEE74FF48E71C8
:108DF0000948FFF727FF5369002BB1D05169029151
:108E0000002391688DF80030019153616846D2E9E2
:108E100000139847A4E700BF00200040143600204C
:108E20002DE9F843564F047991462C2202FB047237
:108E3000064692F82A200D46002A40F09A805149B1
:108E40000068FFF7DDFE8046002840F09580296825
:108E50003368481C0BD04FF0A04001228A40C0F874
:108E6000082501F5E0724FF0030C40F822C0686855
:108E7000421C1FBF00F5E0724FF0A04C4FF0000EF7
:108E80004CF822E0AA6995F814C0C3F824256A7D3D
:108E9000BCF1010F4CEA0202C3F86C25C3F81405BB
:108EA000C3F80C151DD1AA68511C1FBF02F5E07153
:108EB0004FF0A0404FF0000C40F821C0E968481C7A
:108EC0000BD04FF0A04C01208840CCF8080501F5EC
:108ED000E0704FF0030E4CF820E0C3F80815C3F81B
:108EE00010252C236343FA18C2F804902A69FA501B
:108EF000B9F1000F2AD04FF48E7130682D7FFFF743
:108F0000A1FE30684FF4A271FFF79CFE32681E4B41
:108F1000C2F80433120B51B20029A8BF01F160401E
:108F20004FEA4513BABF194802F00F0500F561403A
:108F3000DBB2B4BF435580F8003302F01F020123B7
:108F400003FA02F24909124B43F821203368042244
:108F5000C3F800252C2303FB04730022C3E9062277
:108F600083F829205A61012283F82A204046BDE86F
:108F7000F8834FF00808F9E74FF01108F6E700BF53
:108F800014360020E18C02008000020014ED00E0A5
:108F900000E100E02DE9F84F224F06794FF02C094F
:108FA00009FB067480466569002D38D16261A160B5
:108FB00025624FF48E71006884F82850FFF742FE56
:108FC000D8F80000012383602146FFF743FE636861
:108FD000A1469BB9D8F800A0D4F814B0236A9B45E9
:108FE00012D8D8F80020D2F81C31002BFBD0012376
:108FF000D3602C2303FB067300225A612846BDE888
:10900000F88F94F8283043B9DAF81C31002BF8D0E7
:1090100049465046FFF71EFEE0E70F25E9E7112518
:10902000ECE700BF143600200379044A2C2101FB31
:1090300003235869003018BF012070471436002000
:109040002DE9F843394E05792C2303FB05630746C8
:109050005C6824B103684FF40170C3F808032C2343
:1090600003FB0563986950B1D86900283ED024B14C
:109070003B684FF40172C3F80423112433E09A6172
:10908000D9605862D8612C2303FB056393F829301B
:109090001BB910B93846FFF7ECFD4FF02C0909FB5E
:1090A00005683868D8F80430002B34D14FF4A27129
:1090B000FFF7C8FDC1463868D0F82431D0F8082140
:1090C000D0F84441B2B90CB9002BF4D02C2202FBE9
:1090D00005650022AA6123BB2CBB95F829103B68CB
:1090E0000122B1B11A602046BDE8F8831961DA6146
:1090F0000120C8E7002BE9D1002CE7D14946FFF752
:10910000C8FDD8F82430D8F818209A42D3D823467E
:10911000DCE75A60E7E74FF40173C0F8043300243A
:10912000E1E70324DFE70F24DDE700BF143600206A
:109130000023435082B043580193019B02B0704713
:109140001FB501238DF80030044BCDE90110D3E9A0
:1091500000126846904705B05DF804FB40360020D9
:109160007FB5454AD2F82461002E63D010464FF4F3
:109170009271FFF7DDFF02238DF80030D2F88034C2
:10918000C2F880340393D2F83C3502933B4BDA6843
:1091900001920022C3E906226846D3E900129047F3
:1091A000354AD2F844317BB14FF4A2711046FFF733
:1091B000BFFF324B996939B10021C3E90611D96863
:1091C000D2F83C05FFF7BCFF2B4AD2F82031B3B1EF
:1091D0004FF490711046FFF7ABFF0123D360274B8C
:1091E000596961B1D2F84C150291002299688DF845
:1091F000002001915A616846D3E9001290471E4A47
:10920000D2F85831A3B14FF4AC711046FFF790FF7C
:109210001A4B596961B1D2F84C1502910022996834
:109220008DF8002001915A616846D3E900129047F9
:1092300004B070BDD2F81031002BB1D04FF488715A
:109240001046FFF775FF0D4BD2F83C05996988422F
:10925000A6D1DC69D96864B1D2F8005225F02005A6
:10926000C2F800521A699C61DA60DE61FFF768FF9C
:1092700096E79C61FAE700BF0020004040360020DE
:109280002DE9F8435C4F06799146242202FB0672D1
:10929000044692F820200D46002A40F0A780574946
:1092A0000068FFF7ADFC8046002840F0A2802968E6
:1092B0002368481C0BD04FF0A04001228A40C0F820
:1092C000082501F5E0724FF0030C40F822C06868F1
:1092D000421C1FBF00F5E0724FF0A04C4FF0000E93
:1092E0004CF822E0AA6995F814C0C3F824256A7DD9
:1092F000BCF1010F4CEA0202C3F86C25C3F80C154F
:10930000C3F814051DD1AA68511C1FBF02F5E071F6
:109310004FF0A0404FF0000C40F821C0E968481C15
:109320000BD04FF0A04C01208840CCF8080501F587
:10933000E0704FF0030E4CF820E0C3F80815C3F8B6
:10934000102524237343FA18C2F804902A69FA50AE
:10935000B9F1000F39D04FF4887120682D7FFFF7E5
:10936000E7FE4FF490712068FFF7E2FE4FF4927130
:109370002068FFF7DDFE4FF4A2712068FFF7D8FEEA
:1093800020684FF4AC71FFF7D3FE22681C4BC2F883
:109390000433120B51B20029A8BF01F160404FEA1B
:1093A0004513BABF174802F00F0500F56140DBB264
:1093B000B4BF435580F8003302F01F02012303FAC3
:1093C00002F24909104B43F8212023680822C3F810
:1093D0000025242303FB06730022C3E906225A61F9
:1093E000012283F820204046BDE8F8834FF00808AA
:1093F000F9E74FF01108F6E74036002061910200CE
:109400001003420014ED00E000E100E001F06043D1
:10941000B3F1005F2DE9F041074638D11E4B0679C4
:10942000242505FB063598466C69002C31D16A610C
:10943000A96000684FF49071FFF77AFE4FF4AC71A9
:109440003868FFF775FE3B686A69A968C3F8441578
:10945000C3F8482501229A606A68AAB9D3F8202186
:10946000D3F858411AB9002CF8D00F2407E0002C8B
:10947000FBD10122DA60D3F85821002AFBD0242343
:1094800003FB0686002373612046BDE8F0811024AB
:10949000FAE71124F8E700BF403600200379044AB8
:1094A000242101FB03235869003018BF01207047B5
:1094B00040360020F8B501F06043B3F1005F044688
:1094C0000F465ED10379304D242101FB03514868DA
:1094D00020B121684FF40476C1F80863242101FB10
:1094E00003539E6956B1D969002939D020B1236848
:1094F0004FF40472C3F80423112030E09A61DF6056
:10950000DE614FF488712068FFF712FE4FF4A271FC
:109510002068FFF70DFE2368C3F83475C3F83825BB
:1095200016BB01221A602179242202FB01525268E3
:109530000ABBD3F81041D3F84421D3F824011443D3
:1095400002D10028F5D02246242303FB0155002335
:10955000984218BF03209A42AB6118BF0F20F8BD94
:109560001F61DA610126CCE7D3F8002242F0200225
:10957000C3F80022D7E74FF40472C3F80423002095
:10958000EDE71020EBE700BF403600201FB5037861
:109590008DF800308388ADF8043083688DF806308C
:1095A000C3688DF807300369029343690393054A42
:1095B000054B684653F8213052F82110984705B002
:1095C0005DF804FB643600206C360020024B4FF43B
:1095D000807043F001031847F0CE02002DE9F047F8
:1095E000174690F80080324A42F82870314A42F813
:1095F00028304B7B81460C4663B30868496882007B
:109600008B0002F1A04203F1A04340F20C65C2F8C6
:1096100000570126C3F800574FF0A04506FA00F0A6
:1096200006FA01F1C5F80805C5F8081540F20D6104
:10963000C2F80017C3F80017FFF7C8FF4FF0000A81
:10964000D5F81025636822FA03F3DB070ED5BAF1CB
:10965000000F1ED1002F4346174A214608BF3A4645
:1096600009F10400BDE8F04700F0F0B9236806FAFC
:1096700003F3C5F80C35FFF7A9FF236806FA03F3D7
:10968000C5F808350AF1010AFFF7A0FFBAF1090F82
:10969000D6D1636801254FF0A04605FA03F3C6F85A
:1096A0000C35FFF793FF63689D40C6F80855D1E776
:1096B0006C360020643600208D9502000023435054
:1096C00082B043580193019B02B070474B6B8A6A8A
:1096D000934208D24A6AD25CC0F81C2501334B631E
:1096E00001231846704791F82C301BB10123C36148
:1096F0000023F6E70A6A12F0400F4FF0010215BF8F
:10970000C261426181F82D201346EAE791F82F20CB
:10971000F8B504460D46002A60D1D0F824314E6BCE
:109720008F6AB3B14FF49271FFF7C8FF01236361F1
:1097300085F82F30BE424FD1D4F80431002B4BD0E6
:109740004FF482712046FFF7B9FF002285F82D20E3
:1097500013E0D0F81C3193B14FF48E71FFF7AEFFD8
:10976000D0F824311BB14FF492712046DCE7294632
:10977000FFF7ACFF02460028DCD11046F8BDD0F858
:109780000831002BD6D04FF48471FFF797FFD0F843
:109790002431002BE7D16B6BA96A8B42CAD2696A6C
:1097A000D0F81805C8546B6BA96A0133481E834270
:1097B0006B6308D1286A40061DD40223C4F8003226
:1097C00001232362B6E78B42FAD12B6A5B06B1D53F
:1097D000022385F82D30D0E70122CEE74FF49271B5
:1097E000FFF76CFF4FF48E71FFF768FF4FF4847141
:1097F000FFF764FFA0E78B42E2D1E9E737B5344BCE
:1098000001930D464FF482710446FFF757FF4FF462
:109810009271FFF753FF4FF48E71FFF74FFF4FF434
:109820008471FFF74BFF00236B6385F82F30AB6A21
:10983000012B18D12B6A5B0615D4022395F82D2035
:10984000C4F80032022A4FF00103236218BF2360DC
:109850002B6893B140F28623AB60AB68C4F8043345
:10986000002003B030BD0123E8E729462046FFF77A
:109870004DFF28B1019B013B0193019B002BF4DCC0
:1098800095F82F305BB90020019B002BE9DC002309
:10989000C4F800350523C4F800350320E1E7D4F807
:1098A000C434C4F8C434002BEDD013F0010F14BF3E
:1098B0004FF40240032048F2012213F0020F18BFB8
:1098C000104613F0040F48F2022318BF1846DBE7D6
:1098D000A086010037B5314B01930D464FF48271DC
:1098E0000446FFF7EBFE4FF49271FFF7E7FE4FF4EB
:1098F0008E71FFF7E3FE4FF48471FFF7DFFE002364
:1099000095F82D20C0F800326B6385F82F300123C5
:109910009A420362294618BF8360FFF7D7FE2B687F
:1099200083B140F28623AB60AB68C4F804330020F7
:1099300003B030BD29462046FFF7E8FE28B1019B61
:10994000013B0193019B002BF4DC95F82F305BB9B0
:109950000020019B002BEBDC0023C4F8003505231D
:10996000C4F800350320E3E7D4F8C434C4F8C434A1
:10997000002BEDD013F0010F14BF4FF40240032071
:1099800048F2012213F0020F18BF104613F0040F23
:1099900048F2022318BF1846DBE700BFA08601008B
:1099A000F0B5274C274887B02146FFF7AFFEA44605
:1099B000D8B994F82F70266AE7B9237B9A1E012A3A
:1099C00018D8616AA269914214D1E2696262C6F351
:1099D00040166269A262032B84F82C6084F82D7013
:1099E0002146184803D1FFF775FF07B0F0BDFFF718
:1099F00005FFFAE7144D0FCD01AC0FC42B682360AF
:109A0000DFB1104AD2F8C434C2F8C43498070CD578
:109A100001238DF8003000238CF830307307E4D434
:109A2000DCE9003168469847DFE7590701D5022392
:109A3000EFE7DA07EFD50323EBE78DF80070EAE7ED
:109A40007436002000300040803600202DE9F84FA9
:109A50000679344D4FF03C0808FB06F805EB080486
:109A60009B4694F82E3081460F469246002B54D1E7
:109A70002D490068FFF7C4F8002850D139687B7B76
:109A800084F8383001F5E0724FF0A043A060C4F8CC
:109A900004B084F8300084F82D0084F8310040F2DE
:109AA0000C6445F808A043F822407A6802F5E07C8F
:109AB00043F82C40D9F80030C3F80815C3F80C253A
:109AC000BA68C3F82425BAF1000F1ED01B0B59B297
:109AD00000293A7BB4BF154C01F16044DBB2B8BF3A
:109AE00003F00F074FEA4212A8BF04F56144D2B257
:109AF000B4BFE25584F8002303F01F03012202FAE9
:109B000003F349090A4A42F821303C2303FB065576
:109B1000012385F82E30BDE8F88F0820FBE71120DF
:109B2000F9E700BF74360020A199020014ED00E0AF
:109B300000E100E0026803790521C2F80015044A3B
:109B40003C2101FB0323022283F82E20704700BF33
:109B5000743600202DE9F047324D90F80480D0F89B
:109B600000903C2303FB08530E4693F82D30012B45
:109B7000964604D10B78012B06D1082011E0022B68
:109B800002D10B78012BF8D13C24274BC9F80833BC
:109B900004FB085494F830302BB1A368C9F804339F
:109BA0001120BDE8F0878EF00403C3F3800384F82E
:109BB0003030C4F820E0B446BCE80F0004F10C07D4
:109BC0000FC7DCF800303B607368A362F368636220
:109BD0007378C9F888353378C8EB081A012B05EB80
:109BE0008A0A1AD0B3B9CEF3401E3C2303FB0853B4
:109BF000514683F82CE04846FFF76CFE3C2303FBFC
:109C000008F805EB080255F80830002BC9D182F896
:109C10003030C6E74FF0010EE7E751464846FFF700
:109C2000EDFDEBE7743600208642040010B586B0E7
:109C30000024CDE902349DF820308DF80510A342B0
:109C4000CDE9042401A914BF202222468DF8044046
:109C5000FFF780FF06B010BD08B5094B1B7853B164
:109C60000020FEF73DFC0120FEF73AFC0320BDE892
:109C70000840FEF735BCBDE80840FEF73DBC00BF1C
:109C8000B0360020F8B57B4C237805461BB1002385
:109C90002370FFF7E1FF172D00F28880DFE805F061
:109CA0000C17174354657680888D888D959A9A9AFB
:109CB0009A9AC4C9D1D9E4E4FFF7CEFF6E48FDF704
:109CC000D4FA6E4B002204461A702046F8BD0020DC
:109CD000FEF7ECFBF8B10020FEF702FC022D0CBFF2
:109CE0004FF4E1614FF47A61644B1D704FF4004012
:109CF0004FF47A740025E0FB01454FF4FA6200232B
:109D00002046294602F026FB002201465A48BDE8BB
:109D1000F840FDF792BAFEF7D7FB022D0CBFC82121
:109D20004FF4C871E0E70020FEF7C0FB40B100200F
:109D3000FEF7D6FB4FF44871504B03221A70D5E75B
:109D4000FEF7C2FBC821F7E70020FEF7AFFB38B1F2
:109D50000020FEF7C5FB4FF47A61484B0422EDE783
:109D6000FEF7B2FB4FF4C871F7E70020FEF79EFB49
:109D700048B10020FEF7B4FB404B05221A7040F6B4
:109D8000CD410022C2E7FEF79FFBF5E70020FEF77A
:109D9000D1FB3A4B06221A70002240F26661B5E709
:109DA0000020FEF791FB354B07221A7000248CE748
:109DB00001202070FEF7BEFBEEE701202070FEF7C9
:109DC000B9FB00224FF40051A0E7FEF7A4FB2B4B98
:109DD0000C22EAE72A482B4EFDF747FAD5F1110588
:109DE00004461CD0D8B9012D13D0C8235D434FF4CD
:109DF00000474FF47A7000214FF4FA620023C7FB4A
:109E0000050102F0A7FA224601461D48FDF715FAA2
:109E100004460220FEF758FB0123337055E7022069
:109E2000FEF75EFB0023F8E7FFF716FF134B122245
:109E3000BBE7FFF711FF0020FEF746FB0F4B132295
:109E4000B3E7FFF709FF0120FEF73EFB0B4B14229F
:109E5000ABE7FFF701FF0020FEF736FB0120FEF71E
:109E600033FB064B1522A0E7FEF755FB034B1D7095
:109E70009CE700BF08370020D836002009370020B3
:109E8000B8360020B0360020044B1B6813F00103E5
:109E900001D0FFF7F7BE1846704700BF0437002017
:109EA000032813D8012A0BD1012908D100F10E0291
:109EB000D2B200EB40000C4B1A5400207047002235
:109EC0000129F6D04BB24BB1022901D007207047CF
:109ED000054B00EB400018444270EEE7024900EBEE
:109EE000400008448270E8E7F8360020032808B5EF
:109EF00012D8FEF731FB800000F1A040D0F8003707
:109F000023F44033C0F80037D0F8003743F440332F
:109F1000C0F80037002008BD0620FCE708B5012284
:109F200002210020FFF7BCFF08B1072810D107224B
:109F300002210120FFF7B4FF08B1072808D1002152
:109F40000A220846FFF7ACFF10B1072808BF00201F
:109F500008BD00000388102B10B502D0112B1ED0B5
:109F600010BD1A4C2168B1B901220846FFF798FFCD
:109F700008B1072824D1072202210120FFF790FF12
:109F800008B107281CD1042202210020FFF788FF16
:109F900008B1072814D1236801332360E0E70B4A96
:109FA0001368013B1360002BDAD1FFF7B7FF0028DD
:109FB000D6D0074B1B68002BD2D0BDE81040184705
:109FC000034B1B68002BE6D09847E4E710370020CE
:109FD0000C37002008B50020FFF788FF08B10628DD
:109FE00006D10120FFF782FF10B1062808BF00202C
:109FF00008BD76DF70477ADF70477CDF70477FDF10
:10A0000070478FDF7047B1DF704733DF7047FCF771
:10A01000DDBF08B50020FFF737FF08B1FCF7D6FF1A
:10A02000FFF7D8FF08B1FCF7D1FFFFF7EEFF18B13B
:10A03000BDE80840FCF7CABF08BD00000388212B1B
:10A0400013B504463BD01FD8112B28D0132B3ED07C
:10A05000102B32D1264B27482749C01AC0080004CC
:10A0600040F00300FCF7DEFC0720FFF70DFF08B10E
:10A07000FCF7ACFF214BA1882148198001F0B2FD0B
:10A08000D8B1FCF7A3FF18E0522B28D0562B01D0F3
:10A090003B2B12D11321A088FFF7ABFFF0E7144B45
:10A0A00014481849C01AC008000440F00300FCF727
:10A0B000B9FC124B4FF6FF721A8002B010BD00239C
:10A0C00001A98088ADF80430FFF79BFFD8E70B4863
:10A0D00000231A4685210088FFF791FFD0E7074843
:10A0E00000231A4619460088FFF78DFFC8E700BF16
:10A0F00048C7020078C7020014CF0200062B0020D8
:10A10000583C00201ECF02000D4B4A881B889A4203
:10A1100014D10A8840F677239A420FD18B88094AD6
:10A1200009480A49033B9BB21380094A801AC008B8
:10A1300000041A4640F00300FCF781BC704700BFE2
:10A14000062B0020042B002078C702002BCF020032
:10A1500048C7020008B503784BB9054B3B21188866
:10A16000FFF747FF18B1BDE80840FCF72FBF08BD57
:10A17000062B002008B548B103280BD10220FFF7B9
:10A1800083FE38B1BDE80840FCF720BFBDE80840B9
:10A19000FFF73FBF08BD00000378012BF7B534D0AF
:10A1A0001BB1022B31D003B0F0BD1A4C1A4D2078F0
:10A1B0002844FDF701FA23780133DBB21D442370F4
:10A1C00015F8012C0A2A05D00D2A03D0134A12884B
:10A1D0009A42E8D8012B15D9114D0F4E114F237813
:10A1E000ADF806300DF106022B883146384601F0F5
:10A1F0006BFE082806D01328F1D0052802D008B13C
:10A20000FCF7E4FE00232370CDE74068FCF7DEFE98
:10A21000C9E700BF0838002014370020042B0020B5
:10A22000062B0020082B00202DE9F041057806467A
:10A2300045BB154C154BDFF85880E41AE40824049C
:10A2400044F00104B28A95420AD33369134413F8E7
:10A25000013C0D2B16D10A20FDF7C4F91128F9E7AE
:10A260003369585DFDF7BEF9074648B11128F7D0AC
:10A27000024641462046FCF7D9FB3846FCF7A6FECD
:10A280000135DFE7BDE8F08178C7020048C702006A
:10A2900057CF0200FCF79ABE08B50849084801F0FC
:10A2A0008DFB08B1FCF792FEF721054801F09AFBFF
:10A2B00018B1BDE80840FCF789BE08BD09A102003D
:10A2C000403C002000B5664D0FCDB1B005AC0FC4C9
:10A2D00095E80300634B644A01934FF4807384E86C
:10A2E0000300CDE903230293604A072301A905A8CF
:10A2F000FDF70AF908B1FCF769FE00F02BF94FF4FD
:10A3000080410020FCF7CAF908B1FCF75FFEFCF7BA
:10A31000FBF8FCF755FF08B1FCF758FEFDF7B4FE5B
:10A3200008B1FCF753FE01F04DFE08B1FCF74EFEFC
:10A33000002305A90120059301F0D2FE08B1FCF726
:10A3400045FE05A801F09CFF08B1FCF73FFE112374
:10A3500047488DF8043002F08BF9454982B201A8D4
:10A36000FFF74BFE08B1FCF731FE0021082205A8DB
:10A3700002F029F93F494FF0C87305A8CDE905134C
:10A38000FFF739FE08B1FCF721FEFFF785FF3A4BD6
:10A390003A48059305A901F013FC08B1FCF716FE35
:10A3A000042200210DEB020002F00DF9344B354878
:10A3B000019301A901F012FD08B1FCF707FEAC22E0
:10A3C000002105A802F0FFF802238DF814304FF4A5
:10A3D000A0632D4AADF816300123ADF86030199214
:10A3E0008DF89030402244F25063CDE9272305A92F
:10A3F000264B27482E9300F00AFE08B1FCF7E6FD35
:10A400000121234800F000FE1C22002105A802F0D3
:10A41000DAF800234FF4A032CDE90532ADF822304E
:10A420004FF4F0228DF824301A4B07920A9303223E
:10A43000194B8DF8202005A80B9301F0A7F808B15F
:10A44000FCF7C4FD00F012F900F07CFA00F08CF982
:10A45000FCF77EF90028FBD1FDF72CFEF8E700BFE2
:10A46000FCCE0200643C0020643D002099A1020063
:10A4700047CF020010003C000FA00200583C002013
:10A4800029A20200082B0020002B002075A1020049
:10A490000C38002055A1020095A202001FB5002330
:10A4A0008DF80C308DF80D00009303AA02233C2197
:10A4B0000448FFF7BBFB08B1FCF788FD05B05DF869
:10A4C00004FB00BF9CCF020010B500EBC1120A4B89
:10A4D00061F04F010446C8B21A60FFF7DFFF04F0D5
:10A4E0000F00FFF7DBFFC4F3031040F01000BDE8DE
:10A4F0001040FFF7D3BF00BF643E002070B5A4B08A
:10A5000040230A460C46064601460DF10D008DF823
:10A510000C3002F02FF80022631C0092DBB203AA79
:10A520003C210948FFF782FB08B1FCF74FFD074DBE
:10A5300007482B6822463146184402F01BF82B6866
:10A540001C442C6024B070BD9CCF0200643E0020EF
:10A550006C3E00201FB51B211A22CDE900124FF0DE
:10A56000CD62002302920222039369468DF80C20EB
:10A5700006481A46FFF732F808B1FCF727FD0448F1
:10A58000FFF7D8FA05B05DF804FB00BF98CF0200D2
:10A590009CCF020037B50B46C91000EBC114B4F5CF
:10A5A000806F1BD20F4D2D5D03F007040123A340E4
:10A5B0005BB26CB282B924EA03038DF807309DF8D0
:10A5C0000730AB4206D0FFF77FFF01210DF10700F6
:10A5D000FFF794FF002003E02343EEE74FF0FF3046
:10A5E00003B030BD6C3E0020022BF8B506460F4686
:10A5F000144602D94FF0FF30F8BD104602F038F88B
:10A600000546062039467043FFF75EFFAB19152B50
:10A61000C8BFC6F11505002DECDB084E2544AC4241
:10A6200001D10020E8E714F8010B00EB40000621FF
:10A6300006EB4000FFF762FFF1E700BF672B002049
:10A6400010B5A0B001468022684601F0BCFF00248E
:10A6500021460020FFF738FF013480216846FFF7CC
:10A660004DFF082CF4D1002020B010BD70B5104B68
:10A6700088B002AC03F110062246186859682546D6
:10A6800003C50833B3422C46F7D118689B88AB80CA
:10A69000002328603C21009306481623FFF7C6FAE2
:10A6A00008B1FCF793FC0020FFF7CAFF08B070BDAB
:10A6B00082CF02009CCF020070B50546002400F155
:10A6C0001406012229462046FFF764FF2046012296
:10A6D00031460134FFF75EFF802CF2D10024661969
:10A6E000012231460020FFF755FF01340122314697
:10A6F0007F20FFF74FFF142CF1D170BD08B5042067
:10A7000001F0EEFE054B0360054B4360054B836093
:10A7100001230373044B186008BD00BF2C2B0020DD
:10A720003F2B0020522B0020683E002010B50D4C1E
:10A730001120FFF7C1FF22680223126803210120C4
:10A74000FFF752FF22680223526805210120FFF71C
:10A750004BFF22680223926807210120BDE81040C8
:10A76000FFF742BF683E002008B5FFF7C7FFBDE80E
:10A770000840FFF7DBBF10B5022400221821204655
:10A78000FFF708FF002219212046FFF703FF0022F0
:10A790001A212046FFF7FEFE00221B212046FFF76C
:10A7A000F9FE00221C212046FFF7F4FE00221D21A5
:10A7B0002046FFF7EFFE00221E212046FFF7EAFEAB
:10A7C00000221F212046FFF7E5FE00222821204617
:10A7D000FFF7E0FE002229212046FFF7DBFE0022E2
:10A7E0002A212046FFF7D6FE00222B212046FFF724
:10A7F000D1FE00222C212046FFF7CCFE00222D2185
:10A800002046FFF7C7FE00222E212046FFF7C2FE9A
:10A8100000222F212046FFF7BDFE002238212046CE
:10A82000FFF7B8FE002239212046FFF7B3FE0022D1
:10A830003A212046FFF7AEFE00223B212046FFF7DB
:10A84000A9FE00223C212046FFF7A4FE00223D2164
:10A850002046FFF79FFE00223E212046FFF79AFE8A
:10A86000204600223F210134FFF794FE7E2C84D144
:10A8700010BD000070B50446C8B91B4CFFF77BFF44
:10A8800022680223126803210120FFF7ADFE22682F
:10A890000223526805210120FFF7A6FE2268926874
:10A8A000022307210120BDE87040FFF79DBE01286B
:10A8B0000ED10D4DFFF75FFF2A6802235268032176
:10A8C0002046FFF791FE2A68022392680521E9E7F6
:10A8D000022807D1FFF74FFF034B1A6803212346D5
:10A8E0009268DFE770BD00BF683E00200020FFF7E0
:10A8F000A7BE000001290ED1074B1A78013252B2CF
:10A900001A701A7852B2022AC4BF02221A7018783A
:10A9100040B2FFF7AFBF70476C42002001290DD154
:10A92000074B1A78013A52B21A701A78120644BFCD
:10A9300000221A70187840B2FFF79CBF704700BF22
:10A940006C42002008B54FF0A0430C22C3F8142736
:10A950000321C3F81C270848C3F82C270A22FCF758
:10A96000C9FA08B1FCF732FBFCF71AFB18B1BDE8D5
:10A970000840FCF72BBB08BD682E00200369C168A6
:10A980008B429DBF8268D21802F1FF3203F1FF3380
:10A9900094BF501A581A70472DE9F041D0E902745B
:10A9A00005463E1B4068964220448846144404D91C
:10A9B00001F0E0FDEC60BDE8F0813246E41B01F0FF
:10A9C000D9FD224608EB06016868F1E72DE9F84356
:10A9D000C5680646894617464FF000083469B368D3
:10A9E0007068A54228BFE418013C621B5C1BBC4296
:10A9F00028BF3C46944228BF144649462844224674
:10AA000001F0B8FDB3682544AB4208BF00253F1BE9
:10AA1000A044A144F560E1D14046BDE8F8830000C0
:10AA200010B5114C114AA2610223C4E90433104B42
:10AA3000E361A2644FF400730E4A2362E2640023D0
:10AA400010220D49A362E01D6362E362A3656365A2
:10AA5000E365226501F0EAFD0849204601F0E6FDC4
:10AA60002023A37110BD00BF70420020A8CF0200B8
:10AA7000F8420020E8420020B1CF0200B5CF02002A
:10AA8000F8B5184C182300FB033503FB00402544A0
:10AA9000C46A012C0F46164611D024B1022C1BD0DB
:10AAA00000242046F8BD2846FFF768FFB042F8D3DF
:10AAB000324639462846FFF76FFF3446F1E728460D
:10AAC000FFF75CFF8642344628BF044622463946DB
:10AAD0002846FFF761FFE4E72846BDE8F840FFF7A6
:10AAE00075BF00BF70420020FFF79ABF6DDF70474F
:10AAF00079DF70477DDF704764DF70472DE9F04FE5
:10AB000085B000250E9CBDF83CB027880191804699
:10AB100091469A462E46B8F80020B2420CDC3DB170
:10AB20002288013AD21B92B2FF2A3BD80AF80720AA
:10AB3000002005B0BDE8F08FD8F8042052F82600B8
:10AB4000039000220DF10B0103A8FFF7D5FF0028A9
:10AB5000EFD19DF80B204A4522D12288002D14BF49
:10AB60000020022002EB0901014459451ADC45B9D5
:10AB7000013292B2019B22800AF80230228801320F
:10AB8000228022880DF10B01524403A8FFF7B4FF85
:10AB90000028CED121889DF80B200A44228001256F
:10ABA0000136B8E70C20C4E72DE9F341089CBDF855
:10ABB00024501746CDE90045022206469846FFF785
:10ABC0009DFF50B94346102239463046CDE908452D
:10ABD00002B0BDE8F041FFF791BF02B0BDE8F081DF
:10ABE0002DE9F04F00231688138090F82D3085B0A2
:10ABF00007460D46144653B3082E01D80C2027E112
:10AC000002A8FFF773FF002840F022812388082262
:10AC1000EA54238801339BB21B222380EA54208804
:10AC2000013080B2208006220DF10901284401F094
:10AC3000A1FC23889DF8082006339BB212F0FE0287
:10AC400018BF01222380EA54238801332380BB7874
:10AC5000FBB123880433B342D0D802A8FFF748FFE2
:10AC6000002840F0F58023880322EA54238801332A
:10AC70009BB219222380EA542388BDF808200133AF
:10AC80009BB2E9182380EA54120A4A7023880233DF
:10AC90002380FA789AB12388D91CB142AED8022118
:10ACA000E954238801339BB201212380E95423888E
:10ACB0000B449BB22380EA5423880B4423807A6898
:10ACC000AAB12388D91CB14298D8022192F9002058
:10ACD000E954238801339BB20A212380E954238855
:10ACE00001339BB22380EA542388013323803B89BC
:10ACF000002B40F0A1803B8A5BB1CDE900462B469A
:10AD00000722032107F11000FFF74EFF002840F053
:10AD10009F803B8B5BB1CDE900462B461522142169
:10AD200007F11800FFF740FF002840F091803A6AD1
:10AD3000002A40F09080D7F82480B8F1000F30D07E
:10AD4000B8F804302188981C8A1C0244B2423FF6AD
:10AD500055AFFE283FF652AF03336B5423880133BF
:10AD60009BB2FF222380EA54238801339BB22380C5
:10AD7000B8F80020EA54E918120A4A702088023014
:10AD800080B22080B8F804205AB1D8F80810002901
:10AD90006BD0284401F0EEFB2388B8F8042013445C
:10ADA000238097F82C30002B40F09A8038780028C8
:10ADB0004ED03B88012B58D0228802F1020CB445BA
:10ADC0003FF61CAF012805D17B78023313449E4225
:10ADD000FFF414AF023EB61AB6B202A905EB0C009E
:10ADE000ADF80860FFF786FE90BB3978BDF8082003
:10ADF000022900F0BA807B78934202D3B24240F23B
:10AE0000B280012940F0B3809BB29E42C0F0AF8077
:10AE1000ADF808300821BDF80830FE2B3FF6EEAE45
:10AE200022880133AB542288013292B22280A95485
:10AE30002288134423800BE0CDE900462B460622EE
:10AE4000022107F10800FFF7AFFE00283FF453AFDF
:10AE500005B0BDE8F08FB4F800C00CF10603B342B2
:10AE60003FF6CCAE1188052901D80720F0E76FF432
:10AE7000486E01EB0E039BB24FF27D3E7345F4D951
:10AE80005388052BF1D96FF44860181880B27045CB
:10AE9000EBD94FF6FF70814203D0834201D0994233
:10AEA000E3D8052305F80C30238801339BB2122127
:10AEB0002380E954238801339BB223801188E9540D
:10AEC000E818090A4170238802339BB22380528814
:10AED000EA54E918120A4A702388023323802AE7C9
:10AEE000BB6A002BC1D04FF000094FF00C0A4FF0A5
:10AEF000160B97F82C305FFA89F293427FF656AF23
:10AF0000B96A0AFB02F201EB0208B8F80430981C97
:10AF1000FE283FF673AE208803332B542388013379
:10AF20009BB2238005F803B0238801339BB22380B2
:10AF30008A5AEA54E918120A4A702088023080B20C
:10AF40002080B8F804205AB1D8F8081000298CD015
:10AF5000284401F00FFB2388B8F804201344238011
:10AF600009F10109C5E7092155E7B242FBD9ADF85E
:10AF700008604FE770B5E0B14AB116880024B442CA
:10AF800003D305196D789D4208D0A14201D8002055
:10AF90000FE0055D01352C44A4B2F0E7A142F6D9DB
:10AFA000005DA31C01389BB280B21C188C42EEDC01
:10AFB000138070BD13B50023ADF8063013460DF1B4
:10AFC00006020446FFF7D6FF10B1BDF80600204484
:10AFD00002B010BD72DF704773DF704738B50122D1
:10AFE00004460D46B0F81414D0F81004FFF7E2FF41
:10AFF00000B1057004F13C0204F5826104F15400D3
:10B00000BDE83840FFF7E6BF80F830107047F8B56C
:10B0100004460F46002975D0002873D091F87A3085
:10B020001BB191F89830002B6ED1D7F8A030042BCB
:10B030006AD0D7F89C30042B66D007F178060FCE83
:10B040004FF0000C251D84F802C00FC50FCE0FC5B0
:10B0500096E8070085E8070084F830C0D7F8A430E8
:10B060006363D7F8A830A3634FF6FF7504F58263D6
:10B07000C4F82034A4F824540722614604F2264080
:10B0800001F0A1FA23780BB984F8545094F82430D5
:10B09000002B14BFEE231F2304F15501C4F8101434
:10B0A000A4F8143404F214423846FFF799FD40BB6B
:10B0B00094F82430002B14BFEE231F2304F2312117
:10B0C000C4F81814A4F81C3404F21C4207F13C0024
:10B0D000FFF786FDA8B9A369A4F848304FF4807340
:10B0E0000125A4F8503063692064014684F83C507F
:10B0F000636404F13C0204F15400FFF76BFF00B9F4
:10B100002570F8BD0E20FCE70720FAE7F8B50778B0
:10B1100004460D46002F00F0038100F22646A17080
:10B1200007220021304601F04EFAE38813B1A378DC
:10B13000012B04D0E3794BB1A378022B06D1636BCA
:10B14000A3B1012284F82D2408209847334604F245
:10B150002C4113F8012F12B98B42FAD117466B1EFE
:10B16000032B51D8DFE803F0050B0F1284F82D34C0
:10B17000ECE7A3791BB194F8243003B95FB9E37904
:10B180000BB1002F42D1237A002B41D1637A002BDF
:10B190000CBF00250425636BA570002B3AD0033D3E
:10B1A000012D37D86279AAB394F82E2492BB84F883
:10B1B0003024012284F82F240720984704F13C050D
:10B1C00018220021284601F0FEF9E26A531E0121EF
:10B1D000022B28BF0A4684F8512094F8242084F8D2
:10B1E0003C1032B1A36A581E022828BF0B4684F8CF
:10B1F0005230A178002384F8503004291BD8DFE8AE
:10B2000001F0770D223559000025C4E70225C2E779
:10B210000325C0E7002384F82F34CFE7C4F8203497
:10B22000C4E910630223012284F83C30802384F8AF
:10B230003120A4F84830A378002B5CD1636B002B3D
:10B240006AD1002067E00223002A84F8313014BF5D
:10B250000723032384F83C302369A4F848300023F3
:10B26000C4F82034E36826646364E4E763696364D4
:10B27000A369A4F8483012B1062384F83C306379FE
:10B28000B3B194F82E349BB994F8303483B10223CF
:10B2900084F8503004212046FFF7A0FE0028CAD1D0
:10B2A000052384F8313004F58263C4F82034C2E702
:10B2B0000323F6E7E3696364236AA4F8483012B114
:10B2C000062384F83C30637983B194F82E346BB94B
:10B2D00094F8303453B1022384F8503004212046CE
:10B2E000FFF77CFE0028A6D10623DAE70423D8E77F
:10B2F00084F831309FE72A46D4F8201404F1540032
:10B30000FFF768FE38B994F8301094F85400FFF74E
:10B3100063FE002892D0F8BD94F83100984790E77A
:10B320000820F8E70388112B10B50C460AD0262B0D
:10B330001FD0102B05D1C37B012B02D18388A1F82C
:10B34000243410BD0022838881F82E24B1F82424EF
:10B350009A42F6D10B79002BF3D101212046FFF759
:10B36000D5FE0028EDD0A36B002BEAD0BDE810403D
:10B370001847037A013B012BE3D889780523013173
:10B38000B1FBF3F303EB8303C91AC9B2E6E775DF38
:10B39000704776DF70477ADF70477BDF70470000C9
:10B3A000034B1A8882420CBF18460020704700BF2A
:10B3B00014450020024B9B6903B11847704700BF3A
:10B3C000F844002073B586B23046FFF7E9FF044623
:10B3D00070B1164D027A2B7B9A420BD200F10A0112
:10B3E0003046FFF7D4FFE8B1112801D0FFF7E2FFA4
:10B3F00002B070BD002303722B7C43B13B21304669
:10B40000FFF7C7FF30F0080301D0FFF7D3FF6B69E8
:10B41000002BEDD000228DF80420ADF8066001A8C5
:10B420009847E5E7237A01332372E1E7F8440020E7
:10B4300013B50B46497A0F4C024669B9D4E901109D
:10B440001C7A002C18BF01465868FBF7F6FE08B1BD
:10B45000FFF7B0FF02B010BD002119726369002B25
:10B46000F8D00121ADF806008DF8041001A8984726
:10B47000F0E700BFF84400204B8802889A4213D8B6
:10B4800042889A4210D380888A8840F2F313984207
:10B4900094BF031AC31A934206D800F2F3109042E5
:10B4A00034BF002001207047002070470388112B13
:10B4B00070B5014648D002D8102B1ED070BD122B9B
:10B4C00052D0502BFAD12F4BC288DB899A42F5D14A
:10B4D000038A022BF2D186883046FFF761FF0546CA
:10B4E0000028EBD001F1120000F079F930BB686858
:10B4F000FBF7BBFE0028E1D009E0C37B012BDDD1C7
:10B500004FF6FF70FFF74CFF054620B90420BDE859
:10B510007040FFF74FBF1C4A8E88068000230372DD
:10B520001368C5F80A300A30536843601031FFF7DA
:10B53000A3FF144B6872DB89002BBFD1294630462C
:10B54000BDE87040FFF774BF8088FFF729FF04460D
:10B550000028B3D04068FBF788FE08B1FFF72AFF48
:10B560004FF6FF732380A9E786883046FFF718FF60
:10B5700005460028A2D008310A30FFF77DFF687227
:10B58000DCE700BFF844002028450020F8B5064657
:10B5900048B305460FCD154F3C460FC495E807004C
:10B5A00084E807003068124C3C60B0B1FFF7F3FE4E
:10B5B000C0B9326813682360536863600D480E4A4F
:10B5C0004FF6FF7303800D4B40F8043F0021FBF75B
:10B5D00029FE002818BF032004E02046FFF7DDFE07
:10B5E0000028EBD0F8BD0E20FCE700BFF844002097
:10B5F0002845002014450020C5B302003045002036
:10B600000AB1FCF715BAFCF71CBA73B50191019C9D
:10B6100006466CB100252C46294601A8FCF71BFA0A
:10B6200018B106EB440301349D800135142DF3D18C
:10B630003046346002B070BD2DE9F047038884883D
:10B64000103B8CB005460A2B1FD8DFE803F0063FFD
:10B650001E1E1E1E1E1E1E5F4400314EB368DB43BD
:10B66000009371686846FCF71FFA009901A8FFF77C
:10B67000CCFF0DF108094FF00008019B984507D356
:10B68000132C13D90420FBF7A1FC0CB0BDE8F08704
:10B6900039F802AB00270137514606EB8700FCF76B
:10B6A000D0F91E2FF7D108F10108E6E721461D4821
:10B6B000FCF7BEF921461C48FCF7BAF9EB7B012BDD
:10B6C000E3D021461948FCF7B3F9DEE721461548D7
:10B6D000FCF7B7F9D9E7057A15482D09032D94BF72
:10B6E000002201222146FFF78BFF022D94BF00228A
:10B6F000012221460F48FFF783FF012D0E4894BF1A
:10B70000002201222146FFF77BFFBEE7037A002BD0
:10B71000BBD1427A0648C2F3C0022146F3E700BF1C
:10B720005045002058450020544500205C4500202D
:10B73000684500206445002060450020132801462C
:10B7400002D80248FCF787B9002070475445002012
:10B7500010B50446FFF7F2FF002814BF204614205E
:10B7600010BD70B5054616460AB90E2070BD0023FF
:10B7700013600028F9D00368002BF6D0C38813F0BB
:10B7800003040FD10846FFF7E3FFC0B214280BD023
:10B790002B7983420AD9EB882A6800FB03233360A4
:10B7A0002046E3E70720E1E70520DFE70420DDE7A7
:10B7B000AADF7047002301380B70042806D8DFE8A1
:10B7C00000F00306080A0C0011230B7070472123B8
:10B7D000FBE73123F9E71223F7E72223F5E70078A7
:10B7E00000F001007047F0B58B7891B0002B0C464B
:10B7F00008BF01238DF80E3005460B88ADF80C30DC
:10B80000002116466846032200F0DDFE6946607C92
:10B81000FFF7D0FF0DF10101A07CFFF7CBFF9DF8F2
:10B820000230E27B62F3C303227C62F30413227BC7
:10B8300062F30003227D002A14BF0222012262F378
:10B84000420300211C2209A88DF8023000F0BBFE43
:10B85000637B13F0300F15D002AF0322002138466E
:10B8600000F0B1FE0DF10901E07CFFF7A3FF112309
:10B870008DF808309DF80A300E97012262F34203DA
:10B880008DF80A30637B8DF824301422A37B8DF869
:10B890002530002104A800F096FE03AB0493A38892
:10B8A000ADF81C30A368CDF814D01BB1E288ADF818
:10B8B00018200893A369002B2ED001AF032200218A
:10B8C000384600F080FEA3691A88ADF82C205A880B
:10B8D000187BADF82E2039465A680A920D97FFF76B
:10B8E00069FFA3690DF10501587BFFF763FFA269AA
:10B8F0009DF80630917A61F3C303D17A61F30413A2
:10B90000117A927B002A61F3000314BF0222012204
:10B9100062F342038DF80630E36903B10C933346BA
:10B9200004AA09A92846FFF743FF11B0F0BD90DF34
:10B930007047A5DF7047B5DF704700007FB5002373
:10B94000ADF80810ADF80A106A4602A9064603933E
:10B950000093ADF80430FFF7EAFF054600B3124B41
:10B96000124CE41AE408FCF72FFC240444F0010410
:10B97000034632460E492046FBF761F8BDF8002029
:10B98000BDF8023052EA030103D00A492046FBF712
:10B9900056F8BDF804201AB107492046FBF746F8CF
:10B9A000284604B070BD00BF48C70200A0C702000F
:10B9B000BCCF020006D0020045D0020080B14FF09B
:10B9C000F7130360FB230371F723C380172303815D
:10B9D00041F6FB32002301614381828118467047A2
:10B9E0000E20704730B1A1F11703E02B04D801807D
:10B9F000002070470E2070470720704713B503469C
:10BA000080880C46A0B91A88232A00F0A48011D897
:10BA1000102A22D0112A51D0A37A4BB1E1880020FC
:10BA2000FFF787FF002840F09C804FF4807363810C
:10BA300002B010BD3A2A4AD0552A60D0242AEBD150
:10BA40001A7A0B694A73002BE6D04DF67A21ADF8CD
:10BA5000040000918DF8042079E0DB7B0A790A73F9
:10BA6000012B13D0022B14D0E18823898B4205D2FD
:10BA70000020FFF75EFF70B90123E372217B637B37
:10BA80008B42C9D20020FFF759FFC5E70B88E3803E
:10BA9000EAE74B88FBE7112802D10123A372EDE707
:10BAA000FCF792FB374A384B38499B1ADB081B04DA
:10BAB000024643F00100FAF7B9FFDFE7F723CB8036
:10BAC00017230B8141F6FB3348818B81A4E75B8907
:10BAD000CA88934228BF1346172B0A6938BF172319
