:02000002E0001C
:100000000000042079030E0061030E0063030E005C
:1000100065030E0067030E0069030E000000000078
:100020000000000000000000000000006B030E0054
:100030006D030E00000000006F030E0071030E0040
:100040004D400E0073030E0073030E0073030E0089
:1000500073030E0073030E0073030E0073030E0090
:1000600073030E0073030E0073030E0073030E0080
:1000700073030E0073030E0073030E0073030E0070
:10008000955E0E0021340E0073030E0073030E0004
:1000900073030E0073030E0073030E0073030E0050
:1000A00073030E0073030E0073030E0073030E0040
:1000B00073030E0073030E00000000000000000038
:1000C00073030E0073030E0073030E0073030E0020
:1000D0002D5B0E0073030E0073030E00E14F0E0044
:1000E00073030E0073030E00C5880E0000000000AD
:1000F0000000000073030E000000000073030E00F8
:1001000000000000000000000000000000000000EF
:1001100000000000000000000000000000000000DF
:1001200000000000000000000000000000000000CF
:1001300000000000000000000000000000000000BF
:1001400000000000000000000000000000000000AF
:10015000000000000000000000000000000000009F
:10016000000000000000000000000000000000008F
:10017000000000000000000000000000000000007F
:10018000000000000000000000000000000000006F
:10019000000000000000000000000000000000005F
:1001A000000000000000000000000000000000004F
:1001B000000000000000000000000000000000003F
:1001C000000000000000000000000000000000002F
:1001D000000000000000000000000000000000001F
:1001E000000000000000000000000000000000000F
:1001F00000000000000000000000000000000000FF
:10020000364937480A1A02D0072291438D463549AC
:1002100035480A1A06D00722914381F30988022241
:1002200082F3148831483249324A00F045F83248A6
:100230003249334A00F040F832483349334A00F03B
:100240003BF833483349344A00F036F833483449F0
:10025000344A00F031F834483449354A00F02CF87B
:1002600034483549354A00F027F8354835490022E9
:1002700000F02DF834483549002200F028F83448C1
:100280003449091A082903DB0022026004300160A6
:10029000314A90471F482049884205D002680430FF
:1002A00003B4904703BCF7E700208646EC460020E5
:1002B00000212A4A9047FEE7884207D0521A05D00B
:1002C000037801300B700131013AF9D1704788424F
:1002D00002D002700130FAE77047000000000420ED
:1002E00000F80320000004200000042034980E00D1
:1002F0001C00002064000020D4030E00D4030E0074
:1003000050920E0034980E001C0000201C000020AB
:1003100088920E0088920E0088920E0088920E003D
:1003200088920E0088920E0088920E0088920E002D
:1003300034980E007C980E006400002064000020B9
:100340006400002090410020904100209041002056
:100350009041002090410020A1030E00E1560E00C4
:10036000FEE7FEE7FEE7FEE7FEE7FEE7FEE7FEE765
:10037000FEE7FEE700F002B8FFF7FCBF0F484FF0C2
:100380000701884385460E4880470E48016841F4BE
:1003900070010160BFF34F8FBFF36F8FFFF730BF66
:1003A00009480A490A4A884207D0521A05D00378F8
:1003B00001300B700131013AF9D17047000004207F
:1003C0002D5F0E0088ED00E074920E000800002002
:0403D0001C000020ED
:1003D40000207047011F014803F071BA60920E00BB
:1003E40013B5074C01AB0A460146204603F0A2FBB5
:1003F400019A0448214602F0C3FA02B010BD00BFBE
:100404000719002088920E0001F042BC10B5044682
:100414001A4803F01DFA1A4B18481C6003F02FFA0F
:1004240048B3184B002140F603020330C3E902121B
:1004340058601970144B154959601549C3E90212E3
:10044400144A1A61144A5A6103F004FC852800D046
:1004540090B9002003F054FC70B902F035FE0F4847
:1004640001F00EFA40B90E4801F0B0FA20B9BDE827
:10047400104001F077BA032010BD00BF60920E0057
:10048400EC0000209019002078190020E5030E00EC
:10049400D9030E002019002058920E00AC920E00D1
:1004A40088920E00083810B5062820D8DFE800F03E
:1004B40008141B1F1F1F0400BDE8104001F06ABA96
:1004C40004F0A6FA08B901F063FA094B1B6873B18A
:1004D4000120BDE81040184701F06EFA044B1B6878
:1004E4002BB10220F5E7BDE8104001F055BA10BD6C
:1004F400EC00002003780BB901F0CABB014A0421C7
:1005040000F086BE0D040E00F8B5E9B9134E144C84
:10051400144F3178124803F041FB054660B9384660
:10052400D4E9011206F044FF0F4803F0A8F918B10A
:100534000330C4E901052570012231460B4802F05D
:1005440041FA0028E5D0F8BD0229FCD10122034973
:100554000648BDE8F84002F035BA00BF381900205B
:10056400901900207819002060920E0088920E00E5
:10057400074B1B5C1F2B86BF03F01F0305494FF07D
:10058400A041012202FA03F3C1F80835704700BF05
:10059400B8920E000003005008B50020FFF7E8FFF2
:1005A4000120FFF7E5FF0220FFF7E2FF0320BDE88B
:1005B4000840FFF7DDBF00000A4B185C1F288ABF04
:1005C400094B4FF0A04300F01F00D3F8042501218C
:1005D400814021EA02000A40C3F80805C3F80C254B
:1005E400704700BFB8920E0000030050C20710B558
:1005F40004460CD54FF0A0430322C3F83427C3F8B4
:100604003827C3F83C27C3F84027FFF7C5FFA307E3
:100614000AD54FF0A0430C22C3F82C27C3F8302787
:10062400C3F86027C3F8642710BD0023C0E9023271
:100634008B881A44B1F9063002611A44C0E90011EA
:1006440042610888003018BF012070474268118851
:1006540038B50346002937D0148A02F110014160ED
:100664002CB9C2680168FFF7E0FF204638BD9078D6
:10067400118900F03005302D14D1947C04F030043D
:10068400302C0FD190881969091A19610021908AB8
:10069400B2F91620084419690144196111445961D9
:1006A4000120E3E700F0F004202C07D150894143F6
:1006B400002DECD1986801309860E8E700F0C000A4
:1006C400802808BF0421F3E70846CFE770B54568E2
:1006D40004460E4663681A88B24204D19B7803F03C
:1006E4000F03082B07D12046FFF7B0FF6368AB4226
:1006F400F0D1002070BD0120FCE743681A44426039
:1007040011B101399A4201D10120704713F8010B4C
:1007140001F8010FF6E7836810B504460BB9002011
:1007240010BD0368012298470028F8D0A368013B54
:10073400A360F5E72DE9F3410F460DF1070180466B
:10074400FFF7E9FF064620B90026304602B0BDE8AF
:10075400F0819DF80740220613D504F07F04072595
:100764000DF107014046FFF7D6FF0028ECD09DF8B5
:10077400072002F07F03AB401C43130605F1070575
:1007840001D43C60E1E7232DEAD1DDE770B545688B
:10079400AA7802F00F06082E86B003461FD103691B
:1007A4001C6800260CB906B070BD236862689D6899
:1007B400267329466846FFF738FF6368049304F1FB
:1007C4000C030593AB7803F0C003802B08BF231DF3
:1007D400684608BF0493FFF7D9FFA468E2E712F064
:1007E400C0011CD102F0300010280AD15A691170DE
:1007F400072EEC68186909D10146204600F017F865
:10080400D1E79006F4D55B691980CCE72A892146A3
:1008140014B108F0F7F8C6E708F01DF9C3E780291A
:10082400C1D10069002192060160BCD5EBE77FB518
:100834000A4601466846FFF7F8FE30B16846FFF7FE
:10084400A5FF6846FFF702FFF7E707B05DF804FB72
:1008540030B5044685B01546A9B90268114B9A42D1
:1008640011D0102D06D82A4669462046FFF7F0FF1E
:1008740005B030BD102269462046FFF7E9FF002885
:10088400F6D0103DEDE7A368AB4201D20020EFE7BC
:1008940023682A46204698470028F7D0A3685D1BA2
:1008A400A560E5E7FF060E00F7B50E4601A9074669
:1008B4001546FFF73FFFA8B1019A0123D3184FF063
:1008C400000404D2B17801F0C001802901D120468E
:1008D40008E031899942FAD329463846FFF7B8FF30
:1008E400019BEC5403B0F0BD73B50E4601A9054657
:1008F4001446FFF71FFFB8B1019BB3F5803F07D241
:1009040002229A1804D2B17801F0C001802901D1E1
:10091400002009E031899142FAD321461A4621F890
:10092400023B2846FFF794FF02B070BD10B5034C9C
:1009340082600022C0E90041C26010BDFF060E00C3
:100944002DE9F04F824685B00D464FF000084FF078
:10095400000900240DF10F015046FFF7DCFEF8B149
:100964009DF80F1001F07F025FFA82FB4FF0000C3C
:10097400CDE900BC009AA4F1200CC4F1200322FAB2
:1009840003F302FA0CF71F431346A34048EA030893
:100994000B0649EA070904F1070404D4C5E90089F0
:1009A40005B0BDE8F08F462CD4D10020F8E773B52C
:1009B4000D4669461446FFF7C3FF68B12B89082B1F
:1009C4000CD1DDE90056C4E90056DDE90023B34249
:1009D40006BFAA420120002002B070BD042B05D13D
:1009E400DDE90001206005460026EEE7022B03D175
:1009F4000098208085B2F7E7012B05D1DDE90001DD
:100A0400207000F0FF05EFE70020E5E737B50D465D
:100A140069461446FFF794FF30B12A89082ADDE9B4
:100A2400003103D1C4E9003103B030BD042A1846B3
:100A34004FEAE37108D123601A460B468B4206BF86
:100A4400824201200020EFE7022A04D11BB2238056
:100A54001AB2D317F2E7012A03D15BB223705AB258
:100A6400F7E70020E0E7F7B50C4600211970217084
:100A7400116001A9074615461E46FFF75BFE30B913
:100A8400BB6813B901233370002003B0F0BD019992
:100A94000029F7D0CB0801F007012B602170F4E79F
:100AA40013B5044605291FD8DFE801F0030F151E0E
:100AB4001E1C012201A92046FFF7CAFE18B19DF9A8
:100AC4000430002BF5DB02B010BD082200212046C3
:100AD400FFF7BEFEF7E701A9FFF72CFE0028F2D0CE
:100AE400019AF3E70422F1E70020ECE773B50D4621
:100AF40001A90446FFF71EFE064618B90026304633
:100B040002B070BD94E80F0085E80F0001998A4295
:100B1400F4D3A960A3685B1AA360F0E72DE9F04160
:100B24005468A37813F0C00E88B006468C46154668
:100B340004D0BEF1400F68D0002444E003F00F025B
:100B44005C4903F03003102B51F822701DD006D8F5
:100B5400002BF1D12A692146B847044633E0202B03
:100B640017D0302BE8D16B6921881980072A09D165
:100B740071462289286907F06EFF6B682969D86875
:100B8400FFF755FE2A6969683DE06B6901221A7016
:100B9400E0E7BCF1020FD5F8148027D1042A25D848
:100BA40004A9FFF7A3FF04460028C5D0069B2BB178
:100BB4006968B8F800304A899A4208D8059B73607E
:100BC400069B002BB8D1204608B0BDE8F081088907
:100BD4002A6903FB002204A8B84728B1B8F80030FA
:100BE4000133A8F80030E1E70446E7E7B8F800303D
:100BF4002969228903FB0212618999429CD9013334
:100C0400A8F8003021463046A6E717693B6807F18B
:100C1400040813B9FFF744FF9FE7022913D104A97D
:100C2400FFF764FF002887D03B686968424604A840
:100C34009847044600283FF47FAF069B002BF3D16E
:100C4400059B7360BFE701292BD009D305297FF4E5
:100C540073AF04220DEB0201FFF7FAFD042425E033
:100C6400002401AB191901340B2C3FF465AF0122A8
:100C74003046FFF7EDFD00283FF45EAF01AB23449F
:100C840013F9013C002BECDB0B4B049301ABCDE9D6
:100C940005340023079342463B68696804A89847D3
:100CA4005BE7082201A9FFF7D3FD08240028EBD154
:100CB40042E700BFBC920E00FF060E002DE9F04F84
:100CC40091B00446002604A8CDE90266FFF7ADFC06
:100CD400A3683BBBDDE9053404A89D78FFF7B6FCA7
:100CE4000028F7D115F0300F03D1059B1B8803B101
:100CF4000134002C00F0A9806309002202A9934268
:100D040040F09C8010AA02EB830304F01F04C4F19A
:100D140020044FF0FF3053F8383CE040C31A5842E7
:100D240058410DE00DF1030301AA0DF10201204623
:100D3400FFF799FE38B99DF80330002BCAD1002083
:100D440011B0BDE8F08F019904A8FFF7BFFC00289B
:100D540050D1019BB3427FD3059D059A937803F04C
:100D64000F03082B73D004A8FFF770FC059B9D426A
:100D7400F3D14FF0FF36019FB7426DD3089B9DF826
:100D84000290D4F808801D684FF0010AA368002D72
:100D94005FD098459CD12B68D3F800B0BBF1000F0D
:100DA40008D04B463A4629462046D8470028C6D0A4
:100DB400AD68EBE7D3F808B0BBF800309F42F7D139
:100DC4006A6859460AA8FFF730FC6B680E9305F170
:100DD4000C030F939BF8023003F0C003802B04BF75
:100DE4002B1D0E930AAA85F80CA049462046FFF74E
:100DF40095FEDBE7059B9B7813F0300F0FD1069A25
:100E04003F2A0CD8510910AB03EB810102F01F02F9
:100E14000123934051F8382C134341F8383CE568DA
:100E24009DF802201DB104AB01992046A84704AAED
:100E34009DF802102046FFF771FE12E051F822508F
:100E440001357FF47DAF013259E7012078E7168838
:100E540091E798457FF43CAF9DF802102046FFF7D8
:100E64001FFE00287FF434AF69E770B50C460646D0
:100E7400154611462046FFF7DAFC2A46214630463D
:100E8400BDE87040FFF71ABFF0B585B00C46CD68D9
:100E9400694607461646FFF729FE68B1E06858B16F
:100EA400A37803F03003202B32462946684605D147
:100EB400FFF7DBFF019B7B6005B0F0BDFFF7FEFE93
:100EC400F8E72DE977480E466946FFF739FD88B102
:100ED400DDE90023002502F001045FEA530C4FEA28
:100EE400320B54EA050308D06FEA0B026FEA0C03D5
:100EF400C6E9002303B0BDE87088C6E900BCF9E781
:100F040037B50D4669461446FFF7DBFF68B12B89F8
:100F1400082B0CD1DDE90001C4E90001DDE900235F
:100F24008B4206BF82420120002003B030BD042B57
:100F340003D100982060C117F0E7022B04D1BDF95A
:100F44000000208000B2F6E7012B04D19DF90000D7
:100F5400207040B2EFE70020E7E713B504220C4607
:100F64000DEB0201FFF774FC08B1019B236002B092
:100F740010BD1146FFF7F1BF13B508220C466946B0
:100F8400FFF766FC18B1DDE90023C4E9002302B0D1
:100F940010BD1146FFF7F0BF38B5202204460830D3
:100FA4000D4607F02FFD2022A91804F1280007F0B0
:100FB40029FD002038BD00002DE9F743184D99465E
:100FC400184B036004460F4628460121904602F060
:100FD4000BFC0646BFF35F8FE0B900F0D9F8434637
:100FE4000A9ACDF8009007F10801204606F016FB96
:100FF400044600F0DBF8BFF35F8F2E606CB10A4A41
:1010040048F2425348F21650944208BF184603B0BF
:10101400BDE8F08348F20450F9E72046F7E700BF43
:10102400A0290020DD55AABB8408F0000C4B98428F
:101034000DD006D820B1013B98420BD048F216508F
:101044007047084B984208D00D339842F6D148F2C5
:101054000350704748F20150704748F202507047FD
:101064000102F0000202F00008B5083006F040FB6F
:10107400BDE80840FFF7DABF13681F2B2DE9F041E4
:101084000746884614461DD9114D0121284602F011
:10109400ABFB0646BFF35F8FB8B900F079F8414661
:1010A40007F1080006F096FB074600F07FF8BFF34F
:1010B4005F8F38462E60FFF7B9FF08B920232360FD
:1010C400BDE8F08148F21450FAE748F20450F7E71B
:1010D400A02900202DE9F04107460E4619480121B8
:1010E400144602F081FBBFF35F8F30BB00F050F871
:1010F400DFF854800837B4F5805F254628BF4FF4E5
:1011040080552A463146404607F07CFC2A46414633
:10111400384606F007FB641B2E44054608B9002C2C
:10112400E9D100F043F8BFF35F8F064B0022284655
:10113400BDE8F0411A60FFF779BF48F20450BDE8FA
:10114400F08100BFA0290020A0190020024B00203C
:10115400C3F80005704700BF00A0025038B50A4B21
:1011640000251D60BFF35F8F084C0123C4F80035D0
:1011740006F060FBC4F8005520B1052848F203507E
:1011840018BF032038BD00BFA029002000A00250D2
:10119400044B0122C3F80025034B4FF480625A60CC
:1011A400704700BF00A0025000E100E0044B0022A1
:1011B400C3F80025034B4FF48062C3F884207047C2
:1011C40000A0025000E100E012F0030310B511D1B9
:1011D400094C22604C1CE400A4B22244074C226057
:1011E400074A1370074A1370074A1080074A1846C3
:1011F400118010BD0720FCE7AC290020A82900209D
:10120400A4290020B4290020B0290020B2290020FC
:101214002DE9F047284D2B888B4206460C4617468D
:1012240045D3002001F0BCFF244B254A25481978FA
:1012340013780088DBB2834238BF0133C9B234BFAC
:10124400DBB2002399422CD092F800801378DBB2F1
:10125400984286BF0133DBB200231370002001F0F3
:10126400A1FF4FF6FF73984523D0DFF860A0DAF8AA
:1012740000304FEAC80903EB090243F838709EB105
:1012840094B1114B28881B68224608FB0030314674
:1012940007F0B8FBDAF800304B4400209C80BDE82E
:1012A400F0874FF6FF78D9E700209080F7E7092010
:1012B400F5E70420F3E700BFB0290020B42900209B
:1012C400A4290020B2290020A8290020AC2900204C
:1012D400F8B5124C124D264622782B789A4200D14A
:1012E400F8BD23780F48104A078812680F48DBB20C
:1012F40019B202EBC10C006852F83120BCF804109A
:1013040003FB070090470A4A23781288DBB29A420B
:1013140086BF0133DBB200233370DDE7B42900203C
:10132400A4290020B0290020AC290020A8290020ED
:10133400B2290020D0E90223D1E90201994208BF71
:1013440090422CBF01200020704700002DE9004886
:101354000C4802F04FF80C4BD3E9002312EB000BBE
:1013640043F1000C094BD3E900239C4508BF934586
:101374005846614603D21BF180704CF10001BDE870
:10138400008800BF20000020C0290020382A002047
:1013940037B505460C460A4801A902F0B0F960B118
:1013A4000570446001A9064802F0D3F918B1054854
:1013B40002F024F8002003B030BD0420FBE700BF96
:1013C400242A002020000020194B1B782DE93048E6
:1013D40004461BB900252846BDE830880028F9D00A
:1013E400037F03F0FF05002BF4D0FFF7AFFFD4E930
:1013F4000223994208BF904215D3236903B9237786
:10140400D4E90530984721690029E3D0237F03F00C
:10141400FF05002BDED0D4E9022312EB010B43F1CC
:10142400000CC4E902BC2146024802F05DFBD2E78D
:10143400C829002008930E0013B5114B11491868F0
:10144400019008235822104802F046F9044698B93E
:101454000E4A0F4801A901F0D3FE044660B90121E8
:101464000B4801F0A9FF01230A4A0948194601F073
:101474000DFF094B01221A70204602B010BD00BFB7
:1014840004930E00CC290020242A002001150E000C
:1014940020000020FFFF7F00C82900203AB1036824
:1014A4005A614A1E51425141196100207047072078
:1014B400704738B5037F04460D4683B98261FFF750
:1014C40045FF421941F10003C4E90223236903B132
:1014D400256121460020BDE83840FFF759BF0020B0
:1014E40038BD0023014603770120FFF751BF0000F8
:1014F400014801F07FBF00BF200000202DE9F74F15
:10150400064601F061FF40B15849D1E9002312F1C8
:10151400807443F10005C1E900450021304601F023
:1015240062FF38B1524C236823B12068FFF74CFFA7
:10153400002323600121304601F055FF20B1FFF75D
:1015440005FF4C4BC3E9000101A94B48484D4B4CE6
:101554004B4F02F00EF9002844D1DFF820A1444C8F
:10156400DFF824B1504602F0D5FA2368002874D07D
:101574007BB12368D0E90201D3E90223994208BF71
:1015840090422CD223681B7F1BB12168504602F085
:10159400ABFA504602F0B8FAD0E902890746FFF7E1
:1015A400D5FEB8EB000869EB010940464B4601281B
:1015B40073F1000344DB334DA8453FD9FFF798FF8F
:1015C40042194FF496030021584601F07FFE00288B
:1015D4003ED1236813B9304601F050FE276003B0B2
:1015E400BDE8F08F0378012B1DD00BD3022B11D152
:1015F4004FF00008204602F087FA002833D080F824
:101604001C80F7E741680B7F23B901230B77204641
:1016140002F06AFA01A9184802F0D6F801A916489E
:1016240002F0A7F897E741682B68994202D100239A
:101634002B60EFE7204602F070FAEBE7BA68C0E7E8
:101644000021584601F0C5FE3846FFF7BDFE01E013
:101654000D28F9D00023236084E7002BBFD1304646
:1016640001F010FEBBE701233B70D3E7C029002043
:10167400402A0020382A0020242A002008930E0043
:10168400C8290020FFFFB4002000002043681B6825
:1016940018470000024B5B6803B11847704700BF4E
:1016A400442A0020020600F00F034CBF02480348FE
:1016B400DB001844704700BF502A0020982A0020FD
:1016C40008B5FFF7EFFF016009B9416008BD4B6839
:1016D4001B684360FAE70000024B01465A68186829
:1016E400104700BF982A00200378052B0CD1084A24
:1016F400D2F88434D2F8802412F0FF0F04D1054AC2
:10170400DBB2052B08BF1046034B1B68184700BF0C
:10171400007002402C930E00442A0020012806D0B9
:1017240002D3022805D070470348FFF7DDBF034802
:10173400FBE70348F9E700BF20930E0024930E0053
:1017440028930E00FFF7D0BF0148FFF7CDBF00BFBD
:1017540030930E0038B5831EDBB2062B98BF194AAE
:10176400194C98BFD25C2378A3F10203DBB288BF83
:101774000022062B9ABF1349CB5C002393420546F3
:1017840003D0A2B1114802F07DFA022D01D0082D38
:1017940010D101232278022A01D0082A0CD1012277
:1017A4009A4202D053B103F079F9257038BD02F0A2
:1017B40093FAEAE70023EDE70022F1E703F064F986
:1017C400F3E700BF14930E00E92A0020280000204C
:1017D4002DE9F04F87B006AC002644F8106D05469D
:1017E4008946924698466B6800225F682946012321
:1017F4002046B84740B98DF80600049004460746D1
:10180400BE4203D805202AE00136ECE76B680DF1EF
:101814000602D3F804B02946012304A8D8476B680C
:101824000DF10702D3F804B02946012304A8D847D0
:101834009DF807304B459DF8063015D1544511D11C
:10184400109A136088F8003088F801906A68023BA7
:101854005468294608F1020204A8A047002007B0F2
:10186400BDE8F08F0134E4B26A68023BD2F804B0F8
:101874002946002204A8D8479DF806301F44BFE734
:101884002DE9F74305462E4803F01EF904460028C7
:101894003AD12C4B18702C4B18602C4B0146186015
:1018A40048222B4807F0D7F848222146294807F058
:1018B400D2F8294B65BB294A1D72C3E900251A6871
:1018C4000AB9264A1A60002002F01AFA18B18528CB
:1018D40001D003F0FFFE224E96F80890002506F191
:1018E4000908ECB2A14504D904EB440414EB080440
:1018F40023D102A90B2301F8043D1948FFF7C6FEC2
:10190400044608B102F098FF204603B0BDE8F08316
:1019140095E8070083E80700D1E73146E05CFFF76C
:10192400CFFE6378FAB2934205D9A3781344DC421C
:1019340007F10107F1D10135D3E70027F1E700BF33
:1019440049170E00E92A0020E02A0020E42A00209A
:10195400502A0020982A0020442A0020951C0E00BA
:101964004C930E0010B503F04BF808B9082010BDD5
:1019740003F04EF804460028F8D1044802F0DBF9DD
:101984000028F4D003F0A6FE2046F0E71C930E00D6
:1019940002F05CBF03F022BC4FF08043D3F838243C
:1019A400920702D50348FFF79FBED3F83824D10726
:1019B400F4D4704731930E0007B502A8822300F8CF
:1019C400043DFFF791FE03B05DF804FB2DE9F341FC
:1019D400037A00F109040325064615FB034527464F
:1019E400AC4231D01CB394F80180002106E0E05CE5
:1019F400FFF758FE03680131002B36D1CBB298456E
:101A040003D9A3780B44DC42F1D10334E8E731462F
:101A1400E85CFFF755FE6A785FFA88F39A4205D9C5
:101A2400AA781344DD4208F10108F0D10134337A75
:101A3400E5B2AB4203D905EB45057D1901D10C4B49
:101A440005E04FF00008E6E70024F0E713681A68A1
:101A5400002AFBD102A91E600B2301F8043D304685
:101A6400FFF714FE02B0BDE8F0811120FAE700BFD1
:101A7400E02A0020024B1878003018BF012070477C
:101A8400E82A002000F00F03072B10B5044604D801
:101A940003F03CF9204603F05FFC2046BDE810400B
:101AA40003F00EBC03F0DABB014B1868704700BFAB
:101AB400E02A002070B50A4B1B687BB11E7A002215
:101AC400D5B2B54201D31B68F6E7013202EB4204FA
:101AD4001C44A4798442F3D101B10D70184670BD41
:101AE400E02A00201146FFF7D1BD08B500F00F032E
:101AF400082B07D8FFF7D6FD006818B1BDE80840E9
:101B0400FFF7C4BD102008BD38B5054B05461C6859
:101B140004B938BD29462046FFF7B8FD2368F6E727
:101B2400E02A002038B5074B05461C680CB906208E
:101B340038BD29462046FFF7A9FD0628F8D12368B9
:101B4400F3E700BFE02A002038B504460D4602F052
:101B5400FCFF48B1054B1B78022B05D129462046D2
:101B6400BDE8384002F0F4BF082038BDE92A00205F
:101B740038B504460D4602F0E8FF48B1054B1B7822
:101B8400022B05D129462046BDE8384003F054B85D
:101B9400082038BDE92A0020F8B543689B6805464B
:101BA4000C46164613B92EB1072002E098470628C2
:101BB400F9D0F8BD2B7AA34213D9093504EB4404B8
:101BC4002C446778F3B29F4201D80020F1E7627891
:101BD4009A4208D9A219A378D05CFFF753FF0136C3
:101BE400F0E77378FFDE00231B78FBE74368DB68CC
:101BF40070B505460C4603B198472B7AA34213D916
:101C0400093504EB44042C4400256678EBB29E426B
:101C140000D870BD62789A4209D96219A378D05C61
:101C240003F01CFB0135F1E700235B78FFDE0023A2
:101C34001B78FBE743681B6903B1184718467047D4
:101C440070B5084B1C6804B970BD267A0025E9B24A
:101C5400B14201D32368F5E700222046FFF79CFF39
:101C64000135F4E7E02A002070B5084B1C6804B97C
:101C740070BD267A0025E9B2B14201D32368F5E7A5
:101C84002046FFF7B3FF0135F5E700BFE02A002047
:101C940038B50478092C054620D023D8032C00F04D
:101CA400BC8012D8012C00F0A68040F28D80032065
:101CB400FFF750FD0220FFF7EDFC2846FFF724FF55
:101CC4002846BDE83840FFF707BD052CF8D0C0F022
:101CD400B380062C00F0BF80082C13D12046FFF7F8
:101CE400D9FC95E0812C0ED005D80F2CF6D0802C91
:101CF40044D00A2CF1E7832C4CD021D3842C53D02C
:101D0400852CDDD038BD5E48FFF7E6FC5C48FFF764
:101D1400FBFE0D20FFF7BEFCFFF7A6FF00F04FFF10
:101D2400584B1B6853B9584B187A00F0010002F065
:101D34003DFE0120BDE83840FFF70CBD0120F4E76B
:101D4400FFF792FF03F02CFA0020FFF703FD4F4842
:101D5400FFF7DAFE4D48FFF7BFFC0E20FFF79AFCB1
:101D64004B4B1B78023BDBB2062BCBD8494AD35CE6
:101D7400002BC7D0BDE8384001F0AEBF444B1B7800
:101D8400062B05D0072B01D0052BBBD10220D1E7B0
:101D94000820CFE73E4B1B78032BB3D103F038FA6E
:101DA4000028AFD00420C5E7394B1B78032B05D19D
:101DB40003F02EFA10B10420FFF7CCFC02F032FE3F
:101DC40000289FD00620B5E7314B1B78032B01D0A8
:101DD400082B02D13048FFF75BFF0020FFF75AFCC5
:101DE400284B1C68002C8DD020462946FFF74EFC5A
:101DF40023685C68F6E7FFF737FF00F0D7FE0220A0
:101E0400FFF7A8FC2046FFF745FC2846FFF764FCD3
:101E14002846BDE83840FFF777BE1D4B1B78082BDA
:101E240006D10220FFF796FC02F042FE0320EAE707
:101E34000520FFF78FFCF9E70320FFF72BFC174879
:101E4400FFF74AFC1548FFF75FFE114B1B78062B82
:101E54009CD107206EE78078FFF724FC294643686D
:101E64000068984700283FF44DAFA87800F00F03AE
:101E7400013B062B3FF646AFBDE8384002F020BFD9
:101E840032930E00E42A0020442A002033930E00EB
:101E9400E92A002014930E0034930E0035930E00AB
:101EA400C36903B118477047036800221A845A6251
:101EB400DA62C3E91E22C3E9202203F134025A671D
:101EC4007047CA699A4210B543600CD38C690460A8
:101ED400086F18440867D01A1C44C86100308C612C
:101EE40018BF012010BD01F1280202608B67002099
:101EF400F8E70000F0B5BB4D0C7A2C700468B4F51B
:101F0400517F00F0CA8200F2DA8040F22636B442F1
:101F140000F03E826DD840F21636B44200F0FB81E8
:101F240026D840F21336B44200F0DA81B4F5457F86
:101F34000BD2002C00F0C28140F21236B44200F001
:101F4400C581002303601846BFE100F0D78140F249
:101F54001536B442F5D100240AB106791655013478
:101F640002269C420671C0F0D78140F21633AAE1E2
:101F740040F21936B44200F0E78114D840F2173623
:101F8400B44200F0D481B4F5467FDAD100240AB11A
:101F940006791655013400269C420671C0F0D5819D
:101FA40040F219338FE1B4F5487F00F0E48140F248
:101FB4002136B442C5D100240AB1067916558A4E99
:101FC4000F7A3678DFF824C2B74204F1010440F2F4
:101FD400548301F1090706EB460607EB060E9C4203
:101FE400BE5DCCF800E00671C0F0D38140F2263328
:101FF40069E140F23336B44200F00982B4F54D7F12
:1020040038D2B4F54B7F00F0DE811CD840F227367D
:10201400B44200F0C981B4F54A7F92D100240AB1D8
:1020240006791655714E0F7D36683678B74204F13D
:10203400010440F0E18102269C420671C0F0C48193
:102044004FF44B733FE140F22D36B44200F0C781A8
:1020540040F22E36B4427FF474AF00240AB10679FC
:10206400165501340026A342067100F2EA814FF4AA
:102074004F7328E1B4F54F7F00F0E28106D8B4F540
:102084004D7F00F0D08140F23536E3E740F242362E
:10209400B44200F0EA8100F2F48140F24136B442E5
:1020A4007FF44FAF00240AB1067916550134242673
:1020B4009C420671C0F0DA8140F2423303E140F2FF
:1020C4005636B44200F053826AD8B4F5537F00F018
:1020D4001C8232D840F24936B44200F0FD8115D852
:1020E40040F24536B44200F0E481B4F5527F7FF407
:1020F40028AF00240AB106791655013424269C42DF
:102104000671C0F0EA8140F24933DCE040F24A361D
:10211400B44200F0ED8140F24B36B4427FF411AF8B
:1021240000240AB10679165501348E7D06719C424D
:10213400C0F0EC814FF45373C5E040F25136B44221
:1021440000F0FC8115D840F24F36B44200F0E9812A
:10215400B4F5547F7FF4F5AE00240AB10679165520
:10216400013402269C420671C0F0E98140F25133E9
:10217400A9E040F25236B44200F0EC8140F2553608
:10218400B4427FF4DEAE00240AB106791655013458
:1021940024269C420671C0F0EB8140F2563392E053
:1021A40040F27236B44200F0278246D840F25936E3
:1021B400B44200F0F5811BD840F25736B44200F027
:1021C400E281B4F5567F7FF4BCAE00240AB10679EF
:1021D400165501348E7D06719C42C0F0E28140F2B6
:1021E400593370E0EC2A0020EB2A0020F02A00206A
:1021F40040F26D36B44200F0F28140F26E36B442E1
:102204007FF49FAE00240AB106791655AF4EB04F45
:1022140036683F7896F801C0BC4504F1010440F2E9
:10222400318296F802C03E449C4216F80C60067156
:10223400C0F0E38140F2723345E040F28336B442A9
:1022440000F0FA81B4F5617F14D240F27736B442DB
:1022540003D0B4F55F7F7FF474AE00240AB106792D
:10226400165501344026A342067100F2E68140F27D
:10227400833328E040F28936B44200F0F48140F21E
:102284008E36B44200F0EF81B4F5617F7FF459AE2D
:1022940000240AB1067916558C4E0F7D36683678BF
:1022A400B74204F1010440F0D4810E6A9C423678AE
:1022B4000671C0F0D98140F2893304E00824047126
:1022C40023B940F2123303600120F0BD0AB104794E
:1022D40014700B24012B04710ED840F21333F2E76F
:1022E40000240AB10679165501340E7D06719C420C
:1022F40005D34FF44573E6E70124F2E700240AB15D
:1023040006791655013402269C420671FFF424AE68
:1023140040F21533D7E700240AB106791655013483
:1023240002269C42067103D340F21733CBE7002404
:102334000AB10679165501344E7E06719C42FFF4AB
:1023440026AE4FF44673BEE700240AB1067916554B
:10235400604E0027013437705E4E37782E78B742CE
:1023640002D340F29933AEE70926A342067103D89B
:102374004FF44873A7E700240AB1067916550134CF
:1023840004269C420671FFF417AE40F221339AE70B
:1023940000240AB106791655013400269C420671C0
:1023A40003D340F227338EE700240AB10679165589
:1023B400464E36680134767806719C42FFF42FAE9F
:1023C4004FF44A737FE700240AB1067916550134A5
:1023D40002269C42067103D340F22D3373E7002496
:1023E4000AB10679165501344E7E06719C42FFF4FB
:1023F40035AE40F22E3366E78F7DB7427FF432AEBE
:102404000A269C42067103D340F233335BE700246F
:102414000AB106791655013400269C42067103D38D
:102424004FF44D734FE700240AB106791655013471
:1024340000269C420671FFF411AE40F2353342E7A8
:1024440000240AB106791655204E0F7D3668367879
:10245400B74204F1010440F0A88005269C420671AD
:10246400FFF421AE40F241332DE700240AB106798E
:102474001655013400269C42067103D340F24333BF
:1024840021E700240AB106791655013410269C422E
:10249400067103D34FF4517315E700240AB106798A
:1024A4001655013401269C42067103D340F245338C
:1024B40009E700240AB106791655013405269C4221
:1024C4000671FFF417AE4FF45273FCE6F02A0020B5
:1024D400ED2A0020EB2A002000240AB106791655C3
:1024E400013401269C42067103D340F24A33EAE6E2
:1024F40000240AB106791655013403269C4206715C
:10250400FFF40FAE40F24B33DDE600240AB1067946
:102514001655013404269C42067103D340F24F330E
:10252400D1E600240AB106791655013424269C42CA
:102534000671FFF412AE4FF45473C4E600240AB1DA
:1025440006791655013402269C42067103D340F2E3
:102554005233B8E600240AB106791655013405262B
:102564009C420671FFF410AE40F25533ABE60024F2
:102574000AB106791655013406269C42067103D326
:1025840040F257339FE600240AB106791655013408
:102594000E7D06719C42FFF419AE4FF4567392E619
:1025A40000240AB1067916550134374E3668777817
:1025B400364E3770364E00273770354E3778334EE7
:1025C4003678B74204D3334F3E7801363E70C3E6C3
:1025D4000726A342067103D840F26D3373E6002444
:1025E4000AB106791655013405269C420671FFF49A
:1025F4000AAE40F26E3366E600240AB10679165537
:10260400214E0F7D36683678B74204F1010407D1B4
:1026140003269C420671FFF421AE40F2773352E662
:102624008F7DB7427FF41EAE02269C420671FFF4F2
:1026340015AE4FF45F7346E600240AB106791655C9
:10264400013400269C420671FFF423AE4FF46173FB
:1026540039E68F7DB7420BD100269C42067103D325
:1026640040F28E332FE600240AB106791655013460
:10267400074F3E7801363E709FE70023CCF80030C8
:102684001B78FFDE0023FBE7F02A0020EA2A002063
:10269400ED2A0020EB2A002010B5044658B908683A
:1026A400037B202B09D100F10E010722183006F01C
:1026B400A9F9204610BD0320FCE70620FAE7037AB7
:1026C400012B08D9427B012A00F10C0306D9827B35
:1026D40013445878704700235B78FFDE00231B788F
:1026E400FBE700002DE9F0430B7889B005460E4660
:1026F4000E2B17D8DFE803F00A080A0A160C9F16F7
:102704001608160A0A0A0A00FFF7CEFB002427E07F
:102714004A78D1094FEA521330D013F0030303D09F
:10272400012B21D006241BE002F01F02012AF9D15B
:10273400B478062CF6D105A8039300F0BDFC03ABD6
:10274400F27831790093074603462846FFF740F8AC
:10275400052805D0039A3946701C00F04BFA04464C
:10276400204609B0BDE8F083B378212BDAD1B6F85E
:102774000720072AD6D101681831EDE7012BD1D102
:10278400B3780768202B36D0222BCBD1B6F807308C
:10279400002BC7D197F82030B6F803403C8403F0EF
:1027A400010304F00104A342B0D0A4B2002C0CBF76
:1027B40003210221FFF774FB002CA7D12B7A012BF4
:1027C40040F2D4806B7B05F10C02002B00F0D0802A
:1027D400AB7BD05C02F0C6FB2846FFF770FF02F02B
:1027E400C1FB07F134037C62FC62C7E91E44C7E9FC
:1027F40020447B67B4E7B6F80730072B92D1002456
:102804004FF4E462BA8120460E37CDE9057307948C
:1028140000F0C6FC204605A9FFF796F9044630B936
:10282400554B03A9CDE9033500F0D2F90446002045
:1028340000F0B8FC94E7037A002B00F09B80837AC5
:1028440000F10901002B00F09380C27AB3788A5C0E
:102854009A423FF45BAF1B06F4780AD524B1032CEB
:102864000CBF002403247BE701212846FFF718FB53
:1028740076E7012C3FF44AAF04D3032C3FF446AF70
:1028840003246DE70668FFF71AFF3C4BB76A05930C
:1028940006F10C0380460693B7B9F36FF46AB76781
:1028A400C6E91F736CB106F12C0103C906F12403B8
:1028B40083E80300F76205A94046FFF759F9044687
:1028C40000E074620021D0E7D6F88490706A4F4526
:1028D40028BF4F4606F134043A46214606F092F8E2
:1028E400F36F3B44C6F88030A9EB0703B367F36A80
:1028F40000223C44F2677467002B35D006F12C09A2
:1029040099E8030006F1240787E803001446F262FD
:10291400B36F706A1BB9746A002CCCD1D2E7B26A67
:10292400716F9A4216D806F06DF8B36AB26FC6F8A2
:102934008030D21AB267726F1A4472670021284637
:10294400FFF7AEFAF36A7BB199E8030087E8030066
:10295400F462DDE71A4606F055F8B26FB36AF2671F
:102964009B1AB362736A13447362D4E76378FFDE1D
:102974001B78FCE75B78FAE79D260E00C71E0E0065
:102984001FB503681B8CDC0714D5037A012B13D9FC
:10299400437B00F10C0493B1837BE05C9306CDE9A7
:1029A40001120CBF0123002301A90393FFF7CCF804
:1029B40004B010BD0820FBE700235B78FFDE1B7822
:1029C400FCE700002DE9F3410468238CDB07804613
:1029D4000F46164647D5002000F0E2FB656A002D3D
:1029E40039D1A16FB14213D33246616F384606F034
:1029F40009F8A36FC4F880609B1BA367636F33441B
:102A04006367002000F0CEFB284602B0BDE8F081E9
:102A1400C4E909764046FFF752FE144B009304F1D3
:102A24000C030646019369B10A463846616F05F006
:102A3400E9FFA36FA26AD21AA262626AC4E91E53B2
:102A44001A44626269463046FFF792F8002814BFC0
:102A540005469225D5E7E36A1BB9C4E90B769225AE
:102A6400CFE71125CDE70825CEE700BFC71E0E002E
:102A7400002070472DE9F04F4B6887B081460C4623
:102A840002925BB90B681B681B683BB98D682DB952
:102A9400C0E90055284607B0BDE8F08F02F00CF9F4
:102AA400E768029B9F4228BF1F464FF0000804F1CD
:102AB400100383460197464601250393019B002B8F
:102AC4002DD0A368019A616893429A4628BF924622
:102AD40041B352460BEB060005F094FF00236360FC
:102AE400A268E3680199A2EB0A02A3EB0A03A1EB33
:102AF4000A01A260E360019156440ABBB8F1000FD9
:102B040038D02268126812682260002B30D0236803
:102B1400D3B963601EB1029BB34288BF0025C9E9E3
:102B240000B6B7E7002BDBD0216803984B680BEBAA
:102B34000602D3F804805346C0474FF00108CFE79C
:102B4400002B08BF0025B9E70DF1180A00234AF845
:102B5400083D21684B685B6800221F4650460123EC
:102B6400B84708B92061A9E7A3680133A360F0E777
:102B74001D46A3E7002BCAD145469FE7084B1A78A8
:102B840082420CD0052818BF064A187018BF137863
:102B940005481CBF23F002031370FFF779B8704790
:102BA400002B00201C2B00205C930E0008B5002095
:102BB400FEF768FF8020BDE80840FEF763BF08B554
:102BC4000020FEF76FFF8020BDE80840FEF76ABFD3
:102BD40038B505460C4602F015F9A84205BFD4E9FC
:102BE4000001034B1020C3E9000108BF002038BDD9
:102BF400202B00207FB5C38893421D4628BF15466D
:102C040093420E46144620D9802001F099FFB4FB6C
:102C1400F0F303FB1040B0FA80F040090390002069
:102C2400CDE9016500F0BCFA01A98020FEF78CFF14
:102C3400044620B906498020FFF7CAFF0446002055
:102C440000F0B0FA204604B070BD0020E6E700BFF3
:102C540090930E002DE9F04F0C78062C87B00E46A9
:102C640000F0FC8120D8022C3DD003D8012C32D0B6
:102C74000624EDE1032C32D0052CF9D10DF10D0021
:102C8400B04D8DF80C4002F051F800232B609DF8F4
:102C94000D3003F01F02032A00F28481DFE812F0F2
:102CA4002D001D01790165000D2C00F0C58107D8A8
:102CB4000B2C18D00C2CDBD10020FFF75FFF12E0A7
:102CC4000E2C00F0C981852CD2D19F4B1B78032B8D
:102CD400CED1042000E00320FFF750FFC8E79B4853
:102CE40000F0B0FD08B90024B2E1994B01221A604A
:102CF400BFF36F8FBFF34F8FF5E7C3F34116A6BB46
:102D0400DB099DF80E1000F0A280062916D00829D0
:102D140000F0908049BB8F4C0222204605F09BFEB8
:102D2400237843F0010222708B4A1278910744BF42
:102D340043F003032370022286490EE09DF810300D
:102D4400022B16D0032B65D0012B0ED1BDF8133006
:102D5400002B00F06E81814912220DF10D00FFF766
:102D640049FF0446062C40F0258103A8FEF7DAFE4D
:102D74000DE1BDF81370002F00F05B81092F28BF0F
:102D84000927FEF791FE4FF009080446B14654BBEB
:102D9400704C73493A46204605F034FE2671A4F877
:102DA4000280FEF767FE18B1E37943F02003E37174
:102DB400FEF77AFE6B4BC3E900049F60BDF8132055
:102DC400DA60002000F0ECF967498020FEF7D0FEBD
:102DD400044620B965498020FFF7FAFE0446002026
:102DE40000F0E0F9BEE7CDF804904FF0000A636804
:102DF4000022D3F804B02146012301A8D84730B9F2
:102E0400237A1E442368D044F6B21C68BFE70AF153
:102E1400010AECE7BDF81330002B00F00A81BDF87D
:102E240011109DF80F0000F095F9014600289CD080
:102E3400027892E7444A1278052A03D1454A13706E
:102E4400012279E7042A90D1424B1E70F8E7032946
:102E54000FD009292BD0012987D1BDF80F30012BC0
:102E640083D1FEF707FE60B13B4A137823F00203D7
:102E74000FE0BDF80F30012B7FF477AFFEF7FAFDBA
:102E840018B90F2401F0BBFFE2E0334A137843F092
:102E9400020313702B68002B00F0CB8001F0B2FF0B
:102EA400044600287FF41FAF01F066FFD0E0264BF4
:102EB4001B78043B012B01D90824E3E79DF80F306C
:102EC4002BB9FEF7D1FE0420FFF758FEE2E7012BF1
:102ED40056D1FEF7B5FE0520F6E701A99DF81100CD
:102EE400FEF7E8FD074608B91024CBE703AA9DF8CE
:102EF4000410FEF7F7FD062804465BD19DF80D206B
:102F040012F0600FBED1104B9DF8041018789DF894
:102F14000E30D6092CD073B10A2BB3D10528CBD1EE
:102F24003846FEF787FE0B49324608700DF10D0056
:102F3400FFF760FE2BE00528BED106490B80022274
:102F4400F4E700BF202B0020002B0020282B0020BA
:102F54005C7002402C2B00201C2B00207C930E0064
:102F64005D930E00042B002098930E0090930E00A6
:102F74000B2B87D105289FD1BDF80F30FF2B01D92A
:102F840007247FE79DF80F203846FEF705FE044628
:102F940010E09DF81100020706D19DF80D3013F0E2
:102FA400600F0BD006246DE703A9FEF79EFD0628EB
:102FB4000446F2D0002C3FF46DAF63E79DF80E2079
:102FC400384B9DF811401B78012A1ED012D3032AD6
:102FD400E8D104F00F02072AE4D8BDF80F10002945
:102FE400E0D1052B02D0002A7FF466AF204601F021
:102FF40067FE4FE7052B02D023077FF45DAF204621
:1030040001F06AFE2849088099E704F00F02072AB4
:10301400C8D8BDF80F100029C4D1052B02D0002A4E
:103024007FF44AAF204601F071FE204602F094F985
:1030340030E701F0E1FE56E64FF08043D3F8384420
:1030440014F0010401D0022037E60120FFF796FDB9
:10305400204607B0BDE8F08F01202EE6C87803288B
:10306400F6D0124D2B68D3B100222A6069689847C4
:10307400044600287FF406AF2B6823B1B378002BF5
:103084007FF431AE10E70A4B1B68082B04D1094BBF
:103094001B68002B3FF427AE01F0AEFED8E70E24E8
:1030A400F0E600BF002B00202C2B0020202B00205A
:1030B400300100103401001008B1402303600148BE
:1030C400704700BF2C2B002070B54FF0805286B0A3
:1030D400D2F8A830D2F8A42000926FEA83436FEAB2
:1030E400934302AD9BB2094A094E0D21284605F0CF
:1030F40065FC0024284605F0E1FC844201D306B0B7
:1031040070BD2B5DA3550134F4E700BFA0930E00FE
:103114006C2B002010B50E4B53F8204023780BB9CC
:10312400A01C10BD0020FFF7C7FF2246E4B2131B0A
:1031340012F8011BDBB231B901335B00DBB243F49B
:1031440040730380EDE7131BDBB220F81310EEE7A6
:10315400F8930E0008B9FFF7DDBF052807D8054A24
:10316400105C20B1044B53F82030002BF3D1002025
:10317400704700BF10940E00F8930E0072B6024A16
:1031840013680133136070477C2B0020034A1368D3
:10319400013B136003B962B6704700BF7C2B00206B
:1031A400FFF7ECBFFFF7F2BF30B53AB11368DB436A
:1031B4000B4C0144884204D1D84330BD4FF0FF3357
:1031C400F6E710F8012B5340082213F0010F14BF47
:1031D40025460025013A85EA5303F6D1EAE700BF04
:1031E4002083B8ED435882B03BB100234350435889
:1031F4000193019B012002B070471846FBE70000D1
:10320400F0B54679194B1A4C43F82620F50063199A
:103214001B7943BB03680A88C3F8082590F9043076
:103224008978002BA8BF03F16047DAB2BABF02F075
:103234000F0C104F07F561474FEA4111C9B2B4BFF3
:1032440007F80C1087F800135B09012102F01F0234
:10325400094F254401FA02F247F8232044F83600C6
:1032640029710020F0BD0820FCE700BF882B002056
:10327400802B002014ED00E000E100E0036801224F
:103284001A607047036801225A60704773B58D0055
:1032940005F5A0750068ADB24FF480348C4000266B
:1032A400C0F80843C0F84843465101F5A871455990
:1032B400019522F07F42019D40F82120C0F844434B
:1032C4000BB1C0F8044302B070BD00002DE9F74F04
:1032D4008E0098464FF4803503688D4006F5A0793A
:1032E400C3F848531FFA89F9C3F8085307469819D5
:1032F4008A464FF0000BD3F8041522F07F44D0F82F
:103304004025C0F8401543F809B053F8093000933C
:10331400009B531A23F07F43012B0CD1254B4FF410
:10332400806043F0010398473B6843F809B053F8C1
:1033340009300193019B3868D0F80495C0F84453D0
:10334400A4EB090323F07F43012B1AD10AF5A87AD1
:10335400184B013440F82A4043F001034FF48060D5
:1033640098473B68D3F80435994508D13B68002059
:10337400C3F84453C3F8045303B0BDE8F08F0D20E1
:10338400FAE70644C8F1FF18C6F84045D0F80435FA
:10339400E21A013A22F07F4208F57F489045EED3C5
:1033A400002AE3D10134C6F84045D0F804259342FD
:1033B400DBE700BF20940E0003680222C3F8442315
:1033C40009B1C3F8042370474FF482710068FFF712
:1033D40009BF4FF4803303FA01F10368C3F84813BB
:1033E400C3F808137047890001F5A07189B2006819
:1033F400FFF7F8BE0368D3F80405704790F904306A
:1034040001215A0903F01F0301FA03F34032024970
:1034140041F82230704700BF00E100E0024B034A4C
:103424001B681068184700BF882B0020802B0020E1
:1034340018490A68002A38B50846174B25DC5C7819
:103444009A88D97BB4B15C7B651A95420FDC002263
:103454005A705A699C8002B10532026019790F488A
:1034640000F033F9A0B1BDE8384002F033B90A44A2
:103474009A80F3E79C7B6518954204DB01225A701D
:103484009C801A69E7E7521AF2E7FF3A0A60E5E717
:1034940038BD00BF002C00208C2B0020BC2B00204A
:1034A40070B543780546002B3CD082789A4239D2D5
:1034B400C378002B36D0C368002B33D01A4C542267
:1034C4000021204605F0C7FA1422294604F10C0015
:1034D40005F098FAEA78AB781344A38000232370AC
:1034E400EB68A360A3622B69227B6362FF2301263E
:1034F40084F8202084F821300C4A0D4B667004F1C6
:10350400200104F13000E36200F088F858B9A67095
:10351400A978EB78194404F13000C9B2BDE87040D1
:1035240000F0D3B8072070BD8C2B002035340E007A
:1035340028940E000146014800F0A4B8BC2B0020DA
:10354400014800F0B3B800BFBC2B0020014B186148
:10355400704700BF8C2B0020014B5861704700BF9F
:103564008C2B00200178036AC26821B1C3F80C25B2
:10357400002343707047C3F80825F9E738B5037D85
:103584000446002B3FD18369DBB9E378A2789A42E1
:103594001FD12078236AE168C0B1C3F8081501235C
:1035A4000532637022612379022B0ED1E36921690C
:1035B40018682246FDF77DFF38B1BDE8384002F0B7
:1035C40089B898472379022BDFD038BDC3F80C158E
:1035D400E5E733B92046FFF7C5FFA3780533236138
:1035E400E1E72578216AE06855B1C1F8080513FBC5
:1035F40002F31B1201210533617023612175D2E7A7
:10360400C1F80C05F3E7FFF7ADFF00230375C2789B
:1036140083789A1A53431B12E0E70000F8B58D68CB
:103624000B780370C0E902554B68826103624B78E2
:1036340083700446C868E061104A0021FDF72EFF3C
:10364400064640B90E4F0346032035B92046FFF71E
:1036540089FF012323713046F8BDEA070BD51F2BE0
:103664008BBF03F01F021A4639464FF0A04102F502
:10367400E07241F8220001336D08E6E781350E005F
:103684000003005070B5044602230371E1600D4647
:10369400FFF768FF836886692B43002583600575FF
:1036A4008561FFF76BFFA661284670BD38B5C36915
:1036B40004461868FDF715FF05462046FFF752FF3C
:1036C4000DB901232371284638BD83788B4226BF68
:1036D400C17000200720704710B561B1B2FBF3F44C
:1036E40003FB1424A4B244B9C0E9001484608281A9
:1036F400C381204610BD0E20FCE70920FAE737B548
:1037040050E8013F9DB2C48925448489A54228BF5D
:103714002D1B0489A54202BFBFF32F8F002207E0AF
:10372400C5EA030540E80154002CE9D14FF0010239
:103734008DF803200193019B9DF803200B6002F098
:10374400FF0322B10B880068184403B030BD18464B
:10375400FBE70A884B889A4209D150E8012FC2EA54
:10376400024240E80123002BF7D1012070470020DA
:10377400704737B550E8023F1FFAA3F5C488A54245
:1037840002BFBFF32F8F00220DE0C4892544848932
:10379400A54228BF2D1BC3EA054540E80254002C6E
:1037A400E8D14FF001028DF803200193019B9DF8AD
:1037B40003200B6002F0FF0322B14B880068184419
:1037C40003B030BD1846FBE70A884B889A4209D1FA
:1037D40050E8022FC2EA224240E80223002BF7D12C
:1037E400012070470020704750E8002F0B4640E846
:1037F400003C9CF0000FF7D11046704750E8002FB2
:1038040042EA010340E8003C9CF0000FF6D1104668
:10381400704750E8002F02EA010340E8003C9CF0A6
:10382400000FF6D11046704750E8003F03EA01024A
:1038340040E8002C9CF0000FF6D11046704701219F
:10384400FFF7DCBF0021FFF7E4BF0021FFF7ECBF67
:1038540010B590B1D0E9012301689B1ADBB20A606C
:10386400013BDBB2FF2B026802D10020107110BDB6
:1038740011684C1C14600B70F2E70E20F7E738B5A2
:1038840004460020FFF78CFC2268636811689942A3
:1038940013D9481E106011F8015CE368218A01FB0A
:1038A4000535A36811791B1ADBB2994200D2137152
:1038B4000020FFF777FC284638BD0025F8E738B527
:1038C400054600200C46FFF76BFC2A681368591C58
:1038D4001160E968641A298AB4FBF1F41C700020B1
:1038E400BDE83840FFF75EBC0B4620B11BB1036056
:1038F40011461B6818470E2070472DE9F04108B3A4
:1039040002B3D0F800E0BEF1000F1ED0FBB147684F
:10391400D7F80480B3FBF8F708FB1737BFB942EABE
:10392400010C1CF0030F14D1C768B94211D34C1E0B
:1039340005691C44AC420CD8DEF80C40A446BDE832
:10394400F04160470E20BDE8F0810820FBE7092024
:10395400F9E71020F7E7F0B5D8B1D0F800C0BCF112
:10396400000F18D0CAB14768D7F800E00EF1FF374E
:103974000F4214D1C768B94211D34C1E05690EFB1E
:103984000244AC420BD8DCF81040A446BDE8F04039
:1039940060470E20F0BD0820FCE70920FAE710205C
:1039A400F8E700002DE9F04108B10368C3B90E4EF1
:1039B4000E4B14229B1B0024B3FBF2F3374602FB8D
:1039C40003F5A54201D1002008E03B5930190BB999
:1039D4001434F6E7DB6998470028F9D0BDE8F08194
:1039E400DB69BDE8F0411847080000201C000020F6
:1039F400014B4360002070472C940E00084670472A
:103A040000207047024B1868003018BF012070472F
:103A1400042C002008B50248FFF717FF002008BD5A
:103A2400042C002008B510461A4604F0EBFF0020D1
:103A340008BD00002DE9F041804686B013480E46CB
:103A440015461F46FFF7FBFE044630B1112018E06F
:103A540006EB043000F082F90134A542F8D10B489A
:103A6400FFF7F3FED8F8083000246BB10222684651
:103A74008DF80020CDE90146CDE903450597984727
:103A8400204606B0BDE8F0811846FAE7042C002071
:103A94002DE9F041804686B012480F4616461D4671
:103AA400FFF7CDFE0446D8B9AA083146384600F0DF
:103AB40083F90C48FFF7C9FED8F8083073B1012226
:103AC4008DF800200C9A05926846CDE90147CDE9AE
:103AD40003659847204606B0BDE8F0811846FAE72A
:103AE4001120F8E7042C002070B5446806460D4602
:103AF400206818B1B3682946984718B923682B6021
:103B0400256070BD2468F3E74368186808B102684B
:103B14001A6070474368186870474368186800B9AA
:103B240070478842026802D11A6001207047034638
:103B34001046F4E7F0B578B371B36BB300241C609E
:103B44000A44DB274FF0DC0C4FF0DD0E1C688A4280
:103B540004F1010500EB040604D11D60C023337099
:103B64000020F0BD0E78C02E05D0DB2E0CD01D60D9
:103B74000D78055506E01D6007551C68651C1D6021
:103B840000F804C00131E1E71D6006551C68651C9E
:103B94001D6000F804E0F5E70E20E2E710B588B3F5
:103BA400D0E9023293422FD00278012A10D003D3F5
:103BB400022A21D0112012E0C02927D0DB2902D10A
:103BC40001230370F6E742685C1C8460D154F1E77A
:103BD400DC2905D0DD290AD0022303700B2010BD97
:103BE400591C42688160C021D1540023E9E7591C63
:103BF40081604268DB21F7E7C029DBD10023037031
:103C04008360D7E70E20EAE70420E8E70020E6E730
:103C140038B5084C04F108030546002818BF1C46B3
:103C240023682BB11A6822605B6828469847F7E737
:103C340038BD00BF102C002020B9054B01225A705A
:103C4400FFF7E6BF012802D1014A9070F8E77047F8
:103C5400082C002038B5094C23786BB908486360F8
:103C6400A3602361E36000F0D3F8054600F0DEF8BA
:103C740001232370284638BD8525FBE7082C002046
:103C84003D3C0E0038B5134C6378054603F0FF0045
:103C940073B115B16B68002098470020FFF780FAD4
:103CA4006368013363600020BDE83840FFF77ABAE7
:103CB400FFF776FA25B1A26813463BB92A60A560DE
:103CC4006368002BECD100F0C7F8E9E79D42F7D018
:103CD4001B68F2E7082C002038B5084C0020FFF7D9
:103CE4005FFA6368013B6360656815B900F0C6F864
:103CF40065700020BDE83840FFF754BA082C002056
:103D040010B5074C23784BB9064B002808BF18465A
:103D140000F00AF908B90123237010BD8520FCE7DF
:103D24001C2C002058940E0008B500F030F9BDE8B2
:103D3400084000F033B910B50446FFF7F5FF2046FC
:103D440000F014F900F01CF9002010BD024AD2F86A
:103D54000034002BFBD0704700E001400A4908B54D
:103D64000223C1F80435BFF36F8FBFF34F8FC1F83F
:103D74000805FFF7EBFF0023C1F80435BFF36F8F8D
:103D8400BFF34F8F08BD00BF00E0014010B5094CE0
:103D94000123C4F80435BFF36F8FBFF34F8F016065
:103DA400FFF7D4FF0023C4F80435BFF36F8FBFF3CC
:103DB4004F8F10BD00E001400E4B10B50124C3F835
:103DC4000445BFF36F8FBFF34F8F01EB8204401A9A
:103DD400A14208D1074B0022C3F80425BFF36F8F1B
:103DE400BFF34F8F10BD431851F8042B1A60FFF72F
:103DF400ADFFEDE700E0014050E8002F02EA0103C7
:103E040040E8003C9CF0000FF6D1104670470000DB
:103E1400054A13792BB901211060117153711846A9
:103E240070478520704700BF202C0020084B1A687B
:103E3400D2075FBFC02283F8002301221A604FF02B
:103E440080420123C2F81835024A1370704700BF3C
:103E540000E100E0282C0020074B00221A6082B009
:103E64001B680193019B4FF080430122C3F8042394
:103E74001A6002B0704700BF00010040074B0122E6
:103E84001A604FF08042D2F80C3403F00113B3F1FE
:103E9400011FF8D0024B00225A7170470400004001
:103EA400202C0020154B07B51A687AB100221A603D
:103EB4001B680093009B4FF080430122C3F8082342
:103EC4000F4B587910B95A711B6898470D4B1A68F3
:103ED40082B100221A601B680193019B4FF080435A
:103EE4000222C3F80823064B1B68012003B05DF8C7
:103EF40004EB184703B05DF804FB00BF0001004069
:103F0400202C00200401004000F1804382B01A6894
:103F1400002A14BF0120002004D000221A601B686C
:103F24000193019B02B070470E4B1A78C2B9027814
:103F34004FF08041C2F34002C1F88025027802F0BC
:103F44000102C1F87825084A1168C9075FBFC0217A
:103F540082F800130121116001221A7000207047B9
:103F640085207047382C002000E100E0034B00223C
:103F74001A60026802B11A60704700BF342C002036
:103F84004FF080434FF46072C3F8042370474FF03E
:103F940080434FF46072C3F808237047014B00223A
:103FA4001A607047342C00204FF0804310B5D3F8CA
:103FB4000443620707D54FF48470FFF7A5FF10B1DF
:103FC4001E4B1B689847A30608D54FF48A70FFF769
:103FD4009BFF18B11A4B00201B689847600608D550
:103FE4004FF48C70FFF790FF18B1154B01201B683C
:103FF4009847210608D54FF48E70FFF785FF18B156
:10400400104B00201B689847E20508D54FF49070C8
:10401400FFF77AFF18B10B4B01201B689847A305E3
:104024000AD54FF49270FFF76FFF28B1054B0220B9
:104034001B68BDE81040184710BD00BF2C2C0020A1
:10404400302C0020342C002008B5FFF7ADFFBDE86C
:104054000840FFF727BF0000044A91689368CB1A11
:1040640023F07F438342F9D3704700BF10E000E0A0
:10407400034B044A1B68B3FBF2F35843FFF7ECBF4E
:104084005800002040420F0000F1804000F51C3031
:1040940001230360BFF36F8FBFF34F8F704700009E
:1040A400064A10F0800F00F00F0314BFD2F8100579
:1040B400D2F81405D84000F00100704700700240A7
:1040C400054B1B68082B01BF044B1868B0FA80F03D
:1040D400400918BF0020704730010010340100105F
:1040E40030B54C680D689C4229BFC0E900530021DB
:1040F400E41AED1832BFC0E900514C600D609342E0
:1041040003D1201C18BF012030BD0020FCE74B6800
:1041140010B59A420C6828BF1A46C0E90042981AA2
:104124000B684860134400300B6018BF012010BDB9
:1041340030B54C680B68A24228BF2246002A14BF3F
:104144001D460025A4EB02041344C0E900524C6050
:104154000B6014BF0120002030BD0000054B10F09F
:10416400800FA3F1900208BF134600F00F0003EB89
:1041740000107047AC2D002010F0800F14BF0023F6
:10418400102300F00F00184470470000054B1B6813
:10419400082B02BF044B00221A60044B00221A7041
:1041A400704700BF300100101C7C02403A2C0020F4
:1041B40007B5084A00231370074A019302A8137035
:1041C400012300F8043D054B1B68984703B05DF8D4
:1041D40004FB00BF392C0020402E00203C2E002080
:1041E40070470000F8B54D680B4F954228BF15463F
:1041F4000C4606462A460968384604F003FC606803
:104204002368401BC6E9007560601D4400302560CA
:1042140018BF0120F8BD00BF482E0020F8B54C6837
:10422400944228BF144606460D468CB1094F0968CE
:104234002246384604F0E6FB37606B6874601B1B4B
:104244006B602B68201C23442B6018BF0120F8BD31
:104254000460F2E7482E002007B500238DF80430EF
:104264000B4BD3F82025ADF80620D3F8C034094A07
:10427400002B13680CBF4FF480714FF001210B43E6
:104284001360054B01A81B68984703B05DF804FB55
:1042940000700240182D00203C2E002008B5014675
:1042A400FFF774FFFFF75AFF837B032B0AD10846FD
:1042B400FFF762FF01218140C9430448BDE808407B
:1042C400FFF79ABD0368002BF1D008BDA82C00208D
:1042D4008720FFF7E3BF8620FFF7E0BF8520FFF7C5
:1042E400DDBF8420FFF7DABF8320FFF7D7BF82202A
:1042F400FFF7D4BF8120FFF7D1BF000013B5FFF74C
:1043040045FF114B93F81E21032A06D16FF48071E7
:104314000E48FFF771FD02B010BDD3F81041002C18
:10432400F9D16FF480710948FFF766FD06238DF813
:10433400043088238DF80630054B8DF807401B6840
:1043440001A89847E7E700BF1C2D0020A82C0020F7
:104354003C2E002008B5FFF719FF084B93F89E2068
:10436400032A06D16FF001010548BDE80840FFF7B4
:1043740043BDD3F89030002BF4D008BD1C2D002091
:10438400A82C0020012273B502FA01F51E491F4E24
:104394000B6810F0800F43EA050304460B6027D036
:1043A40000F00F021A4B33F8123003F1804303F587
:1043B4001C331A684AB100221A60BFF36F8FBFF32F
:1043C4004F8F802811D0FFF769FF316829400AD147
:1043D40006238DF804308DF806408DF807100D4B38
:1043E40001A81B68984702B070BDFFF7B3FFECE764
:1043F40033681D42F7D106238DF804308DF806008A
:104404008DF80720EBE700BF182D0020A82C002012
:1044140062940E003C2E002008B5054B1A78104615
:10442400FFF7AAFEBDE8084001461046FFF7AABF01
:10443400402E0020FFF78EBF13B5FFF7A7FE0D4BEC
:1044440093F88E20032A13D0D3F8804084B96FF0F8
:1044540080710948FFF7D0FC06238DF80430082347
:104464008DF80630054B8DF807401B6801A8984766
:1044740002B010BD1C2D0020A82C00203C2E0020D2
:10448400204B13B5D3F80044C3F80044BFF36F8F37
:10449400BFF34F8FBFF36F8FBFF34F8FE1050BD582
:1044A400194B01221A7002A800230193022300F879
:1044B400043D164B1B689847A2050AD5124A0023EF
:1044C40002A801931370032300F8043D0F4B1B68EB
:1044D4009847630513D50C4B1A7882B100221A70E1
:1044E400084B0121C3F808155820FFF7CDFD02A899
:1044F4000423019200F8043D044B1B68984702B062
:1045040010BD00BF00700240392C00203C2E00205A
:10451400064B1868082802D104331B6823B9A0F19C
:104524000D03584258417047012070473001001074
:104534002DE9F04F764B87B01A780193002A40F0AA
:104544008680DFF8D4B1734B1968734B1C68214023
:104554007DD011F001247DD094FAA4F4B4FA84F44B
:104564000F2C86BFA4F110085FFA88F844F0800885
:104574004046FFF7F3FD4FFA88FABAF1000F0646FA
:1045840008F00F0582896ADAD0E9003104A8984757
:1045940000B93060614B1B68082B02BF604B82225C
:1045A4001A60019B059A049801211970A140B3680F
:1045B400DBF80040134424EA0101BAF1000FB360B0
:1045C400CBF80010574B78DA072D9BBF142101FB61
:1045D4000533C3F8A006C3F800068CBFC3F8A426AD
:1045E400C3F80426FFF76CFDAB002DB26E004E4AF3
:1045F4004E49002872D0BAF1000FB5BF92468A46E0
:1046040004242824B2444A4D4A4E1C4400272F60F7
:10461400BFF36F8FBFF34F8F2046FFF735FD0220A6
:10462400FFF726FD2B68002BF1D01E20FFF720FD9D
:1046340033689B0650D50120FFF71AFDBAF8003005
:1046440003F1804303F51C331B68002BDFD007B054
:10465400BDE8F08F91FAA1F1B1FA81F480E7072D5A
:10466400304B25D9D3F8C09419F4803F18BF4FF0CC
:1046740000094B467168376804A8B847049B002BAF
:1046840086D0059B4B4583D201210225A140B573F9
:10469400C9432048FFF7B0FB06238DF80C30264BA6
:1046A4008DF80E808DF80F501B6803A898474AE7D1
:1046B40005F5947153F82190DBE7072D9BBF142176
:1046C40001FB0533C3F8A007C3F800078CBFC3F888
:1046D400A427C3F8042785E70220A7E7BAF1000F4F
:1046E400ACBF282004201844FFF7CEFC12EA2A0AA3
:1046F40038BF8A4611493AF8153003F1804303F56F
:104704001C331A68002AA2D10A68002AF9D09EE74D
:104714003A2C0020A82C0020182D00203001001075
:104724001C7C02400070024062940E007E940E00D5
:1047340004710240747402403C2E00200071024057
:1047440038B5174BD3F86C44C3F86C44BFF36F8F80
:10475400BFF34F8FFFF7B4FC38B1124A136823F04C
:10476400011103F001130C43136001251CB9BDE8CA
:104774003840FFF7DDBE94FAA4F3B3FA83F30F2BAA
:10478400D9B2C8BFA1F1100005FA03F3CCBFC0B27F
:1047940041F0800024EA0304FFF7F4FDE6E700BFDC
:1047A40000700240442E002037B50446FFF7EEFCAB
:1047B400FFF7D4FC837B032B0CD12046FFF7DCFCF2
:1047C40001218140C9430F48FFF716FBFFF7B0FEF4
:1047D40003B030BD0568002DF8D12046FFF7CCFCAE
:1047E40001218140C9430748FFF706FB06238DF8E2
:1047F4000430054B8DF806408DF807501B6801A85E
:104804009847E3E7A82C00203C2E00200720FFF760
:10481400CBBF0620FFF7C8BF0520FFF7C5BF0420A4
:10482400FFF7C2BF0320FFF7BFBF0220FFF7BCBFE3
:104834000120FFF7B9BF0000024A00231360024AB7
:10484400137070473C2E00203B2C00204D4B4FF43E
:10485400006210B5C3F80024BFF36F8FBFF34F8F0E
:10486400FFF756FE80B10020FEF79AFC464B474AFC
:104874001868032100287AD149F275301860116054
:1048840018600020FEF78EFC414B1B68082B10D1EA
:104894000020FEF785FC3C4B3E4A1868C0210028E6
:1048A40067D149F275301860116018600020FEF776
:1048B40079FC344B0122C3F80025BFF36F8FBFF39B
:1048C4004F8FD3F800241205FBD54FF40062C3F8D0
:1048D4000024BFF36F8FBFF34F8F2D4B1B68082B42
:1048E4000FD10020FEF75CFC274B2A4A18680028E9
:1048F40041D149F275311960106019600020FEF74A
:1049040051FC234B1B68082B09D1234B40F2E37263
:104914001A6040225A60BFF36F8FBFF34F8F194B59
:1049240000248022C3F81C25C3F830451B4B40F2F9
:10493400FF121A601A4B1C60FFF728FC194B1C70FD
:10494400194B02221A70FFF7E3FDC8B12046FEF7A7
:1049540027FC0D4B0D4A186880B949F2753119606E
:10496400106019600020BDE81040FEF71BBC116008
:1049740087E711609AE700231360BFE71460F1E74B
:1049840010BD00BF0070024000EC064014ED06406C
:104994003001001014EC064000780240182D00206D
:1049A400A82C0020402E00203B2C002008B50F4BE3
:1049B40000221A70C0B9FFF783FB0D4B0D4A002883
:1049C40014BF184610460C4B0C4AC3F80403C0210C
:1049D40082F82713802151600122C3F80425BFF314
:1049E4006F8FBFF34F8F08BD0148ECE7392C0020CF
:1049F4000714E0010714C0010070024000E100E068
:104A0400024B1878003018BF012070473B2C00205F
:104A1400034B1878012894BF00200120704700BF81
:104A24003B2C002010B50020FEF7BAFB124B1B787C
:104A340003F0FF04BBB1114AD2F82C35D3B10023E3
:104A4400C2F82C350E4B1B68082B0CD10D4B186883
:104A540002F58F2202F21442C02148B949F275309E
:104A64001860116018600020FEF79CFB204610BD02
:104A74001160F8E71C46F6E7392C0020007002406C
:104A84003001001000EC0640024B034AC3F808232F
:104A9400704700BF0070024004148001024B034AB7
:104AA400C3F80423704700BF00700240041480015F
:104AB400014B00221A707047392C002008B5FFF70B
:104AC4004DFB818108BD00001B4B70B51C7884BB75
:104AD4001A4A106001221A70264664F07F05082CD9
:104AE400EDB20CBF4FF4007140212846FFF7E6FFFA
:104AF4002846FFF733FB0134092C86730660866071
:104B0400EBD10024402125462046FFF7D7FF20465D
:104B1400FFF724FB0134E4B2092C8573056085603A
:104B240001D1002070BD082C0CBF4FF4007140214E
:104B3400EAE70820F6E700BF3B2C00203C2E0020CB
:104B440008B5FFF70BFB808908BDFFF7A9BA000081
:104B54002DE9F0410C460746FFF70EFB0646002000
:104B6400FEF71EFB17F00F0103D1284B1B78BB4245
:104B740047D1274A274B12681D68D243012092B2BD
:104B840000FA06F62A43324298463CD13846FFF7EB
:104B9400E5FA0C233A06844603FB01F32DD51E4A9D
:104BA4002168134401F06041A268B1F1005F02F092
:104BB40001021DD1D2B9194ACCF8002094E80700AB
:104BC40083E80700CCF80430154B002435438022D9
:104BD400CCF808408CF80E40C8F80050C3F8042103
:104BE4000020FEF7DFFA2046BDE8F0810D4AE3E736
:104BF4000AB90D4AE0E70D4ADEE70D4A13440D4AAF
:104C0400DAE71024ECE71124EAE700BF402E002085
:104C1400182D0020A82C0020AC2C002013410E00DD
:104C240000E100E035410E00E9410E0021420E0092
:104C34003C2C0020E5400E002DE9F0420746894651
:104C4400FFF79AFA04460020FEF7AAFA3B0703D1BD
:104C5400154B1B78BB4222D1144B15491B680E68B7
:104C6400DB4301259BB2A540334313EA050418D165
:104C74003846FFF773FAD9F800300360D9F80430E6
:104C840043600C4B84603543802284730D60C3F809
:104C940004210020FEF786FA2046BDE8F0821024A5
:104CA400F7E71124F5E700BF402E0020182D00205F
:104CB400A82C002000E100E000487047482E0020A6
:104CC400044B40F48070C3F81805BFF36F8FBFF333
:104CD4004F8F70470070024000F00F03072B11D86C
:104CE40010F0800F084A0BBF03F5887303F5847333
:104CF40002EB830352F8230008BF5868431E58424E
:104D0400584170470020704700700240064BC3F8BA
:104D14000C05BFF34F8F40F48070C3F80C05BFF34C
:104D24006F8FBFF34F8F70470070024010B5082299
:104D34000021044603F08FFE0E4BD3F8802422702A
:104D4400D3F884246270D3F88824D3F88C1442EA0C
:104D540001226280D3F89024D3F8941442EA012209
:104D6400A280D3F89824D3F89C3442EA0323E38046
:104D740010BD00BF0070024008B5FFF7A1F958B19B
:104D8400EFF3108272B64C20FFF77EF94C20FFF748
:104D94007BF982F3108808BD4C20BDE80840FFF77A
:104DA40073B9000013B5FFF7F1F9104B9A7B032A8E
:104DB40006D16FF480310E48FFF71EF802B010BD23
:104DC4001C6884B96FF480310948FFF715F806238D
:104DD4008DF80430074B8DF806408DF807401B68AA
:104DE40001A89847EAE7FFF7C7FFE7E71C2D002073
:104DF400A82C00203C2E00205020FFF745B9542059
:104E0400FFF742B9014B1878704700BF402E0020CD
:104E1400F8B50246FFF754F90746104602F00F04AE
:104E2400FFF7AAF901258540ED43144E97B1002000
:104E3400FEF7B6F93068124B28406400306004F283
:104E4400C57400201C60586004331B68BDE8F8403A
:104E5400FEF7A8B93846FEF7A3F93068072C00EA34
:104E64000500306008D804F59474064B43F82470A8
:104E7400BFF36F8FBFF34F8F0020E7E7182D00209B
:104E84000078024000700240F7B504460020FEF7A7
:104E940087F92046FFF762F905462046FFF76CF9CB
:104EA400012314F0800F03FA00F0294916D10B688E
:104EB40030EA030209D02046FFF7AAFF0323AB73AD
:104EC4000020FEF76FF903B0F0BD2A60C043214A09
:104ED40003400B60136803401360EFE704F00F0214
:104EE400072A0FD8802C1C4E1C4B27D002F2DA3232
:104EF400520032601A681E68D2B242F00202324393
:104F04001A601B68134E0A68336862EA0307074293
:104F1400D6D022EA0002184300230A602B60032340
:104F2400AB738DF807300E4B306006228DF80420E9
:104F34008DF806401B6801A89847C1E740F2B47297
:104F440032601A681E68D2B242F00402D7E700BF8A
:104F5400A82C0020182D002000780240047802407C
:104F64003C2E0020FFF790BFF7B5174B174CD3F832
:104F740080542368164EDA43164B37781B6892B276
:104F840038461A43FFF7F8F8012303FA00F01042F9
:104F940002D03846FFF778FF6FF0011105F0800565
:104FA4000C483570FEF728FF236843F001032360A3
:104FB40002A800230193052300F8043D064B1B6857
:104FC400984703B0F0BD00BF00700240182D0020C8
:104FD400402E0020A82C00203C2E0020554B2DE90B
:104FE400F041D3F80453002229461646012400292F
:104FF4007CD1FFF765F8002869D04F4B1B78002B54
:1050040065D1960263D54D494C4E40F2A9730B60AD
:105014004B4B1C6814F0FF041CBF1868044040F29A
:10502400AA700860186810F0FF001CBF19680840D7
:1050340040F2AB713160196811F0FF01B4461CBF36
:105044001E68314040F2AC76CCF800601E683440F3
:105054003C4E08D037682743376040F2A977CCF834
:1050640000701C601C68354F40F2AD743C601C68D5
:10507400204008D0346844EA0044346040F2AA7402
:105084003C60186018682D4840F2AE7404601868DB
:1050940001400DD0CC0748BF42F40002C80627489F
:1050A40040F2AB74046019601B6848BF42F001020F
:1050B400336833F001111CBF05F08070024313F014
:1050C400011F04D06B0544BF316042F480621E4F5F
:1050D40002F4000622F400044FF00108E4B9FFF7DB
:1050E40027FA2EB3BDE8F041FFF73EBF91FAA1F3D2
:1050F4001648B3FA83F39F00384407683FB106604B
:10510400BFF36F8FBFF34F8F04FA03F0024304FA27
:1051140003F321EA03016AE794FAA4F5B5FA85F5E5
:1051240057F8253008FA05F5984724EA0504D5E729
:10513400BDE8F081007002403A2C00200078024063
:1051440004780240442E002090940E000071024026
:10515400F8B5114E114A34681268240C240414431F
:1051640001271CB940F2FF133360F8BD94FAA4F58B
:10517400B5FA85F5E8B20F2DC6BF1038C0B240F0BD
:10518400800000F00F03072B01D8FFF77DFE07FA1C
:1051940005F524EA0504E4E7182D0020A82C0020D6
:1051A40038B50C4C8025C4F8845163681B060FD5B0
:1051B400FFF7CEFF084B0022C3F80425BFF36F8F1F
:1051C400BFF34F8F4FF0FF32C4F88450C3F8082365
:1051D40038BD00BF00E100E00070024008B5FFF7F1
:1051E400DFFF094BD3F80423C3F808230022C3F8D4
:1051F4000025BFF36F8FBFF34F8FFEF7C7FF034B3D
:1052040001221A7008BD00BF007002403B2C002030
:1052140010B50020FDF7C4FF0E4B1B7803F0FF040C
:105224002BB900240020FDF7BDFF204610BDFFF779
:105234008FFF094AD2F8003413F40073F1D101212D
:10524400C2F82C15D2F80014890544BFC2F82C35D5
:105254001C46E7E7392C00200070024010B50446D4
:10526400FFF712FE134A04F00F0064B2002C4FF053
:105274000103B4BFD2F81015D2F8141503FA00F3E1
:105284006FEA0303B5BF0B400B40C2F81035C2F8F8
:105294001435BFF36F8FBFF34F8F074B074A33EAC1
:1052A400240428BF14460123225C9340014AC2F817
:1052B400083310BD0070024074940E0059940E001F
:1052C400F8B5214A214B224D47B233EA270328BFC0
:1052D400134600F00F0401211B5D01FA03F3C5F826
:1052E40004330646FEF7DCFE68BB002FB4BFD5F8D6
:1052F4001035D5F8143501FA04F1B5BF1943194333
:10530400C5F81015C5F81415BFF36F8FBFF34F8F91
:10531400013C062C17D8002F15DB0020FDF740FFB9
:105324003046FFF775FD3046FEF726FF094A012394
:1053340003FA00F0136823EA000313600020BDE8B9
:10534400F840FDF72FBFF8BD59940E0074940E0079
:1053540000700240A82C0020030610B504460AD4AD
:1053640000F00F03072B06D89B00074AD358012BE4
:1053740001D1FFF74DFD054BC3F81845BFF36F8FFF
:10538400BFF34F8F10BD00BF447402400070024051
:1053940028B139B10023C1E900301846704748F2FA
:1053A4001050704748F21350704730B1036848F208
:1053B40040508B4208BF0020704748F2105070479D
:1053C40028B148F21150914208BF0020704748F2BA
:1053D4001050704770B506460C461D46FFF7D8FFBF
:1053E40050B9B3794AB1AB420AD111462046FBF712
:1053F400D3FD08B9044B236070BD48F21050FBE79D
:1054040048F21150F8E700BF7052464D2DE9F043C1
:1054140083B00D4602AF04461149D7F820802846D0
:1054240016469946FFF7C1FF98B96B68796A5A79AD
:1054340040465200FFF7C4FF58B976B10CB9ACB07E
:1054440002ACCDF800804B46324629462046FBF795
:10545400B3FD0437BD46BDE8F08348F21050F8E7C9
:105464007052464D10B5044638B149B141600B68DD
:10547400984708B9044B236010BD48F20150FBE77C
:1054840048F21050F8E700BF6E524648F0B448B1F5
:1054940007680A4EB74209D159B16AB14368F0BCF2
:1054A4005B68184748F20150F0BC704748F202505C
:1054B400FAE748F21050F7E71046F5E76E5246480F
:1054C400F0B460B107680C4EB7420CD171B14368B7
:1054D4001568DC68A5420CD39B68F0BC184748F2F9
:1054E4000150F0BC704748F20250FAE748F21350FA
:1054F400F7E748F21450F4E76E5246482DE9F041BC
:10550400044617469846DDE90656FFF7ABFF60B937
:10551400424639462046FFF7B9FF30B9324629469C
:105524002046BDE8F041FFF7CBBFBDE8F0810000A5
:10553400F8B50A4F0A4C0B4DE41B0121E40829700D
:105544000026A64203D102232B700020F8BD57F891
:10555400363098470028F9D10136F2E750920E0010
:1055640058920E00882E002001390144884200D947
:10557400704703780A7800F8012B01F80139F5E740
:10558400013A02440139824200D2704711F8013FC6
:1055940002F80139F7E770B516460D46FFF7F0FF3C
:1055A4003246A9193044BDE87040FFF7E9BF38B569
:1055B4000D460446FFF7D8FF29466019BDE8384078
:1055C400FFF7D2BFBFF34F8F0549064BCA6802F4F9
:1055D400E0621343CB60BFF34F8F00BFFDE700BF12
:1055E40000ED00E00400FA0530B52D4D297887B0B0
:1055F400044641B92B4A2C48FBF750FF08B1FFF78A
:10560400E1FF01232B70072C3DD8DFE804F01334AD
:105614003E3C3C043C04FDF793FF0028EFD12348B3
:10562400FBF75FFF0028EAD14FF48040FDF782FFCB
:1056340048B3E4E70120FAF7D9FF4FF08043D3F8E9
:105644001834DB035EBF1A4B01221A60FBF7F4FE29
:105654000028D4D1174D0FCD01AC0FC42B682360A3
:1056640042F26663CDE9023301A8FF238DF80530C9
:10567400FDF716FFD6E741F23330FDF767FF41F23D
:105684003330FDF769FF07B030BDFDF759FF00283F
:10569400B5D1064A40F266611046FBF70AFFC7E738
:1056A400B02E0020BD560E0048950E00902E00200E
:1056B4000800004034950E0008B5024640F26661C9
:1056C400FBF7F7FE08B1FFF77DFF0120BDE80840B6
:1056D400FAF772BF08B5FFF775FF000008B500F0D0
:1056E400A3FB002210464FF4805100F035F9024626
:1056F40008B1FFF767FF0548C0F57E2100F02CF9DB
:105704000028F6D1024800F051F8F2E700000E003C
:10571400ED550E00014B01221A707047D43200205F
:10572400BFF34F8F0549064BCA6802F4E062134386
:10573400CB60BFF34F8F00BFFDE700BF00ED00E07B
:105744000400FA05024B034800221A7001F046B81F
:10575400D432002025570E00831E10B50446052BB5
:1057640008D8DFE803F0150303070E0E0A490020EA
:1057740000F038FA094B1B686BB12046BDE81040B5
:105784001847074B074800221A7001F027F8F1E781
:1057940000F066FFEEE710BD49570E00D832002036
:1057A400D432002025570E000020704738B5554BE1
:1057B400554A18604FF0A0430020C3F8202701F099
:1057C40023F8054640B900F0D9FA012800F0918089
:1057D40004D3022800F09380032038BD4FF08042A8
:1057E400D2F8004414F4803434D04FF48033C2F837
:1057F40000342C46454D2B6A012B3ED0002400F08A
:1058040053FB434A20211820FBF7DEFC08B1FFF7C5
:1058140061FF4FF08043D3F80024D20742BFD3F88E
:10582400002442F00102C3F80024FFF7BDFF002862
:10583400D2D12046374900F0D5F9374800F062FC50
:105844000028C9D100F056FBFBF742FD20BF40BF42
:1058540020BFF7E7D2F8203503F0F803A82B0AD1CC
:10586400D2F82035DD0706D5D2F8203503F05603EB
:10587400C2F82035BEE70124BCE743F204031A68EA
:10588400264B9A420AD001F02FF80146A4B1AA6926
:10589400234801F0F9FA0028B0D011E01CB995F8BA
:1058A4006032012BEFD06A6B1E484FF4805101F037
:1058B400EBFA0028A2D0E6E795F8A132012BE6D155
:1058C4004FF0A043D3F81035D80597D54FF0804357
:1058D400D3F80034D90791D400F0A5FF00287FF451
:1058E4007BAF114B1870114800F078FF00F022F8DC
:1058F40072E70D4B0E481D7000F070FF6CE74FF41B
:10590400A0247CE7D83200200C000300FC390020DE
:10591400B42E002049570E005D570E00DBE5B1514F
:105924009D3C00205C3C0020D432002019570E001E
:1059340025570E0008B5074B4FF0FF32C3F88020FF
:10594400C3F8802100F039FC4FF48050BDE80840D2
:1059540000F03EB800E100E0F0B5C1F30B048CBBED
:10596400B0F57F2F2ED8184D184F2B68002A08BF8A
:105974000226224618BF06262C46072B05D902B15B
:1059840023600420F0BD0122F7E71D0105F18042E8
:1059940002F5F0323D44C2F80008C2F80418C5F814
:1059A4000868D2F800C8604503F10103EBD1D2F8CE
:1059B40004289142E7D1D5F808289642E3D1236020
:1059C4000020DFE70720DDE7DC32002000E00140B3
:1059D40010B5044617480022C0F58011FFF7BCFF3C
:1059E40008B1FFF777FE00F07FFF134B996901F6CA
:1059F400FF7121F47F6121F00F0100220144104660
:105A0400FFF7AAFF08B1FFF765FEEFF30583002354
:105A1400D4E9001283F3148883F3108883F3118884
:105A240083F3138881F308884FF0FF339E461047B1
:105A340010BD00BF00000E00FC39002037B56FF028
:105A44007F42154C057BD4F804358A4228BF0A46A8
:105A5400891A13444A1E942A23F07F4305F5A87239
:105A64009BBF963B96314160416044F822300B4B1A
:105A74004FF4F86043F001039847094BAA0013441C
:105A840000221A601B680193019B4FF48033AB40E2
:105A9400C4F8043303B030BD0040024050950E00FA
:105AA4004041024018490A7884B0002A29D14FF0B5
:105AB4008043A020D3F81834DB035EBF134B0122CC
:105AC4001A60134A0023136012680392039A114A5E
