:10000000702700202D0100002901000029010000B7
:1000100000000000000000000000000000000000E0
:1000200000000000000000000000000029010000A6
:10003000000000000000000029010000290100006C
:100040002901000029010000A10800002901000089
:1000500029010000290100002901000029010000F8
:1000600029010000290100002901000029010000E8
:1000700029010000290100002901000029010000D8
:1000800029010000290100002901000029010000C8
:1000900029010000290100002901000029010000B8
:1000A00029010000290100002901000029010000A8
:1000B00029010000290100002901000010B5064CAB
:1000C0002378002B07D1054B002B02D0044800E019
:1000D00000BF0123237010BD0003002000000000BA
:1000E00088140000084B10B5002B03D007490848BE
:1000F00000E000BF07480368002B00D110BD064B8D
:10010000002BFBD09847F9E7000000000403002013
:1001100088140000881400000000000010B5014B96
:10012000984710BDDD020000FEE7000010B5174A39
:10013000174B9A4211D01A00164B9A420DD2164A0A
:1001400003339B1A9B0801339B00002210480F4980
:100150008C58845004329A42FAD1104A104B9A4279
:100160000AD2D3430E495B1803218B4304339B18F7
:10017000002102C29342FCD10A4AFF210A4B8B4361
:1001800093600A4B98470A4B9847FEE78814000093
:1001900000000020000300200400002000030020D5
:1001A0006C07002000ED00E000000000F1120000EC
:1001B000C110000070B58223DB054820195C0422C1
:1001C00091431954195C0125A94301242143C9B263
:1001D00019541438195C0F26B1430D3E314319549C
:1001E00049215E5C96435E545A5CAA432243D2B2D4
:1001F0005A541A5C3A390A4011310A431A5470BDF4
:10020000064B4021CC2299500331043A9950044ABC
:10021000D36941390B43D3617047C046001C00408D
:100220000008004010B5044B984704490448054BAA
:100230009847054B984710BD01020000000400429A
:1002400030070020D9030000B501000030B582233B
:10025000DB054022995C0125A94301242143C9B251
:1002600099543020195C313A91430C3A1143195496
:1002700041215A5CAA432243D2B25A541A5C323901
:100280000A4021310A431A5430BD0000064B402178
:10029000D02299500331083A9950044AD3693F3922
:1002A0000B43D3617047C046001C0040000800406B
:1002B00010B5054B9847002204490548054B98475F
:1002C000054B984710BDC0468D0200000008004253
:1002D00024070020990600004D02000010B50A4BCB
:1002E00098470A4A516980239B000B435361084B8E
:1002F0009847020007490848084B9847084B984719
:10030000084B984710BDC046550700000008004044
:100310009D080000002400405007002071050000E7
:1003200025020000B1020000F0B583B00C001600F9
:100330001F00002801D003B0F0BD0A4D01A928001C
:10034000094B98472800094B984721B28022120197
:100350002800074B98473A0031000198054B984711
:10036000E9E7C04630070020370400001904000008
:10037000250400004104000010B584B0140001AB56
:100380001438828B1A800294054A5A80039119000E
:10039000044B9847002800D1200004B010BDC0468F
:1003A0000080FFFF810B000010B584B0140001AB8A
:1003B0001438828B1A800294054A5A8003911900DE
:1003C000044B9847002800D1200004B010BDC0465F
:1003D0000180FFFF810B000070B504000D00431E7B
:1003E0009841C0B25E220749074B98472900200078
:1003F000064B9847002803D1054BA361054B636169
:1004000070BDC04668130000E5060000CD0A00007C
:10041000A90300007903000010B5014B984710BDF7
:10042000FD0A00008905890D8023DB001A400A437C
:10043000828310007047143008600020704700006D
:1004400070B506000C00150000280DD00800431EF2
:100450009841C0B234220549054B984733682A00B9
:1004600021003000984770BD0020F3E7841300009E
:10047000E5060000F8B5CE46474680B581460368DC
:100480009C46002B05D08E681C0000250127BF1A52
:100490000DE0124B984718E0FB18A06880464344D3
:1004A000B3420CD223682500002B0BD01C006368DC
:1004B0009342F1D8A068804643449B1AF0E7A445D4
:1004C00007D02C002000064B98470CBC904699465C
:1004D000F8BD4846014B9847F7E7C04611070000B2
:1004E0003D070000F0B5C64600B582B0070044697C
:1004F0000369013398460361037EDB0711D4037E51
:100500009B070ED4002C10D0434662689B1AA26849
:1005100093420AD314239C46844463460193124EAB
:1005200014E03B7E022213433B7602B004BC9046AB
:10053000F0BD7D69E36820009847002DF5D02C00C0
:1005400043466A689B1AAA689342EED30198B04763
:10055000237C012BEDD14346636042462100019884
:10056000024B9847E5E7C0464507000075040000C8
:1005700070B505000C00002811D00800431E9841FA
:10058000C0B23B220749084B984721002800074B7F
:10059000984700232B61064B2B60002070BD002084
:1005A000EFE7C04698130000E506000031080000A0
:1005B000E5040000F8B5CE46474680B504000F00BC
:1005C0009046002826D0002926D01000431E9841CE
:1005D000F1221249124B98470834124D2000A847C7
:1005E0000028FBD00026104B99460E4DB95D200027
:1005F000C8472000A8470028FBD001364645F5D360
:100600000A4D2000A8470028FBD030000CBC9046C3
:100610009946F8BD0020DBE70020D9E7B0130000C1
:10062000E5060000AD0A00009D0A0000B70A0000C0
:10063000F8B5CE46474680B504000F009046002826
:100640001DD000291DD01000431E98418622520063
:100650000D490E4B9847002608340D4D0D4B994619
:100660002000A8470028FBD02000C847B855013615
:100670004645F5D330000CBC90469946F8BD0020A5
:10068000E4E70020E2E7C046B0130000E506000002
:10069000C10A0000A50A000070B505000C00002882
:1006A00013D00800431E9841C0B234220849094BB8
:1006B0009847280008302100074B9847002803D1AD
:1006C000064B6B60064B2B6070BD0020EDE7C0460B
:1006D000B0130000E5060000710A000031060000BA
:1006E000B5050000002800D100BE70470368002B4C
:1006F0000AD08B420AD01B68002B03D09942FAD152
:10070000012000E0002070470020FCE70120FAE70C
:1007100070B504000D00064B984701235840C0B245
:1007200039220449044B984723682B60256070BD2B
:10073000ED060000CC130000E506000003680B6026
:10074000016070470368002B01D01A68026018002E
:100750007047000010B5084B5A685A60074B98471D
:10076000074B9847074B9847074B9847FF20074B85
:100770009847074B984710BD00400041D50700003F
:10078000ED070000C90700002D080000A5070000C4
:10079000950700009022D205137802218B43137035
:1007A00070470000C30707D5044A054B1A621900B9
:1007B000044A4B681342FCD17047C0460601010051
:1007C000001C0040FD0700000122014B1A71704718
:1007D00000080040044BDA69F82149010A40DA6157
:1007E00001221A617047C046001400400E4B0222DD
:1007F0001A7509325A751900073A8B691A42FCD1E9
:10080000094904228B691A42FCD10722064B9A75CA
:1008100019000932CB681A42FCD0034A137D8021AB
:100820000B4313757047C04600100040704700002E
:1008300070B505000C00431E9841C0B23022124929
:10084000124B9847EC6001232380114A236913421D
:10085000FCD1EB6801211A691142FCD10D4A1A80C2
:100860000B491A690A42FCD1EA682023136220214D
:1008700013691942FCD180235B00EA685381064B5F
:100880001D60002070BDC046EC130000E5060000AE
:10089000038000008080FFFF1C03002000207047C1
:1008A00010B5084B1C68E3689B89DB0508D52368F5
:1008B000002B01D020009847E368802252009A81E3
:1008C00010BDC0461C03002010B5084B9C46604478
:1008D000800AC0B2002807D0E62292000449002016
:1008E000044B98470120404210BDC04600FCFFBDAC
:1008F0001C140000E506000070B505000C0008009F
:10090000314B9847C0B2E369DB0721D443001B1881
:10091000DB002E4AD31859681C2319400322E369CF
:100920001A42FCD123689B070BD52368022293430C
:1009300023600132E3691A42FCD10222E3691A42C0
:10094000FCD101230B4323600322E3691A42FCD14B
:100950000122E3691A42FCD143001B18DB001B4A49
:10096000D318596821600322E3691A42FCD143007D
:100970001B18DB00154AD3189B6863600722E369E4
:100980001A42FCD143001B18DB00104AD318DB6865
:10099000E3608901890FA981636A0D4E1E4001231E
:1009A0008B429B415B429B03334363620422E369B6
:1009B0001A42FCD143001818C000044B1818438A8F
:1009C000EB81002070BDC046C9080000041400007F
:1009D000FFBFFFFF10B504001F4BC3189B0ADBB21B
:1009E000012B04D01D4A1E4900201E4B9847E36985
:1009F000DB0718D40322E3691A42FCD123689B0762
:100A00000BD523680222934323600132E3691A4223
:100A1000FCD10222E3691A42FCD1052323600322A0
:100A2000E3691A42FCD10122E3691A42FCD10E4B60
:100A300023600322E3691A42FCD1C0239B02636056
:100A40000722E3691A42FCD1084BA3810023A37358
:100A50003022A354002010BD00FCFFBD3A0200006C
:100A60001C140000E5060000040010402BF6FFFFF8
:100A700070B505000C00431E9841C0B2B422044971
:100A8000044B98472C602000034B984770BDC0462C
:100A90001C140000E5060000D5090000036889B2B7
:100AA000198570470368188DC0B270470368187EB7
:100AB0000123184070470368187E8007C00F7047F5
:100AC0000368187E4007C00F7047000070B504002F
:100AD0000D00431E9841C0B2044A0549054B984792
:100AE000256129002000044B984770BD07050000D0
:100AF0001C140000E5060000F908000070B50400B1
:100B00001A4D431E9841C0B2194A2900194EB047E8
:100B100024692000431E9841C0B2174A2900B047FB
:100B200023680222134323600132E3691A42FCD195
:100B300004250422032010261049E3691A42FCD13F
:100B4000638B1B090340012B0AD001390029F4D122
:100B5000013D002D06D06683E3691A42FCD1EBE724
:100B6000002070BD06204042FBE7C0461C14000078
:100B700024050000E5060000F4050000FFFF00006A
:100B8000F0B5DE4657464E464546E0B583B0050013
:100B9000884604690600731E9E41F3B20193B44F68
:100BA000B44A39001800B44EB0472869431E984132
:100BB000C0B2B822D2003900B0474046431E984127
:100BC000C0B2AE4A3900B0476B88DB0500D526E2DB
:100BD00043465A8880235B001A4341464A802A00D4
:100BE000C1C9C1C26268134363600722E3691A4244
:100BF000FCD12F693B689946A14A9D4901989E4BBB
:100C000098476B68012B5AD07B689E4A13407B60E3
:100C10000722FB691A42FCD12B885A055CD56A88E9
:100C2000D20704D56A888021C9000A436A805B0024
:100C3000954919400422FB691A42FCD17B6A802243
:100C4000D2011A4080231B02134319437962042204
:100C5000FB691A42FCD129690B7EDBB28B4A032067
:100C6000184204D10B7EDBB2013A002AF8D13E686B
:100C70000421FA691142FCD17A8B92B2D90700D4CF
:100C8000A0E093073ED501233B766B888021490184
:100C90000B436B806B887E490B406B800120030007
:100CA00013405842584105386B88794A13406B808D
:100CB00003B03CBC90469946A246AB46F0BD4B46BD
:100CC0001B01A1D57A688023DB0213437B600722D6
:100CD000FB691A42FCD19FE76A885B00FF210B4049
:100CE000FE39114019430422FB691A42FCD17B6A88
:100CF0008022D20113400B437B620422FB691A421B
:100D0000FCD1A8E753071BD46B885B0535D52B882E
:100D1000DB09062119400422FB691A42FCD17B6AD7
:100D20008022D2011340F12213430B437B62ED3A40
:100D3000FB691A42FCD16B88564A13406B8066E00F
:100D40006B68002B04DD6B888022520113436B809B
:100D50006B881BB2002B06DB6B884D4A13406B80FF
:100D600002204042A0E77A68C0239B0213437B60C5
:100D70000423FA691342FCD1EEE76B68002B12D111
:100D80006B881BB2002B04DB6B88414A13406B80DD
:100D90003DE07A68C0239B0213437B600422FB6919
:100DA0001A42FCD1F0E7AB681A782823FA540422DF
:100DB000FB691A42FCD1AB680133AB606B68013B45
:100DC0006B6024E09B0722D56B68002B40D0520754
:100DD0003ED43601F60F013B6B60002B00D021E1C1
:100DE000002E00D124E16B881BB2002B1DDB6B8829
:100DF000274A13406B80A9684B1CAB600422FB6937
:100E00001A42FCD12823FB5C0B7002233B760026A0
:100E100080235B009A4603220421FF3B9C4601335A
:100E2000994626339B460196C2E07B68184A1340D8
:100E30007B600932FF32FB691A42FCD17A68C02319
:100E40009B0213437B600422FB691A42FCD1CEE76C
:100E500002233B760220404226E76268C0239B02C1
:100E6000134363600422E3691A42FCD1B5E0C04633
:100E70001C140000BF050000E5060000C1050000CD
:100E800094050000FFFFFBFFFE070000FFFF0000CE
:100E9000FFFEFFFFFFFBFFFF01421BD16B885B05DD
:100EA00035D52B88DB0906201840E3691942FCD1AF
:100EB000636A8026F6013340F126334303436362BD
:100EC000E3691942FCD16B887A4803406B800023A8
:100ED00001936DE06B68002B04DD6B88802040017E
:100EE00003436B806B881BB2002B07DB6B88724857
:100EF00003406B8002235B42019359E06068C0238A
:100F00009B0203436360E3691942FCD1EEE76B681F
:100F1000002B13D16B881BB2002B06DB6B88664855
:100F200003406B800023019342E06068C0239B0272
:100F300003436360E3691942FCD1EFE7AB681B78B8
:100F400058462354E3691942FCD1AB680133AB60C6
:100F50006B68013B6B600023019329E0002601963A
:100F60004E461E4224D06B68002B4FD001424DD11B
:100F7000FF0E60460740013B6B60002B00D084E011
:100F8000002F00D187E06B881BB2002B2CDB6B8815
:100F9000494803406B80A868431CAB60E369194271
:100FA000FCD15B46E35C03704B4623760023019340
:100FB0006B88504603422FD02E69337EDBB23F4808
:100FC0001A4243D1337EDBB201380028F8D14346C0
:100FD0005B881BB2002B00DA3FE76B88364A134070
:100FE0006B800520404263E66368334803406360DA
:100FF0000930FF30E3691842FCD16068C0239B02CE
:1010000003436360E3691942FCD1C0E74B46237692
:1010100002235B420193CBE7019E300048E60620A5
:10102000404245E6012B00D0E5E6002E00D1E2E685
:101030007A688023DB0213437B600722FB691A4234
:10104000FCD16B68002B00D1CDE6D4E62768E069BF
:101050000142FCD1608B80B266461E4200D17DE722
:101060004B46034200D117E726766B88802676012F
:1010700033436B806B88104E33406B80634618405F
:1010800046424641731F019392E7012B00D082E74D
:10109000002F00D17FE760688023DB020343636099
:1010A0000720E3691842FCD16B68002B00D16AE786
:1010B00071E7C046FFFBFFFFFFFEFFFFFFFF0000E1
:1010C00070B586B0144B98476A46144B694631CBCD
:1010D00031C111CB11C11B880B8016233C2100208C
:1010E0000F4CA04700200F4B984702230E4A0021C7
:1010F00000200E4CA04710250D4E02E00135502D6A
:1011000008D07F24012229002000B047053CE31CC1
:10111000F8D1F3E7FEE7C0461D01000038140000D7
:1011200029030000B9120000501400004112000011
:10113000D511000010B582B001AA002313705070C1
:1011400002333C210020024CA04702B010BDC04633
:101150002903000070B50500CB011B18084A136075
:10116000502040420843C0B2064EB0470F24200032
:101170002840B0472D112C4010202043B04770BDAF
:101180002003002035110000F0B5A5B00C0003AE1F
:10119000402333700A000190010002AB581D0A4F32
:1011A000B847631C9BB232003C210020074EB04779
:1011B000074E300020C8401922000199B847641931
:1011C000346025B0F0BDC04639130000290300008B
:1011D0002003002070B582B0CE10F3011B18144C10
:1011E000A34222D8134DEB181D7907240C4001238C
:1011F000A3405BB269B2002A13D199436B46D971FF
:101200006B46DA790023AA4208D031000A4B98478E
:1012100001216B46D81D094B98470023180002B0E6
:1012200070BD0B436A46D371EAE701235B42F5E7E1
:10123000FF03000020030020551100008911000069
:10124000F0B583B0060001911500022B23D81000E1
:10125000154B984704000700700080194000019961
:10126000124B9847A419152C01DD1527BF1B002F21
:1012700014DB16DD2C00ED190D4F0E4E23785800AF
:10128000C018400038180621B0470134AC42F5D1EF
:10129000002003B0F0BD01204042FAE701204042A7
:1012A000F7E70020F5E7C0465B130000551100008A
:1012B000000000208911000070B5A0B0010080225C
:1012C0006846084B98470024074E084D210000202F
:1012D000B04780216846A8470134082CF6D1002089
:1012E00020B070BD4B1300005511000089110000A3
:1012F00070B500260C4D0D4C641BA410A64209D1FC
:10130000002600F0B1F80A4D0A4C641BA410A64256
:1013100005D170BDB300EB5898470136EEE7B30036
:10132000EB5898470136F2E774140000741400007B
:101330007414000078140000002310B59A4200D104
:1013400010BDCC5CC4540133F8E70300821893420B
:1013500000D1704719700133F9E70023C25C0133F3
:10136000002AFBD1581E70472E2E2F68616C2F73F8
:1013700072632F68616C5F6932635F6D5F73796E52
:10138000632E63002E2E2F68616C2F7372632F689B
:10139000616C5F696F2E63002E2E2F68616C2F7356
:1013A00072632F68616C5F74696D65722E630000F3
:1013B0002E2E2F68616C2F7372632F68616C5F75BE
:1013C000736172745F73796E632E63002E2E2F68C3
:1013D000616C2F7574696C732F7372632F757469E8
:1013E0006C735F6C6973742E630000002E2E2F687F
:1013F000706C2F7274632F68706C5F7274632E63ED
:1014000000000000000000001400200000010000A7
:101410000E0F00000000D70000093D002E2E2F689F
:10142000706C2F736572636F6D2F68706C5F73657E
:1014300072636F6D2E63000000AEA83FD30040A121
:10144000C8DA1281FFA4A6D5808D14AF2002000057
:10145000456D696C792069732061204375746965F5
:101460002121212121000000F8B5C046F8BC08BCAC
:101470009E467047E5000000F8B5C046F8BC08BCC1
:081480009E467047BD0000000C
:10148800000000000000003E4551453E003E6B6FE5
:101498006B3E001C3E7C3E1C00183C7E3C18003015
:1014A800367F363000185C7E5C1800001818000083
:1014B80000FFE7E7FFFF003C24243C0000C3DBDB20
:1014C800C3FF0030484A360E000629792906006015
:1014D800703F020400607E0A353F002A1C361C2A31
:1014E80000007F3E1C0800081C3E7F000014367F69
:1014F800361400005F005F000006097F017F0022AC
:101508004D5559220060606060000014B6FFB614A3
:101518000004067F06040010307F30100008083EE3
:101528001C0800081C3E080800784040404000089D
:101538003E083E0800303C3F3C3000030F3F0F039D
:101548000000000000000000065F0600000703001E
:10155800070300247E247E2400242B6A12000063E3
:101568001308646300364956205000000703000042
:1015780000003E4100000000413E000000083E1C03
:101588003E080008083E08080000E0600000000867
:101598000808080800006060000000201008040225
:1015A800003E5149453E0000427F400000625149DB
:1015B8004946002249494936001814127F10002F65
:1015C80049494931003C4A4949300001710905033C
:1015D80000364949493600064949291E00006C6C05
:1015E80000000000EC6C00000008142241000024F8
:1015F8002424242400004122140800020159090669
:10160800003E415D551E007E1111117E007F494943
:101618004936003E41414122007F4141413E007F21
:1016280049494941007F09090901003E4149497A70
:10163800007F0808087F0000417F410000304040DB
:10164800403F007F08142241007F40404040007F17
:101658000204027F007F0204087F003E4141413EB0
:10166800007F09090906003E4151215E007F0909F2
:1016780019660026494949320001017F0101003FEE
:101688004040403F001F2040201F003F403C403F5B
:1016980000631408146300070870080700714945BF
:1016A800430000007F4141000002040810200000B0
:1016B80041417F0000040201020400808080808094
:1016C800000003070000002054545478007F44446D
:1016D800443800384444442800384444447F00389F
:1016E8005454540800087E0909000018A4A4A47CD6
:1016F800007F040478000000007D400000408084E2
:101708007D00007F102844000000007F4000007C1E
:1017180004180478007C04047800003844444438F1
:1017280000FC444444380038444444FC00447844B1
:10173800040800085454542000043E442400003C8B
:1017480040207C00001C2040201C003C6030603C95
:10175800006C10106C00009CA0603C0000645454A5
:101768004C0000083E4141000000007700000000E6
:1017780041413E08000201020100003C2623263CAC
:00000001FF
