:020000022000DC
:1070000000000420797302006173020063730200C0
:1070100065730200677302006973020000000000DC
:107020000000000000000000000000006B73020080
:107030006D730200000000006F73020071730200A4
:10704000B9A8020073730200599B0200A19C0200C0
:1070500071A0020073730200B59902006DB80200BE
:1070600049BE020059BE020073730200737302002E
:107070007373020073730200737302007373020070
:1070800069BE0200E9870200737302007373020095
:107090007373020073730200C5050300737302006B
:1070A0007373020073730200737302007373020040
:1070B0007373020073730200000000000000000000
:1070C0007373020073730200737302007373020020
:1070D000737302007373020073730200D5B1020070
:1070E0007373020035B802007373020000000000E1
:1070F00000000000737302000000000073730200C0
:10710000000000000000000000000000000000007F
:10711000000000000000000000000000000000006F
:10712000000000000000000000000000000000005F
:10713000000000000000000000000000000000004F
:10714000000000000000000000000000000000003F
:10715000000000000000000000000000000000002F
:10716000000000000000000000000000000000001F
:10717000000000000000000000000000000000000F
:1071800000000000000000000000000000000000FF
:1071900000000000000000000000000000000000EF
:1071A00000000000000000000000000000000000DF
:1071B00000000000000000000000000000000000CF
:1071C00000000000000000000000000000000000BF
:1071D00000000000000000000000000000000000AF
:1071E000000000000000000000000000000000009F
:1071F000000000000000000000000000000000008F
:10720000364937480A1A02D0072291438D4635493C
:1072100035480A1A06D00722914381F309880222D1
:1072200082F3148831483249324A00F045F8324836
:107230003249334A00F040F832483349334A00F0CB
:107240003BF833483349344A00F036F83348344980
:10725000344A00F031F834483449354A00F02CF80B
:1072600034483549354A00F027F835483549002279
:1072700000F02DF834483549002200F028F8344851
:107280003449091A082903DB002202600430016036
:10729000314A90471F482049884205D0026804308F
:1072A00003B4904703BCF7E700208646EC46002075
:1072B00000212A4A9047FEE7884207D0521A05D09B
:1072C000037801300B700131013AF9D170478842DF
:1072D00002D002700130FAE770470000000004207D
:1072E00000E003200000042000000420CC4903003B
:1072F000E82A0020B02B0020D4730200D4730200CF
:1073000054250300CC490300E82A0020E82A002085
:10731000A0260300A0260300A0260300A026030049
:10732000A0260300A0260300A0260300A026030039
:10733000CC490300944A0300B02B0020B02B00205E
:10734000B02B0020D4C00020D4C00020D8C0002022
:10735000D8C00020D8E00020A1730200D9C30200E9
:10736000FEE7FEE7FEE7FEE7FEE7FEE7FEE7FEE7F5
:10737000FEE7FEE700F002B8FFF7FCBF0F484FF052
:107380000701884385460E4880470E48016841F44E
:1073900070010160BFF34F8FBFF36F8FFFF730BFF6
:1073A00009480A490A4A884207D0521A05D0037888
:1073B00001300B700131013AF9D17047000004200F
:1073C000ED90020088ED00E0A0260300E82A0020EE
:0473D000E82A002087
:1073D40000487047CCC000207047000007B5044B3C
:1073E4000093044A402300F032F803B05DF804FB34
:1073F400FD730200B12B00202DE9F84389461446A1
:10740400B2B10F4B0F4E0325002743F0010822466B
:1074140009EB0701002007F011FE0744241A48B9BC
:1074240033782BB14FF47A40C047013D02D1357017
:10743400BDE8F88301233370002CE8D1F8E700BFDE
:10744400A0260300B02B0020704707F02BBEF0B538
:1074540095B01C46164608460D4601F060FD1A9B81
:107464000D93CDE9086400242346082205A9284683
:107474000A948DF82C400C9401F06FFD079B029345
:10748400BDF81830ADF80C30BDF81A30ADF80E3038
:107494009DF814308DF8114003F00302012A1DD128
:1074A400BDF81440059EC3F3C203C4F383148DF8DE
:1074B4001030A20008230EA9284601F04EFDC6F3A1
:1074C400952608AB0093224602AB0EA9304600F085
:1074D4006DFB284601F027FD15B0F0BD022AF8D156
:1074E400BDF81640C3F3C203A4098DF81030082771
:1074F400082C264628BF08263B4632460EA92846B5
:1075040001F02BFDA41B08AB02AA31460EA8374498
:1075140000F0B0FB002CEBD1DBE7000008B5FFF76F
:1075240094FF0421034800F0AFFA034B01225A717F
:1075340008BD00BF90260300E82A0020037813F05A
:10754400040216D003F00303012B03D0022B09D04D
:10755400012070470A6800880232C0F38310024495
:107564000A60F5E70B684288023303EB92130B6061
:10757400EEE71046704700002DE9F04F89B005464C
:10758400861C08A8484C019200230F4600F8113DC0
:1075940000F0BAFF23683B60D4E901231344226856
:1075A40001339B1A04F21C4704F5836A04F214485D
:1075B400B3421AD3019A0023002A6DD0012262F348
:1075C400010343F0040365F389132168A2689DF85D
:1075D4000F000A4003320E4444F82230266000F0C3
:1075E400B7FF012009B0BDE8F08F0121384601F052
:1075F400D2F9504601F0E5F9404601F0E2F90DF107
:1076040020096068D4F808B049F8100D00EA0B00AE
:10761400033004EB80004946FFF790FF049BB0B9A8
:107624000BEA030204EB8202D16805919A1C013330
:1076340003EA0B0B04EB8B0C01F00303012B049204
:10764400DCF80CB020D0022B04D083460BE00BEA0C
:107654000300DDE7BDF816309B0903334FEA1B4BEB
:1076640002EB93030493404601F0AEF908B1049B86
:1076740063605946384601F08EF9D4E90123134476
:10768400226801339B1A93E7BDF81430C3F38313C4
:107694004FEA1B4B1344E5E7022262F3010343F074
:1076A400040365F39F5390E7C42C00200B4B0C4854
:1076B400FF2210B59A600022C3F81824C3E90022FF
:1076C400C3F8142483F8202401F0E2FB044610B923
:1076D400044801F08BFC204610BD00BFC42C0020E0
:1076E400C4250300C426030030B50A4C71B10A4A0C
:1076F4000A49121BD20800239A4201D1002030BD4E
:1077040031F82350854202D00133F5E7034654F89B
:107714003300F4E7D825030090260300E82A00206C
:10772400094B013903EBC000032909D8DFE801F054
:107734000A020406042070470079704740797047B4
:107744000020704702207047D8250300034BD3E97B
:107754000030C31A58425841704700BFC42C00205F
:107764002DE9F04387B0FFF7F1FF0646002840F00B
:10777400FC807F4DC5F81804BFF34F8F6868AC6870
:1077840006AF47F8100D2040033005EB8000394662
:10779400FFF7D4FE029B18B1D5F81824002A5FD055
:1077A40004EA0302991C013305EB8202234005EB32
:1077B4008303D268DB68049302F00303022B039271
:1077C400029162D1BDF80E306A484FEA9318B8F1BD
:1077D400500FC14628BF4FF0500969F38F1309F1C8
:1077E4000801ADF80E3001F06BFB0746002800F0ED
:1077F400A78001F094FB03A900230822384601F076
:10780400A1FB029924EA01060136B600B14535D937
:107814005FFA89F97EB3F6B2A9EB06092140033178
:107824005FFA89F4B146544E05EB810108234A46B8
:10783400384601F087FB36B109F108032246314688
:10784400384601F07FFB029B08F1030803EB980321
:107854000293D5F81834002B4BD1D5F810445BE0D3
:107864002A689A4204D86A60304607B0BDE8F083BB
:1078740004EA030088E740493446D7E7214003314E
:1078840008234A4605EB8101DAE7012B58D1BDF8FC
:107894000C303848C3F38311062928BF062161F34D
:1078A400891302318900ADF80C3001F009FB074659
:1078B400002845D001F033FB0023082203A93846F1
:1078C40001F040FB0026BDF80C20C2F38312B31C68
:1078D40096424FEA8303BCD202994A1C21400331E9
:1078E400029205EB81010422384601F02BFB01369C
:1078F400E9E7384601F017FBFFF728FF80F00100A5
:10790400C6B2B1E7E3685B7923B1236839461B68E3
:1079140020469847E3681C68002CF3D1384601F0F0
:1079240002FB06A800F8114D00F0EEFDD5F818345E
:107934000BB9029B6B609DF8070000F009FEDBE7C2
:10794400D5F8104454B90D4B0D480E49C01AC0085F
:10795400000440F0020000F06FF8CDE723682046F1
:107964009B689847E3681C68ECE700267CE700BF47
:10797400C42C0020C4250300D02C0020D8250300EB
:1079840028260300D02603002DE9F74F284C804613
:107994000F46924601A9012218469B46D4F8089046
:1079A400FFF7EAFD88B3019D0026A91C5E4506EB9E
:1079B400010234D100211F4800F0C2FF80F31000FF
:1079C4006A1C02EA090204EB8202000405EA0903C4
:1079D400033340EA1840D06014F8232068F3C5024A
:1079E40004F8232034F8232066F3891224F8232092
:1079F40054F82320012167F39F2244F8232061F3E4
:107A040001026FF3820204F8232094F820341BB19E
:107A1400FFF7A6FE0028FBD103B0BDE8F08F09EA0A
:107A2400020204EB82025AF82630D3600136BDE725
:107A3400C42C0020E030002000231A46FFF7A4BF26
:107A440013B502AC012344F8042D2246FFF79CFF32
:107A540002B010BD07B5CDE9002302236A46FFF743
:107A640093FF03B05DF804FB7FB5CDE90123089BC8
:107A74000393099B04930A9B059301AA0523FFF72B
:107A840083FF07B05DF804FB30B50F49D1F810242B
:107A9400002314463CB9C468237152B9C1F81004D8
:107AA4002260184630BDE46825799D4206D02468DA
:107AB400F0E7D268116821601060F2E701330A2B05
:107AC400E7D14FF0FF33ECE7C42C0020094A38B566
:107AD4000123D2F8104482F820341D4604B938BD7D
:107AE400E3685D71236820465B689847E3681C6817
:107AF400F4E700BFC42C0020037A052B10B50C4614
:107B04000FD0437A23B1084A0849204600F0BDFF4C
:107B14000749204600F0B9FF2046BDE8104000F0B8
:107B2400A9BF002AF8D0F3E71B270300202703008E
:107B340040270300C38873B504460D4633B1144A85
:107B440000921449144A284600F09FFF217A05291F
:107B54001CD0637A4BB1A088FFF7E2FD0F4B1049AC
:107B640053F82020284600F090FF227A0D4BA0887D
:107B740053F822600021FFF7B7FD0B490346324654
:107B8400284602B0BDE8704000F07FBF02B070BD6F
:107B94001B2703002B27030023270300E8260300E9
:107BA4002027030050270300432703002DE9F04357
:107BB40085B01F460C9D002306460C46904695F85A
:107BC4000C902B7329463846FFF7B4FFB8F1060F23
:107BD40009D8DFE808F00412181F283340003146A2
:107BE400284600F052FF002229463846FFF784FF5A
:107BF40085F80C9005B0BDE8F0832268314628462C
:107C040000F043FFEFE7D4E900233146284600F0B3
:107C14003CFFE8E7A36800933146D4E900232846F3
:107C240000F033FFDFE7E3680193A3680093314674
:107C3400D4E90023284600F028FFD4E723690293FF
:107C4400E3680193A36800933146D4E900232846EE
:107C540000F01BFFC7E76369039323690293E3689A
:107C64000193A36800933146D4E90023284600F029
:107C74000CFFB8E708292DE9F84F80460E46174651
:107C84001C463AD8002593F80C901D7319461046EB
:107C9400FFF750FFDFF884A0DFF884B0AE422ED99E
:107CA40018F805205946204600F0EFFE0135082D4E
:107CB400F4D11849DFF86CB0204600F0E6FE4FF02E
:107CC400000A564520D918F80A507E2D03D82846B4
:107CD40009F022FE00B92E252A465946204600F016
:107CE400D4FE0AF1010ABAF1080FEAD101222146B1
:107CF4003846FFF701FF84F80C90BDE8F88F514631
:107D0400204600F0C2FED1E70349204600F0BDFE44
:107D1400E7E700BF16270300142703001227030018
:107D24000C27030018270300C30710B507D4F0235A
:107D34004008054A145C23401943115410BD09013D
:107D4400C9B20F23F4E700BFB031002030B5094BAE
:107D54001C78094B196800239C4202DC002210465F
:107D640030BD11F83350854201EBC302F7D0013323
:107D7400F2E700BF80310020D031002070B5044606
:107D84000D46FFF7E3FF30B1436823B1294620468F
:107D9400BDE87040184770BD034B044819680022C1
:107DA400490800F0C4BA00BF8431002088310020A3
:107DB40010B5C0B2FFF7CAFF0446007801F0E8FD31
:107DC40063785A1E53425341834208D1044BD3E98A
:107DD4000023134303D1BDE81040FFF7DDBF10BDFE
:107DE400A83100202DE9F348394A43080446D35CFE
:107DF400C2074CBF1B0903F00F030D46042B39D8EF
:107E0400DFE803F00328303D410099B30121FFF777
:107E14008BFF02A8002600F8016D00F075FB2D4DC4
:107E24000121A4F12007C4F1200001FA07FC21FA82
:107E340000F04CEA000C01FA04FBD5E900014BEA1E
:107E440000024CEA0103C5E900239DF8070000F095
:107E54007FFB0FE0002914BF022100212046FFF719
:107E640063FF07E049B10321FFF75EFF01212046CC
:107E7400FFF784FF02B0BDE8F0880121EEE7002996
:107E8400F8D10421EAE709B10321E7E7FFF74CFF42
:107E940029462046FFF772FF02A80E4E00F8015D46
:107EA40000F032FBA4F120070121C4F1200001FA03
:107EB40007FC21FA00F04CEA000C01FA04FBD6E9B5
:107EC400000120EA0B0221EA0C03C6E90023BCE707
:107ED400B0310020A83100202DE9F041124E134F9B
:107EE40000243378A34208DC114BD3E90023134365
:107EF40018D0BDE8F041FFF74FBF3D6805EBC4085B
:107F040015F8340001F044FD98F801104B1E594255
:107F140059410A1A514215F834005141FFF762FFE2
:107F24000134DEE7BDE8F08180310020D03100204B
:107F3400A8310020092AF7B505460C4616463FD954
:107F440001F04CFCD8B11F4B1F481D601F4B204F44
:107F54001C70204B002120221E6009F0D9FE1E4B0C
:107F640000200021C3E90001013CE4B20326FF2CF8
:107F74000BD11A4A1A48002100F0CEF903E001F0AF
:107F8400F7FB0028DFD003B0F0BD9DF806308DF874
:107F9400046020B203F0FC0305EBC0026FF382031C
:107FA4008DF80630937815F830008DF805303A4690
:107FB40001A901F01DFC013CE4B20028D7D0E2E79E
:107FC4000720E0E7D0310020B031002080310020CC
:107FD400B57D020084310020A8310020DD7E02003E
:107FE400B827030070B5084D084E00242B789C4236
:107FF40001D3002070BD3368012113F8340001F06F
:108004007DFC0134F2E700BF80310020D031002034
:108014001FB50021039001AA44F20100CDE901112A
:1080240000F030F805B05DF804FB000082B00123D5
:108034008DF807309DF80730114B1860596044F2F1
:10804400010188429A6012D044F20201884206D1AA
:10805400DA60DA6812889A61DA685268DA6172B6AC
:108064009DF80730002BFBD162B602B070471A614D
:108074001A6992685A611A6912689A611A69ECE776
:10808400D43100202DE9FF4106460F46154672B64D
:10809400FFF71CFDFFF764FB0028FBD1284B294C9C
:1080A400E41AE40841F2010324049E4244F001046A
:1080B40031D007D8012E14D03A4623492046FFF781
:1080C400BFFC12E044F201039E4226D044F20203B4
:1080D4009E42F1D12B886A681C492046FFF7BAFCFE
:1080E40003E01B492046FFF7A7FC1A4B4FF400623C
:1080F400C3F80C254FF48062C3F80825164B1B689F
:10810400DB0700D500BE2A463946304604B0BDE838
:10811400F041FFF78BBF1149E4E7D5F808804046EA
:1081240000F0C8FF2B68029701936B6800930C4919
:10813400034642462046FFF797FC0A49D2E700BFB0
:10814400D8250300282603005A2803000628030024
:10815400C727030000030050F0ED00E0E42703000C
:10816400202803004628030012F0030310B511D1A0
:10817400094C22604C1CE400A4B22244074C226047
:10818400074A1370074A1370074A1080074A1846B3
:10819400118010BD0720FCE7FC310020F8310020DD
:1081A400F43100200432002000320020023200208A
:1081B400D0E90223D1E90201994208BF90422CBFC1
:1081C40001200020704700002DE900480C4800F011
:1081D400F5FA0C4BD3E9002312EB000B43F1000C2E
:1081E400094BD3E900239C4508BF93455846614693
:1081F40003D21BF180704CF10001BDE8008800BF80
:10820400F02A0020103200202833002037B505461C
:108214000C460A4801A900F002FB60B105704460F5
:1082240001A9064800F025FB18B1054800F0CAFA78
:10823400002003B030BD0420FBE700BF143300204E
:10824400F02A0020194B1B782DE9304804461BB94D
:1082540000252846BDE830880028F9D0037F03F0C4
:10826400FF05002BF4D0FFF7AFFFD4E902239942B6
:1082740008BF904215D3236903B92377D4E90530A5
:10828400984721690029E3D0237F03F0FF05002BE1
:10829400DED0D4E9022312EB010B43F1000CC4E954
:1082A40002BC2146024800F0C0FED2E7183200208A
:1082B4007828030013B5114B11491868019008235D
:1082C400F822104800F098FA044698B90E4A0F486C
:1082D40001A900F061F9044660B901210B4800F0DE
:1082E4004FFA01230A4A0948194600F0B3F9094B29
:1082F40001221A70204602B010BD00BF722803008C
:108304001C320020143300207D830200F02A002058
:10831400FFFF7F00183200203AB103685A614A1EF9
:10832400514251411961002070470720704738B508
:10833400037F04460D4683B98261FFF745FF421966
:1083440041F10003C4E90223236903B125612146F5
:108354000020BDE83840FFF759BF002038BD002396
:10836400014603770120FFF751BF0000014800F0E8
:1083740025BA00BFF02A00202DE9F74F064600F089
:1083840007FA40B15849D1E9002312F1807443F14E
:108394000005C1E900450021304600F008FA38B173
:1083A400524C236823B12068FFF74CFF002323605D
:1083B4000121304600F0FBF920B1FFF705FF4C4BDB
:1083C400C3E9000101A94B48484D4B4C4B4F00F009
:1083D40060FA002844D1DFF820A1444CDFF824B12E
:1083E400504600F038FE2368002874D07BB123681F
:1083F400D0E90201D3E90223994208BF90422CD26A
:1084040023681B7F1BB12168504600F00EFE5046C6
:1084140000F01BFED0E902890746FFF7D5FEB8EB52
:10842400000869EB010940464B46012873F100033B
:1084340044DB334DA8453FD9FFF798FF42194FF469
:1084440096030021584600F025F900283ED1236800
:1084540013B9304600F0F6F8276003B0BDE8F08F9A
:108464000378012B1DD00BD3022B11D14FF0000840
:10847400204600F0EAFD002833D080F81C80F7E79E
:1084840041680B7F23B901230B77204600F0CDFD13
:1084940001A9184800F028FA01A9164800F0F9F9D2
:1084A40097E741682B68994202D100232B60EFE7DC
:1084B400204600F0D3FDEBE7BA68C0E70021584638
:1084C40000F06BF93846FFF7BDFE01E00D28F9D046
:1084D4000023236084E7002BBFD1304600F0B6F8B8
:1084E400BBE701233B70D3E7103200203033002078
:1084F4002833002014330020782803001832002089
:10850400FFFFB400F02A002070B5EFF3108672B6B6
:108514000C4A946801239CB993600B4B0B4DD3F820
:10852400801029401160C3F88050D3F88410516042
:108534004FF0FF32C3F88420047006B962B670BDF0
:108544000370FAE73433002000E100E0FC06FFBDCD
:10855400084B9A6810B55AB150B9EFF3108172B64E
:10856400054A1C6814605C685460986001B962B67E
:1085740010BD00BF3433002000E100E0435882B056
:108584003BB10023435043580193019B012002B0A7
:1085940070471846FBE70000F8B5224B4679224D98
:1085A40043F82620214A224BF7009B1AEA19DB08DC
:1085B40012791B0432B143F002001E49FFF73CFA62
:1085C4000820F8BD02680C88C2F8084590F9042018
:1085D4008978002AA8BF02F1604CD4B2BABF04F073
:1085E4000F0EDFF858C00CF5614C4FEA4111C9B2C7
:1085F400B4BF0CF80E108CF8001352090121DFF8F7
:1086040040C004F01F042F4401FA04F44CF8224043
:10861400397145F83600084943F00300FFF70CFAB6
:108624000020CEE74833002040330020D825030043
:108634003826030096280300B828030014ED00E050
:1086440000E100E0036801221A6070470368012218
:108654005A60704773B58D0005F5A0750068ADB21A
:108664004FF480348C400026C0F80843C0F84843D7
:10867400465101F5A8714559019522F07F42019DAB
:1086840040F82120C0F844430BB1C0F8044302B0C1
:1086940070BD00002DE9F74F8E0098464FF48035E9
:1086A40003688D4006F5A079C3F848531FFA89F989
:1086B400C3F80853074698198A464FF0000BD3F8BD
:1086C400041522F07F44D0F84025C0F8401543F843
:1086D40009B053F809300093009B531A23F07F43E9
:1086E400012B0CD1254B4FF4806043F001039847D4
:1086F4003B6843F809B053F809300193019B38688B
:10870400D0F80495C0F84453A4EB090323F07F4345
:10871400012B1AD10AF5A87A184B013440F82A40E3
:1087240043F001034FF4806098473B68D3F8043565
:10873400994508D13B680020C3F84453C3F8045357
:1087440003B0BDE8F08F0D20FAE70644C8F1FF1826
:10875400C6F84045D0F80435E21A013A22F07F42C7
:1087640008F57F489045EED3002AE3D10134C6F8DA
:108774004045D0F804259342DBE700BF902803006E
:1087840003680222C3F8442309B1C3F804237047E1
:108794004FF482710068FFF7F1BE4FF4803303FA9F
:1087A40001F10368C3F84813C3F80813704789003C
:1087B40001F5A07189B20068FFF7E0BE0368D3F841
:1087C4000405704790F9043001215A0903F01F038E
:1087D40001FA03F34032024941F82230704700BFE6
:1087E40000E100E0024B034A1B681068184700BF11
:1087F400483300204033002010B561B1B2FBF3F4DC
:1088040003FB1424A4B244B9C0E900148460828137
:10881400C381204610BD0E20FCE70920FAE737B5D6
:1088240050E8013F9DB2C48925448489A54228BFEC
:108834002D1B0489A54202BFBFF32F8F002207E03E
:10884400C5EA030540E80154002CE9D14FF00102C8
:108854008DF803200193019B9DF803200B6002F027
:10886400FF0322B10B880068184403B030BD1846DA
:10887400FBE70A884B889A4209D150E8012FC2EAE3
:10888400024240E80123002BF7D101207047002069
:10889400704737B550E8023F1FFAA3F5C488A542D4
:1088A40002BFBFF32F8F00220DE0C48925448489C1
:1088B400A54228BF2D1BC3EA054540E80254002CFD
:1088C400E8D14FF001028DF803200193019B9DF83C
:1088D40003200B6002F0FF0322B14B8800681844A8
:1088E40003B030BD1846FBE70A884B889A4209D189
:1088F40050E8022FC2EA224240E80223002BF7D1BB
:10890400012070470020704701F01F024B0901212C
:10891400914000EB830000F01DB801F01F03012219
:108924009A404B0900EB8300D14300F029B84B096E
:1089340001F01F0150F82300C84000F00100704707
:1089440050E8002F0B4640E8003C9CF0000FF7D1A4
:108954001046704750E8003F43EA010240E8002C0B
:108964009CF0000FF6D11046704750E8002F02EA41
:10897400010340E8003C9CF0000FF6D1104670471C
:1089840050E8003F03EA010240E8002C9CF0000F8D
:10899400F6D11046704750E8003F03EB010240E86F
:1089A400002C9CF0000FF6D11046704750E8003FB1
:1089B400A3EB010240E8002C9CF0000FF6D1104616
:1089C40070470121FFF7C6BF0021FFF7CEBF10B5E6
:1089D40090B1D0E9012301689B1ADBB20A60013B24
:1089E400DBB2FF2B026802D10020107110BD1168A8
:1089F4004C1C14600B70F2E70E20F7E737B5054600
:108A040002A8002400F8014DFFF77EFD2A686B6878
:108A1400116899420ED9481E106011F8014CEB6898
:108A2400298A01FB0434AB6811791B1ADBB2994221
:108A340038BF13719DF80700FFF78AFD204603B085
:108A440030BD37B5054602A8002300F8013D0C46A9
:108A5400FFF75AFD2A681368591C1160E968641A03
:108A6400298AB4FBF1F41C709DF80700FFF770FD30
:108A740003B030BD826810B504462AB14369016869
:108A8400006998470023A36010BD0EB403B5039991
:108A940029B102AA04AB42F8043D00F073F802B015
:108AA4005DF804EB03B070470A2938B504460D4657
:108AB40002D10D21FFF7F8FFA3682268591CA160B9
:108AC400D554D4E901329A4204D32046BDE8384053
:108AD400FFF7D0BF38BD00002DE9F84F9946DDE916
:108AE4000A431746824688460A460126BA420FD2EE
:108AF4004E4538BF4E4613F0010B01D164B9002432
:108B04000125B9F1010F1AD909F1FF397D43F8E7BD
:108B1400B2FBF7F20136E9E79B070ED5B9F1000F76
:108B24000CBF30252025A642EAD2013C29465046F6
:108B3400FFF7BAFF002CF6D1E1E72025F3E7B8FBF5
:108B4400F5F39F42E2D9DFF83890B8FBF5F35046CD
:108B540019F8031005FB1388FFF7A6FFB5FBF7F51B
:108B6400002DF2D1BBF1000F02D00CB1A64201D30B
:108B7400BDE8F88F20215046013CFFF795FFF4E74C
:108B8400CA2803002DE9F74F054690460E460029F2
:108B940000F03A8116F8011B002958D0252940F02D
:108BA400D180002702E047F001071646324612F84A
:108BB400013B2D2BF7D0302B04D02B2B05D147F0C4
:108BC4000407F2E747F00207EFE700242A2B06F137
:108BD40001021BD1D8F80030191D1B68C8F8001019
:108BE4001C44164633782E2B1CD101364FF0000A54
:108BF400314611F8012BA2F13000092814D80A23B8
:108C040003FB0A23A3F1300A0E46F1E712F8013CF4
:108C1400A3F130010929E5D80A2101FB0434303CD1
:108C24001646D3E74FF0000A324612F8011B01F052
:108C3400FB0068281646F8D0692916D054D858295C
:108C440070D00ED825297DD03378002BA2D12B7B70
:108C5400002B00F0D980284603B0BDE8F04FFFF7A1
:108C640009BF632968D06429EED1D8F80020D2F86E
:108C74000090111D89EAE972C8F80010A2EBE972AC
:108C84004FF0010B092A61DCD34538BFD3462CB120
:108C9400B9F1000F01DB790700D5013CBA0702D511
:108CA400BAF1000F04D0FB0702D4002C54D10024E5
:108CB400B9F1000F58DAC9F100092D212846FFF750
:108CC400F3FE07F00302022A05D1BAF1000F02D124
:108CD400002C4DD10024CDE9004753460A224946D1
:108CE4002846FFF7F9FEAFE7732954D016D8702948
:108CF400AAD1D8F800301A1DC8F80020302128461F
:108D04001C68FFF7D1FE78212846FFF7CDFE00222C
:108D14000823CDE9003221461022E1E775292FD03E
:108D2400782991D1D8F800100A1DC8F80020CDE99F
:108D34000047534610222CE0D8F800301A1D197849
:108D4400C8F800202846FFF7AFFE7DE70A230BF1A1
:108D5400010B92FBF3F295E7A345A9D22021284603
:108D6400013CFFF7A1FEA0E77807AAD52B21A5E7D0
:108D7400A345B0D230212846013CFFF795FEA7E772
:108D8400D8F80010CDE900470A1DC8F80020534662
:108D94000A220968A4E7D8F800301A1DC8F8002090
:108DA400F907D3F8009012D54F46A7EB090B17F833
:108DB400011B41B9A345BFF447AF20212846013C1C
:108DC400FFF772FEF6E72846FFF76EFEEDE7B9F10E
:108DD400000F17D0484608F0F0FF0746BC4200D900
:108DE40054B909F1FF3919F8011F00293FF42CAFD8
:108DF4002846FFF759FEF6E720212846013CFFF7F5
:108E040053FEEBE74F46E9E703B0BDE8F08F2DE9E9
:108E1400F047B0F806904479D2F800A09DF820807D
:108E240009FB04F4043C06460AEB0300A0420F4687
:108E340088BFA4EB030A191DC2F800A0B1FBF9F521
:108E440009FB15114DB9A9EB0104544528BF54463B
:108E5400BAF1000F04D1BDE8F0873668013DF1E7AF
:108E640004317B1970182246B8F1000F0ED0014668
:108E74001846AAEB040A08F022FFD14525443668B7
:108E84004C464FF0000128BF5446E1E71946F0E78D
:108E9400FFF79DBDF8B546790146721E05460023CD
:108EA40093422D6803D30024A64202D8F8BD0133AF
:108EB400F6E70F682846FFF7C4FD01343946F3E7A7
:108EC4002DE9F843068ACD1C0746FFF797FD043EBB
:108ED40035440446B5FBF6F5F0B14FF48073EDB2BA
:108EE4008380C680013D076081464FF00008A84595
:108EF40012D23846FFF782FD064648B16379013342
:108F0400637108F10108C9F8000007608146EEE7C3
:108F14002046FFF7BFFF34462046BDE8F883012111
:108F24000430FFF738BD10B5012104460430FFF7C3
:108F34003DFD10F0FF0F04D12046BDE81040FFF7BF
:108F4400A9BF10BD1FB504AC44F8042D0022009243
:108F54002246FFF75CFF04B010BD1FB504AC44F813
:108F6400042D012200922246FFF751FF04B010BDE8
:108F740041DF7047064B10B500241C70054B1C6084
:108F8400BFF35F8F0449054800F039F8204610BD4F
:108F94005433002058330020DC2803004C330020D5
:108FA40007B502A8002300F8013DFFF7ADFAF1EE82
:108FB400103A23F09F03E1EE103ABFF35F8F0A4BA0
:108FC4004022C3F884219DF80700FFF7C1FA07F097
:108FD400DDFA20B1FFF7CCFF03B05DF804FB20BF3E
:108FE40040BF20BFF8E700BF00E100E08368002233
:108FF4005A609A60C3E90422DA601A6070470B6809
:109004004A684360934208BF0023016008BF43607D
:109014007047436843B10268916852680B449342B5
:10902400436004BF00234360704770B5446806463C
:109034000D46206818B1B3682946984718B92368C3
:109044002B60256070BD2468F3E74368186808B195
:1090540002681A6070474368186870474368186864
:1090640000B970478842026802D11A600120704733
:1090740003461046F4E700000D4930B5A1F594729B
:109084000225914201D800200EE08B1ADB1093FBDD
:10909400F5F302EBC30452F83330834205D802D20D
:1090A40004F10802EDE7606830BD2146E9E700BF3E
:1090B400382A030008B5FFF7DFFF024B002808BF7A
:1090C400184608BDFA280300054B1B68082B01BF8E
:1090D400044B1868B0FA80F0400918BF00207047AC
:1090E400300100103401001008B54FF08043002215
:1090F400C3F80C21C3F81021C3F838254FF080526F
:1091040003F54043D2F80414C3F82015D2F8081428
:10911400C3F82415D2F80C14C3F82815D2F8101487
:10912400C3F82C15D2F81414C3F83015D2F8181457
:10913400C3F83415D2F81C14C3F84015D2F820141F
:10914400C3F84415D2F82414C3F84815D2F82814E7
:10915400C3F84C15D2F82C14C3F85015D2F83014B7
:10916400C3F85415D2F83414C3F86015D2F838147F
:10917400C3F86415D2F83C14C3F86815D2F8401447
:10918400C3F86C15D2F84424C3F87025FFF79CFF8C
:1091940010B1384B384A1A60FFF796FF18B1374BB5
:1091A400FB22C3F81825FFF78FFF48B13449354B2C
:1091B4000A681B6822F00F0203F00F0313430B60CD
:1091C400FFF782FF18B1304B4FF400721A604FF072
:1091D4008043D3F80024D20744BF6FF00102C3F8E0
:1091E40000242A4AD2F8883043F47003C2F8883045
:1091F400BFF34F8FBFF36F8F4FF01023D3F80022CC
:10920400002A03DBD3F80432002B2FDA204B01228F
:10921400C3F80425D3F80024002AFBD04FF0102211
:109224001221C2F80012D3F80024002AFBD04FF018
:1092340010231222C3F80422154B1A46D3F8001443
:109244000029FBD00021C3F80415D2F80034002B08
:10925400FBD0BFF34F8F0D490E4BCA6802F4E06296
:109264001343CB60BFF34F8F00BFFDE70A4B0B4A9C
:109274001A6008BD8C5600404881030000F000408D
:10928400E40E0040580200104096024000ED00E059
:1092940000E001400400FA05F82A00200090D00301
:1092A400074B1B5C1F2B8ABF064A4FF0A04203F0FA
:1092B4001F03D2F80405D840C04300F001007047F2
:1092C400092E030000030050074B1B5C1F2B86BFB5
:1092D40003F01F0305494FF0A041012202FA03F3F2
:1092E400C1F80C35704700BF092E0300000300507D
:1092F400074B1B5C1F2B86BF03F01F0305494FF070
:10930400A041012202FA03F3C1F80835704700BFF7
:10931400092E03000003005008B50020FFF7E8FF02
:109324000120FFF7E5FF0220FFF7E2FF0320BDE87D
:109334000840FFF7DDBF08B50020FFF7C5FF012097
:10934400FFF7C2FF0220FFF7BFFF0320BDE808407C
:10935400FFF7BABF0A4B185C1F288ABF094B4FF0AE
:10936400A04300F01F00D3F804250121814021EA25
:1093740002000A40C3F80805C3F80C25704700BF73
:10938400092E03000003005042DF704744DF70479A
:1093940038B5084C04F108030546002818BF1C46DC
:1093A40023682BB11A6822605B6828469847F7E760
:1093B40038BD00BF6433002020B9054B01225A7028
:1093C400FFF7E6BF012802D1014A9070F8E7704721
:1093D4005C33002020B9034B01225A70FFF7D8BF39
:1093E400704700BF5C33002038B50B4C237883B939
:1093F4000A486360A3602361E36000F0F3F8054664
:1094040007F0C4F808B900F0FBF8012323702846DC
:1094140038BD8525FBE700BF5C330020BD93020007
:1094240037B5184CA378054603F0FF029BB110B181
:1094340043680120984700230DF107008DF8073099
:10944400FFF762F8E3689DF807000133E360FFF774
:109454007FF803B030BD0DF107008DF80720FFF74A
:1094640053F825B1226913463BB92A602561E368A4
:10947400002BE7D100F0DAF8E4E79D42F7D01B684F
:10948400F2E700BF5C33002037B502A80023094C83
:1094940000F8013DFFF738F8E368013BE360E56855
:1094A40015B900F0D5F8A5709DF80700FFF750F83E
:1094B40003B030BD5C330020012813B509D003D3B9
:1094C40003281BD002B010BD0F4B0122C3F880202B
:1094D400F8E702A800230D4C00F8013DFFF714F84B
:1094E40023780BB9FFF780FFE3689DF80700013389
:1094F400E3600123A370FFF72BF8E3E700F080F8A3
:10950400FFF7C2FFDEE700BF00E100E05C330020AC
:1095140008B507F03BF828B94FF08043D3F8180496
:10952400C0F3004008BD000037B51B4C6378054606
:1095340003F0FF029BB110B1436800209847002359
:109544000DF107008DF80730FEF7DEFF63689DF824
:10955400070001336360FEF7FBFF03B030BD0DF17C
:1095640007008DF80720FEF7CFFF25B1A268134648
:1095740053B92A60A5606368002BE7D107F006F8A9
:1095840030B1FFF701FFE1E79D42F4D01B68EFE73C
:1095940000F06AF8DAE700BF5C33002007B506F094
:1095A400F5FF48B101A8FFF7F1FE0198003018BF9C
:1095B400012003B05DF804FB4FF08043D3F80C04A2
:1095C40000F00110A0F1011358425841F1E750E8AE
:1095D400002F02EA010340E8003C9CF0000FF6D1A2
:1095E40010467047054A13792BB901211060117197
:1095F4005371184670478520704700BF70330020B0
:10960400084B1A68D2075FBFC02283F800230122E7
:109614001A604FF080420123C2F81835024A1370D1
:10962400704700BF00E100E078330020074B0022C0
:109634001A6082B01B680193019B4FF080430222A1
:10964400C3F8042301229A6002B070470401004069
:10965400044B01221A604FF08042D2F81834DB0325
:10966400FBD470470C000040074B00221A6082B004
:109674001B680193019B4FF080430122C3F804232C
:109684001A6002B0704700BF00010040154B07B5D7
:109694001A687AB100221A601B680093009B4FF08D
:1096A40080430122C3F808230F4B587910B95A712B
:1096B4001B6898470D4B1A6882B100221A601B6818
:1096C4000193019B4FF080430222C3F80823064B09
:1096D4001B68012003B05DF804EB184703B05DF884
:1096E40004FB00BF0001004070330020040100406F
:1096F40000F1804000F5C040002382B0036003689D
:109704000193019B02B0704703681F2B83BF03F0D2
:109714001F03036001484FF0A0407047000300504E
:1097240007B502AB43F8040D1846FFF7EDFF019BA4
:1097340000EB8300D0F8003723F44033C0F800373F
:10974400D0F8003743EA0141C0F8001703B05DF8D0
:1097540004FB0000054B4FF0FF32072843F820209C
:1097640084BF1B1883F85820704700BF7C33002047
:1097740010B5164C94F86A3033BBFF21E21801335C
:10978400302B82F83010F9D10021C8B2FFF7E2FF84
:1097940001310C29F9D1062200210D4808F0B8FA4C
:1097A4000C4BC02283F8062340221A604FF4BE708B
:1097B400FFF79EFF084B4FF00042C3F80423012338
:1097C40084F86A30002010BD0820FCE77C330020B8
:1097D400E033002000E100E000600040034B93F818
:1097E4006A00003018BF0120704700BF7C3300209E
:1097F400F7B5404F3B18044693F93030002B94469C
:1098040075DA8B78C3F34003002B15BF00250825B8
:1098140008200C20854202D1042003B0F0BD57F883
:10982400252001324FEA850649D1381947F825C069
:1098340080F8305013B97B1983F858408B785A0755
:109844001BD4D8073DD502A840F8084DFFF75CFFAC
:10985400009B00EB8300D0F8003723F00203C0F82C
:1098640000372548E20804F0070C012303FA0CF33F
:1098740010F802C043EA0C038354887891F800C0BE
:1098840010F002002AD006F1804303F5C0432402FD
:10989400D3F8102522F44F3222F44072C3F8102575
:1098A4004FEA0C4CD3F8102504F47C540CF4403CDF
:1098B40044EA0C041443C3F810450020ADE7013515
:1098C400A8E702A84A7840F8044DFFF71DFF019B62
:1098D40003F5E073920040F82320C2E7083D3D44BD
:1098E40095F8604044EA8C1C85F860C095E7082030
:1098F40093E700BF7C330020E033002073B5224C93
:109904002518064695F93020072A1ADD224492F8D4
:1099140058309B09032B10D102A840F8046DFFF7BF
:10992400F3FE019AD0F81035D340DB0707D40221A7
:109934003046FFF7F5FE02B070BD012BF7D00321CE
:10994400F6E7D3B2072BF6D8930003F1804303F56F
:10995400C043D3F8100540F00100C3F8100502F12C
:109964004000800080B2FFF7C3FE0029E3D095F9E0
:10997400303054F82330002BDDD0012303FA02F2F7
:10998400024BC3F80423D6E77C3300200060004078
:1099940007B502AB43F8040D1846FFF7B5FE019B6B
:1099A400D0F81005D84000F0010003B05DF804FBC6
:1099B4002DE9F04F002489B0CDE902445F4A604E9E
:1099C400604D01211368A2F5C040012B80B206D17D
:1099D400D6F804330B4202D0FFF78AFE0C4304325C
:1099E400AA424FEA4101EDD1574B1B68012B0ED11E
:1099F4004FF4BE70FFF77CFE4FF0A04344F00044E8
:109A0400D3F810350293514BD3F81035039314F067
:109A1400FF0F1AD04E4F00250126344210D0AB0060
:109A240003F1804303F5C043D3F81005D3F81015B0
:109A340057F82530C0F30520C1F3014103B198471D
:109A44000135082D4FEA4606E7D1002C72DA04AE40
:109A54000023049373604FF0FF33CDE906333C4F8A
:109A64004FF0010800252C467B1993F96020531C04
:109A740047D0D2B222F0C00908A84FEAD90300EBBC
:109A8400030B02F007011BF8080C08FA01F1084265
:109A940037D007EB0900920990F9300057F820A05D
:109AA400BAF1000F05D1032A2BD1F05C0843F0541E
:109AB40001E0032AF9D001A8CDF80490FFF724FEB1
:109AC400019B03F5E07350F823301BF8180C08428F
:109AD400C3F3014305D0022B13D1032A0BD1114642
:109AE40004E0032B0DD1032A05D102214846FFF7D8
:109AF40017FE0134E4B2BAF1000F02D01146484611
:109B0400D0470135042DAFD1A4B14FF0A043029941
:109B1400D3F8102503F540739142D3F8103502D1E0
:109B24000399994206D002920393049A059B0692E4
:109B3400079397E709B0BDE8F08F00BF00610040CC
:109B440000600040206100407C6100400003005040
:109B54007C330020014B1B68184700BFE83300200A
:109B64000D4B984237B50D4610D102A8002300F8DA
:109B7400013DFEF7C9FC094B1C7914B901221D6093
:109B84001A719DF80700FEF7E3FC14B9002003B036
:109B940030BD1120FBE700BF00200040E833002067
:109BA4007FB503788DF804304368029383688DF899
:109BB4000C30C368049303698DF81430054A064BCE
:109BC40001A853F8213052F82110984707B05DF8E6
:109BD40004FB00BFF033002000340020F0B506463B
:109BE400944616F8047B194A42F827C0184A42F8EA
:109BF4002730184B0C460FCB85B06D4685E80F0017
:109C040023788DF8003063788DF80130A3788DF8CF
:109C14000230E3788DF8033023798DF805306379C9
:109C24008DF80630A3680293237B8DF80C30BCF1C9
:109C3400000F637B8DF80D30074A3B4608BF0022B6
:109C44002946304600F056F805B0F0BD0034002037
:109C5400F0330020242E0300A59B02001F2886BF9A
:109C640000F01F00044A4FF0A042012303FA00F061
:109C7400C2F80805704700BF000300501F2886BFC4
:109C840000F01F00044A4FF0A042012303FA00F041
:109C9400C2F80C05704700BF00030050114BD3F805
:109CA400183107B5D3B1104B104900221A60C87F90
:109CB4001B680193FF28019B03D08B7F5BB1FFF7E7
:109CC400DDFF00234B770B72D1E90031084803B064
:109CD4005DF804EB1847FFF7C1FFF2E703B05DF846
:109CE40004FB00BF00300040183100401034002055
:109CF400183400202DE9F74F0679734F01934FF084
:109D0400240909FB06F907EB090A93469AF81C2073
:109D140080460C46002A40F0D38005686B492846EB
:109D2400FFF71EFF0146002840F0CC80019BCAF8D3
:109D34000430237B47F809B0012B207800F2AE8071
:109D4400FFF79CFF23781F2B86BF03F01F03604A95
:109D54004FF0A04203F5E073012042F8230094F889
:109D64000190B9F1FF0F00F09C804846FFF786FF91
:109D7400B9F11F0F8BBF09F01F034B46544A4FF034
:109D8400A04203F5E07340F2033042F82300A378C5
:109D9400FF2B00F089801F2B8BBF03F01F021A4694
:109DA4004B484FF0A04002F5E0724FF0040C40F82D
:109DB40022C09A46242202FB067282F82030E07800
:109DC400D077FF2817D02379002B70D0FFF756FFE8
:109DD400E3781F2B86BF03F01F033D4A4FF0A042D8
:109DE40003F5E07340F2033042F82300242303FB1D
:109DF400067322799A772378C5F80835A368C5F8DD
:109E04000C95C5F810A5C5F82435637B227B003377
:109E140018BF0123022A4DD0032A4ED0012A01D1B2
:109E240043F00203C5F85435A379C5F8C03524239B
:109E34007343FB5813B14022C5F804230722C5F825
:109E4400002503B3D8F8003062791B0B58B2002800
:109E5400A8BF00F16044DBB2B8BF03F00F054FEABE
:109E64004212B4BF1B4C04F56144D2B2B4BF625574
:109E740084F8002303F01F03012202FA03F34009CC
:109E8400154A42F82030242303FB06760023737717
:109E940001233377084603B0BDE8F08FFFF7DEFEF9
:109EA40050E74FF0FF3972E74FF0FF3A82E7FFF7D0
:109EB400D5FE8DE743F00403B4E743F00603B1E7AE
:109EC4000821E7E71121E5E710340020A19C0200F6
:109ED4000003005014ED00E000E100E02DE9F3413F
:109EE4000579424E24236B431446F2180F46517FE2
:109EF4008046002978D1F35823B114F0140F04BF1D
:109F04000123537797E80F004FF0240C0CFB056CEA
:109F14000CF10C0E8EE80F009CF81F00FF2804D0F3
:109F24009CF81E30C3B1FFF799FE396821B101F0E6
:109F34006043B3F1005F06D1BA6882B102F06043B6
:109F4400B3F1005F0BD0242303FB056500236B777B
:109F5400102002B0BDE8F081FFF790FEE5E7D8F8E5
:109F640000307868C3F84415C3F84805F968C3F8A5
:109F740034250022C3F83815C3F81821D3F8182162
:109F84000192019A14F0010218BF0122C3F850256E
:109F940014F0020218BF0122C3F8402522075CBF57
:109FA40001221A6124226A43B25892B9D3F81821C3
:109FB400002AFBD0242303FB0565E87FFF2803D098
:109FC400AC7F1CB1FFF75AFE0020C2E7FFF746FE44
:109FD400FAE714F004004FF0400202D0C3F808235B
:109FE400F2E7C3F80423B4E71120B2E710340020E9
:109FF4000023435082B043580193019B02B0704741
:10A004000B7B032B2DD8DFE803F025291D028A687A
:10A01400154B9A4204D1D0F84C350A699A4209D1B9
:10A024008A6840F202239A421BD1D0F84C354A691F
:10A034009A4216D000230622C0F80035C0F8002545
:10A0440018467047D0F84C350A699A42F2D1D0F8D4
:10A054003C35ECE7D0F84C350A69E9E7D0F83C35F3
:10A06400FAE70120704700BF00020400F0B54FF08A
:10A07400402287B0D2F824314D4CB3B14FF49271E1
:10A084001046FFF7B5FFD2F8043173B9A368C2F8DC
:10A0940008330223A360A368C2F8043301231362C4
:10A0A400536184F82E3007B0F0BD4FF04025D5F849
:10A0B4000431002B46D03F4E4FF482712846FFF7FF
:10A0C40097FF0FCE01AF0FC733683B6094F82E3073
:10A0D40043B9A6F11C012846FFF792FF80F0010066
:10A0E40084F82E004FF4B0714FF04020FFF780FF4A
:10A0F4004FF4AE714FF04020FFF77AFF94F8303000
:10A1040013B194F82E3043B14FF040230022C3F82A
:10A114000022A260284AC3F808234FF04022D2F854
:10A12400C434C2F8C434990736D501238DF80030FD
:10A1340094F830300BB984F82F30D4E900316846F4
:10A144009847B0E74FF4A4712846FFF751FF237BEB
:10A1540083B9184F0FCF01AE0FC63B68336094F834
:10A164003030002BD9D1C5F80032A360124BC5F8AA
:10A174000833D2E74FF40073C5F8003240F20223EB
:10A18400A36003F1CE73C5F80833A368C5F804339C
:10A194000123AB602B6286E75A0701D50223C5E78A
:10A1A400DB07FBD494F82E30002BBFD00423BDE78B
:10A1B400343400204034002002029C012DE9F84F81
:10A1C40005793C4C4FF0340A0AFB05FA04EB0A0605
:10A1D4009B4696F82D3080460F469146002B65D15C
:10A1E40035490068FFF7BCFC002861D13A687B7BE5
:10A1F40086F832301F2A8CBF02F01F031346B0606A
:10A20400C6F804B086F82F0086F8300003F5E07134
:10A2140088BF2A4E44F80A9098BF4FF0A04640F2F7
:10A224000C6346F8213079681F291E468CBF01F063
:10A234001F030B4603F5E0738CBFDFF880C04FF0BB
:10A24400A04C4CF82360D8F80030C3F80825BA684D
:10A25400C3F80C15C3F82425B9F1000F1ED01B0B4D
:10A2640059B200293A7BB4BF154E01F16046DBB206
:10A27400B8BF03F00F074FEA4212A8BF06F56146C4
:10A28400D2B2B4BFF25586F8002303F01F030122B3
:10A2940002FA03F349090B4A42F82130342303FB41
:10A2A4000544012384F82D30BDE8F88F0820FBE72E
:10A2B4001120F9E73434002071A00200000300509B
:10A2C40014ED00E000E100E0026803790621C2F821
:10A2D4000015044A342101FB0323022283F82D20B4
:10A2E400704700BF343400202DE9F843A54F90F89F
:10A2F40004800468342606FB0876002386F82E3092
:10A30400CB6803F06043B3F1005F0D46914603D080
:10A3140010263046BDE8F8839B4BC4F8083396F802
:10A324002F3023B1B368C4F804331126F1E712F0D7
:10A33400140F0CBF0123002386F82F308E46BEE88D
:10A344000F0006F10C0CACE80F00DEF80030CCF87E
:10A354000030C9F3001386F830306B78C4F88835C0
:10A364004FF482712046FFF743FE4FF49271FFF7DA
:10A374003FFE19F0010318BF0123C4F8503519F04A
:10A38400020318BF0123C4F840352B78032B00F2D5
:10A39400CE80DFE803F08EB66F022B6903F06043D2
:10A3A400B3F1005FB4D14FF48073EA68C4F80032AB
:10A3B4006B68C4F844254FF4A871C4F84835FFF716
:10A3C40017FE4FF4B071FFF713FE4FF4A471FFF7BB
:10A3D4000FFE01232362A360D4F85031002BFBD07D
:10A3E4004FF4A8712046FFF703FEAB682A69C4F84E
:10A3F4004425C4F84835342303FB0873634A9A6040
:10A404004FF482730822002619F0080F04D129782A
:10A4140003291CBF0121A150342202FB08F2B91800
:10A42400BA58002A40F08880012223441968002980
:10A4340000F08F803421D4F8C434C4F8C43401FB50
:10A444000872002082F82F00002B00F0918013F096
:10A45400010F14BF4FF40246032648F2012213F001
:10A46400020F18BF164613F0040F48F2022318BF58
:10A474001E464EE76B68EA68C4F84425C4F84835BC
:10A484002B6903F06042B2F1005F7FF441AFAA6828
:10A49400C4F834354FF48453C4F83825C4F8003272
:10A4A400342303FB087340F202229A6001232362DF
:10A4B400A6E76B68EA68C4F8442519F0200FC4F8CD
:10A4C40048354FF0340310D003FB08734FF4807207
:10A4D400C4F800222D4A9A604FF4A471FFF788FD56
:10A4E4004FF4A473012222628CE74FF4007203FB41
:10A4F4000873C4F8002240F202229A604FF4827377
:10A50400F0E76B68EA68C4F83425C4F838354FF4CA
:10A514008053C4F80032342303FB087340F2022250
:10A524009A600123236200224FF482736BE74FF495
:10A5340082730822072667E719F0040F1CBF4FF443
:10A5440000738B60342303FB0877BB68C4F80433BF
:10A55400DFE6D4F8241100293FF468AF4FF4927178
:10A564002046FFF745FD4FF48273226262615CE787
:10A5740008FB01712046FFF743FD002808BF0326AE
:10A58400C7E600BF3434002002029C01000204002C
:10A5940010B586B00024CDE902349DF820308DF842
:10A5A4000510A342CDE9042401A914BF20222246A8
:10A5B4008DF80440FFF798FE06B010BD10B586B0C4
:10A5C4000124029300238DF80510CDE9033201A97B
:10A5D4001A468DF804400593FFF786FE06B010BDB9
:10A5E4001FB503788DF8003003798DF80430437972
:10A5F4008DF8053083688DF80630C3688DF8073010
:10A604000369029343690393054A064B684653F86A
:10A61400213052F82110984705B05DF804FB00BFC3
:10A624006834002070340020024B4FF4807043F0F3
:10A6340001031847402E03001F2886BF00F01F00A7
:10A64400044A4FF0A042012303FA00F0C2F80805BF
:10A65400704700BF000300502DE9F047904606788C
:10A664003A4A42F826803A4A42F826304B7B07465B
:10A674000C46A3B30868DFF8E0904FF0A04100F562
:10A68400E07340F20C6241F82320636803F5E07341
:10A69400002541F82320FFF7CFFF6068FFF7CCFFC8
:10A6A400236803F5E07340F20D6241F823206368E8
:10A6B40003F5E0734FF0010A41F82320FFF7B4FFDC
:10A6C40063681F2B8ABF4A464FF0A04203F01F0362
:10A6D400D2F8102522FA03F3DB070DD515BBB8F128
:10A6E400000F33461B4A214607F1040008BF00222D
:10A6F400BDE8F047FFF762BD23681F2B86BF03F058
:10A704001F034A464FF0A0420AFA03F3C2F80C357D
:10A71400FFF78AFF01352068FFF78EFFFFF784FFFC
:10A72400092DCDD163681F2B86BF03F01F030A498F
:10A734004FF0A041012202FA03F3C1F80C35FFF7F0
:10A7440073FF6068FFF778FFC9E700BF703400202B
:10A7540068340020E5A502000003005000F18043A6
:10A7640082B01A68002A14BF0120002004D00022FD
:10A774001A601B680193019B02B07047014B186873
:10A78400704700BF78340020014B1868704700BF41
:10A79400803400200E4B1A78C2B902784FF0804101
:10A7A400C2F34002C1F88025027802F00102C1F828
:10A7B4007825084A1168C9075FBFC02182F80013D1
:10A7C4000121116001221A70002070478520704712
:10A7D4008434002000E100E0034B00221A60026888
:10A7E40002B11A60704700BF803400204FF08043EC
:10A7F4004FF46072C3F8042370474FF080434FF462
:10A804006072C3F808237047014B00221A60704736
:10A81400803400204FF0804310B5D3F8044362071E
:10A8240007D54FF48470FFF799FF10B11E4B1B68D6
:10A834009847A30608D54FF48A70FFF78FFF18B125
:10A844001A4B00201B689847600608D54FF48C709B
:10A85400FFF784FF18B1154B01201B6898472106A8
:10A8640008D54FF48E70FFF779FF18B1104B002014
:10A874001B689847E20508D54FF49070FFF76EFF08
:10A8840018B10B4B01201B689847A3050AD54FF458
:10A894009270FFF763FF28B1054B02201B68BDE8E7
:10A8A4001040184710BD00BF783400207C340020CD
:10A8B4008034002008B5FFF7ADFFBDE80840FEF77F
:10A8C400E5BE0000044A91689368CB1A23F07F43E5
:10A8D4008342F9D3704700BF10E000E0034B044A01
:10A8E4001B68B3FBF2F35843FFF7ECBFF82A0020D0
:10A8F40040420F0000F1804000F51C30012303604A
:10A90400BFF36F8FBFF34F8F70470000054B1B6879
:10A91400082B01BF044B1868B0FA80F0400918BF37
:10A92400002070473001001034010010054B10F076
:10A93400800FA3F1900208BF134600F00F0003EB51
:10A94400001070472035002010F0800F14BF002342
:10A95400102300F00F00184470470000054B1B68DB
:10A96400082B02BF044B00221A60044B00221A7009
:10A97400704700BF300100101C7C02408634002068
:10A9840007B5084A00231370074A019302A81370FD
:10A99400012300F8043D054B1B68984703B05DF89C
:10A9A40004FB00BF85340020B4350020B0350020FE
:10A9B4007047000007B500238DF804300B4BD3F823
:10A9C4002025ADF80620D3F8C034094A002B1368BB
:10A9D4000CBF4FF480714FF001210B431360054B02
:10A9E40001A81B68984703B05DF804FB007002409F
:10A9F4008C340020B035002008B50146FFF7AEFFC7
:10AA0400FFF794FF837B032B0AD10846FFF79CFFD3
:10AA140001218140C9430448BDE80840FEF7D7BD81
:10AA24000368002BF1D008BD883400208720FFF78D
:10AA3400E3BF8620FFF7E0BF8520FFF7DDBF84205A
:10AA4400FFF7DABF8320FFF7D7BF8220FFF7D4BF19
:10AA54008120FFF7D1BF000013B5FFF77FFF114B33
:10AA640093F81E21032A06D16FF480710E48FEF775
:10AA7400AEFD02B010BDD3F81041002CF9D16FF433
:10AA840080710948FEF7A3FD06238DF8043088235E
:10AA94008DF80630054B8DF807401B6801A89847D0
:10AAA400E7E700BF9034002088340020B035002050
:10AAB40008B5FFF753FF084B93F89E20032A06D1ED
:10AAC4006FF001010548BDE80840FEF780BDD3F8EA
:10AAD4009030002BF4D008BD90340020883400203E
:10AAE400012273B502FA01F51E491F4E0B6810F0DE
:10AAF400800F43EA050304460B6027D000F00F02E1
:10AB04001A4B33F8123003F1804303F51C331A68EF
:10AB14004AB100221A60BFF36F8FBFF34F8F8028B2
:10AB240011D0FFF769FF316829400AD106238DF857
:10AB340004308DF806408DF807100D4B01A81B68F2
:10AB4400984702B070BDFFF7B3FFECE733681D42CE
:10AB5400F7D106238DF804308DF806008DF8072010
:10AB6400EBE700BF8C34002088340020462E03001D
:10AB7400B035002008B5054B1A781046FFF7E4FEFF
:10AB8400BDE8084001461046FFF7AABFB4350020CF
:10AB9400FFF78EBF13B5FFF7E1FE0D4B93F88E2040
:10ABA400032A13D0D3F8804084B96FF08071094828
:10ABB400FEF70DFD06238DF8043008238DF80630CA
:10ABC400054B8DF807401B6801A8984702B010BDDB
:10ABD4009034002088340020B0350020204B13B579
:10ABE400D3F80044C3F80044BFF36F8FBFF34F8F13
:10ABF400BFF36F8FBFF34F8FE1050BD5194B0122C4
:10AC04001A7002A800230193022300F8043D164B96
:10AC14001B689847A2050AD5124A002302A801938B
:10AC24001370032300F8043D0F4B1B68984763051A
:10AC340013D50C4B1A7882B100221A70084B0121EB
:10AC4400C3F808155820FFF755FE02A80423019203
:10AC540000F8043D044B1B68984702B010BD00BFC8
:10AC64000070024085340020B03500202DE9F04FFB
:10AC7400764B87B01A780193002A40F08680DFF87B
:10AC8400D4B1734B1968734B1C6821407DD011F00B
:10AC940001247DD094FAA4F4B4FA84F40F2C86BF72
:10ACA400A4F110085FFA88F844F080084046FFF7E2
:10ACB4003DFE4FFA88FABAF1000F064608F00F0578
:10ACC40082896ADAD0E9003104A8984700B9306073
:10ACD400614B1B68082B02BF604B82221A60019BE8
:10ACE400059A049801211970A140B368DBF800406B
:10ACF400134424EA0101BAF1000FB360CBF8001049
:10AD0400574B78DA072D9BBF142101FB0533C3F899
:10AD1400A006C3F800068CBFC3F8A426C3F8042613
:10AD2400FFF7F4FDAB002DB26E004E4A4E490028E9
:10AD340072D0BAF1000FB5BF92468A460424282483
:10AD4400B2444A4D4A4E1C4400272F60BFF36F8F14
:10AD5400BFF34F8F2046FFF7CDFD0220FFF7BEFD66
:10AD64002B68002BF1D01E20FFF7B8FD33689B063B
:10AD740050D50120FFF7B2FDBAF8003003F180434B
:10AD840003F51C331B68002BDFD007B0BDE8F08F40
:10AD940091FAA1F1B1FA81F480E7072D304B25D95E
:10ADA400D3F8C09419F4803F18BF4FF000094B4604
:10ADB4007168376804A8B847049B002B86D0059BAC
:10ADC4004B4583D201210225A140B573C9432048D4
:10ADD400FEF7FDFB06238DF80C30264B8DF80E8014
:10ADE4008DF80F501B6803A898474AE705F594713E
:10ADF40053F82190DBE7072D9BBF142101FB05339A
:10AE0400C3F8A007C3F800078CBFC3F8A427C3F88E
:10AE1400042785E70220A7E7BAF1000FACBF28207A
:10AE240004201844FFF766FD12EA2A0A38BF8A464E
:10AE340011493AF8153003F1804303F51C331A68BD
:10AE4400002AA2D10A68002AF9D09EE7863400209D
:10AE5400883400208C340020300100101C7C024017
:10AE640000700240462E0300582E03000471024075
:10AE740074740240B03500200071024038B5174B9D
:10AE8400D3F86C44C3F86C44BFF36F8FBFF34F8F98
:10AE9400FFF73CFD38B1124A136823F0011103F0A7
:10AEA40001130C43136001251CB9BDE83840FFF7BA
:10AEB400DDBE94FAA4F3B3FA83F30F2BD9B2C8BF5F
:10AEC400A1F1100005FA03F3CCBFC0B241F0800039
:10AED40024EA0304FFF704FEE6E700BF0070024023
:10AEE400B835002037B50446FFF738FDFFF71EFDDF
:10AEF400837B032B0CD12046FFF726FD01218140E3
:10AF0400C9430F48FEF763FBFFF7B0FE03B030BD43
:10AF14000568002DF8D12046FFF716FD0121814078
:10AF2400C9430748FEF753FB06238DF80430054B4D
:10AF34008DF806408DF807501B6801A89847E3E791
:10AF440088340020B03500200720FFF7CBBF06204F
:10AF5400FFF7C8BF0520FFF7C5BF0420FFF7C2BF36
:10AF64000320FFF7BFBF0220FFF7BCBF0120FFF79C
:10AF7400B9BF08B5FFF7CAFC58B1EFF3108272B637
:10AF84004C20FFF7B7FC4C20FFF7B4FC82F3108889
:10AF940008BD4C20BDE80840FFF7ACBC13B5FFF773
:10AFA400DDFC104B9A7B032A06D16FF480310E48E6
:10AFB400FEF70DFB02B010BD1C6884B96FF480313C
:10AFC4000948FEF704FB06238DF80430074B8DF87F
:10AFD40006408DF807401B6801A89847EAE7FFF789
:10AFE400C8FFE7E79034002088340020B035002003
:10AFF400F7B50246FFF78AFC0746104602F00F0435
:10B00400FFF7A2FC01258540ED43184EC7B1002788
:10B014000DF107008DF80770FDF776FA3068144BD0
:10B024006400284004F2C5743060043343F8044CCF
:10B034001F601B689DF80700FDF78AFA03B0F0BD96
:10B044000DF107008DF80770FDF75EFA3068072CE4
:10B0540000EA05003060EDD804F59474054B43F81C
:10B064002470BFF36F8FBFF34F8FE3E78C3400205E
:10B074000078024000700240F7B5044602A800239D
:10B0840000F8053DFDF740FA2046FFF74FFC054662
:10B094002046FFF759FC012314F0800F03FA00F057
:10B0A400294917D10B6830EA03020AD02046FFF77A
:10B0B4009FFF0323AB739DF80300FDF749FA03B028
:10B0C400F0BD2A60C043214A03400B60136803406B
:10B0D4001360EEE704F00F02072A0FD8802C1C4EF1
:10B0E4001C4B27D002F2DA32520032601A681E6812
:10B0F400D2B242F0020232431A601B68134E0A684D
:10B10400336862EA03070742D5D022EA00021843F3
:10B1140000230A602B600323AB738DF807300E4BBA
:10B12400306006228DF804208DF806401B6801A8C3
:10B134009847C0E740F2B47232601A681E68D2B20F
:10B1440042F00402D7E700BF883400208C3400208A
:10B154000078024004780240B0350020F7B5174B60
:10B16400174CD3F880542368164EDA43164B3778BD
:10B174001B6892B238461A43FFF7E6FB012303FA31
:10B1840000F0104202D03846FFF776FF6FF001114D
:10B1940005F080050C483570FEF719FA236843F072
:10B1A4000103236002A800230193052300F8043D52
:10B1B400064B1B68984703B0F0BD00BF0070024007
:10B1C4008C340020B435002088340020B0350020B1
:10B1D400554B2DE9F041D3F8045300222946164675
:10B1E400012400297CD1FFF791FB002869D04F4B43
:10B1F4001B78002B65D1960263D54D494C4E40F225
:10B20400A9730B604B4B1C6814F0FF041CBF186837
:10B21400044040F2AA700860186810F0FF001CBFD8
:10B224001968084040F2AB713160196811F0FF01F0
:10B23400B4461CBF1E68314040F2AC76CCF80060C6
:10B244001E6834403C4E08D037682743376040F2CC
:10B25400A977CCF800701C601C68354F40F2AD74BF
:10B264003C601C68204008D0346844EA00443460E0
:10B2740040F2AA743C60186018682D4840F2AE741D
:10B284000460186801400DD0CC0748BF42F40002A6
:10B29400C806274840F2AB74046019601B6848BFB5
:10B2A40042F00102336833F001111CBF05F08070D5
:10B2B400024313F0011F04D06B0544BF316042F414
:10B2C40080621E4F02F4000622F400044FF00108CD
:10B2D400E4B9FFF7CBFC2EB3BDE8F041FFF73EBF66
:10B2E40091FAA1F31648B3FA83F39F003844076830
:10B2F4003FB10660BFF36F8FBFF34F8F04FA03F0C3
:10B30400024304FA03F321EA03016AE794FAA4F579
:10B31400B5FA85F557F8253008FA05F5984724EA73
:10B324000504D5E7BDE8F0810070024086340020B2
:10B334000078024004780240B83500206C2E0300E7
:10B344000071024036DF70474DDF70474EDF7047B3
:10B354004FDF704750DF704708B50346FFF7F6FF2D
:10B3640040B91846FFF7F0FF20B91846BDE8084079
:10B37400FFF7EEBF08BD012810B5044602D1FFF760
:10B38400FDF98047FFF700FA034668B10A2C07D09D
:10B394000B2C07D0092C07D10220BDE81040184718
:10B3A4000020FAE70120F8E710BD0000012813B5DA
:10B3B400044603D0032819D002B010BD02A800230C
:10B3C40000F8013DFDF7A0F8FFF7D8F910B12046C9
:10B3D400FFF7B8FF9DF80700FDF7BAF8FFF7D4F9B7
:10B3E4000028E9D00120FFF7B7FFE5E70C4BC022A6
:10B3F40083F8002301221A60FFF7C0F920B14FF04F
:10B4040080430422C3F80423FFF7BEF90028D3D0F5
:10B414004FF080434FF46072C3F80423CCE700BFBD
:10B4240000E100E038B50A4C2378054663B905F01D
:10B43400ADF858B90748002D18BF2846FFF7AAF9F8
:10B4440008B90123237038BD8520FCE70820FAE7FA
:10B45400BC350020D52E030013B502A8002400F843
:10B46400014DFDF751F805F091F850B12046FFF772
:10B4740073FF9DF80700FDF76BF8FFF7C5F902B0FD
:10B4840010BDFFF7BAF9F4E713B50446FFF7E4FF7C
:10B494002046FFF7A1F905F079F80446A0B1012090
:10B4A400FFF75AFF044660B901A8FFF753FF0446AB
:10B4B40038B9019BDB0704D5FFF766F9034620463C
:10B4C4009847204602B010BDFFF790F9F9E7000055
:10B4D4000E4A537910B503F0FF01A3B90C4B196060
:10B4E400116821B1012454710A4AC2F8044300F1DD
:10B4F400804000F524300122026011B91A68002A44
:10B50400FCD0002000E0112010BD00BFC035002099
:10B514000091024000900240023807281FD8DFE85B
:10B5240000F02927251123211F04CB791B068A79D2
:10B5340043EA02434A7943EA02230A7913430E4A4F
:10B54400C2F83C36CB781B068A7843EA02434A7831
:10B5540043EA02230A781343074AC2F8383670478D
:10B564000023E4E70023E5E70023E6E70023EBE715
:10B574000023ECE70023EDE7009002400E4B023875
:10B58400D3F83C26D3F83836072813D8DFE800F080
:10B59400110F0D0B0A080604100EC871100C8871E7
:10B5A400100A48710A711A0ECA701A0C8A701A0AA3
:10B5B4004A700B70704700BF0090024070B5084D90
:10B5C400084E642445F00105336833B94FF4207004
:10B5D400A847013CF8D10D2070BD0020FCE700BF56
:10B5E400E02E030000910240F0B53C4D2E79002E70
:10B5F4006FD190F804E0BEF1FF0F6CD090F805C055
:10B60400BCF1FF0F67D08779FF2F64D0C379FF2B7C
:10B6140061D0334CC4F824E5C4F828C5C4F83075A7
:10B62400C4F83435037A90F80BC0877AFF2B08BF2F
:10B634004FF0FF33C4F83835437AFF2B08BF4FF07F
:10B64400FF33C4F83C350368C4F84035037B9B01E1
:10B6540043EACC033B43477B90F810C0002F14BF50
:10B66400802700273B43C4F84435D4F80036877B51
:10B6740023F07F4323F0FF033B43C77B43EA4C6340
:10B6840090F811C0002F14BF4FF08077002743EAD1
:10B694000C733B43C4F8003601236E712960AA6021
:10B6A400C4F8083341B1837C0E4A5B01DBB282F8F3
:10B6B40029334FF400735360094A0B4901230020D6
:10B6C4002B71C2F80035BDE8F04008601360FFF745
:10B6D40075BF0820F0BD0720FCE700BFC03500207F
:10B6E4000090024000E100E000910240F8B51A4BDE
:10B6F4005B791646054603F0FF0243BB174C2260F4
:10B7040011B16878FFF708FF154A69780123C2F878
:10B714000833AB781B0343EA012329780B43E97808
:10B7240043EA4133297943EA8133697943EAC133EE
:10B73400C2F83436FFF742FF0D2807D000272760F0
:10B744003EB168783146FFF719FF3846F8BD11203D
:10B75400FCE73046FAE700BFC03500200091024004
:10B7640000900240104B1149D3F8342602F44032C1
:10B77400B2F5803F04BF0E4AC3F834260122C3F851
:10B7840008230A604A640022C3F80025094B4FF4D9
:10B794000071C3F8841003F1C04303F5D8331A6071
:10B7A400054B1A71704700BF009002401090024090
:10B7B4000001030000E100E0C035002000F0604318
:10B7C400B3F1005F0BD1830709D1064BC3F81025F1
:10B7D400C3F81405C3F818150820FFF779BE102024
:10B7E400704700BF0090024000F06043B3F1005F77
:10B7F4000BD1830709D1064BC3F80425C3F8080508
:10B80400C3F80C150420FFF763BE1020704700BF77
:10B81400009002408B0707D1044BC3F81C15C3F8F2
:10B8240020050C20FFF754BE102070470090024002
:10B83400054A136833B1054B0020587199681060AC
:10B844001A681047704700BF00910240C0350020BD
:10B8540000F1804000F5E040002382B003600368FB
:10B864000193019B02B07047F0B5514B514C1B68DA
:10B8740085B0DBB14FF4827094F82E20FFF7E8FF17
:10B8840012B194F82F30A3B1636802932389ADF801
:10B894000C30E36800218DF80410002B44D123748C
:10B8A400236801A89847002384F82F3094F82E3099
:10B8B40003B3414B1B68EBB14FF48070FFF7C8FF33
:10B8C40094F82D20638B91B28B4238D95B1A21896D
:10B8D4009BB26383CB1A616801EB4301374BC3F816
:10B8E4002C16C3F830264FF48270FFF7B1FF344BA7
:10B8F40001221A60334B1B685BB14FF48870FFF769
:10B90400A7FF002304A82374022300F80C3D236836
:10B9140098472D4B1B6813B34FF48A70FFF798FFB9
:10B924000023237405B0F0BD208B60836360208105
:10B93400E160002AB4D1214B01221A60B0E7D2D1D0
:10B94400E368012184F82F103BB1002161831B4976
:10B95400C1F82C36C1F83026C5E76383C3E76669AE
:10B964004FF000470125002EDCD0B6FA86F227FA04
:10B9740002F34632920026EA030602F1804303F5FD
:10B98400E0431B68002BEED01046FFF761FFA2F5E1
:10B994008C72D30882F00402C2F380028DF808305E
:10B9A4008DF804508DF80920236801A89847DAE738
:10B9B40004710040CC35002000710040007000404C
:10B9C40004700040107100401471004038B51E4BE3
:10B9D400044693F82C00A8BB1C4A19602178C2F8CD
:10B9E400F0156178C2F8F415E5781874012183F82C
:10B9F4002C1083F82D00586183F82F0083F82E5003
:10BA04006FF00043C2F808334FF48270FFF720FF51
:10BA14004FF48070FFF71CFF4FF48A70FFF718FF94
:10BA2400A3780B485B01DBB280F807338023036003
:10BA34000223C2F804330DB1C2F80413C2F800158E
:10BA4400002038BD0820FCE7CC3500200070004001
:10BA540000E100E0224B1A7C30B5002A3ED100F10F
:10BA64000C0403EB4402127922B993F82D2001321D
:10BA740083F82D2003EB4403CA790C7A1A715C71A4
:10BA84008D784B782D021B0105F4E06503F030033B
:10BA94002B430D7805F003052B43CD782D0305F4D6
:10BAA40080552B430D792D0405F4E0252B434D7966
:10BAB40089792D0505F48015090601F080712B4361
:10BAC4000B43010101F1804101F5E0410020C1F87F
:10BAD4001835C1F81445C1F8102530BD1120FCE714
:10BAE400CC350020054B93F82E30002B14BF0020DA
:10BAF400042000F1804000F5E0407047CC35002080
:10BB0400264A274B70B505461220C2F808031C7C50
:10BB1400022C03D1C2F80403112070BD187C012843
:10BB24001DD1D86818B10223C2F80433F4E7DD60EC
:10BB3400198393F82E3063B91A4A1368002BFCD08A
:10BB44004FF48070FFF784FE144BC3F82C56C3F8EF
:10BB54003016124B0222C3F804230020DDE7022032
:10BB640093F82E40C2F80403012600201E745D6081
:10BB74001981D8603CB1598393F82D30C2F82C5602
:10BB8400C2F83036C9E7C2F82C564FF48070C2F8B8
:10BB94003016FFF75DFE20461660BEE700700040D9
:10BBA400CC350020007100402DE9F74F4FF000091B
:10BBB400154D164E07464FF0040AC8465FFA89FB36
:10BBC40001240DF1070004FA0BF48DF80780FCF74B
:10BBD4009BFC2C4208D0336814EA030201BF2343C0
:10BBE400336087F800B092469DF80700FCF7B0FC7C
:10BBF400BAF1000F03D0A54309F10109DED1504683
:10BC040003B0BDE8F08F00BFFFFF0100FC3500204A
:10BC140010B5A1B19AB101238340C3F3100484B1D8
:10BC24000A4C246823420ED0C00000F1804000F585
:10BC3400F830C0F81015C0F81425002010BD0E20EF
:10BC4400FCE70720FAE70820F8E700BFFC350020EE
:10BC5400012303FA00F0430C5B044BB918B1064B03
:10BC64001B68184206D0054BC3F804050020704732
:10BC74000720704708207047FC35002000F0014081
:10BC8400034B187810B901221A7070478520704749
:10BC9400003600202DE9F743002406460F4600F540
:10BCA400A0754FF48038A1462B688BB1D6F80433C5
:10BCB40008FA04F21A420BD0C5F800902B680193DD
:10BCC40004F150008000019B80B2D7E9003198470D
:10BCD4000134042C05F10405E6D103B0BDE8F0837A
:10BCE400F7B506792F4D0C237343EF183C7A002CDB
:10BCF40056D1EA504B687B60477903682246D0B23C
:10BD0400874243D81A0B54B2C878002CA8BF04F158
:10BD14006047D2B2BABF02F00F0C234F07F5614758
:10BD24004FEA4010C0B2B4BF07F80C0087F8000314
:10BD34006409012002F01F021C4F00FA02F247F8C6
:10BD440024204A78D3F8044502F0030224F00304C3
:10BD54002243C3F80425D3F808458A7824F0030461
:10BD640002F003022243C3F80825D3F810450A78E9
:10BD740024F00F0102F00F020A43C3F810250C232C
:10BD840003FB06552872002003B0F0BD02F15000F9
:10BD9400013243F8204053F8200001900198AEE7A7
:10BDA4000820F1E70436002014ED00E000E100E093
:10BDB400036801221A600379034A0C2101FB03235F
:10BDC40002221A72704700BF043600200368044937
:10BDD40001221A6103790C2000FB03131A727047C5
:10BDE4000436002037B54FF480348C4000687BB1B2
:10BDF4008B0003F5A0730025C550C3580193019B24
:10BE0400C0F8044301F5A87140F8212003B030BD07
:10BE1400C0F80843F6E7F0B404689DF81070D4F84D
:10BE2400005240F201168E4025EA0605C4F800527D
:10BE3400D4F800522B43C4F800323B46F0BCFFF761
:10BE4400D1BF000001490248FFF724BF0436002097
:10BE54000080004001490248FFF71CBF1036002053
:10BE64000090004013B5064C23683BB1054B1B689A
:10BE740098470023236023680193019B02B010BDFF
:10BE84000001014020360020114B70B51960114BA0
:10BE94001C780546D4B901220F4E1A700378C6F8EF
:10BEA4000C3541684FF47A720023C803490C05F03D
:10BEB40008FCC6F804052B7A084A5B01DBB282F859
:10BEC40010334FF480331360204670BD0820FCE724
:10BED400203600201D3600200000014000E100E073
:10BEE400044B0122C3F804231A60034B02221A7084
:10BEF400704700BF000001401D36002037B50546DD
:10BF040002A8002400F8014DFCF7FEFA0B4B1A7846
:10BF1400072A11D8511C197009492A70D1F808054B
:10BF2400012393400343C1F808359DF80700FCF74B
:10BF34000FFB204603B030BD0424F6E71C36002076
:10BF44000000014008B5094B1B7853B10020FDF7F0
:10BF5400CFF90120FDF7CCF90320BDE80840FDF737
:10BF6400C7B9BDE80840FDF7D7B900BF24360020A3
:10BF7400F8B57B4C237805461BB100232370FFF7EB
:10BF8400E1FF172D00F28880DFE805F00C17174356
:10BF940054657680888D888D959A9A9A9A9AC4C9A0
:10BFA400D1D9E4E4FFF7CEFF6E48FCF7D8F96E4B25
:10BFB400002204461A702046F8BD0020FDF770F9EF
:10BFC400F8B10020FDF794F9022D0CBF4FF4E161A4
:10BFD4004FF47A61644B1D704FF400404FF47A744F
:10BFE4000025E0FB01454FF4FA6200232046294670
:10BFF40005F067FB002201465A48BDE8F840FCF70B
:10C0040096B9FDF761F9022D0CBFC8214FF4C87130
:10C01400E0E70020FDF744F940B10020FDF768F99E
:10C024004FF44871504B03221A70D5E7FDF74CF9D1
:10C03400C821F7E70020FDF733F938B10020FDF7F8
:10C0440057F94FF47A61484B0422EDE7FDF73CF9C8
:10C054004FF4C871F7E70020FDF722F948B100203A
:10C06400FDF746F9404B05221A7040F6CD410022F7
:10C07400C2E7FDF729F9F5E70020FDF76BF93A4B24
:10C0840006221A70002240F26661B5E70020FDF72F
:10C094001BF9354B07221A7000248CE7012020700D
:10C0A400FDF758F9EEE701202070FDF753F900225F
:10C0B4004FF40051A0E7FDF73EF92B4B0C22EAE7C1
:10C0C4002A482B4EFCF74BF9D5F1110504461CD038
:10C0D400D8B9012D13D0C8235D434FF400474FF462
:10C0E4007A7000214FF4FA620023C7FB050105F0C2
:10C0F400E8FA224601461D48FCF719F904460220D5
:10C10400FDF7E2F80123337055E70220FDF7F0F85C
:10C114000023F8E7FFF716FF134B1222BBE7FFF7E4
:10C1240011FF0020FDF7D0F80F4B1322B3E7FFF700
:10C1340009FF0120FDF7C8F80B4B1422ABE7FFF70A
:10C1440001FF0020FDF7C0F80120FDF7BDF8064B04
:10C154001522A0E7FDF7EFF8034B1D709CE700BF25
:10C164007836002048360020793600202836002012
:10C1740024360020044B1B6813F0010301D0FFF7A1
:10C18400F7BE1846704700BF74360020032812D843
:10C19400012A0BD1012908D100F10E02D2B200EB21
:10C1A40040000C4B1A540020704700220129F6D09D
:10C1B40009D3022901D007207047064B00EB400049
:10C1C40018444270EFE7034B00EB400018448270C0
:10C1D400E9E700BF6836002008B5012202210020EB
:10C1E400FFF7D4FF08B1072810D10722022101204C
:10C1F400FFF7CCFF08B1072808D100210A2208461E
:10C20400FFF7C4FF10B1072808BF002008BD0000D5
:10C214000388102B10B502D0112B1ED010BD1A4C60
:10C224002168B1B901220846FFF7B0FF08B1072819
:10C2340024D1072202210120FFF7A8FF08B1072813
:10C244001CD1042202210020FFF7A0FF08B1072817
:10C2540014D1236801332360E0E70B4A1368013BE0
:10C264001360002BDAD1FFF7B7FF0028D6D0074BB5
:10C274001B68002BD2D0BDE810401847034B1B6845
:10C28400002BE6D09847E4E7803600207C36002077
:10C29400704708B54FF480410020FBF707FA08B156
:10C2A400FBF7B6FEBDE80840FBF738B908B5FCF764
:10C2B40061FE18B1BDE80840FBF7AABE08BD000046
:10C2C40008B5FBF74DFA28B9FCF76AFE024B034A9E
:10C2D400C3F8002608BD00BF000001403546526E79
:10C2E4001FB500238DF8043042F2107302930A49FB
:10C2F400062301A88DF80C30FFF7C6FD08B1FBF743
:10C3040087FE0648FFF7FAFD08B1FBF781FEFFF749
:10C31400E7FD05B05DF804FB95C202003437002048
:10C3240008B500F0F2FEFFF7B4FFFBF7C3FF08B156
:10C33400FBF76EFEFFF7BAFF02F04CFD144A0A2128
:10C344000820FBF711FF08B1FBF762FE02F0FCF9CD
:10C3540002F05AFD02F06EFC02F06CFD02F08EFC5D
:10C3640002F0DCF900F0ECFE00F09AF802F094FD23
:10C3740000F0A2FB01F014FC00F03FFA01F01CFAFB
:10C3840001F006F800F0A2FFBDE8084002F048B949
:10C394008436002038B50C4B0C4D1022C3F80C2504
:10C3A4004FF47A7445F001054FF47A40A847013CF4
:10C3B400FAD14FF0A043064AC3F814274FF0804344
:10C3C4000122C3F8002538BD00030050002F0300EC
:10C3D4000C00030008B500F0D5F94FF080430122AA
:10C3E400C3F87825FFF77CFF4FF0A043D3F810354E
:10C3F4009B0604D4FFF794FFFFF762FFFCE7FFF707
:10C40400C9FFF9E7064B00221A70064B1A70064B57
:10C414001A70064B11461B78104601F0B1BA00BFE2
:10C42400663700203D37002067370020643700203E
:10C434000C4A08B512780C4B1B7882B15BB90B4AD5
:10C44400137000F081FFBDE80840FFF7DBBFBDE8D3
:10C45400084000F0AFBEBDE8084002F05FB9002B11
:10C46400F5D108BD683700203C3700206437002030
:10C47400024A1378013B1370704700BF3D37002018
:10C4840008B5054A05480021FBF746FF18B1BDE889
:10C494000840FBF7BDBD08BD35C40200082F0300EA
:10C4A40008B5FFF7EDFF1E2203210748FBF742FD05
:10C4B40008B1FBF7ADFDFBF795FD18B1BDE80840E9
:10C4C400FBF7A6BD08BD00BFFC2A002010B5074C31
:10C4D40022783AB94FF400510548FBF728FF08B118
:10C4E400FBF796FD0123237010BD00BF3E370020EB
:10C4F4004037002008B5064B064800221A70FBF7A7
:10C504002EFF18B1BDE80840FBF782BD08BD00BF8F
:10C514003E37002040370020012910B50C4605D1D4
:10C52400104BBDE810401970FFF7D0BFC9B90D4BCF
:10C534001970FFF7DFFF0C4B0C491A78013A52B21D
:10C54400002A4FF001000870B8BF0C701A700A7806
:10C55400B8BF1C702AB193F90000BDE8104001F087
:10C564005DB910BD683700203D37002065370020D5
:10C57400012910B50C4603D1BDE81040FFF7A6BF52
:10C58400C1B9FFF7B7FF0C4B0C481A78013252B20D
:10C594000A2A4FF001010170C8BF04701A700278B2
:10C5A400C4BF0A2119702AB193F90000BDE81040F4
:10C5B40001F034B910BD00BF3D37002065370020BD
:10C5C40001292DE9F04105D1494BBDE8F04119702D
:10C5D400FFF77CBF002934D1454B464C1970FFF757
:10C5E40089FF2378444F454E97F90000307001339A
:10C5F400DBB22370013B424D032B0BD8DFE803F081
:10C6040002304E5DF8B900F017FEE0B13D4A012357
:10C6140013702B702B78A3B14FF0A043D3F81035CF
:10C624009B060ED5374B94F900201B7896F9001021
:10C634004FF00008404687F8008001F0A1F985F822
:10C644000080BDE8F08196F9002022B12D4B002234
:10C654001A700123DDE723782A70013B2370D9E7A0
:10C66400DFF8A08098F8003063B100F0ABFD01F072
:10C67400F3F90023012223702A7088F8003000F0B7
:10C6840063FEC7E700F0DCFE68B396F9000000F033
:10C69400AAFF1D4B186001232B70F0E7DFF86880B8
:10C6A400D8F8001000F0A8FEE8B1D8F8001096F908
:10C6B400000000F019FF154BECE7DFF85080D8F8C4
:10C6C400001000F07EFE70B1D8F8001096F900005A
:10C6D40000F077FE804601F0BFF9404600F090FD7F
:10C6E40000232370D7E72378013B237092E700BF30
:10C6F4003C370020663700203D3700206737002094
:10C704006537002064370020603700203837002068
:10C714001F2886BF00F01F00044B4FF0A04300F514
:10C72400E070890043F82010704700BF00030050F8
:10C7340038B5054D044645F001054FF47A40A84745
:10C74400013CFAD138BD00BF102F03001F2886BF5B
:10C7540000F01F00044B4FF0A04300F5E07040F2DE
:10C76400033243F82020704700030050044B4FF479
:10C774008062C3F80C254FF40062C3F80C2570479F
:10C784000003005008B52420FFF7E0FF2520FFF741
:10C79400DDFF2120FFF7DAFF0B20FFF7D7FF1E2074
:10C7A400FFF7D4FF4FF0A0434FF08042C3F80825B1
:10C7B4002D20FFF7CBFF01212B20FFF7A9FF2A2013
:10C7C400FFF7C4FF2B20FFF7C1FFFFF7CFFF0321C3
:10C7D4000820FFF79DFF03212220FFF799FF032183
:10C7E4000520FFF795FF00211A20FFF791FF002194
:10C7F4000420BDE80840FFF78BBF08B500F0EAF954
:10C80400BDE8084000F022BDC0EBC000C0B2C0F1DA
:10C814008000022390FBF3F0C0B200F067BC00007C
:10C8240010B5044600F012FD3221212000F05EFC18
:10C83400374A384B06CA4FF4F85000F0F1FB072C86
:10C8440013D8DFE804F0041E28323C46505A32481C
:10C8540005F0B3FA4621C0B2FFF7D6FF2F4A2E4B9C
:10C8640006CA4FF6FF7000F0DBFB00F05FFA4FF4EE
:10C87400FA60FFF75DFF00F0E9FCBDE81040FFF748
:10C88400C1BD274805F099FA4621C0B2FFF7BCFFA5
:10C89400224A234BE4E7234805F08FFA4621C0B22D
:10C8A400FFF7B2FF1D4A1F4BDAE71F4805F085FA70
:10C8B4004621C0B2FFF7A8FF184A1B4BD0E71B481C
:10C8C40005F07BFA4621C0B2FFF79EFF134A174BCF
:10C8D400C6E7174805F071FA4621C0B2FFF794FF86
:10C8E4000E4A134BBCE7134805F067FA4621C0B261
:10C8F400FFF78AFF094A0F4BB2E70F4805F05DFACC
:10C904004621C0B2FFF780FF044A0B4BA8E700BFE3
:10C91400142B0020162F03001D2F03001C2B0020B6
:10C924002E2F03003E2F0300502F03005F2F030020
:10C934006E2F03007E2F03008B2F030008B501F038
:10C94400E7FE0448FBF70BFD18B1BDE80840FBF710
:10C954005FBB08BD7037002010B50D4C237893B130
:10C96400002002F0B3F9002323700A4C0A4A2388FA
:10C97400126801339BB29342238003D1FFF7DEFF99
:10C984000023238010BDF82002F0A0F90123EBE777
:10C9940090370020923700206C37002008B50A2316
:10C9A40058434FF47A73B0FBF3F00B4B0B4A186007
:10C9B40001210B48FBF7B0FC08B1FBF729FB00226F
:10C9C4004FF480410748FBF7B2FC18B1BDE80840BA
:10C9D400FBF71EBB08BD00BF6C3700205DC9020019
:10C9E4000C2F03007037002030B585B000F02EFC0A
:10C9F40032211C2000F07AFB1E4A1F4B06CA4FF658
:10CA0400FF7000F00DFB4FF6FF7300937C220F23A1
:10CA14003F21022000F0C1FA00F088F94EF2070528
:10CA24007B2C11D0FD2C0FD0032103A802F07AFA3D
:10CA34009DF80C30CC2BF3D19DF80D30EE2B07D1A3
:10CA44009DF80E00FFF7ECFE00F000FC05B030BDD1
:10CA5400AA2BE5D19DF80E400095E21C4D23402100
:10CA6400104600F069FA00F061F99DF80E307B2B56
:10CA7400D6D1E9E71C2B0020982F030038B5054DCB
:10CA8400044645F001054FF47A40A847013CFAD129
:10CA940038BD00BFC02F03001F2886BF00F01F0051
:10CAA400044A4FF0A042012303FA00F0C2F808053B
:10CAB400704700BF000300501FB5094B0FCB6C46F5
:10CAC40084E80F00074B009300231A4621460648CA
