:020000022000DC
:1070000000000420757302005D7302005F730200CC
:1070100061730200637302006573020000000000E8
:107020000000000000000000000000006773020084
:1070300069730200000000006B7302006D730200B0
:10704000E9A002006F730200159B0200459C02003C
:107050006F7302006F7302006999020055B002005D
:1070600019B6020029B602006F7302006F730200A6
:107070006F7302006F7302006F7302006F73020080
:107080006F730200CD8702006F7302006F730200FE
:107090006F7302006F73020045F302006F7302000A
:1070A0006F7302006F7302006F7302006F73020050
:1070B0006F7302006F730200000000000000000008
:1070C0006F7302006F7302006F7302006F73020030
:1070D0006F7302006F7302006F73020015AA020043
:1070E0006F7302001DB002006F7302000000000009
:1070F000000000006F730200000000006F730200C8
:10710000000000000000000000000000000000007F
:10711000000000000000000000000000000000006F
:10712000000000000000000000000000000000005F
:10713000000000000000000000000000000000004F
:10714000000000000000000000000000000000003F
:10715000000000000000000000000000000000002F
:10716000000000000000000000000000000000001F
:10717000000000000000000000000000000000000F
:1071800000000000000000000000000000000000FF
:1071900000000000000000000000000000000000EF
:1071A00000000000000000000000000000000000DF
:1071B00000000000000000000000000000000000CF
:1071C00000000000000000000000000000000000BF
:1071D00000000000000000000000000000000000AF
:1071E000000000000000000000000000000000009F
:1071F000000000000000000000000000000000008F
:10720000354936480A1A02D0072291438D4634493F
:1072100034480A1A06D00722914381F309880222D2
:1072200082F3148830483149314A00F044F831483B
:107230003149324A00F03FF831483249324A00F0D1
:107240003AF832483249334A00F035F83248334987
:10725000334A00F030F833483349344A00F02BF811
:1072600033483449344A00F026F83448344900227F
:1072700000F02CF833483449002200F027F8334856
:107280003349091A082902DB002202604160314AB1
:1072900090471F481F49884205D00268043003B454
:1072A000904703BCF7E700208646EC46002000210B
:1072B000294A9047FEE7884207D0521A05D0037842
:1072C00001300B700131013AF9D17047884202D088
:1072D00002700130FAE770470000042000E003204C
:1072E00000000420000004200C390300E82A0020DC
:1072F000A82B0020D0730200D0730200500F0300AF
:107300000C390300E82A0020E82A00209C10030022
:107310009C1003009C1003009C1003009C100300B1
:107320009C1003009C1003009C1003000C39030008
:10733000CC390300A82B0020A82B0020A82B00206C
:1073400044C0002044C0002048C0002048C00020A5
:1073500048E000209D73020081BA0200FEE7FEE7CC
:10736000FEE7FEE7FEE7FEE7FEE7FEE7FEE7FEE7F5
:1073700000F002B8FFF7FCBF0F484FF00701884349
:1073800085460E4880470E48016841F4700101604F
:10739000BFF34F8FBFF36F8FFFF732BF09480A4922
:1073A0000A4A884207D0521A05D0037801300B7080
:1073B0000131013AF9D1704700000420BD9002006C
:1073C00088ED00E09C100300E82A0020E82A002055
:1073D000004870473CC000207047000007B5044BD0
:1073E0000093044A402300F032F803B05DF804FB38
:1073F000F9730200A92B00202DE9F84389461446B1
:10740000B2B10F4B0F4E0325002743F0010822466F
:1074100009EB0701002006F0DBFC0744241A48B9F9
:1074200033782BB14FF47A40C047013D02D135701B
:10743000BDE8F88301233370002CE8D1F8E700BFE2
:10744000A0100300A82B0020704706F0F5BCF0B593
:1074500095B01C46164608460D4601F04CFD1A9B99
:107460000D93CDE9086400242346082205A9284687
:107470000A948DF82C400C9401F05AFD079B02935E
:10748000069B03939DF814308DF8114003F003021E
:10749000012A1DD1BDF81440059EC3F3C203C4F3F5
:1074A00083148DF81030A20008230EA9284601F09D
:1074B0003FFDC6F3952608AB0093224602AB0EA90A
:1074C000304600F06DFB284601F019FD15B0F0BD07
:1074D000022AF8D1BDF81640C3F3C203A4098DF8FF
:1074E00010300827082C264628BF08263B4632467F
:1074F0000EA9284601F01CFDA41B08AB02AA3146C8
:107500000EA8374400F0B0FB002CEBD1DBE7000005
:1075100008B5FFF79AFF0421034800F0AFFA034BC8
:1075200001225A7108BD00BF8C100300E82A002018
:10753000037813F0040216D003F00303012B03D0E9
:10754000022B09D0012070470A6800880232C0F37C
:10755000831002440A60F5E70B684288023303EBAC
:1075600092130B60EEE71046704700002DE9F04FD4
:1075700087B000230446851C0DF107000F46904696
:107580008DF8073000F0B6FF454806683E60D0E948
:107590000132134401339B1B824600F21C4600F566
:1075A000836900F21447AB421BD30022B8F1000FED
:1075B00070D0052363F3070264F38912DAF8001030
:1075C000DAF808309DF807000B4003330D444AF801
:1075D0002320CAF8005000F0B1FF012007B0BDE839
:1075E000F08F0121304601F0CAF9484601F0DDF97B
:1075F000384601F0DAF9DAF80400DAF808B0029057
:1076000000EA0B0003300AEB800002A9FFF790FFAD
:10761000029B50BB0BEA03020AEB820203F1020C4D
:10762000D2680392013303EA0B0B0AEB8B0B02F0D7
:107630000302012ACDF808C0DBF80C1022D0022A80
:1076400016D08346384601F0B3F910B1029BCAF850
:1076500004305946304601F092F9DAE90123134427
:10766000DAF8002001339B1A9DE70BEA0300C9E713
:10767000BDF80E309B0903334FEA114B0CEB93031B
:107680000293DFE7BDF80C30C3F383134FEA114BCD
:107690006344F5E7062363F3070264F39F528DE723
:1076A000BC2C00200B4B0C48FF2210B59A60002226
:1076B000C3F81824C3E90022C3F8142483F8202453
:1076C00001F0D2FB044610B9044801F079FC2046D1
:1076D00010BD00BFBC2C0020C00F0300C41003006D
:1076E00030B50A4C71B10A4A0A49121BD20800236C
:1076F0009A4201D1002030BD31F82350854202D09A
:107700000133F5E7034654F83300F4E7D40F0300E0
:107710008C100300E82A0020094B013903EBC0005C
:10772000032909D8DFE801F00A02040604207047A3
:1077300000797047407970470020704702207047F9
:10774000D40F0300034BD3E90030C31A5842584109
:10775000704700BFBC2C00202DE9F04387B0FFF735
:10776000F1FF0646002840F0FB807E4DC5F8180466
:10777000BFF34F8F6868AC6802902040033005EB80
:10778000800002A9FFF7D4FE029B18B1D5F8182497
:10779000002A5FD004EA0302991C013305EB820240
:1077A000234005EB8303D268DB68049302F00303F4
:1077B000022B0392029162D1BDF80E306A484FEA63
:1077C0009318B8F1500FC14628BF4FF0500969F324
:1077D0008F1309F10801ADF80E3001F05DFB07468B
:1077E000002800F0A88001F086FB03A900230822EE
:1077F000384601F093FB029924EA01060136B600EF
:10780000B14535D95FFA89F97EB3F6B2A9EB06091D
:10781000214003315FFA89F4B146544E05EB8101F2
:1078200008234A46384601F079FB36B109F10803CE
:1078300022463146384601F071FB029B08F10308ED
:1078400003EB98030293D5F81834002B4BD1D5F8ED
:1078500010445BE02A689A4204D86A60304607B058
:10786000BDE8F08304EA030088E740493446D7E7DF
:107870002140033108234A4605EB8101DAE7012B59
:1078800059D1BDF80C303848C3F38311062928BFFD
:10789000062161F3891302318900ADF80C3001F043
:1078A000FBFA0746002846D001F025FB00230822FA
:1078B00003A9384601F032FB0026BDF80C20C2F3C4
:1078C0008312B300964203F10803BCD202994A1C0A
:1078D00021400331029205EB81010422384601F078
:1078E0001DFB0136E9E7384601F009FBFFF72AFFE7
:1078F00080F00100C6B2B1E7E3685B7923B1236889
:1079000039461B6820469847E3681C68002CF3D171
:10791000384601F0F4FA0DF107008DF8074000F049
:10792000E9FDD5F818340BB9029B6B609DF8070090
:1079300000F004FEDAE7D5F8104454B90C4B0D48BA
:107940000D49C01AC008000440F0020000F06EF8B3
:10795000CCE7236820469B689847E3681C68ECE7FF
:1079600000267BE7BC2C0020C00F0300C82C0020A1
:10797000D40F030024100300D01003002DE9F74FAB
:10798000284C80460F46924601A9012218469B4684
:10799000D4F80890FFF7EAFD80B3019D0026A91CEA
:1079A0005E4506EB010233D100211F4800F0BCFF09
:1079B00080F310006A1C02EA090204EB8202000450
:1079C00005EA0903033340EA1840D06014F8232085
:1079D00068F3C50204F8232034F8232066F38912E3
:1079E00024F8232054F8232067F39F2244F823200F
:1079F00002F0F80242F0010204F8232094F8203447
:107A00001BB1FFF7A9FE0028FBD103B0BDE8F08F42
:107A100009EA020204EB82025AF82630D3600136EA
:107A2000BEE700BFBC2C0020D830002000231A463F
:107A3000FFF7A4BF07B50123019201AAFFF79EFF3C
:107A400003B05DF804FB07B5CDE9002302236A46C5
:107A5000FFF794FF03B05DF804FB7FB5CDE9012388
:107A6000089B0393099B04930A9B059301AA052392
:107A7000FFF784FF07B05DF804FB000030B50F4945
:107A8000D1F81024002314463CB9C468237152B9BC
:107A9000C1F810042260184630BDE46825799D4283
:107AA00006D02468F0E7D268116821601060F2E720
:107AB00001330A2BE7D14FF0FF33ECE7BC2C002059
:107AC000094A38B50123D2F8104482F820341D4603
:107AD00004B938BDE3685D71236820465B68984748
:107AE000E3681C68F4E700BFBC2C0020037A052B78
:107AF00010B50C460FD0437A23B1084A08492046F6
:107B000000F0B9FF0749204600F0B5FF2046BDE868
:107B1000104000F0A5BF002AF8D0F3E71B110300C6
:107B20002011030040110300C38873B504460D46BD
:107B300033B1144A00921449144A284600F09BFFBE
:107B4000217A05291CD0637A4BB1A088FFF7E4FDA8
:107B50000F4B104953F82020284600F08CFF227A62
:107B60000D4BA08853F822600021FFF7B9FD0B49A7
:107B700003463246284602B0BDE8704000F07BBFA5
:107B800002B070BD1B1103002B1103002311030071
:107B9000E8100300201103005011030043110300FB
:107BA0002DE9F04385B01F460C9D002306460C4688
:107BB000904695F80C902B7329463846FFF7B4FF92
:107BC000B8F1060F09D8DFE808F00412181F2833AF
:107BD00040003146284600F04EFF00222946384634
:107BE000FFF784FF85F80C9005B0BDE8F0832268AC
:107BF0003146284600F03FFFEFE7D4E90023314645
:107C0000284600F038FFE8E7A36800933146D4E93E
:107C10000023284600F02FFFDFE7E3680193A36805
:107C200000933146D4E90023284600F024FFD4E72E
:107C300023690293E3680193A36800933146D4E972
:107C40000023284600F017FFC7E763690393236901
:107C50000293E3680193A36800933146D4E90023BB
:107C6000284600F008FFB8E708292DE9F84F8046BC
:107C70000E4617461C463AD8002593F80C901D7303
:107C800019461046FFF750FFDFF884A0DFF884B0F4
:107C9000AE422ED918F805205946204600F0EBFEDA
:107CA0000135082DF4D11849DFF86CB0204600F0FA
:107CB000E2FE4FF0000A564520D918F80A507E2DF2
:107CC00003D8284608F0DEFB00B92E252A4659467F
:107CD000204600F0D0FE0AF1010ABAF1080FEAD1FD
:107CE000012221463846FFF701FF84F80C90BDE8D9
:107CF000F88F5146204600F0BEFED1E703492046EA
:107D000000F0B9FEE7E700BF1611030014110300ED
:107D1000121103000C11030018110300C30710B562
:107D200007D4F0234008054A145C2340194311543A
:107D300010BD0901C9B20F23F4E700BFA83100202C
:107D400030B5094B1C78094B196800239C4202DCB2
:107D50000022104630BD11F83350854201EBC302BA
:107D6000F7D00133F2E700BF78310020C83100209E
:107D700070B504460D46FFF7E3FF30B1436823B109
:107D800029462046BDE87040184770BD034B0448A3
:107D900019680022490800F0BEBA00BF7C310020FB
:107DA0008031002010B5C0B2FFF7CAFF044600784A
:107DB00001F0CCFD63785A1E53425341834208D1EF
:107DC000044BD3E90023134303D1BDE81040FFF770
:107DD000DDBF10BDA031002037B54308364AD35C63
:107DE000C2074CBF1B0903F00F0304460D46042BCA
:107DF00036D8DFE803F003262D393D0081B3012199
:107E0000FFF78CFF00230DF107008DF8073000F01D
:107E100071FB0122A4F12003C4F12000274902FADA
:107E200003F322FA00F0034302FA04F4D1E900203C
:107E300014430343C1E900439DF8070000F07EFBB3
:107E40000EE0002918BF02212046FFF767FF07E078
:107E500041B10321FFF762FF01212046FFF788FFB0
:107E600003B030BD0121EFE70029F9D10421EBE790
:107E700009B10321E8E7FFF751FF29462046FFF744
:107E800077FF0DF107008DF8075000F033FB01225A
:107E9000A4F12003C4F12000084902FA03F322FAF6
:107EA00000F0034302FA04F4D1E9002022EA0404BA
:107EB00020EA0303BEE700BFA8310020A031002064
:107EC0002DE9F041124E134F00243378A34208DC11
:107ED000114BD3E90023134318D0BDE8F041FFF75D
:107EE00055BF3D6805EBC40815F8340001F02EFDC0
:107EF00098F801104B1E594259410A1A514215F87F
:107F000034005141FFF768FF0134DEE7BDE8F0813E
:107F100078310020C8310020A0310020092AF7B5AF
:107F200005460C4616463DD901F040FCD8B11E4B23
:107F30001E481D601E4B1F4F1C701F4B002120222E
:107F40001E6008F0DBFB1D4B00200021C3E900018F
:107F5000013CE4B20326FF2C0BD1194A1948002139
:107F600000F0CEF903E001F0E9FB0028DFD003B018
:107F7000F0BD20B29DF806308DF8046005EBC0021C
:107F800023F007038DF8063001A9937815F8300027
:107F90008DF805303A4601F013FC013CE4B20028AC
:107FA000D9D0E4E70720E2E7C8310020A83100205B
:107FB00078310020A57D02007C310020A031002016
:107FC000C17E0200B811030070B5084D084E0024B0
:107FD0002B789C4201D3002070BD3368012113F837
:107FE000340001F069FC0134F2E700BF7831002071
:107FF000C83100201FB50021039001AA44F20100FE
:10800000CDE9011100F030F805B05DF804FB000087
:1080100082B001238DF807309DF80730114B1860AE
:10802000596044F2010188429A6012D044F2020180
:10803000884206D1DA60DA6812889A61DA68526892
:10804000DA6172B69DF80730002BFBD162B602B040
:1080500070471A611A6992685A611A6912689A61BE
:108060001A69ECE7CC3100202DE9FF4106460F46A6
:10807000154672B6FFF724FDFFF76EFB0028FBD113
:108080002A4B2B4CE41AE40841F2010324049E42DB
:1080900044F0010436D007D8012E14D03A462549C1
:1080A0002046FFF7C7FC12E044F201039E422BD0AA
:1080B00044F202039E42F1D12B886A681E49204691
:1080C000FFF7C1FC03E01D492046FFF7AFFC4FF06E
:1080D000A0434FF00062C3F80C254FF08042C3F874
:1080E0000C254FF08062C3F80825154B1B68DB0791
:1080F00000D500BE2A463946304604B0BDE8F041FE
:10810000FFF786BF0F49DFE7D5F80880404600F04B
:10811000BBFF2B68029701936B6800930A490346E3
:1081200042462046FFF799FC0849CDE7D40F0300EB
:10813000241003005A12030006120300C7110300A3
:10814000F0ED00E0E41103002012030046120300EA
:108150004B1C30B5DB00044612F003009BB20DD17E
:10816000074D2A601A44074B1A60074B1870074BDB
:108170001870074B1C80074B198030BD0720FCE7A7
:10818000F4310020F0310020EC310020FC310020DF
:10819000F8310020FA310020D0E90223D1E90201B0
:1081A000994208BF90422CBF012000207047000078
:1081B0002DE900480C4800F0F4FA0C4BD3E90023F9
:1081C00012EB000B43F1000C094BD3E900239C4553
:1081D00008BF93455846614603D21BF180704CF1AD
:1081E0000001BDE8008800BFF02A0020083200200E
:1081F0002033002037B505460C460A4801A900F097
:1082000002FB60B10570446001A9064800F025FB3F
:1082100018B1054800F0CAFA002003B030BD0420B0
:10822000FBE700BF0C330020F02A0020194B1B781D
:108230002DE9304804461BB900252846BDE83088A2
:108240000028F9D0037F03F0FF05002BF4D0FFF7DF
:10825000AFFFD4E90223994208BF904215D32369A6
:1082600003B92377D4E90530984721690029E3D081
:10827000237F03F0FF05002BDED0D4E9022312EBAD
:10828000010B43F1000CC4E902BC2146024800F096
:10829000B6FED2E7103200207812030013B5114B5E
:1082A0001149186801900823F822104800F098FA44
:1082B000044698B90E4A0F4801A900F063F9044634
:1082C00060B901210B4800F04FFA01230A4A09481E
:1082D000194600F0B5F9094B01221A70204602B088
:1082E00010BD00BF72120300143200200C330020B6
:1082F00061830200F02A0020FFFF7F00103200207F
:108300003AB103685A614A1E514251411961002035
:1083100070470720704738B5037F04460D4683B980
:108320008261FFF745FF421941F10003C4E90223CE
:10833000236903B1256121460020BDE83840FFF7DD
:1083400059BF002038BD0023014603770120FFF705
:1083500051BF0000014800F024BA00BFF02A0020FD
:108360002DE9F04F85B0074600F006FA40B1594AB2
:10837000D2E9003113F1807341F10001C2E900310B
:108380000021384600F007FA38B1534C236823B176
:108390002068FFF74BFF002323600121384600F0DF
:1083A000FAF920B1FFF704FF4C4BC3E9000103A920
:1083B0004B48494D4B4C4C4E00F05FFA002845D1DC
:1083C000DFF820A1444CDFF828B1504600F02DFE24
:1083D0002368002875D07BB12368D0E90201D3E976
:1083E0000223994208BF90422DD223681B7F1BB104
:1083F0002168504600F003FE504600F010FED0E920
:10840000026305460193FFF7D3FE019BB6EB00081C
:1084100063EB0109B8F1010F79F1000344DB334E3E
:10842000B0453FD9FFF796FF82194FF4960300211C
:10843000584600F025F900283ED1236813B9384684
:1084400000F0F6F8256005B0BDE8F08F0378012B49
:108450001DD05BB1022B11D14FF0000A204600F075
:10846000DEFD002833D080F81CA0F7E741680B7FC1
:1084700023B901230B77204600F0C1FD03A918485A
:1084800000F026FA03A9164800F0F7F996E74168CC
:108490002B68994202D100232B60EFE7204600F0C1
:1084A000C7FDEBE7AA68C0E70021584600F069F96C
:1084B0002846FFF7BBFE01E00D28F9D0002323601A
:1084C00083E7002BBFD1384600F0B6F8BBE70123A5
:1084D0003370D3E7083200202833002020330020F7
:1084E0000C3300207812030010320020FFFFB4008C
:1084F000F02A002070B5EFF3108672B60C4A94682B
:1085000001239CB993600B4B0B4DD3F8801029408D
:108510001160C3F88050D3F8841051604FF0FF32DF
:10852000C3F88420047006B962B670BD0370FAE720
:108530002C33002000E100E0FC06FFBD084B9A68E8
:1085400010B55AB150B9EFF3108172B6054A1C68E4
:1085500014605C685460986001B962B610BD00BFD9
:108560002C33002000E100E0435882B03BB10023EF
:10857000435043580193019B012002B070471846B5
:10858000FBE70000F8B5224B4679224D43F8262040
:10859000214A224BF7009B1AEA19DB0812791B04C7
:1085A00032B143F002001E49FFF740FA0820F8BD3F
:1085B00002680C88C2F8084590F904208978002ADE
:1085C000A8BF02F1604CD4B2BABF04F00F0EDFF8BE
:1085D00058C00CF5614C4FEA4111C9B2B4BF0CF858
:1085E0000E108CF8001352090121DFF840C004F08E
:1085F0001F042F4401FA04F44CF82240397145F865
:108600003600084943F00300FFF710FA0020CEE7D8
:108610004033002038330020D40F0300341003000F
:1086200096120300B812030014ED00E000E100E030
:10863000036801221A607047036801225A6070477C
:1086400073B501F15005AD000068ADB24FF4803450
:108650008C400026C0F80843C0F84843465101F555
:10866000A8714559019522F07F42019D40F82120D3
:10867000C0F844430BB1C0F8044302B070BD000021
:108680002DE9F74F884699464FF48036036808F184
:1086900050058E404FEA880AAD00C3F84863ADB27A
:1086A000C3F80863074603EB0A00D3F804154FF03C
:1086B000000B22F07F44D0F84025C0F8401543F865
:1086C00005B05B590093009B531A23F07F43012BA5
:1086D0000BD1244B4FF4806043F0010398473B6873
:1086E00043F805B05B590193019B3868D0F80455F5
:1086F000C0F84463631B23F07F43012B1AD108F5B4
:10870000A878184B013440F8284043F001034FF497
:10871000806098473B68D3F804359D4208D13B6898
:108720000020C3F84463C3F8046303B0BDE8F08FCE
:108730000D20FAE78244C9F1FF19CAF84045D0F884
:108740000435E21A013A22F07F4209F57F4991454A
:10875000EED3002AE3D10134CAF84045D0F804250D
:108760009342DBE79012030003680222C3F844231C
:1087700009B1C3F8042370474FF482710068FFF712
:10878000F3BE4FF4803303FA01F10368C3F84813D2
:10879000C3F8081370475031890089B20068FFF7A9
:1087A000E3BE0368D3F804057047000090F9043075
:1087B00001215A0903F01F0301FA03F34032024971
:1087C00041F82230704700BF00E100E0024B034A4D
:1087D0001B681068184700BF403300203833002062
:1087E00010B561B1B2FBF3F403FB1424A4B244B995
:1087F000C0E9001484608281C381204610BD0E2030
:10880000FCE70920FAE737B550E8013F9DB2C4897B
:1088100025448489A54228BF2D1B0489A54202BF97
:10882000BFF32F8F002207E0C5EA030540E801549B
:10883000002CE9D14FF001028DF803200193019B38
:108840009DF803200B6002F0FF0322B10B88006843
:10885000184403B030BD1846FBE70A884B889A429B
:1088600009D150E8012FC2EA024240E80123002B5F
:10887000F7D1012070470020704737B550E8023F1C
:108880001FFAA3F5C488A54202BFBFF32F8F0022B1
:108890000DE0C48925448489A54228BF2D1BC3EA65
:1088A000054540E80254002CE8D14FF001028DF854
:1088B00003200193019B9DF803200B6002F0FF034E
:1088C00022B14B880068184403B030BD1846FBE75E
:1088D0000A884B889A4209D150E8022FC2EA224204
:1088E00040E80223002BF7D1012070470020704799
:1088F00001F01F024B090121914000EB830000F0C1
:108900001DB801F01F0301229A404B0900EB8300C0
:10891000D14300F029B84B0901F01F0150F82300A2
:10892000C84000F00100704750E8002F0B4640E8B7
:10893000003C9CF0000FF7D11046704750E8003F14
:1089400043EA010240E8002C9CF0000FF6D11046EB
:10895000704750E8002F02EA010340E8003C9CF019
:10896000000FF6D11046704750E8003F03EA0102BD
:1089700040E8002C9CF0000FF6D11046704750E8FC
:10898000003F03EB010240E8002C9CF0000FF6D101
:108990001046704750E8003FA3EB010240E8002C6E
:1089A0009CF0000FF6D1104670470121FFF7C6BFBB
:1089B0000021FFF7CEBF10B590B1D0E901230168C7
:1089C0009B1ADBB20A60013BDBB2FF2B026802D1CB
:1089D0000020107110BD11684C1C14600B70F2E780
:1089E0000E20F7E737B5054600240DF107008DF896
:1089F0000740FFF77FFD2A686B68116899420ED91E
:108A0000481E106011F8014CEB68298A01FB043400
:108A1000AB6811791B1ADBB2994238BF13719DF80C
:108A20000700FFF78BFD204603B030BD37B5054684
:108A300000230DF107000C468DF80730FFF75AFDB3
:108A40002A681368591C1160E968641A298AB4FB02
:108A5000F1F41C709DF80700FFF770FD03B030BD06
:108A6000826810B504462AB14369016800699847D5
:108A70000023A36010BD0EB403B5039921B104AB6C
:108A800001AA019300F074F802B05DF804EB03B0A2
:108A900070470A2938B504460D4602D10D21FFF76B
:108AA000F8FFA3682268591CA160D554D4E90132AB
:108AB0009A4204D32046BDE83840FFF7D1BF38BD05
:108AC0002DE9F84F9946DDE90A4317468246884664
:108AD0000A460126BA420FD24E4538BF4E4613F021
:108AE000010B01D164B900240125B9F1010F1AD994
:108AF00009F1FF397D43F8E7B2FBF7F20136E9E708
:108B00009B070ED5B9F1000F0CBF30252025A642DA
:108B1000EAD2013C29465046FFF7BBFF002CF6D1B4
:108B2000E1E72025F3E7B8FBF5F39F42E2D9DFF850
:108B30003C90B8FBF5F3504619F8031005FB138879
:108B4000FFF7A7FFB5FBF7F3BD4207D2BBF1000F5C
:108B500002D00CB1A64203D3BDE8F88F1D46E8E76A
:108B600020215046013CFFF794FFF2E7CA120300B0
:108B70002DE9F74F054617468846002900F0308159
:108B800018F8011B49B92B7B002B00F029812846DE
:108B900003B0BDE8F04FFFF763BF252940F0C08068
:108BA000002698F800302D2B424608F1010823D00A
:108BB000302B24D02B2B25D000242A2B02F10101AD
:108BC00023D13B681A1D1B683A601C440A4613787F
:108BD0002E2B26D101324FF00009104610F8011B50
:108BE000A1F1300CBCF1090F1DD80A2303FB0913B6
:108BF000A3F130090246F0E746F00106D1E746F05E
:108C00000206CEE746F00406CBE711F8013CA3F1DB
:108C100030000928DBD80A2202FB0434303C0A4623
:108C2000CBE74FF0000912F8011B01F0FB006828A8
:108C30009046F8D069290ED04AD8582964D006D871
:108C400025296DD098F80030002B99D19BE7632936
:108C500062D06429F6D13A68D2F800A0111D8AEAE0
:108C6000EA723960A2EBEA724FF0010B092A5BDC71
:108C7000CB4538BFCB462CB1BAF1000F01DB7207F0
:108C800000D5013CB30702D5B9F1000F04D0F007BD
:108C900002D4002C4ED10024BAF1000F52DACAF1EE
:108CA000000A2D212846FFF7F4FE06F00302022AEF
:108CB00005D1B9F1000F02D1002C47D10024CDE934
:108CC00000464B460A2251462846FFF7F9FEB9E70F
:108CD00073294CD014D87029B4D13B681A1D3A605E
:108CE000302128461C68FFF7D4FE78212846FFF77C
:108CF000D0FE00220823CDE9003221461022E3E70E
:108D000075292BD078299DD139680A1D3A60CDE9A3
:108D100000464B46102228E03B681A1D19783A603D
:108D20002846FFF7B6FE8DE70A230BF1010BB2FBD5
:108D3000F3F29BE7A345AFD220212846013CFFF781
:108D4000A8FEA6E77107B0D52B21ABE7A345B6D2A5
:108D500030212846013CFFF79CFEADE73968CDE99C
:108D600000460A1D3A604B460A220968ACE73B6898
:108D70001A1D3A6016F00106D3F800A020D1BAF10E
:108D8000000F03D0504607F00EFD0646B44200D94E
:108D9000C4B90AF1FF3A1EE028460136FFF779FE12
:108DA0001AF806100029F7D1A642BFF44BAF002CE9
:108DB0003FF448AF20212846013CFFF76AFEF3E765
:108DC0000026EDE720212846013CFFF762FEDDE7A3
:108DD0002846FFF75EFE1AF8011F0029F8D131E797
:108DE00003B0BDE8F08F2DE9F047B0F80690447964
:108DF000D2F800A09DF8208009FB04F4043C06464C
:108E00000AEB0300A0420F4688BFA4EB030A191D1A
:108E1000C2F800A0B1FBF9F509FB15114DB9A9EB9A
:108E20000104544528BF5446BAF1000F04D1BDE8EF
:108E3000F0873668013DF1E704317B19701822464E
:108E4000B8F1000F0ED001461846AAEB040A07F04D
:108E50002CFCD145254436684C464FF0000128BF14
:108E60005446E1E71946F0E7FFF7A5BDF8B54679A6
:108E70000146721E0546002393422D6803D3002449
:108E8000A64202D8F8BD0133F6E70F682846FFF77F
:108E9000CDFD01343946F3E72DE9F843068ACD1CB0
:108EA0000746FFF79FFD043E35440446B5FBF6F543
:108EB000F0B14FF48073EDB28380C680013D07604E
:108EC00081464FF00008A84512D23846FFF78AFDC8
:108ED000064648B163790133637108F10108C9F8A6
:108EE000000007608146EEE72046FFF7BFFF3446EB
:108EF0002046BDE8F88301210430FFF740BD10B5DE
:108F0000012104460430FFF745FD10F0FF0F04D1A6
:108F10002046BDE81040FFF7A9BF10BD1FB5039262
:108F20000022009203AAFFF75EFF05B05DF804FB84
:108F30001FB503920122009203AAFFF754FF05B068
:108F40005DF804FB41DF7047064B10B500241C7030
:108F5000054B1C60BFF35F8F0449054800F039F8EA
:108F6000204610BD4C33002050330020DC1203009B
:108F70004433002007B500230DF107008DF80730BA
:108F8000FFF7B8FAF1EE103A23F09F03E1EE103A42
:108F9000BFF35F8F094B4022C3F884219DF807007F
:108FA000FFF7CCFA06F0B4F920B1FFF7CBFF03B01E
:108FB0005DF804FB20BF40BF20BFF8E700E100E000
:108FC000836800225A609A60C3E90422DA601A605A
:108FD00070470B684A684360934208BF00230160F2
:108FE00008BF43607047436843B1026891685268A4
:108FF0000B449342436004BF00234360704770B545
:10900000446806460D46206818B1B368294698475B
:1090100018B923682B60256070BD2468F3E74368A6
:10902000186808B102681A6070474368186870478A
:109030004368186800B97047884203D102681A6013
:109040000120704703460068F4E7000010B50D49A1
:10905000A1F59472914201D800200FE08B1ADB1029
:1090600003EBD3735B1002EBC30452F8333083423B
:1090700005D802D204F10802ECE7606810BD214671
:10908000E8E700BF3814030008B5FFF7DFFF024B25
:10909000002808BF184608BDFA120300054B1B68DC
:1090A000082B01BF044B1868B0FA80F0400918BFC4
:1090B00000207047300100103401001008B54FF057
:1090C00080430022C3F80C21C3F81021C3F83825CF
:1090D0004FF0805203F54043D2F80414C3F8201532
:1090E000D2F80814C3F82415D2F80C14C3F82815C4
:1090F000D2F81014C3F82C15D2F81414C3F8301594
:10910000D2F81814C3F83415D2F81C14C3F840155B
:10911000D2F82014C3F84415D2F82414C3F8481523
:10912000D2F82814C3F84C15D2F82C14C3F85015F3
:10913000D2F83014C3F85415D2F83414C3F86015BB
:10914000D2F83814C3F86415D2F83C14C3F8681583
:10915000D2F84014C3F86C15D2F84424C3F8702533
:10916000FFF79CFF10B1384B384A1A60FFF796FFA3
:1091700018B1374BFB22C3F81825FFF78FFF48B112
:109180003449354B0A681B6822F00F0203F00F03C5
:1091900013430B60FFF782FF18B1304B4FF400729E
:1091A0001A604FF08043D3F80024D20744BF6FF019
:1091B0000102C3F800242A4AD2F8883043F470032D
:1091C000C2F88830BFF34F8FBFF36F8F4FF010237B
:1091D000D3F80022002A03DBD3F80432002B2FDA65
:1091E000204B0122C3F80425D3F80024002AFBD029
:1091F0004FF010221221C2F80012D3F80024002AE6
:10920000FBD04FF010231222C3F80422154B1A464C
:10921000D3F800140029FBD00021C3F80415D2F8BC
:109220000034002BFBD0BFF34F8F0D490E4BCA68A3
:1092300002F4E0621343CB60BFF34F8F00BFFDE742
:109240000A4B0B4A1A6008BD8C5600404881030047
:1092500000F00040E40E004058020010409602402A
:1092600000ED00E000E001400400FA05F82A0020CB
:109270000090D003074B1B5C1F2B8ABF064A4FF0A0
:10928000A04203F01F03D2F80405D840C04300F009
:10929000010070470918030000030050074B1B5CD6
:1092A0001F2B86BF03F01F0305494FF0A041012289
:1092B00002FA03F3C1F80C35704700BF0918030028
:1092C00000030050074B1B5C1F2B86BF03F01F03DE
:1092D00005494FF0A041012202FA03F3C1F8083515
:1092E000704700BF091803000003005008B50020B4
:1092F000FFF7E8FF0120FFF7E5FF0220FFF7E2FF9D
:109300000320BDE80840FFF7DDBF08B50020FFF7E8
:10931000C5FF0120FFF7C2FF0220FFF7BFFF0320B8
:10932000BDE80840FFF7BABF0A4B185C1F288ABF88
:10933000094B4FF0A04300F01F00D3F80425012192
:10934000814021EA02000A40C3F80805C3F80C2551
:10935000704700BF091803000003005042DF704748
:1093600044DF704738B5074C051E04F1080318BFE9
:109370001C4623682BB11A6822605B682846984710
:10938000F7E738BD5C33002020B9054B01225A7045
:10939000FFF7E8BF012802D1014A9070F8E7704753
:1093A0005433002020B9034B01225A70FFF7DABF73
:1093B000704700BF5433002038B50B4C237883B975
:1093C0000A486360A3602361E36000F0F5F8054696
:1093D00005F09EFF08B900F0FBF801232370284632
:1093E00038BD8525FBE700BF543300208993020078
:1093F00037B5184CA378054603F0FF029BB110B1B6
:1094000043680120984700230DF107008DF80730CD
:10941000FFF770F8E3689DF807000133E360FFF79A
:109420008DF803B030BD0DF107008DF80720FFF770
:1094300061F825B1226913463BB92A602561E368CA
:10944000002BE7D100F0DAF8E4E79D42F7D01B6883
:10945000F2E700BF5433002037B50B4C00230DF169
:1094600007008DF80730FFF745F8E368013BE3603C
:10947000E56815B900F0D4F8A5709DF80700FFF76E
:109480005DF803B030BD00BF54330020012813B590
:1094900009D018B103281CD002B010BD0F4B012217
:1094A000C3F88020F8E70E4C00230DF107008DF87B
:1094B0000730FFF71FF823780BB9FFF77DFFE3684C
:1094C0009DF807000133E3600123A370FFF736F82E
:1094D000E2E700F07DF8FFF7BFFFDDE700E100E025
:1094E0005433002008B505F013FF28B94FF080432E
:1094F000D3F81804C0F3004008BD000037B51B4C7A
:109500006378054603F0FF029BB110B14368002069
:10951000984700230DF107008DF80730FEF7EAFFAA
:1095200063689DF8070001336360FFF707F803B035
:1095300030BD0DF107008DF80720FEF7DBFF25B1E8
:10954000A268134653B92A60A5606368002BE7D16F
:1095500005F0DEFE30B1FFF701FFE1E79D42F4D0F8
:109560001B68EFE700F068F8DAE700BF543300202B
:1095700007B505F0CDFE48B101A8FFF7F1FE01984F
:10958000003018BF012003B05DF804FB4FF08043AA
:10959000D3F80C0400F00110A0F101135842584117
:1095A000F1E750E8002F02EA010340E8003C9CF09C
:1095B000000FF6D110467047044A137923B90121F0
:1095C00010609180184670478520704768330020EE
:1095D000084B1A68D2075FBFC02283F8002301221C
:1095E0001A604FF080420123C2F81835024A137006
:1095F000704700BF00E100E070330020074B0022FD
:109600001A6082B01B680193019B4FF080430222D5
:10961000C3F8042301229A6002B07047040100409D
:10962000044B01221A604FF08042D2F81834DB0359
:10963000FBD470470C000040074B00221A6082B038
:109640001B680193019B4FF080430122C3F8042360
:109650001A6002B0704700BF00010040154B07B50B
:109660001A687AB100221A601B680093009B4FF0C1
:1096700080430122C3F808230F4B587910B95A715F
:109680001B6898470D4B1A6882B100221A601B684C
:109690000193019B4FF080430222C3F80823064B3D
:1096A0001B68012003B05DF804EB184703B05DF8B8
:1096B00004FB00BF000100406833002004010040AB
:1096C00000F1804000F5C040002382B003600368D1
:1096D0000193019B02B0704703681F2B83BF03F007
:1096E0001F03036001484FF0A04070470003005083
:1096F00007B5019001A8FFF7EFFF019B00EB830086
:10970000D0F8002722F44032C0F80027D0F8003704
:1097100043EA0143C0F8003703B05DF804FB0000E2
:10972000054B4FF0FF32072843F8202084BF1B1859
:1097300083F85820704700BF7433002010B5174CD1
:1097400094F86A3043BB04F130033021FF22013921
:1097500011F0FF0103F8012BF9D1C8B2FFF7E0FFC8
:1097600001310C29F9D1062200210D4806F0C6FF6F
:109770000C4BC02283F8062340221A604FF4BE70BF
:10978000FFF79EFF084B4FF00042C3F8042301236C
:1097900084F86A30002010BD0820FCE774330020F4
:1097A000D833002000E100E000600040034B93F854
:1097B0006A00003018BF0120704700BF74330020DA
:1097C000F7B53B4E3318054693F93030002B6CDA71
:1097D0008B78C3F34003002B0BBF082400240C201C
:1097E0000820844202D1042003B0F0BD56F8247052
:1097F000013743D1701946F8242080F8304013B95E
:10980000331983F858508B785A0717D4D80737D5AF
:1098100001A80195FFF760FF019B00EB8300D0F8E2
:10982000003723F00203C0F800372248EA0805F0A9
:1098300007070123BB40875C3B43835488780A7841
:1098400010F0020028D0A40004F1804404F5C044C4
:109850002D02D4F8103523F44F3323F44073C4F8A9
:1098600010351204D4F8103505F47C5502F440325A
:1098700015431D43C4F810550020B5E70134B0E787
:1098800001A84A780195FFF727FF019B03F5E073D4
:10989000920040F82320C8E7083C344494F8605014
:1098A00045EA821284F860209EE708209CE700BF0A
:1098B00074330020D833002073B5224C2518064697
:1098C00095F93020072A19DD224492F858309B0977
:1098D000032B0FD1019001A8FFF7FEFE019AD0F8EB
:1098E0001035D340DB0707D402213046FFF700FFD5
:1098F00002B070BD012BF7D00321F6E7D3B2072BDE
:10990000F6D8930003F1804303F5C043D3F8100564
:1099100040F00100C3F8100502F14000800080B261
:10992000FFF7CEFE0029E3D095F9303054F823300C
:10993000002BDDD0012303FA02F2034BC3F804230A
:10994000D6E700BF743300200060004007B50190E7
:1099500001A8FFF7C1FE019BD0F81005D84000F028
:10996000010003B05DF804FB2DE9F04F002489B03D
:10997000CDE90244624D4FF48072012102F180432F
:1099800003F5C04390B21B68012B06D1D5F8043310
:109990000B4202D0FFF794FE0C430432B2F5907FE5
:1099A0004FEA4101EAD1574B1B68012B0ED14FF40E
:1099B000BE70FFF785FE4FF0A04344F00044D3F89B
:1099C00010350293504BD3F81035039314F0FF0F6A
:1099D0001AD04E4F00250126344210D0AB0003F1BF
:1099E000804303F5C043D3F81005D3F8101557F89A
:1099F000253023B1C1F30141C0F30520984701355B
:109A0000082D4FEA4606E7D1002C75DA0DF1100853
:109A100000230493C8F804304FF0FF33CDE9063338
:109A2000DFF8E8A0DFF8E89000273D4619F9014B80
:109A3000631C48D0E4B2012324F0C00604F00702FE
:109A400003FA02F2F00808AB191811F8083C1342A7
:109A500039D00AEB0603A40993F930305AF823B041
:109A6000BBF1000F08D1032C2DD118F800C04CEA2F
:109A7000020C08F800C001E0032CF6D001A8019602
:109A8000FFF72AFE019B11F8181C03F5E07C114238
:109A900050F82C00C0F3014005D0022813D1032C4C
:109AA0000BD1214604E003280DD1032C05D102215E
:109AB0003046FFF71DFE0135EDB2BBF1000F02D0BD
:109AC00021463046D8470137042FAFD1A5B14FF01A
:109AD000A0430299D3F8102503F540739142D3F8BF
:109AE000103502D10399994206D002920393049A49
:109AF000059B0692079395E709B0BDE8F08F00BF7C
:109B0000006000407C61004000030050743300207E
:109B1000D4330020014B1B68184700BFE0330020FE
:109B20000E4B984237B50D4602D0002003B030BD31
:109B300000230DF107008DF80730FEF7DBFC084B22
:109B40001C7914B901221D601A719DF80700FEF7F7
:109B5000F5FC002CE9D01120E8E700BF0020004010
:109B6000E03300207FB503788DF80430436802931A
:109B700083688DF80C30C368049303698DF8143042
:109B8000054A064B01A853F8213052F82110984796
:109B900007B05DF804FB00BFE8330020F833002075
:109BA000F0B50646174616F804CB124A42F82C7058
:109BB000114A42F82C30114B0D460FCB85B06C4644
:109BC00084E80F002B6800932B798DF805306B79B2
:109BD0008DF80630AB680293002FAB89ADF80C30DE
:109BE000074A634608BF3A462146304600F056F819
:109BF00005B0F0BDF8330020E83300203018030032
:109C0000659B02001F2886BF00F01F00044A4FF02A
:109C1000A042012303FA00F0C2F80805704700BF14
:109C2000000300501F2886BF00F01F00044A4FF0B9
:109C3000A042012303FA00F0C2F80C05704700BFF0
:109C400000030050114BD3F8183107B5D3B1104BB6
:109C5000104900221A60C87F1B680193FF28019BEE
:109C600003D08B7F5BB1FFF7DDFF00234B770B72D7
:109C7000D1E90031084803B05DF804EB1847FFF75D
:109C8000C1FFF2E703B05DF804FB00BF0030004005
:109C90001831004008340020103400202DE9F74F1F
:109CA0000679734F01934FF0240909FB06F907EB7E
:109CB000090A93469AF81C2080460C46002A40F078
:109CC000D38005686B492846FFF72AFF0146002824
:109CD00040F0CC80019BCAF80430237B47F809B0E0
:109CE000012B207800F2AE80FFF79CFF23781F2B1A
:109CF00086BF03F01F03604A4FF0A04203F5E073F4
:109D0000012042F8230094F80190B9F1FF0F00F010
:109D10009C804846FFF786FFB9F11F0F8BBF09F003
:109D20001F034B46544A4FF0A04203F5E07340F244
:109D3000033042F82300A378FF2B00F089801F2B0B
:109D40008BBF03F01F021A464B484FF0A04002F5AC
:109D5000E0724FF0040C40F822C09A46242202FB25
:109D6000067282F82030E078D077FF2817D0237968
:109D7000002B70D0FFF756FFE3781F2B86BF03F050
:109D80001F033D4A4FF0A04203F5E07340F2033059
:109D900042F82300242303FB067322799A77237861
:109DA000C5F80835A368C5F80C95C5F810A5C5F821
:109DB0002435637B227B003318BF0123022A4DD058
:109DC000032A4ED0012A01D143F00203C5F85435CD
:109DD000A379C5F8C03524237343FB5813B140223F
:109DE000C5F804230722C5F8002503B3D8F80030CE
:109DF00062791B0B58B20028A8BF00F16044DBB2A7
:109E0000B8BF03F00F054FEA4212B4BF1B4C04F574
:109E10006144D2B2B4BF625584F8002303F01F033B
:109E2000012202FA03F34009154A42F820302423A4
:109E300003FB06760023737701233377084603B0CC
:109E4000BDE8F08FFFF7DEFE50E74FF0FF3972E715
:109E50004FF0FF3A82E7FFF7D5FE8DE743F00403AA
:109E6000B4E743F00603B1E70821E7E71121E5E78E
:109E700008340020459C02000003005014ED00E06F
:109E800000E100E02DE9F3410579424E24236B43C4
:109E90001446F2180F46517F8046002978D1F358B6
:109EA00023B114F0140F04BF0123537797E80F0078
:109EB0004FF0240C0CFB056C0CF10C0E8EE80F001F
:109EC0009CF81F00FF2804D09CF81E30C3B1FFF798
:109ED00099FE396821B101F06043B3F1005F06D10A
:109EE000BA6882B102F06043B3F1005F0BD0242363
:109EF00003FB056500236B77102002B0BDE8F081FD
:109F0000FFF790FEE5E7D8F800307868C3F844150D
:109F1000C3F84805F968C3F834250022C3F838159A
:109F2000C3F81821D3F818210192019A14F0010204
:109F300018BF0122C3F8502514F0020218BF0122F5
:109F4000C3F8402522075CBF01221A6124226A431C
:109F5000B25892B9D3F81821002AFBD0242303FB6E
:109F60000565E87FFF2803D0AC7F1CB1FFF75AFEE0
:109F70000020C2E7FFF746FEFAE714F004004FF0B6
:109F8000400202D0C3F80823F2E7C3F80423B4E781
:109F90001120B2E70834002000F1804382B01A6833
:109FA000002A14BF0120002004D000221A601B6880
:109FB0000193019B02B07047014B1868704700BFC6
:109FC0002C340020014B1868704700BF3434002047
:109FD0000E4B1A78C2B902784FF08041C2F34002AA
:109FE000C1F88025027802F00102C1F87825084AFC
:109FF0001168C9075FBFC02182F8001301211160F9
:10A0000001221A70002070478520704738340020E4
:10A0100000E100E0014B02681A6070473434002010
:10A020004FF080434FF46072C3F8042370474FF041
:10A0300080434FF46072C3F808237047014B00223D
:10A040001A607047343400204FF0804310B5D3F8C5
:10A050000443620707D54FF48470FFF79DFF10B1EA
:10A060001E4B1B689847A30608D54FF48A70FFF76C
:10A0700093FF18B11A4B00201B689847600608D55B
:10A080004FF48C70FFF788FF18B1154B01201B6847
:10A090009847210608D54FF48E70FFF77DFF18B161
:10A0A000104B00201B689847E20508D54FF49070CC
:10A0B000FFF772FF18B10B4B01201B689847A305EF
:10A0C0000AD54FF49270FFF767FF28B1054B0220C5
:10A0D0001B68BDE81040184710BD00BF2C3400209D
:10A0E000303400203434002008B5FFF7ADFFBDE860
:10A0F0000840FFF7B3BA0000044A91689368CB1A8E
:10A1000023F07F438342F9D3704700BF10E000E0A3
:10A11000034B044A1B68B3FBF2F35843FFF7ECBF51
:10A12000F82A002040420F0000F1804000F51C306A
:10A1300001230360BFF36F8FBFF34F8F70470000A1
:10A14000054B1B68082B01BF044B1868B0FA80F060
:10A15000400918BF00207047300100103401001082
:10A16000054B10F0800FA3F1900208BF134600F0DA
:10A170000F0003EB00107047D434002010F0800F64
:10A1800014BF0023102300F00F0018447047000094
:10A19000054B1B68082B02BF044B00221A60044BBE
:10A1A00000221A70704700BF300100101C7C024072
:10A1B0003A34002007B5084A00231370074A019378
:10A1C000137001238DF80430054B01A81B689847D4
:10A1D00003B05DF804FB00BF39340020683500206F
:10A1E000643500207047000007B500238DF8043067
:10A1F0000B4BD3F82025ADF80620D3F8C034094A1C
:10A20000002B13680CBF4FF480714FF001210B43FA
:10A210001360054B01A81B68984703B05DF804FB69
:10A2200000700240403400206435002008B501462B
:10A23000FFF7AEFFFFF794FF837B032B0AD108469D
:10A24000FFF79CFF01218140C9430448BDE8084055
:10A25000FFF7A7B90368002BF1D008BD3C340020FC
:10A260008720FFF7E3BF8620FFF7E0BF8520FFF7D9
:10A27000DDBF8420FFF7DABF8320FFF7D7BF82203E
:10A28000FFF7D4BF8120FFF7D1BF000008B5FFF76B
:10A290007FFF084B93F89E20032A06D16FF001013F
:10A2A0000548BDE80840FFF77CB9D3F89030002B93
:10A2B000F4D008BD443400203C340020FFF7E6BF52
:10A2C00007B5FFF765FF0D4B93F88E20032A11D0D9
:10A2D000D3F8803073B96FF080710948FFF761F9E6
:10A2E00006238DF804300823ADF80630054B01A88D
:10A2F0001B68984703B05DF804FB00BF443400209E
:10A300003C3400206435002007B5FFF741FF104BB7
:10A3100093F81E21032A07D16FF480710D48FFF7CF
:10A3200040F903B05DF804FBD3F81031002BF8D1ED
:10A330006FF480710748FFF734F906238DF8043075
:10A340008823ADF80630044B01A81B689847E8E75E
:10A35000443400203C34002064350020204B13B5E9
:10A36000D3F80044C3F80044BFF36F8FBFF34F8F9F
:10A37000BFF36F8FBFF34F8FE1050BD5194B012250
:10A380001A700023019302238DF80430164B01A8A4
:10A390001B689847A2050AD5124A0023019313703F
:10A3A00003238DF80430104B01A81B689847630500
:10A3B00013D50C4B1A7882B100221A70084B012178
:10A3C000C3F808155820FFF7AFFE042301928DF85B
:10A3D0000430054B01A81B68984702B010BD00BFB0
:10A3E000007002403934002064350020012273B52A
:10A3F00002FA01F51E491F4E0B6810F0800F43EA68
:10A40000050304460B6027D000F00F021A4B33F807
:10A41000123003F1804303F51C331A684AB100225D
:10A420001A60BFF36F8FBFF34F8F802811D0FFF7F3
:10A43000FDFE316829400AD106238DF804308DF8DD
:10A4400006408DF807100D4B01A81B68984702B015
:10A4500070BDFFF71BFFECE733681D42F7D1062301
:10A460008DF804308DF806008DF80720EBE700BF6B
:10A47000403400203C34002046180300643500209E
:10A4800008B5054B1A781046FFF778FEBDE808407E
:10A4900001461046FFF7AABF683500202DE9F04FAE
:10A4A0007A4B87B01A780193002A40F08380DFF856
:10A4B00008A2DFF8DCB1764BDAF800101D682940FD
:10A4C00078D011F0012578D095FAA5F5B5FA85F583
:10A4D0000F2D86BFA5F11004E4B245F0800420469C
:10A4E000FFF73EFE4FFA84F904F00803B9F1000FBC
:10A4F00006460093828965DAD0E9003104A89847BE
:10A5000000B93060634B1B68082B02BF624B82228C
:10A510001A60019B059A049801211970A940B3683B
:10A52000DBF80050134425EA0101B9F1000FCBF824
:10A530000010B36004F00F040099584B7CDA002936
:10A5400072D0C3F8A006C3F8A426FFF7F9FDA30054
:10A5500024B26500524A534900287DD0B9F1000F5A
:10A56000B5BF9146894604242824A9444E4E4F4D38
:10A570001C4400272F60BFF36F8FBFF34F8F20461F
:10A58000FFF7D2FD0220FFF7C3FD2B68002BF1D0AF
:10A590001E20FFF7BDFD33689B065BD50120FFF74A
:10A5A000B7FDB9F8003003F1804303F51C331B6895
:10A5B000002BDFD007B0BDE8F08F91FAA1F1B1FA1E
:10A5C00081F585E7009B35493BB3D1F8C08418F489
:10A5D000803F18BF4FF0000843467168376804A8F1
:10A5E000B847049B002B8BD0059B434588D20121A3
:10A5F0004FF00208A94086F80E80C9435046FEF786
:10A60000D0FF06238DF80C30294B8DF80E408DF8C5
:10A610000F801B6803A898474DE704F00F0303F56C
:10A62000947351F82380D7E7142101FB0433C3F856
:10A630000006C3F8042688E721B1C3F8A007C3F8D1
:10A64000A42782E7142101FB0433C3F80007C3F8F1
:10A6500004277AE702209CE7B9F1000FB4BF042079
:10A6600028201844FFF760FD12EA290938BF8946FF
:10A67000104939F8143003F1804303F51C331A688C
:10A68000002A97D10A68002AF9D093E73A340020CB
:10A6900040340020300100101C7C02400070024059
:10A6A00046180300581803007474024004710240F5
:10A6B00064350020007102403C34002038B5174B4F
:10A6C000D3F86C44C3F86C44BFF36F8FBFF34F8F64
:10A6D000FFF736FD38B1124A136823F0011103F079
:10A6E00001130C43136001251CB9BDE83840FFF786
:10A6F000D5BE94FAA4F3B3FA83F30F2BD9B2C8BF33
:10A70000A1F1100005FA03F3CCBFC0B241F0800004
:10A7100024EA0304FFF76AFEE6E700BF0070024088
:10A720006C35002037B50446FFF732FDFFF718FD02
:10A73000837B032B0CD12046FFF720FD01218140B4
:10A74000C9430F48FEF72DFFFFF7A8FE03B030BD49
:10A750000568002DF8D12046FFF710FD012181404A
:10A76000C9430748FEF71DFF06238DF80430054B4B
:10A770008DF806408DF807501B6801A89847E3E75D
:10A780003C340020643500200720FFF7CBBF0620B3
:10A79000FFF7C8BF0520FFF7C5BF0420FFF7C2BF02
:10A7A0000320FFF7BFBF0220FFF7BCBF0120FFF768
:10A7B000B9BF08B5FFF7C4FC58B1EFF3108272B609
:10A7C0004C20FFF7B1FC4C20FFF7AEFC82F3108861
:10A7D00008BD4C20BDE80840FFF7A6BC13B5FFF745
:10A7E000D7FC0F4B9A7B032A06D16FF480310D48BA
:10A7F000FEF7D7FE02B010BD1C6874B96FF480314B
:10A800000848FEF7CEFE06238DF80430064BADF85F
:10A8100006401B6801A89847ECE7FFF7CAFFE9E785
:10A82000443400203C34002064350020F7B5044651
:10A83000FFF786FC02462046FFF7A0FC0125854075
:10A84000ED431B4ED2B100270DF107008DF80770C4
:10A8500004F00F04FDF74EFE3068164B64002840EC
:10A8600004F2C5743060043343F8044C1F601B6865
:10A870009DF80700FDF762FE03B0F0BD0DF1070083
:10A880008DF80720FDF736FE306814F0080200EA64
:10A8900005003060ECD104F00F0404F59474064B0D
:10A8A00043F82420BFF36F8FBFF34F8FE0E700BF63
:10A8B000403400200078024000700240F7B50023C9
:10A8C00004460DF103008DF80330FDF713FE20461A
:10A8D000FFF746FC05462046FFF750FC012314F025
:10A8E000800F03FA00F0294917D10B6830EA030200
:10A8F0000AD02046FFF79AFF0323AB739DF80300AD
:10A90000FDF71CFE03B0F0BD2A60C043204A03409F
:10A910000B60136803401360EEE7230711D4802C0B
:10A920001C4E1D4B29D004F00F0202F2DA32520005
:10A9300032601A681E68D2B242F0020232431A60D4
:10A940001B68134E0A68336862EA03070742D5D0D2
:10A9500022EA0002184300230A602B600323AB7332
:10A960008DF807300D4B306006228DF804208DF8ED
:10A9700006401B6801A89847C0E740F2B4723260F5
:10A980001A681E68D2B242F00402D7E73C340020B5
:10A9900040340020007802400478024064350020F2
:10A9A000F7B5174B174CD3F880542368164EDA438B
:10A9B000164B37781B6892B238461A43FFF7DEFB16
:10A9C000012303FA00F0104202D03846FFF776FF69
:10A9D0006FF0011105F080050C483570FEF7E1FDC0
:10A9E000236843F0010323600023019305238DF8BE
:10A9F0000430074B01A81B68984703B0F0BD00BFA7
:10AA00000070024040340020683500203C340020B3
:10AA100064350020554B2DE9F041D3F80453002252
:10AA200029461646012400297CD1FFF789FB00281E
:10AA300069D04F4B1B78002B65D1960263D54D49E9
:10AA40004C4E40F2A9730B604B4B1C6814F0FF0492
:10AA50001CBF1868044040F2AA700860186810F023
:10AA6000FF001CBF1968084040F2AB7131601968E3
:10AA700011F0FF01B4461CBF1E68314040F2AC76B5
:10AA8000CCF800601E6834403C4E08D0376827433D
:10AA9000376040F2A977CCF800701C601C68354F15
:10AAA00040F2AD743C601C68204008D0346844EA31
:10AAB0000044346040F2AA743C60186018682D4865
:10AAC00040F2AE740460186801400DD0CC0748BF56
:10AAD00042F40002C806274840F2AB7404601960D3
:10AAE0001B6848BF42F00102336833F001111CBFFC
:10AAF00005F08070024313F0011F04D06B0544BFC2
:10AB0000316042F480621E4F02F4000622F4000419
:10AB10004FF00108E4B9FFF7C1FC2EB3BDE8F041E6
:10AB2000FFF73EBF91FAA1F31648B3FA83F39F00F3
:10AB3000384407683FB10660BFF36F8FBFF34F8F94
:10AB400004FA03F0024304FA03F321EA03016AE77B
:10AB500094FAA4F5B5FA85F557F8253008FA05F505
:10AB6000984724EA0504D5E7BDE8F081007002406B
:10AB70003A34002000780240047802406C3500200E
:10AB80006C1803000071024036DF70474DDF7047DC
:10AB90004EDF70474FDF704750DF704710B50446F7
:10ABA000FFF7F6FF40B92046FFF7F0FF20B9204637
:10ABB000BDE81040FFF7EEBF10BD012810B50446F8
:10ABC00002D1FFF7F9F98047FFF7FCF9034668B1B6
:10ABD0000A2C07D00B2C07D0092C07D10220BDE886
:10ABE000104018470020FAE70120F8E710BD0000E8
:10ABF000012813B5044603D003281AD002B010BDB3
:10AC000000230DF107008DF80730FDF773FCFFF707
:10AC1000D3F910B12046FFF7B7FF9DF80700FDF705
:10AC20008DFCFFF7CFF90028E8D00120FFF7B6FF31
:10AC3000E4E70C4BC02283F8002301221A60FFF7DF
:10AC4000BBF920B14FF080430422C3F80423FFF77F
:10AC5000B9F90028D2D04FF080434FF46072C3F8A6
:10AC60000423CBE700E100E038B50A4C2378054621
:10AC700063B904F04DFB58B90748002D18BF2846AA
:10AC8000FFF7A6F908B90123237038BD8520FCE73A
:10AC90000820FAE770350020D518030013B500240A
:10ACA0000DF107008DF80740FDF724FC04F030FBA0
:10ACB00050B12046FFF772FF9DF80700FDF73EFCFC
:10ACC000FFF7BCF902B010BDFFF7B1F9F4E713B517
:10ACD0000446FFF7E3FF2046FFF79CF904F018FB5A
:10ACE0000446A0B10120FFF759FF044660B901A84E
:10ACF000FFF752FF044638B9019BDB0704D5FFF785
:10AD000061F9034620469847204602B010BDFFF780
:10AD100087F9F9E70E4A537910B503F0FF01A3B99B
:10AD20000C4B1960116821B1012454710A4AC2F810
:10AD3000044300F1804000F524300122026011B983
:10AD40001A68002AFCD0002000E0112010BD00BFCE
:10AD5000743500200091024000900240023807281C
:10AD60001FD8DFE800F02927251123211F04CB7904
:10AD70001B068A7943EA02434A7943EA02230A79A5
:10AD800013430E4AC2F83C36CB781B068A7843EA56
:10AD900002434A7843EA02230A781343074AC2F877
:10ADA000383670470023E4E70023E5E70023E6E7B1
:10ADB0000023EBE70023ECE70023EDE700900240DF
:10ADC0000E4B0238D3F83C26D3F83836072813D870
:10ADD000DFE800F0110F0D0B0A080604100EC87111
:10ADE000100C8871100A48710A711A0ECA701A0C78
:10ADF0008A701A0A4A700B70704700BF00900240B8
:10AE000070B5084D084E642445F00105336833B928
:10AE10004FF42070A847013CF8D10D2070BD0020F0
:10AE2000FCE700BFE018030000910240F0B53C4D84
:10AE30002E79002E6FD190F804E0BEF1FF0F6CD098
:10AE400090F805C0BCF1FF0F67D08779FF2F64D061
:10AE5000C379FF2B61D0334CC4F824E5C4F828C56E
:10AE6000C4F83075C4F83435037A90F80BC0877A8B
:10AE7000FF2B08BF4FF0FF33C4F83835437AFF2B60
:10AE800008BF4FF0FF33C4F83C350368C4F84035C1
:10AE9000037B9B0143EACC033B43477B90F810C004
:10AEA000002F14BF802700273B43C4F84435D4F853
:10AEB0000036877B23F07F4323F0FF033B43C77BB0
:10AEC00043EA4C6390F811C0002F14BF4FF0807715
:10AED000002743EA0C733B43C4F8003601236E712C
:10AEE0002960AA60C4F8083341B1837C0E4A5B0133
:10AEF000DBB282F829334FF400735360094A0B49DF
:10AF0000012300202B71C2F80035BDE8F040086035
:10AF10001360FFF775BF0820F0BD0720FCE700BFF6
:10AF2000743500200090024000E100E000910240F2
:10AF3000F8B51A4B5B791646054603F0FF0243BB92
:10AF4000174C226011B16878FFF708FF154A69783D
:10AF50000123C2F80833AB781B0343EA01232978A5
:10AF60000B43E97843EA4133297943EA813369792C
:10AF700043EAC133C2F83436FFF742FF0D2807D049
:10AF8000002727603EB168783146FFF719FF384641
:10AF9000F8BD1120FCE73046FAE700BF7435002009
:10AFA000009102400090024000F06043B3F1005F66
:10AFB0000BD1830709D1064BC3F81025C3F814053C
:10AFC000C3F818150820FFF7A5BE1020704700BF72
:10AFD0000090024000F06043B3F1005F0BD18307A3
:10AFE00009D1064BC3F80425C3F80805C3F80C15AE
:10AFF0000420FFF78FBE1020704700BF0090024072
:10B000008B0707D1044BC3F81C15C3F820050C208F
:10B01000FFF780BE1020704700900240054A136879
:10B0200033B1054B00205871996810601A681047B9
:10B03000704700BF009102407435002000F180404D
:10B0400000F5E040002382B0036003680193019B98
:10B0500002B07047F0B5534B534C1B6885B0002BC2
:10B060003DD04FF4827094F82E20FFF7E7FF2AB30B
:10B0700094F82F3013BB4D4B1B68002B33D04FF48B
:10B080008070FFF7DBFF94F82D20638B91B28B4229
:10B090004ED95B1A21899BB26383CB1A616801EB9D
:10B0A0004301434BC3F82C16C3F830264FF482708B
:10B0B000FFF7C4FF3F4B01221A6014E0636802935C
:10B0C0002389ADF80C30E36800218DF8041023BB10
:10B0D0002374236801A89847002384F82F3094F83C
:10B0E0002E30002BC7D1344B1B685BB14FF48870F6
:10B0F000FFF7A4FF0023237402238DF8043001A876
:10B10000236898472D4B1B6813B34FF48A70FFF7E1
:10B1100095FF0023237405B0F0BD208B608363602E
:10B120002081E160002AD4D1214B01221A60D0E7AE
:10B13000BCD1E368012184F82F103BB10021618369
:10B140001B49C1F82C36C1F83026AFE76383ADE761
:10B1500066694FF000470125002EDCD0B6FA86F272
:10B1600027FA02F34632920026EA030602F18043F0
:10B1700003F5E0431B68002BEED01046FFF75EFF9F
:10B18000A2F58C72D30882F00402C2F380028DF81B
:10B1900008308DF804508DF80920236801A89847DD
:10B1A000DAE700BF047100408035002000710040E4
:10B1B00000700040047000401071004014710040A5
:10B1C00038B51E4B044693F82C00A8BB1C4A1960E6
:10B1D0002178C2F8F0156178C2F8F415E578187492
:10B1E000012183F82C1083F82D00586183F82F007B
:10B1F00083F82E506FF00043C2F808334FF482708A
:10B20000FFF71CFF4FF48070FFF718FF4FF48A70B0
:10B21000FFF714FFA3780B485B01DBB280F807331C
:10B22000802303600223C2F804330DB1C2F8041373
:10B23000C2F80015002038BD0820FCE7803500204A
:10B240000070004000E100E0224B1A7C30B5002A7B
:10B250003ED100F10C0403EB4402127922B993F8B9
:10B260002D20013283F82D2003EB4403CA790C7A98
:10B270001A715C718D784B782D021B0105F4E06525
:10B2800003F030032B430D7805F003052B43CD78F5
:10B290002D0305F480552B430D792D0405F4E0258D
:10B2A0002B434D7989792D0505F48015090601F0A8
:10B2B00080712B430B43010101F1804101F5E04115
:10B2C0000020C1F81835C1F81445C1F8102530BD6B
:10B2D0001120FCE780350020054B93F82E30002B21
:10B2E00014BF0020042000F1804000F5E0407047CA
:10B2F00080350020264A274B70B505461220C2F83B
:10B3000008031C7C022C03D1C2F80403112070BD79
:10B31000187C01281DD1D86818B10223C2F8043363
:10B32000F4E7DD60198393F82E3063B91A4A136885
:10B33000002BFCD04FF48070FFF780FE144BC3F855
:10B340002C56C3F83016124B0222C3F804230020F7
:10B35000DDE7022093F82E40C2F804030126002006
:10B360001E745D601981D8603CB1598393F82D300B
:10B37000C2F82C56C2F83036C9E7C2F82C564FF442
:10B380008070C2F83016FFF759FE20461660BEE7FF
:10B390000070004080350020007100402DE9F74F1B
:10B3A0004FF00009154D164E07464FF0040AC846E7
:10B3B0005FFA89FB01240DF1070004FA0BF48DF804
:10B3C0000780FDF797F82C4208D0336814EA03028F
:10B3D00001BF2343336087F800B092469DF8070011
:10B3E000FDF7ACF8BAF1000F03D0A54309F101094C
:10B3F000DED1504603B0BDE8F08F00BFFFFF010073
:10B40000B035002010B5A1B19AB101238340C3F338
:10B41000100484B10A4C246823420ED0C00000F10D
:10B42000804000F5F830C0F81015C0F81425002051
:10B4300010BD0E20FCE70720FAE70820F8E700BF60
:10B44000B035002001238340580C400440B91BB1A3
:10B45000054A1268134205D0044AC2F80435704701
:10B460000720704708207047B035002000F00140E9
:10B47000034B187810B901221A7070478520704765
:10B48000B43500202DE9F743002406460F4600F5A9
:10B49000A0754FF48038A1462B688BB1D6F80433E1
:10B4A00008FA04F21A420BD0C5F800902B680193F9
:10B4B000A00000F5A070019B80B2D7E90031984749
:10B4C0000134042C05F10405E6D103B0BDE8F08396
:10B4D000F7B506792F4D0C237343EF183C7A002CF7
:10B4E00055D1EA504B687B60477903682246D0B259
:10B4F000874243D81A0B54B2C878002CA8BF04F175
:10B500006047D2B2BABF02F00F0C234F07F5614774
:10B510004FEA4010C0B2B4BF07F80C0087F8000330
:10B520006409012002F01F021C4F00FA02F247F8E2
:10B5300024204A78D3F8044502F0030224F00304DF
:10B540002243C3F80425D3F808458A7824F003047D
:10B5500002F003022243C3F80825D3F810450A7805
:10B5600024F00F0402F00F022243C3F810250C232D
:10B5700003FB06552872002003B0F0BD900000F5D3
:10B58000A07001321C50185801900198AFE70820B4
:10B59000F2E700BFB835002014ED00E000E100E064
:10B5A000036801221A600379034A0C2101FB03237B
:10B5B00002221A72704700BFB835002037B54FF429
:10B5C00080348C4000687BB18B0003F5A0730025AC
:10B5D000C550C3580193019BC0F8044301F5A871FD
:10B5E00040F8212003B030BDC0F80843F6E770B43E
:10B5F000046840F20116D4F800528E4025EA060590
:10B60000C4F80052D4F800522B43C4F800329DF81D
:10B610000C3070BCFFF7D2BF01490248FFF732BFC0
:10B62000B83500200080004001490248FFF72ABFDA
:10B63000C43500200090004008B5094B1B7853B179
:10B640000020FDF73FFE0120FDF73CFE0320BDE892
:10B650000840FDF737BEBDE80840FDF747BE00BF14
:10B66000D0350020F8B57B4C237805461BB100236C
:10B670002370FFF7E1FF172D00F28880DFE805F067
:10B680000C17174354657680888D888D959A9A9A01
:10B690009A9AC4C9D1D9E4E4FFF7CEFF6E48FCF70B
:10B6A00052FE6E4B002204461A702046F8BD002060
:10B6B000FDF7E0FDF8B10020FDF704FE022D0CBF00
:10B6C0004FF4E1614FF47A61644B1D704FF4004018
:10B6D0004FF47A740025E0FB01454FF4FA62002331
:10B6E0002046294604F0D4FD002201465A48BDE810
:10B6F000F840FCF710BEFDF7D1FD022D0CBFC821AC
:10B700004FF4C871E0E70020FDF7B4FD40B1002020
:10B71000FDF7D8FD4FF44871504B03221A70D5E75E
:10B72000FDF7BCFDC821F7E70020FDF7A3FD38B108
:10B730000020FDF7C7FD4FF47A61484B0422EDE786
:10B74000FDF7ACFD4FF4C871F7E70020FDF792FD5F
:10B7500048B10020FDF7B6FD404B05221A7040F6B7
:10B76000CD410022C2E7FDF799FDF5E70020FDF786
:10B77000DBFD3A4B06221A70002240F26661B5E703
:10B780000020FDF78BFD354B07221A7000248CE753
:10B7900001202070FDF7C8FDEEE701202070FDF7C5
:10B7A000C3FD00224FF40051A0E7FDF7AEFD2B4B87
:10B7B0000C22EAE72A482B4EFCF7C5FDD5F111050E
:10B7C00004461CD0D8B9012D13D0C8235D434FF4D3
:10B7D00000474FF47A7000214FF4FA620023C7FB50
:10B7E000050104F055FD224601461D48FCF793FD76
:10B7F00004460220FDF752FD0123337055E7022075
:10B80000FDF760FD0023F8E7FFF716FF134B122248
:10B81000BBE7FFF711FF0020FDF740FD0F4B1322A0
:10B82000B3E7FFF709FF0120FDF738FD0B4B1422AA
:10B83000ABE7FFF701FF0020FDF730FD0120FDF72A
:10B840002DFD064B1522A0E7FDF75FFD034B1D7094
:10B850009CE700BF28360020F8350020293600205C
:10B86000D8350020D0350020044B1B6813F00103AD
:10B8700001D0FFF7F7BE1846704700BF24360020FE
:10B88000032813D8012A0BD1012908D100F10E0297
:10B89000D2B200EB40000C4B1A540020704700223B
:10B8A0000129F6D04BB24BB1022901D007207047D5
:10B8B000054B00EB400018444270EEE7024900EBF4
:10B8C000400008448270E8E71836002008B50122DD
:10B8D00002210020FFF7D4FF08B1072810D107226A
:10B8E00002210120FFF7CCFF08B1072808D1002171
:10B8F0000A220846FFF7C4FF10B1072808BF00203E
:10B9000008BD00000388102B10B502D0112B1ED0EB
:10B9100010BD1A4C2168B1B901220846FFF7B0FFEB
:10B9200008B1072824D1072202210120FFF7A8FF30
:10B9300008B107281CD1042202210020FFF7A0FF34
:10B9400008B1072814D1236801332360E0E70B4ACC
:10B950001368013B1360002BDAD1FFF7B7FF002813
:10B96000D6D0074B1B68002BD2D0BDE8104018473B
:10B97000034B1B68002BE6D09847E4E730360020E5
:10B980002C36002008B54FF480410020FBF78AFEDA
:10B9900008B1FCF72FFBBDE80840FBF7B9BD08B5BF
:10B9A000FDF7D2FA18B1BDE80840FCF723BB08BD8B
:10B9B00008B5FBF7D1FE18B9BDE80840FDF7DABAC3
:10B9C00008BD000008B500F04CFEFFF7DBFFFCF7F8
:10B9D00065FC08B1FCF70EFBFFF7E1FF02F018F978
:10B9E000134A0A210820FCF7B3FB08B1FCF702FB5D
:10B9F00001F0B6FE02F024F902F042F802F036F946
:10BA000002F062F801F09EFE00F046FE00F0B4F88D
:10BA100000F0E8FA01F070FB00F0B4FA01F056FB18
:10BA200000F014FF00F0B2FEBDE8084001F018BEBF
:10BA30003436002038B500F007FA0E4B0E4D1022B8
:10BA4000C3F80C250222C3F80C254FF47A7445F094
:10BA500001054FF47A40A847013CFAD14FF0A043CA
:10BA6000064AC3F814274FF080430122C3F800258B
:10BA700038BD00BF00030050001903000C00030094
:10BA800008B500F0EDF94FF080430122C3F87825A6
:10BA90004FF0A043D3F81025920608D4D3F8103500
:10BAA000DB0504D4FFF78EFFFFF782FFFCE7FFF70B
:10BAB000C1FFF9E71D4B1E491A7870B5AAB10A7883
:10BAC00002F0FF048AB91B4D2C7000F09DFE1A4B4A
:10BAD0001A491B481C7022462B7891F9001090F9E6
:10BAE0000000BDE8704001F08BB90A7852B11A78B5
:10BAF00042B900F0A9F94FF0A0434FF08042C3F8DB
:10BB0000082570BD0A782AB11B781BB1BDE87040CA
:10BB1000FFF790BF0B4B1B78002BF2D000F094F98D
:10BB20004FF0A0434FF00062E9E700BF1837002054
:10BB3000E936002014370020163700201737002080
:10BB4000EA360020E8360020024A1378013B1370E1
:10BB5000704700BFEA36002008B5054A05480021B5
:10BB6000FCF7CEFB18B1BDE80840FCF743BA08BDAE
:10BB7000B5BA02000819030008B5FFF7EDFF1E2251
:10BB800003210748FCF7CAF908B1FCF733FAFCF7C0
:10BB90001BFA18B1BDE80840FCF72CBA08BD00BF7D
:10BBA000FC2A002010B5084C217801F0FF0239B9B9
:10BBB0004FF480410548FCF7AEFB08B1FCF71AFAD8
:10BBC0000123237010BD00BFEB360020F0360020AB
:10BBD00008B5064B064800221A70FCF7B4FB18B1F2
:10BBE000BDE80840FCF706BA08BD00BFEB360020F0
:10BBF000F0360020012910B50C4617D10F4B1970F3
:10BC0000FFF7D0FF0E4B0F491A780C70013A52B271
:10BC1000002A1A70BEBF00220A701A700A7862B138
:10BC200093F90000BDE8104001F038B829B9034B82
:10BC3000BDE810401970FFF7CBBF10BD18370020CA
:10BC4000EA36002015370020012910B50C4618D11E
:10BC5000104B1970FFF7A6FF0F4B10491A780C70A4
:10BC6000013252B21B2A1A70C1BF1B221A70002265
:10BC70000A700A7862B193F90000BDE8104001F043
:10BC80000DB829B9034BBDE810401970FFF7A0BFEC
:10BC900010BD00BFE8360020EA360020153700202E
:10BCA00001292DE9F04178D1404B414C1970FFF743
:10BCB00079FF23783F4F404E97F9000030700133F1
:10BCC000DBB22370013B3D4D032B09D8DFE803F0C5
:10BCD000022A4252B8B13A4B00221A7001232B704B
:10BCE0002B7873B1364B94F900201B7896F900102D
:10BCF0004FF00008404687F8008001F081F885F891
:10BD00000080BDE8F08100F0F9FC18B12C4A012355
:10BD10001370E4E796F90030002BDCD12378013B67
:10BD20002370DDE7264B1A783AB1002201212970F1
:10BD300022701A7000F068FDD2E700F0DFFD0028E5
:10BD4000ECD096F9000000F0A0FE1E4B1860012315
:10BD50002B70EFE7DFF86C80D8F8001000F0AAFD38
:10BD60000028DBD0D8F8001096F9000000F01AFE89
:10BD7000154BEBE7DFF85080D8F8001000F07FFD9E
:10BD80000028CBD0D8F8001096F9000000F077FD1D
:10BD900000F098FC00232370D9E70029B1D1034BB0
:10BDA000BDE8F0411970FFF713BF00BFE93600206E
:10BDB00016370020EA3600201737002015370020FC
:10BDC0001437002010370020E43600201F2886BFDB
:10BDD00000F01F00044B4FF0A04300F5E070890015
:10BDE00043F82010704700BF0003005038B5054DE0
:10BDF000044645F001054FF47A40A847013CFAD1CA
:10BE000038BD00BF101903001F2886BF00F01F00B7
:10BE1000044B4FF0A04300F5E07040F2033243F8CA
:10BE200020207047000300501F2886BF00F01F002D
:10BE3000044A4FF0A042012303FA00F0C2F80C05B7
:10BE4000704700BF0003005008B51B20FFF7ECFF50
:10BE50001A20FFF7E9FF1E20BDE80840FFF7E4BF06
:10BE600008B52420FFF7D0FF2520FFF7CDFF2120C4
:10BE7000FFF7CAFF0B20FFF7C7FF1320FFF7C4FF30
:10BE80001120FFF7C1FF2020FFF7BEFF1520FFF7AD
:10BE9000BBFF1620FFF7B8FF1720FFF7B5FF1B20E9
:10BEA000FFF7B2FF1A20FFF7AFFF1E20FFF7ACFF2E
:10BEB000FFF7CAFF03210820FFF788FF0321222094
:10BEC000FFF784FF03210520FFF780FF03210120F6
:10BED000FFF77CFF01210020BDE80840FFF776BF97
:10BEE00070B5234C234E00F013FC4021052000F0D8
:10BEF00099FB214B94E80600F82000F02FFB00F09E
:10BF0000ABF94FF4FA70FFF771FF0C252C211520C7
:10BF100000F088FB94E806003346002000F01EFB8A
:10BF200000F09AF92C21152000F07CFB334694E8B0
:10BF300006004FF6077000F011FB00F08DF9013D8F
:10BF4000E4D1A72000F09CF800F086F9A62000F0CC
:10BF500097F873210C2000F065FB084A084B06CACD
:10BF60004FF6FF7000F0FAFABDE8704000F074B9C7
:10BF7000142B002016190300A13403001C2B0020F1
:10BF80001C19030008B5074B0222C3F808250A2034
:10BF9000FFF72CFF00F0B6F800F0BAFBBDE8084050
:10BFA000FFF79EBF0003005038B5054D044645F02D
:10BFB00001054FF47A40A847013CFAD138BD00BFD3
:10BFC000401903001F2886BF00F01F00044A4FF0ED
:10BFD000A042012303FA00F0C2F80805704700BF31
:10BFE000000300501FB5094B0FCB6C4684E80F00CF
:10BFF000074B009300231A4621460648FDF7D0FD63
:10C0000008B1FBF7F7FF04B010BD00BF2C19030007
:10C0100029282A26481903001FB50022C9B2084B57
:10C020000090CDE9011207481A7069460392FDF7A6
:10C0300029FF08B1FBF7DEFF05B05DF804FB00BF88
:10C040001CB700204C1903007FB50B4B8DF807007F
:10C0500000221A700DF10703029302A90123074879
:10C060000592CDE90332FDF70DFF08B1FBF7C2FFE2
:10C0700007B05DF804FB00BF1CB700204C1903009B
:10C0800010B5064B20220446C3F80C250120FFF70B
:10C090008BFF2046BDE81040FFF7D6BF00030050DD
:10C0A00010B504462520FFF78DFF0120FFF77CFF28
:10C0B0002046BDE81040FFF7C7BFF8B5064625206B
:10C0C0000C46FFF77FFF0120FFF76EFFFF2C17D90B
:10C0D0000025FF27B4FBF7F7C5EB0520FF2130440F
:10C0E0000135FFF799FFBD42F6D1FF21B4FBF1F115
:10C0F000C1EB0121611A3046BDE8F840FFF78CBF63
:10C100002146F8E708B52420FFF75CFFC820FFF7B9
:10C110004BFF4A4B1022C3F80C25C820FFF744FF01
:10C120002420FFF74FFFC820FFF73EFFFD20FFF759
:10C13000A7FF1220FFF7B4FFFD20FFF7A1FFB120FA
:10C14000FFF7AEFFAE20FFF79BFFB320FFF798FF8E
:10C15000F120FFF7A5FFCA20FFF792FF7F20FFF72E
:10C160009FFF4FF49670FFF71FFFA020FFF788FF97
:10C170003220FFF795FF1520FFF782FF0020FFF721
:10C180008FFF7F20FFF78CFF7520FFF779FF0020DE
:10C19000FFF786FF7F20FFF783FFA120FFF770FFE7
:10C1A0000020FFF77DFFA220FFF76AFF0020FFF7C6
:10C1B00077FFB520FFF764FF0020FFF771FFAB208A
:10C1C000FFF75EFF0120FFF76BFFB120FFF758FF7D
:10C1D0003220FFF765FFBE20FFF752FF0520FFF773
:10C1E0005FFFA620FFF74CFFC120FFF749FF8A2021
:10C1F000FFF756FF5120FFF753FF8A20FFF750FF4C
:10C20000C720FFF73DFF0F20FFF74AFFB420FFF7DD
:10C2100037FFA020FFF744FFB520FFF741FF55206F
:10C22000FFF73EFFB620FFF72BFF0120FFF738FF97
:10C23000AF20BDE80840FFF723BF00BF0003005058
:10C24000044A00230133B3F5804F22F8020BF9D1E1
:10C25000704700BF1C37002008B55C20FFF710FFB7
:10C260004FF400410248BDE80840FFF726BF00BF79
:10C270001C37002083B27F2B09D88BB27F2B9FBF46
:10C28000C0F17F0000EBC110014B23F81020704774
:10C290001C3700202DE9F84F0F46904691B29BB213
:10C2A000BAB29E1A36B2002EB8BFD61A84B2B8BF40
:10C2B00036B2A1EB040B4FEA46061FFA8BFBB6B26F
:10C2C000A4EB0104B4BF4FF0FF3A4FF0010A34442D
:10C2D0004FEA4B0B80450546BDF8289024B21FFA63
:10C2E0008BFB16DD394628464A46FFF7C3FF002C74
:10C2F000C8BFA4EB0B0405F10105C4BF574424B229
:10C300002DB2C8BF3FB23444A84524B2EADABDE832
:10C31000F88F394628464A46FFF7ACFF002CC8BFC5
:10C32000A4EB0B0405F1FF35C4BF574424B22DB272
:10C33000C8BF3FB23444A84524B2EADDE7E72DE99F
:10C34000F84F92B2994683B20D46D11A09B200292C
:10C35000B8BF991AACB2B8BF09B206461FFA89F045
:10C36000A0EB04074FEA4101BFB21FFA81FBA4EB27
:10C370000004B4BF4FF0FF3A4FF0010A5C447F0065
:10C38000A945BDF8288024B2BFB215DD3046294644
:10C390004246FFF76FFF002CC8BFE41B05F1010503
:10C3A000C4BF564424B22DB2C8BF36B25C44A945BE
:10C3B00024B2EBDABDE8F88F304629464246FFF753
:10C3C00059FF002CC8BFE41B05F1FF35C4BF56441C
:10C3D00024B22DB2C8BF36B25C44A94524B2EBDD0D
:10C3E000E8E700002DE9F84F214C0E462178314452
:10C3F0007F29154680469DF8282027DC617829444E
:10C400007F2923DC0A2A0FD0203A6A4303EB420A31
:10C410004FF000094D4509DD3AF802BB0027BE4246
:10C4200016DC09F10109F5E77F2323702178637891
:10C430003144C9B2217031447E2907DD5A197F2A5F
:10C4400004DC02331D44002365702370BDE8F88FBF
:10C450000BFA07F31B0408D5617820784944384467
:10C46000424609B200B2FFF705FF0137D7E700BF28
:10C47000193700202DE9F0470446581A16460D4694
:10C480001F46BDF8208003F0EEFF8146301B03F00D
:10C49000EAFF8145CDF820800EDAA642BFBF2B46C9
:10C4A000224639463046A1BF3B4632462946204601
:10C4B000BDE8F047FFF7EEBEAF42BFBF2B462246B6
:10C4C00039463046A1BF3B46324629462046BDE8A4
:10C4D000F047FFF734BF2DE9F34102440E461C46F6
:10C4E000BDF82070009715B2344424B20B462A469A
:10C4F0008046FFF7BFFF23462A463146284600976D
:10C50000FFF7B8FF23464246214628460097FFF72B
:10C51000B1FF3346424621464046089702B0BDE887
:10C52000F041FFF7A7BF2DE9F047BDF820800E4688
:10C530000446171803EB0109A74201DCBDE8F087A8
:10C5400035460FFA84FAA94501DC0134F4E729B233
:10C5500042465046FFF78EFE0135F4E708B42DE958
:10C56000F04789B002AB119C814683E806005CB1BC
:10C5700012AB9DF808609DF80970DDF80C80DFF8BB
:10C58000A0A00593237823B909B0BDE8F04701B016
:10C590007047252B08D000933A464346314648461B
:10C5A000FFF720FF0134EDE76378692B22D0732B6E
:10C5B0000DD0632B14D1059B1A1D1B780592009397
:10C5C0003A46434631464846FFF70CFF08E0059BD4
:10C5D0001D681A1D05921DB1013D15F8013F0BB9EB
:10C5E0000234CFE700933A46434631464846FFF7C8
:10C5F000F9FEF2E7059B1A1D0592514693F90020BA
:10C6000006A804F02CF806AD15F8013B002BE7D086
:10C6100000933A46434631464846FFF7E3FEF3E7C8
:10C620003C190300014B18705970704719370020EE
:10C6300010B101280BD070474FF0A0430422C3F87B
:10C6400004270C22C3F80027012000F0EDBE4FF0B4
:10C65000A0430C22C3F804270422C3F800270020BB
:10C66000F3E708B5FCF7A8FE08B1FBF7C3FC002010
:10C67000FEF7FAFA08B1FBF7BDFC0020FCF73EFF1D
:10C680000020FCF7B5FEFCF773FF0028FBD0FCF799
:10C6900029FF0028F7D008BD08B50448FEF717FBAE
:10C6A00018B1BDE80840FBF7A5BC08BD1034030075
:10C6B00008B50C2003F0F6FE0022C0E900228260DB
:10C6C00008BD000030B5A0B102680A4B9A4210D0F4
:10C6D000094B1B6819680C68A2420AD05C6825687F
:10C6E000AA4206D09D682D68AA421CBFC3E9011466
:10C6F000186030BD6334030028B70020034B1B686B
:10C700001868003018BF0120704700BF28B700200C
:10C7100008B50020FFF794FDFFF79EFD024B1B6854
:10C720000022A3F8742008BD20B7002007B5F82325
:10C7300000937C22192330210220FFF7CCFEFFF763
:10C740008BFD044B1B68012283F8742003B05DF855
:10C7500004FB00BF20B7002010B50A4C23210120A4
:10C76000FFF760FF2368084A5B6806CA4FF6FF7050
:10C77000FFF7F4FEFFF770FD2368012283F87520B0
:10C7800010BD00BF20B700201C2B002038B5184D6D
:10C79000184C2B6800221A70174A5A60174A9A6080
:10C7A000174ADA60FFF784FF164B1860FFF7B0FFF7
:10C7B000FFF7BCFFFFF7D0FF39210A20FFF732FF58
:10C7C0002B6894E806009B684FF6FF70FFF7C6FEE3
:10C7D00053210A20FFF726FF2B6894E80600DB6848
:10C7E0004FF6FF70FFF7BAFEBDE83840FFF734BDE3
:10C7F00020B700201C2B00204E2B002020340300EB
:10C800002D34030028B70020064B1B6800221A7045
:10C810005A6003F10801743341F8042B9942FBD1AB
:10C82000704700BF20B7002008B5782003F03AFE1B
:10C83000002303704360A0F8743000F1080200F197
:10C84000740142F8043B8A42FBD108BD08B5FFF7EA
:10C85000EBFF014B186008BD20B7002008B5102081
:10C8600003F020FE034A426000220260C0E9022277
:10C8700008BD00BF562B0020006800BA70470B6946
:10C880000022824201DB184670475B68002BFAD019
:10C890000132F6E708B51C2003F004FE044A0260EA
:10C8A0000022C260C0E90122C0E90422826108BD01
:10C8B00063340300CB680022824201DB18467047D4
:10C8C0005B68002BFAD00132F6E7000008B52020A3
:10C8D00003F0E8FD074A02600022C0E90122C0E936
:10C8E0000322C0E90522C261034A137801331370A1
:10C8F00008BD00BF633403001DB70020064B1B6852
:10C900009B680022824201DB184670475B68002B5F
:10C91000FAD00132F6E700BF30B7002008B5182082
:10C9200003F0C0FD064A02600022C0E90122C0E90E
:10C9300003224261034A13780133137008BD00BF1C
:10C940006334030024B7002038B50546102003F0F7
:10C95000A9FD10220446294603F0A7FE204638BD53
:10C9600070B505460E46FFF795FF0446066128465A
:10C97000FFF7EAFF0023206063602B691BBA636145
:10C980006B691BBAA361AB69F5691BBAA36025B1DA
:10C990003146681EFFF773FF4460E5600135F561BD
:10C9A000204670BD2DE9F843FFF784FF0369054673
:10C9B00043BB4389002B3CD04FEA8308846940463F
:10C9C00003F070FD0746424621463C4600F0EEFB70
:10C9D0001C2054F8049B03F065FD99FA89F906467A
:10C9E0001C22494600F0E2FB29463046FFF7B8FF1B
:10C9F000B8442861444508D1384603F09DFD3046CF
:10CA000003F09AFD2846BDE8F883637821781B047B
:10CA100043EA0163E1780B43A1781C2243EA012138
:10CA2000304600F0C3FB29463046FFF799FF043437
:10CA3000E0E7FFF72FFF2861E4E770B505460E46F3
:10CA4000FFF744FF04462846FFF77EFF20602B696E
:10CA50001BBAE360AA7DEB7D7569666143EA022338
:10CA6000638100232361636041F65872382303FB1E
:10CA70000523A36125B13146681EFFF71BFF446003
:10CA8000258101357561204670BD2DE9F843FFF71A
:10CA900035FFC368054643BB4389002B3CD04FEAB2
:10CAA00083080469404603F0FDFC074642462146E0
:10CAB0003C4600F07BFB182054F8049B03F0F2FC8A
:10CAC00099FA89F906461822494600F06FFB294673
:10CAD0003046FFF7B2FFB844E860444508D1384615
