:020000022000DC
:1070000000000420757302005D7302005F730200CC
:1070100061730200637302006573020000000000E8
:107020000000000000000000000000006773020084
:1070300069730200000000006B7302006D730200B0
:107040003DA302006F730200D99B02009D9E0200C7
:107050006F7302006F7302002D9A02006F730200BB
:107060006F7302006F7302006F7302006F73020090
:107070006F7302006F7302006F7302006F73020080
:107080006F730200858802006F7302006F73020045
:107090006F7302006F730200C9DC02006F7302009D
:1070A0006F7302006F7302006F7302006F73020050
:1070B0006F7302006F730200000000000000000008
:1070C0006F7302006F7302006F7302006F73020030
:1070D0006F7302006F7302006F73020069AC0200ED
:1070E0006F7302006F7302006F73020000000000F4
:1070F000000000006F730200000000006F730200C8
:10710000000000000000000000000000000000007F
:10711000000000000000000000000000000000006F
:10712000000000000000000000000000000000005F
:10713000000000000000000000000000000000004F
:10714000000000000000000000000000000000003F
:10715000000000000000000000000000000000002F
:10716000000000000000000000000000000000001F
:10717000000000000000000000000000000000000F
:1071800000000000000000000000000000000000FF
:1071900000000000000000000000000000000000EF
:1071A00000000000000000000000000000000000DF
:1071B00000000000000000000000000000000000CF
:1071C00000000000000000000000000000000000BF
:1071D00000000000000000000000000000000000AF
:1071E000000000000000000000000000000000009F
:1071F000000000000000000000000000000000008F
:10720000354936480A1A02D0072291438D4634493F
:1072100034480A1A06D00722914381F309880222D2
:1072200082F3148830483149314A00F044F831483B
:107230003149324A00F03FF831483249324A00F0D1
:107240003AF832483249334A00F035F83248334987
:10725000334A00F030F833483349344A00F02BF811
:1072600033483449344A00F026F83448344900227F
:1072700000F02CF833483449002200F027F8334856
:107280003349091A082902DB002202604160314AB1
:1072900090471F481F49884205D00268043003B454
:1072A000904703BCF7E700208646EC46002000210B
:1072B000294A9047FEE7884207D0521A05D0037842
:1072C00001300B700131013AF9D17047884202D088
:1072D00002700130FAE770470000042000E003204C
:1072E0000000042000000420D8120300E82A002037
:1072F000B82B0020D0730200D0730200DCE902003A
:10730000D8120300E82A0020E82A002010EB02002F
:1073100010EB020010EB020010EB020010EB020079
:1073200010EB020010EB020010EB0200D812030079
:10733000A8130300B82B0020B82B0020B82B002086
:10734000FCBE0020FCBE0020FCBE0020FCBE0020D5
:10735000FCDE00209D73020075B70200FEE7FEE729
:10736000FEE7FEE7FEE7FEE7FEE7FEE7FEE7FEE7F5
:1073700000F002B8FFF7FCBF0F484FF00701884349
:1073800085460E4880470E48016841F4700101604F
:10739000BFF34F8FBFF36F8FFFF732BF09480A4922
:1073A0000A4A884207D0521A05D0037801300B7080
:1073B0000131013AF9D170470000042075910200B3
:1073C00088ED00E010EB0200E82A0020E82A002007
:1073D0007047000007B5044B0093044A402300F0B7
:1073E00032F803B05DF804FBF1730200B92B002002
:1073F0002DE9F84389461446B2B10F4B0F4E0325D1
:10740000002743F00108224609EB0701002005F0A0
:107410009FF90744241A48B933782BB14FF47A40C6
:10742000C047013D02D13570BDE8F88301233370B8
:10743000002CE8D1F8E700BF10EB0200B82B0020C9
:10744000704705F0B9B9F0B595B01C461646084628
:107450000D4601F0ACFD1A9B0D93CDE908640024A4
:107460002346082205A928460A948DF82C400C943E
:1074700001F0BAFD079B0293069B03939DF814301D
:107480008DF8114003F00302012A1DD1BDF814400C
:10749000059EC3F3C203C4F383148DF81030A20019
:1074A00008230EA9284601F09FFDC6F3952608ABD8
:1074B0000093224602AB0EA9304600F06DFB284631
:1074C00001F079FD15B0F0BD022AF8D1BDF81640E3
:1074D000C3F3C203A4098DF810300827082C2646F0
:1074E00028BF08263B4632460EA9284601F07CFDFF
:1074F000A41B08AB02AA31460EA8374400F0B0FB2B
:10750000002CEBD1DBE7000008B5FFF79AFF042160
:10751000034800F0AFFA034B01225A7108BD00BFC7
:1075200000EB0200E82A0020037813F0040216D0D2
:1075300003F00303012B03D0022B09D00120704775
:107540000A6800880232C0F3831002440A60F5E73B
:107550000B684288023303EB92130B60EEE7104690
:10756000704700002DE9F04F87B000230446851CCA
:107570000DF107000F4690468DF8073001F016F820
:10758000454806683E60D0E90132134401339B1B35
:10759000824600F21C4600F5836900F21447AB42B4
:1075A0001BD30022B8F1000F70D0052363F307024C
:1075B00064F38912DAF80010DAF808309DF8070051
:1075C0000B4003330D444AF82320CAF8005001F061
:1075D00011F8012007B0BDE8F08F0121304601F01D
:1075E0002AFA484601F03DFA384601F03AFADAF84C
:1075F0000400DAF808B0029000EA0B0003300AEB4E
:10760000800002A9FFF790FF029B50BB0BEA030228
:107610000AEB820203F1020CD2680392013303EAFF
:107620000B0B0AEB8B0B02F00302012ACDF808C00A
:10763000DBF80C1022D0022A16D08346384601F01F
:1076400013FA10B1029BCAF804305946304601F0D3
:10765000F2F9DAE901231344DAF8002001339B1A26
:107660009DE70BEA0300C9E7BDF80E309B09033321
:107670004FEA114B0CEB93030293DFE7BDF80C309C
:10768000C3F383134FEA114B6344F5E7062363F317
:10769000070264F39F528DE7CC2C00200B4B0C4863
:1076A000FF2210B59A600022C3F81824C3E9002213
:1076B000C3F8142483F8202401F032FC044610B9E6
:1076C000044801F0D9FC204610BD00BFCC2C00209E
:1076D0004CEA020034EB020030B50A4C71B10A4AA0
:1076E0000A49121BD20800239A4201D1002030BD62
:1076F00031F82350854202D00133F5E7034654F8B0
:107700003300F4E760EA020000EB0200E82A002000
:10771000094B013903EBC000032909D8DFE801F068
:107720000A020406042070470079704740797047C8
:10773000002070470220704760EA0200034BD3E943
:107740000030C31A58425841704700BFCC2C00206B
:107750002DE9F04387B0FFF7F1FF0646002840F01F
:10776000FB807E4DC5F81804BFF34F8F6868AC6886
:1077700002902040033005EB800002A9FFF7D4FE01
:10778000029B18B1D5F81824002A5FD004EA03023E
:10779000991C013305EB8202234005EB8303D26879
:1077A000DB68049302F00303022B0392029162D17F
:1077B000BDF80E306A484FEA9318B8F1500FC14631
:1077C00028BF4FF0500969F38F1309F10801ADF894
:1077D0000E3001F0BDFB0746002800F0A88001F044
:1077E000E6FB03A900230822384601F0F3FB0299C7
:1077F00024EA01060136B600B14535D95FFA89F9A8
:107800007EB3F6B2A9EB0609214003315FFA89F491
:10781000B146544E05EB810108234A46384601F033
:10782000D9FB36B109F1080322463146384601F04A
:10783000D1FB029B08F1030803EB98030293D5F8F0
:107840001834002B4BD1D5F810445BE02A689A42DB
:1078500004D86A60304607B0BDE8F08304EA03004C
:1078600088E740493446D7E72140033108234A4698
:1078700005EB8101DAE7012B59D1BDF80C3038480E
:10788000C3F38311062928BF062161F3891302314E
:107890008900ADF80C3001F05BFB0746002846D0AC
:1078A00001F085FB0023082203A9384601F092FB72
:1078B0000026BDF80C20C2F38312B300964203F1F8
:1078C0000803BCD202994A1C21400331029205EB05
:1078D00081010422384601F07DFB0136E9E7384694
:1078E00001F069FBFFF72AFF80F00100C6B2B1E7A3
:1078F000E3685B7923B1236839461B6820469847C3
:10790000E3681C68002CF3D1384601F054FB0DF1FC
:1079100007008DF8074000F049FED5F818340BB980
:10792000029B6B609DF8070000F064FEDAE7D5F873
:10793000104454B90C4B0D480D49C01AC00800043E
:1079400040F0020000F06EF8CCE7236820469B6808
:107950009847E3681C68ECE700267BE7CC2C002006
:107960004CEA0200D82C002060EA020098EA0200EB
:1079700040EB02002DE9F74F284C80460F46924617
:1079800001A9012218469B46D4F80890FFF7EAFDAA
:1079900080B3019D0026A91C5E4506EB010233D190
:1079A00000211F4801F01CF880F310006A1C02EA55
:1079B000090204EB8202000405EA0903033340EAEA
:1079C0001840D06014F8232068F3C50204F823207F
:1079D00034F8232066F3891224F8232054F8232056
:1079E00067F39F2244F8232002F0F80242F00102DC
:1079F00004F8232094F820341BB1FFF7A9FE0028D7
:107A0000FBD103B0BDE8F08F09EA020204EB820269
:107A10005AF82630D3600136BEE700BFCC2C0020D8
:107A2000E830002000231A46FFF7A4BF07B5012362
:107A3000019201AAFFF79EFF03B05DF804FB07B5B2
:107A4000CDE9002302236A46FFF794FF03B05DF8F7
:107A500004FB7FB5CDE90123089B0393099B0493A5
:107A60000A9B059301AA0523FFF784FF07B05DF881
:107A700004FB000030B50F49D1F810240023144650
:107A80003CB9C468237152B9C1F810042260184689
:107A900030BDE46825799D4206D02468F0E7D268BD
:107AA000116821601060F2E701330A2BE7D14FF033
:107AB000FF33ECE7CC2C0020094A38B50123D2F87B
:107AC000104482F820341D4604B938BDE3685D7166
:107AD000236820465B689847E3681C68F4E700BFAA
:107AE000CC2C0020037A052B10B50C460FD0437A1E
:107AF00023B1084A0849204601F019F807492046F1
:107B000001F015F82046BDE8104001F005B8002A44
:107B1000F8D0F3E78BEB020090EB0200B0EB020031
:107B2000C38873B504460D4633B1144A0092144914
:107B3000144A284600F0FBFF217A05291CD0637AFD
:107B40004BB1A088FFF7E4FD0F4B104953F82020FC
:107B5000284600F0ECFF227A0D4BA08853F82260F3
:107B60000021FFF7B9FD0B4903463246284602B013
:107B7000BDE8704000F0DBBF02B070BD8BEB0200CF
:107B80009BEB020093EB020058EB020090EB02002B
:107B9000C0EB0200B3EB02002DE9F04385B01F46B5
:107BA0000C9D002306460C46904695F80C902B73CE
:107BB00029463846FFF7B4FFB8F1060F09D8DFE8C9
:107BC00008F00412181F283340003146284600F000
:107BD000AEFF002229463846FFF784FF85F80C9057
:107BE00005B0BDE8F08322683146284600F09FFFCB
:107BF000EFE7D4E900233146284600F098FFE8E794
:107C0000A36800933146D4E90023284600F08FFF93
:107C1000DFE7E3680193A36800933146D4E90023CA
:107C2000284600F084FFD4E723690293E3680193B8
:107C3000A36800933146D4E90023284600F077FF7B
:107C4000C7E76369039323690293E3680193A36819
:107C500000933146D4E90023284600F068FFB8E7D6
:107C600008292DE9F84F80460E4617461C463AD89B
:107C7000002593F80C901D7319461046FFF750FF2E
:107C8000DFF884A0DFF884B0AE422ED918F80520C2
:107C90005946204600F04BFF0135082DF4D1184914
:107CA000DFF86CB0204600F042FF4FF0000A564566
:107CB00020D918F80A507E2D03D8284606F0C6F9B8
:107CC00000B92E252A465946204600F030FF0AF119
:107CD000010ABAF1080FEAD1012221463846FFF71E
:107CE00001FF84F80C90BDE8F88F5146204600F063
:107CF0001EFFD1E70349204600F019FFE7E700BF68
:107D000086EB020084EB020082EB02007CEB0200B7
:107D100088EB0200C30710B507D4F0234008054ADA
:107D2000145C23401943115410BD0901C9B20F233B
:107D3000F4E700BFB831002030B5094B1C78094B7F
:107D4000196800239C4202DC0022104630BD11F865
:107D50003350854201EBC302F7D00133F2E700BF95
:107D600088310020D831002070B504460D46FFF759
:107D7000E3FF30B1436823B129462046BDE8704097
:107D8000184770BD034B044819680022490800F0E9
:107D9000E2BA00BF8C3100209031002010B5C0B293
:107DA000FFF7CAFF0446007801F032FE63785A1EDE
:107DB00053425341834208D1044BD3E90023134378
:107DC00003D1BDE81040FFF7DDBF10BDB03100208A
:107DD00037B54308364AD35CC2074CBF1B0903F0D2
:107DE0000F0304460D46042B36D8DFE803F00326C4
:107DF0002D393D0081B30121FFF78CFF00230DF1E8
:107E000007008DF8073000F0D1FB0122A4F1200318
:107E1000C4F12000274902FA03F322FA00F00343D9
:107E200002FA04F4D1E9002014430343C1E90043FA
:107E30009DF8070000F0DEFB0EE0002918BF0221CC
:107E40002046FFF767FF07E041B10321FFF762FF1C
:107E500001212046FFF788FF03B030BD0121EFE785
:107E60000029F9D10421EBE709B10321E8E7FFF785
:107E700051FF29462046FFF777FF0DF107008DF8E7
:107E8000075000F093FB0122A4F12003C4F120006D
:107E9000084902FA03F322FA00F0034302FA04F459
:107EA000D1E9002022EA040420EA0303BEE700BF70
:107EB000B8310020B03100202DE9F041124E134FAF
:107EC00000243378A34208DC114BD3E90023134389
:107ED00018D0BDE8F041FFF755BF3D6805EBC40879
:107EE00015F8340001F094FD98F801104B1E59422A
:107EF00059410A1A514215F834005141FFF768FF01
:107F00000134DEE7BDE8F08188310020D83100205F
:107F1000B0310020092AF7B505460C4616463DD972
:107F200001F0A6FCD8B11E4B1E481D601E4B1F4F12
:107F30001C701F4B002120221E6006F026F91D4BED
:107F400000200021C3E90001013CE4B20326FF2C1C
:107F50000BD1194A1948002100F0F2F903E001F0B1
:107F60004FFC0028DFD003B0F0BD20B29DF80630F2
:107F70008DF8046005EBC00223F007038DF806308E
:107F800001A9937815F830008DF805303A4601F0D4
:107F900079FC013CE4B20028D9D0E4E70720E2E70D
:107FA000D8310020B8310020883100209D7D0200AA
:107FB0008C310020B0310020B97E020028EC020094
:107FC00070B5084D084E00242B789C4201D3002048
:107FD00070BD3368012113F8340001F0CFFC013487
:107FE000F2E700BF88310020D83100201FB5002102
:107FF000039001AA44F20100CDE9011100F030F82C
:1080000005B05DF804FB000082B001238DF8073055
:108010009DF80730114B1860596044F20101884205
:108020009A6012D044F20201884206D1DA60DA681E
:1080300012889A61DA685268DA6172B69DF8073080
:10804000002BFBD162B602B070471A611A699268C0
:108050005A611A6912689A611A69ECE7DC310020EA
:108060002DE9FF4106460F46154672B6FFF724FD7F
:10807000FFF76EFB0028FBD12A4B2B4CE41AE408D7
:1080800041F2010324049E4244F0010436D007D893
:10809000012E14D03A4625492046FFF7C7FC12E0CE
:1080A00044F201039E422BD044F202039E42F1D1DE
:1080B0002B886A681E492046FFF7C1FC03E01D4972
:1080C0002046FFF7AFFC4FF0A0434FF00062C3F82B
:1080D0000C254FF08042C3F80C254FF08062C3F8A6
:1080E0000825154B1B68DB0700D500BE2A4639461C
:1080F000304604B0BDE8F041FFF786BF0F49DFE727
:10810000D5F80880404601F01BF82B6802970193D0
:108110006B6800930A49034642462046FFF799FCE4
:108120000849CDE760EA020098EA0200CAEC0200C2
:1081300076EC020037EC0200F0ED00E054EC0200B7
:1081400090EC0200B6EC020010B58468C268838827
:10815000121B934208D3C26813400268D154C3680B
:108160000133C360002010BD0420FCE78268C368AF
:108170009A420AD08268838813400268D35C0B70ED
:10818000836801338360002070470520704700003A
:108190004B1C30B5DB00044612F003009BB20DD13E
:1081A000074D2A601A44074B1A60074B1870074B9B
:1081B0001870074B1C80074B198030BD0720FCE767
:1081C0000432002000320020FC3100200C3200205C
:1081D000083200200A320020D0E90223D1E902014E
:1081E000994208BF90422CBF012000207047000038
:1081F0002DE900480C4800F030FB0C4BD3E900237C
:1082000012EB000B43F1000C094BD3E900239C4512
:1082100008BF93455846614603D21BF180704CF16C
:108220000001BDE8008800BFF02A002018320020BD
:108230003033002037B505460C460A4801A900F046
:108240003EFB60B10570446001A9064800F061FB87
:1082500018B1054800F006FB002003B030BD042033
:10826000FBE700BF1C330020F02A0020194B1B78CD
:108270002DE9304804461BB900252846BDE8308862
:108280000028F9D0037F03F0FF05002BF4D0FFF79F
:10829000AFFFD4E90223994208BF904215D3236966
:1082A00003B92377D4E90530984721690029E3D041
:1082B000237F03F0FF05002BDED0D4E9022312EB6D
:1082C000010B43F1000CC4E902BC2146024800F056
:1082D000F2FED2E720320020E8EC020013B5114B89
:1082E0001149186801900823F822104800F0D4FAC8
:1082F000044698B90E4A0F4801A900F09FF90446B8
:1083000060B901210B4800F08BFA01230A4A0948A1
:10831000194600F0F1F9094B01221A70204602B00B
:1083200010BD00BFE2EC0200243200201C3300200C
:10833000A1830200F02A0020FFFF7F0020320020EE
:108340003AB103685A614A1E5142514119610020F5
:1083500070470720704738B5037F04460D4683B940
:108360008261FFF745FF421941F10003C4E902238E
:10837000236903B1256121460020BDE83840FFF79D
:1083800059BF002038BD0023014603770120FFF7C5
:1083900051BF0000014800F060BA00BFF02A002081
:1083A0002DE9F04F85B0074600F042FA40B1594A36
:1083B000D2E9003113F1807341F10001C2E90031CB
:1083C0000021384600F043FA38B1534C236823B1FA
:1083D0002068FFF74BFF002323600121384600F09F
:1083E00036FA20B1FFF704FF4C4BC3E9000103A9A3
:1083F0004B48494D4B4C4C4E00F09BFA002845D160
:10840000DFF820A1444CDFF828B1504600F069FEA7
:108410002368002875D07BB12368D0E90201D3E935
:108420000223994208BF90422DD223681B7F1BB1C3
:108430002168504600F03FFE504600F04CFED0E967
:10844000026305460193FFF7D3FE019BB6EB0008DC
:1084500063EB0109B8F1010F79F1000344DB334EFE
:10846000B0453FD9FFF796FF82194FF496030021DC
:10847000584600F061F900283ED1236813B9384608
:1084800000F032F9256005B0BDE8F08F0378012BCC
:108490001DD05BB1022B11D14FF0000A204600F035
:1084A0001AFE002833D080F81CA0F7E741680B7F44
:1084B00023B901230B77204600F0FDFD03A91848DE
:1084C00000F062FA03A9164800F033FA96E7416813
:1084D0002B68994202D100232B60EFE7204600F081
:1084E00003FEEBE7AA68C0E70021584600F0A5F9B3
:1084F0002846FFF7BBFE01E00D28F9D000232360DA
:1085000083E7002BBFD1384600F0F2F8BBE7012328
:108510003370D3E718320020383300203033002086
:108520001C330020E8EC020020320020FFFFB400E2
:10853000F02A00200648074A03780749D35C012245
:1085400013B1043001F0E6BB0C3001F085BB00BF75
:10855000F82A00208C3300204C33002010B501464F
:108560000E48FFF7F1FD0446A8B90D480D4A0378FF
:10857000D35C63B1043001F015FC60B90A490748C7
:10858000FFF7F4FD38B9BDE81040FFF7D3BF0C305A
:1085900001F0ACFBF1E7204610BD00BF3C330020EA
:1085A000F82A00208C3300204C33002070B5EFF304
:1085B000108672B60C4A946801239CB993600B4BE9
:1085C0000B4DD3F8801029401160C3F88050D3F8C8
:1085D000841051604FF0FF32C3F88420047006B954
:1085E00062B670BD0370FAE75033002000E100E08E
:1085F000FC06FFBD084B9A6810B55AB150B9EFF3AD
:10860000108172B6054A1C6814605C6854609860FA
:1086100001B962B610BD00BF5033002000E100E098
:10862000435882B03BB10023435043580193019B10
:10863000012002B070471846FBE70000F8B5224B56
:108640004679224D43F82620214A224BF7009B1AF7
:10865000EA19DB0812791B0432B143F002001E490B
:10866000FFF7E0F90820F8BD02680C88C2F8084559
:1086700090F904208978002AA8BF02F1604CD4B296
:10868000BABF04F00F0EDFF858C00CF5614C4FEA8A
:108690004111C9B2B4BF0CF80E108CF80013520986
:1086A0000121DFF840C004F01F042F4401FA04F454
:1086B0004CF82240397145F83600084943F0030070
:1086C000FFF7B0F90020CEE7643300205C330020D0
:1086D00060EA0200A8EA020006ED020028ED0200AE
:1086E00014ED00E000E100E0036801221A60704729
:1086F000036801225A60704773B501F15005AD005F
:108700000068ADB24FF480348C400026C0F80843B6
:10871000C0F84843465101F5A8714559019522F02A
:108720007F42019D40F82120C0F844430BB1C0F8BE
:10873000044302B070BD00002DE9F74F884699460A
:108740004FF48036036808F150058E404FEA880ADE
:10875000AD00C3F84863ADB2C3F80863074603EB46
:108760000A00D3F804154FF0000B22F07F44D0F834
:108770004025C0F8401543F805B05B590093009BB5
:10878000531A23F07F43012B0BD1244B4FF480600D
:1087900043F0010398473B6843F805B05B590193E8
:1087A000019B3868D0F80455C0F84463631B23F07C
:1087B0007F43012B1AD108F5A878184B013440F8F3
:1087C000284043F001034FF4806098473B68D3F89A
:1087D00004359D4208D13B680020C3F84463C3F8C8
:1087E000046303B0BDE8F08F0D20FAE78244C9F1BD
:1087F000FF19CAF84045D0F80435E21A013A22F0D0
:108800007F4209F57F499145EED3002AE3D1013437
:10881000CAF84045D0F804259342DBE700ED02009A
:1088200003680222C3F8442309B1C3F80423704744
:108830004FF482710068FFF7F3BE4FF4803303FA00
:1088400001F10368C3F84813C3F8081370475031A7
:10885000890089B20068FFF7E3BE0368D3F8040516
:108860007047000090F9043001215A0903F01F03FA
:1088700001FA03F34032024941F82230704700BF49
:1088800000E100E0024B034A1B681068184700BF74
:10889000643300205C33002010B561B1B2FBF3F407
:1088A00003FB1424A4B244B9C0E90014846082819B
:1088B000C381204610BD0E20FCE70920FAE737B53A
:1088C00050E8013F9DB2C48925448489A54228BF50
:1088D0002D1B0489A54202BFBFF32F8F002207E0A2
:1088E000C5EA030540E80154002CE9D14FF001022C
:1088F0008DF803200193019B9DF803200B6002F08B
:10890000FF0322B10B880068184403B030BD18463D
:10891000FBE70A884B889A4209D150E8012FC2EA46
:10892000024240E80123002BF7D1012070470020CC
:10893000704737B550E8023F1FFAA3F5C488A54237
:1089400002BFBFF32F8F00220DE0C4892544848924
:10895000A54228BF2D1BC3EA054540E80254002C60
:10896000E8D14FF001028DF803200193019B9DF89F
:1089700003200B6002F0FF0322B14B88006818440B
:1089800003B030BD1846FBE70A884B889A4209D1EC
:1089900050E8022FC2EA224240E80223002BF7D11E
:1089A000012070470020704701F01F024B09012190
:1089B000914000EB830000F01DB801F01F0301227D
:1089C0009A404B0900EB8300D14300F029B84B09D2
:1089D00001F01F0150F82300C84000F0010070476B
:1089E00050E8002F0B4640E8003C9CF0000FF7D108
:1089F0001046704750E8003F43EA010240E8002C6F
:108A00009CF0000FF6D11046704750E8002F02EAA4
:108A1000010340E8003C9CF0000FF6D1104670477F
:108A200050E8003F03EA010240E8002C9CF0000FF0
:108A3000F6D11046704750E8003F03EB010240E8D2
:108A4000002C9CF0000FF6D11046704750E8003F14
:108A5000A3EB010240E8002C9CF0000FF6D1104679
:108A600070470121FFF7C6BF0021FFF7CEBF10B549
:108A700090B1D0E9012301689B1ADBB20A60013B87
:108A8000DBB2FF2B026802D10020107110BD11680B
:108A90004C1C14600B70F2E70E20F7E737B5054663
:108AA00000240DF107008DF80740FFF77FFD2A68CD
:108AB0006B68116899420ED9481E106011F8014C7C
:108AC000EB68298A01FB0434AB6811791B1ADBB20D
:108AD000994238BF13719DF80700FFF78BFD2046C0
:108AE00003B030BD37B5054600230DF107000C4635
:108AF0008DF80730FFF75AFD2A681368591C11607A
:108B0000E968641A298AB4FBF1F41C709DF8070027
:108B1000FFF770FD03B030BD826810B504462AB17E
:108B200043690168006998470023A36010BD0EB433
:108B300003B5039921B104AB01AA019300F074F8C5
:108B400002B05DF804EB03B070470A2938B504465B
:108B50000D4602D10D21FFF7F8FFA3682268591CCA
:108B6000A160D554D4E901329A4204D32046BDE82D
:108B70003840FFF7D1BF38BD2DE9F84F9946DDE900
:108B80000A431746824688460A460126BA420FD251
:108B90004E4538BF4E4613F0010B01D164B9002495
:108BA0000125B9F1010F1AD909F1FF397D43F8E721
:108BB000B2FBF7F20136E9E79B070ED5B9F1000FDA
:108BC0000CBF30252025A642EAD2013C294650465A
:108BD000FFF7BBFF002CF6D1E1E72025F3E7B8FB58
:108BE000F5F39F42E2D9DFF83C90B8FBF5F350462D
:108BF00019F8031005FB1388FFF7A7FFB5FBF7F380
:108C0000BD4207D2BBF1000F02D00CB1A64203D384
:108C1000BDE8F88F1D46E8E720215046013CFFF7EC
:108C200094FFF2E73AED02002DE9F74F05461746AB
:108C30008846002900F0308118F8011B49B92B7BC8
:108C4000002B00F02981284603B0BDE8F04FFFF764
:108C500063BF252940F0C080002698F800302D2BF6
:108C6000424608F1010823D0302B24D02B2B25D0ED
:108C700000242A2B02F1010123D13B681A1D1B6835
:108C80003A601C440A4613782E2B26D101324FF04D
:108C90000009104610F8011BA1F1300CBCF1090FBE
:108CA0001DD80A2303FB0913A3F130090246F0E79C
:108CB00046F00106D1E746F00206CEE746F004068C
:108CC000CBE711F8013CA3F130000928DBD80A22D8
:108CD00002FB0434303C0A46CBE74FF0000912F89F
:108CE000011B01F0FB0068289046F8D069290ED0DE
:108CF0004AD8582964D006D825296DD098F8003074
:108D0000002B99D19BE7632962D06429F6D13A6898
:108D1000D2F800A0111D8AEAEA723960A2EBEA7269
:108D20004FF0010B092A5BDCCB4538BFCB462CB199
:108D3000BAF1000F01DB720700D5013CB30702D581
:108D4000B9F1000F04D0F00702D4002C4ED100245A
:108D5000BAF1000F52DACAF1000A2D212846FFF7B6
:108D6000F4FE06F00302022A05D1B9F1000F02D188
:108D7000002C47D10024CDE900464B460A2251463B
:108D80002846FFF7F9FEB9E773294CD014D87029AB
:108D9000B4D13B681A1D3A60302128461C68FFF7A1
:108DA000D4FE78212846FFF7D0FE00220823CDE923
:108DB000003221461022E3E775292BD078299DD176
:108DC00039680A1D3A60CDE900464B46102228E07A
:108DD0003B681A1D19783A602846FFF7B6FE8DE702
:108DE0000A230BF1010BB2FBF3F29BE7A345AFD2D1
:108DF00020212846013CFFF7A8FEA6E77107B0D561
:108E00002B21ABE7A345B6D230212846013CFFF722
:108E10009CFEADE73968CDE900460A1D3A604B4635
:108E20000A220968ACE73B681A1D3A6016F0010691
:108E3000D3F800A020D1BAF1000F03D0504605F0BE
:108E4000F9F90646B44200D9C4B90AF1FF3A1EE066
:108E500028460136FFF779FE1AF806100029F7D1E7
:108E6000A642BFF44BAF002C3FF448AF2021284668
:108E7000013CFFF76AFEF3E70026EDE720212846D4
:108E8000013CFFF762FEDDE72846FFF75EFE1AF8B9
:108E9000011F0029F8D131E703B0BDE8F08F2DE9BB
:108EA000F047B0F806904479D2F800A09DF82080F1
:108EB00009FB04F4043C06460AEB0300A0420F46FB
:108EC00088BFA4EB030A191DC2F800A0B1FBF9F595
:108ED00009FB15114DB9A9EB0104544528BF5446AF
:108EE000BAF1000F04D1BDE8F0873668013DF1E723
:108EF00004317B1970182246B8F1000F0ED00146DC
:108F00001846AAEB040A05F017F9D145254436683E
:108F10004C464FF0000128BF5446E1E71946F0E700
:108F2000FFF7A5BDF8B546790146721E0546002338
:108F300093422D6803D30024A64202D8F8BD013322
:108F4000F6E70F682846FFF7CDFD01343946F3E711
:108F50002DE9F843068ACD1C0746FFF79FFD043E26
:108F600035440446B5FBF6F5F0B14FF48073EDB22D
:108F70008380C680013D076081464FF00008A84508
:108F800012D23846FFF78AFD064648B163790133AD
:108F9000637108F10108C9F8000007608146EEE737
:108FA0002046FFF7BFFF34462046BDE8F883012185
:108FB0000430FFF740BD10B5012104460430FFF72F
:108FC00045FD10F0FF0F04D12046BDE81040FFF72B
:108FD000A9BF10BD1FB503920022009203AAFFF79C
:108FE0005EFF05B05DF804FB1FB5039201220092FD
:108FF00003AAFFF754FF05B05DF804FB41DF70479B
:10900000064B10B500241C70054B1C60BFF35F8F2E
:109010000449054800F039F8204610BD703300209F
:10902000743300204CED02006833002007B50023A4
:109030000DF107008DF80730FFF7B8FAF1EE103A9E
:1090400023F09F03E1EE103ABFF35F8F094B4022FC
:10905000C3F884219DF80700FFF7CCFA04F01AFE4C
:1090600020B1FFF7CBFF03B05DF804FB20BF40BF8A
:1090700020BFF8E700E100E0836800225A609A60B0
:10908000C3E90422DA601A6070470B684A684360DB
:10909000934208BF0023016008BF436070474368E4
:1090A00043B10268916852680B449342436004BF25
:1090B00000234360704770B5446806460D4620683B
:1090C00018B1B3682946984718B923682B60256002
:1090D00070BD2468F3E74368186808B102681A6035
:1090E00070474368186870474368186800B970474C
:1090F000884203D102681A60012070470346006865
:10910000F4E7000010B50D49A1F59472914201D821
:1091100000200FE08B1ADB1003EBD3735B1002EB24
:10912000C30452F83330834205D802D204F1080256
:10913000ECE7606810BD2146E8E700BFA8EE02003A
:1091400008B5FFF7DFFF024B002808BF184608BD2F
:109150006AED0200054B1B68082B01BF044B186821
:10916000B0FA80F0400918BF0020704730010010AD
:109170003401001008B54FF080430022C3F80C21E1
:10918000C3F81021C3F838254FF0805203F540434F
:10919000D2F80414C3F82015D2F80814C3F8241523
:1091A000D2F80C14C3F82815D2F81014C3F82C15F3
:1091B000D2F81414C3F83015D2F81814C3F83415C3
:1091C000D2F81C14C3F84015D2F82014C3F8441583
:1091D000D2F82414C3F84815D2F82814C3F84C1553
:1091E000D2F82C14C3F85015D2F83014C3F8541523
:1091F000D2F83414C3F86015D2F83814C3F86415E3
:10920000D2F83C14C3F86815D2F84014C3F86C15B2
:10921000D2F84424C3F87025FFF79CFF10B1384BF7
:10922000384A1A60FFF796FF18B1374BFB22C3F894
:109230001825FFF78FFF48B13449354B0A681B6882
:1092400022F00F0203F00F0313430B60FFF782FFBE
:1092500018B1304B4FF400721A604FF08043D3F8CE
:109260000024D20744BF6FF00102C3F800242A4A49
:10927000D2F8883043F47003C2F88830BFF34F8FC0
:10928000BFF36F8F4FF01023D3F80022002A03DBC7
:10929000D3F80432002B2FDA204B0122C3F8042527
:1092A000D3F80024002AFBD04FF010221221C2F87C
:1092B0000012D3F80024002AFBD04FF01023122212
:1092C000C3F80422154B1A46D3F800140029FBD02A
:1092D0000021C3F80415D2F80034002BFBD0BFF3F3
:1092E0004F8F0D490E4BCA6802F4E0621343CB6006
:1092F000BFF34F8F00BFFDE70A4B0B4A1A6008BD52
:109300008C5600404881030000F00040E40E00400D
:10931000580200104096024000ED00E000E00140DD
:109320000400FA050C2B00200090D003074B1B5CB7
:109330001F2B8ABF064A4FF0A04203F01F03D2F84A
:109340000405D840C04300F0010070477DF20200E0
:1093500000030050074B1B5C1F2B86BF03F01F034D
:1093600005494FF0A041012202FA03F3C1F80C3580
:10937000704700BF7DF2020000030050074B1B5CEA
:109380001F2B86BF03F01F0305494FF0A0410122A8
:1093900002FA03F3C1F80835704700BF7DF20200FE
:1093A0000003005008B50020FFF7E8FF0120FFF799
:1093B000E5FF0220FFF7E2FF0320BDE80840FFF7CA
:1093C000DDBF08B50020FFF7C5FF0120FFF7C2FF92
:1093D0000220FFF7BFFF0320BDE80840FFF7BABF38
:1093E0000A4B185C1F288ABF094B4FF0A04300F0BE
:1093F0001F00D3F804250121814021EA02000A4020
:10940000C3F80805C3F80C25704700BF7DF20200C1
:1094100000030050014B185C704700BF79F2020056
:1094200042DF704744DF704738B5074C051E04F132
:10943000080318BF1C4623682BB11A6822605B68BA
:1094400028469847F7E738BD8033002020B9054B00
:1094500001225A70FFF7E8BF012802D1014A90703B
:10946000F8E770477833002020B9034B01225A7087
:10947000FFF7DABF704700BF7833002038B50B4CD8
:10948000237883B90A486360A3602361E36000F036
:10949000F5F8054604F0FEFB08B900F0FBF80123DF
:1094A0002370284638BD8525FBE700BF78330020B0
:1094B0004D94020037B5184CA378054603F0FF021F
:1094C0009BB110B143680120984700230DF10700BC
:1094D0008DF80730FFF76AF8E3689DF8070001335D
:1094E000E360FFF787F803B030BD0DF107008DF89A
:1094F0000720FFF75BF825B1226913463BB92A60C4
:109500002561E368002BE7D100F0DAF8E4E79D423B
:10951000F7D01B68F2E700BF7833002037B50B4C5B
:1095200000230DF107008DF80730FFF73FF8E368DF
:10953000013BE360E56815B900F0D4F8A5709DF82B
:109540000700FFF757F803B030BD00BF78330020A5
:10955000012813B509D018B103281CD002B010BDE2
:109560000F4B0122C3F88020F8E70E4C00230DF1C9
:1095700007008DF80730FFF719F823780BB9FFF7CC
:109580007DFFE3689DF807000133E3600123A370CA
:10959000FFF730F8E2E700F07DF8FFF7BFFFDDE707
:1095A00000E100E07833002008B504F073FB28B92F
:1095B0004FF08043D3F81804C0F3004008BD00000A
:1095C00037B51B4C6378054603F0FF029BB110B121
:1095D00043680020984700230DF107008DF80730FD
:1095E000FEF7E4FF63689DF8070001336360FFF74F
:1095F00001F803B030BD0DF107008DF80720FEF72C
:10960000D5FF25B1A268134653B92A60A5606368E7
:10961000002BE7D104F03EFB30B1FFF701FFE1E79B
:109620009D42F4D01B68EFE700F068F8DAE700BF6E
:109630007833002007B504F02DFB48B101A8FFF7EF
:10964000F1FE0198003018BF012003B05DF804FB63
:109650004FF08043D3F80C0400F00110A0F1011387
:1096600058425841F1E750E8002F02EA010340E870
:10967000003C9CF0000FF6D110467047044A137965
:1096800023B90121106091801846704785207047EA
:1096900090330020084B1A68D2075FBFC02283F8BE
:1096A000002301221A604FF080420123C2F81835CE
:1096B000024A1370704700BF00E100E098330020B9
:1096C000074B00221A6082B01B680193019B4FF088
:1096D00080430222C3F8042301229A6002B070473B
:1096E00004010040044B01221A604FF08042D2F87E
:1096F0001834DB03FBD470470C000040074B0022FA
:109700001A6082B01B680193019B4FF080430122D5
:10971000C3F804231A6002B0704700BF0001004084
:10972000154B07B51A687AB100221A601B680093BE
:10973000009B4FF080430122C3F808230F4B587958
:1097400010B95A711B6898470D4B1A6882B10022F4
:109750001A601B680193019B4FF080430222C3F8FB
:109760000823064B1B68012003B05DF804EB184783
:1097700003B05DF804FB00BF0001004090330020FF
:109780000401004000F1804000F5C040002382B099
:10979000036003680193019B02B0704703681F2BAD
:1097A00083BF03F01F03036001484FF0A0407047E0
:1097B0000003005007B5019001A8FFF7EFFF019BE0
:1097C00000EB8300D0F8002722F44032C0F80027D5
:1097D000D0F8003743EA0143C0F8003703B05DF822
:1097E00004FB0000054B4FF0FF32072843F8202010
:1097F00084BF1B1883F85820704700BF9C3300209B
:1098000010B5174C94F86A3043BB04F13003302193
:10981000FF22013911F0FF0103F8012BF9D1C8B281
:10982000FFF7E0FF01310C29F9D1062200210D4894
:1098300004F0ABFC0C4BC02283F8062340221A60D4
:109840004FF4BE70FFF79EFF084B4FF00042C3F885
:109850000423012384F86A30002010BD0820FCE7AF
:109860009C3300200034002000E100E00060004054
:10987000034B93F86A00003018BF0120704700BF07
:109880009C330020F7B53B4E3318054693F9303032
:10989000002B6CDA8B78C3F34003002B0BBF08243A
:1098A00000240C200820844202D1042003B0F0BD23
:1098B00056F82470013743D1701946F8242080F8F7
:1098C000304013B9331983F858508B785A0717D49E
:1098D000D80737D501A80195FFF760FF019B00EB82
:1098E0008300D0F8003723F00203C0F80037224885
:1098F000EA0805F007070123BB40875C3B4383541C
:1099000088780A7810F0020028D0A40004F180447E
:1099100004F5C0442D02D4F8103523F44F3323F45A
:109920004073C4F810351204D4F8103505F47C5592
:1099300002F4403215431D43C4F810550020B5E72A
:109940000134B0E701A84A780195FFF727FF019B92
:1099500003F5E073920040F82320C8E7083C344444
:1099600094F8605045EA821284F860209EE708204F
:109970009CE700BF9C3300200034002073B5224CCC
:109980002518064695F93020072A19DD224492F859
:1099900058309B09032B0FD1019001A8FFF7FEFE61
:1099A000019AD0F81035D340DB0707D402213046A6
:1099B000FFF700FF02B070BD012BF7D00321F6E7DF
:1099C000D3B2072BF6D8930003F1804303F5C043CD
:1099D000D3F8100540F00100C3F8100502F1400073
:1099E000800080B2FFF7CEFE0029E3D095F9303039
:1099F00054F82330002BDDD0012303FA02F2034B8D
:109A0000C3F80423D6E700BF9C3300200060004069
:109A100007B5019001A8FFF7C1FE019BD0F8100522
:109A2000D84000F0010003B05DF804FB2DE9F04FD1
:109A3000002489B0CDE90244624D4FF480720121C7
:109A400002F1804303F5C04390B21B68012B06D19D
:109A5000D5F804330B4202D0FFF794FE0C430432D6
:109A6000B2F5907F4FEA4101EAD1574B1B68012BB9
:109A70000ED14FF4BE70FFF785FE4FF0A04344F0C7
:109A80000044D3F810350293504BD3F810350393AC
:109A900014F0FF0F1AD04E4F00250126344210D08B
:109AA000AB0003F1804303F5C043D3F81005D3F8AE
:109AB000101557F8253023B1C1F30141C0F305203B
:109AC00098470135082D4FEA4606E7D1002C75DA94
:109AD0000DF1100800230493C8F804304FF0FF3351
:109AE000CDE90633DFF8E8A0DFF8E89000273D462F
:109AF00019F9014B631C48D0E4B2012324F0C006DD
:109B000004F0070203FA02F2F00808AB191811F882
:109B1000083C134239D00AEB0603A40993F930300C
:109B20005AF823B0BBF1000F08D1032C2DD118F83F
:109B300000C04CEA020C08F800C001E0032CF6D08B
:109B400001A80196FFF72AFE019B11F8181C03F5E6
:109B5000E07C114250F82C00C0F3014005D00228EF
:109B600013D1032C0BD1214604E003280DD1032C83
:109B700005D102213046FFF71DFE0135EDB2BBF1E4
:109B8000000F02D021463046D8470137042FAFD10D
:109B9000A5B14FF0A0430299D3F8102503F5407307
:109BA0009142D3F8103502D10399994206D002921E
:109BB0000393049A059B0692079395E709B0BDE8C5
:109BC000F08F00BF006000407C6100400003005047
:109BD0009C330020FC330020014B1B68184700BF5A
:109BE000083400200E4B984237B50D4602D00020B5
:109BF00003B030BD00230DF107008DF80730FEF7EC
:109C0000D5FC084B1C7914B901221D601A719DF80E
:109C10000700FEF7EFFC002CE9D01120E8E700BFB9
:109C200000200040083400200023435082B04358F5
:109C30000193019B02B070470A4610B54FF48E7134
:109C4000FFF7F2FF136A9168C95C136A013313626C
:109C5000C0F81C1510BD00002DE9F84F224F067901
:109C60004FF02C0909FB067480466569002D38D138
:109C70006261A16025624FF48E71006884F82850FB
:109C8000FFF7D2FFD8F80000012383602146FFF7D9
:109C9000D3FF6368A1469BB9D8F800A0D4F814B0EC
:109CA000236A9B4512D8D8F80020D2F81C31002B2B
:109CB000FBD00123D3602C2303FB067300225A61DF
:109CC0002846BDE8F88F94F8283043B9DAF81C31FB
:109CD000002BF8D049465046FFF7AEFFE0E70F25CE
:109CE000E9E71125ECE700BF103400200379044AAE
:109CF0002C2101FB03235869003018BF0120704755
:109D0000103400200023435082B043580193019B3C
:109D100002B0704701F06043B3F1005F2DE9F041FC
:109D2000074638D11E4B0679242505FB0635984693
:109D30006C69002C31D16A61A96000684FF49071A0
:109D4000FFF7E0FF4FF4AC713868FFF7DBFF3B68CB
:109D50006A69A968C3F84415C3F8482501229A60C6
:109D60006A68AAB9D3F82021D3F858411AB9002C4F
:109D7000F8D00F2407E0002CFBD10122DA60D3F8E1
:109D80005821002AFBD0242303FB0686002373619D
:109D90002046BDE8F0811024FAE71124F8E700BF5F
:109DA0003C3400200379044A242101FB0323586931
:109DB000003018BF012070473C3400207FB5037885
:109DC0008DF804304368029383688DF80C30C368C3
:109DD000049303698DF81430054A064B01A853F823
:109DE000213052F82110984707B05DF804FB00BFFE
:109DF0006034002070340020F0B50646174616F88F
:109E000004CB124A42F82C70114A42F82C30114B04
:109E10000D460FCB85B06C4684E80F002B6800938D
:109E20002B798DF805306B798DF80630AB6802938D
:109E3000002FAB89ADF80C30074A634608BF3A469D
:109E40002146304600F056F805B0F0BD70340020D1
:109E500060340020A4F20200BD9D02001F2886BFCE
:109E600000F01F00044A4FF0A042012303FA00F063
:109E7000C2F80805704700BF000300501F2886BFC6
:109E800000F01F00044A4FF0A042012303FA00F043
:109E9000C2F80C05704700BF00030050114BD3F807
:109EA000183107B5D3B1104B104900221A60C87F92
:109EB0001B680193FF28019B03D08B7F5BB1FFF7E9
:109EC000DDFF00234B770B72D1E90031084803B066
:109ED0005DF804EB1847FFF7C1FFF2E703B05DF848
:109EE00004FB00BF003000401831004080340020E7
:109EF000883400202DE9F74F0679724F01934FF017
:109F0000240909FB06F907EB090A93469AF81C2075
:109F100080460C46002A40F0D18005686A492846F0
:109F2000FFF760FE0146002840F0CA80019BCAF896
:109F30000430237B47F809B0012B207800F2AC8075
:109F4000FFF79CFF23781F2B86BF03F01F035F4A98
:109F50004FF0A04203F5E073012042F8230094F88B
:109F60000190B9F1FF0F00F09A804846FFF786FF95
:109F7000B9F11F0F8BBF09F01F034B46534A4FF037
:109F8000A04203F5E073032042F82300A378FF2BDF
:109F900000F088801F2B8BBF03F01F021A464B482E
:109FA0004FF0A04002F5E0724FF0040C40F822C0E0
:109FB0009A46242202FB067282F82030E078D0779D
:109FC000FF2816D02379002B6FD0FFF757FFE378D7
:109FD0001F2B86BF03F01F033C4A4FF0A04203F53E
:109FE000E073032042F82300242303FB0673227945
:109FF0009A772378C5F80835A368C5F80C95C5F895
:10A0000010A5C5F82435637B227B003318BF0123DC
:10A01000022A4DD0032A4ED0012A01D143F0020377
:10A02000C5F85435A379C5F8C03524237343FB58CC
:10A0300013B14022C5F804230722C5F8002503B355
:10A04000D8F8003062791B0B58B20028A8BF00F185
:10A050006044DBB2B8BF03F00F054FEA4212B4BF51
:10A060001B4C04F56144D2B2B4BF625584F800239E
:10A0700003F01F03012202FA03F34009154A42F8D4
:10A080002030242303FB06760023737701233377E4
:10A09000084603B0BDE8F08FFFF7E0FE52E74FF04F
:10A0A000FF3973E74FF0FF3A83E7FFF7D7FE8EE7FC
:10A0B00043F00403B4E743F00603B1E70821E7E700
:10A0C0001121E5E7803400209D9E0200000300502E
:10A0D00014ED00E000E100E02DE9F3410579424E86
:10A0E00024236B431446F2180F46517F8046002903
:10A0F00078D1F35823B114F0140F04BF0123537720
:10A1000097E80F004FF0240C0CFB056C0CF10C0EC3
:10A110008EE80F009CF81F00FF2804D09CF81E302A
:10A12000C3B1FFF79BFE396821B101F06043B3F181
:10A13000005F06D1BA6882B102F06043B3F1005FFC
:10A140000BD0242303FB056500236B77102002B09E
:10A15000BDE8F081FFF792FEE5E7D8F800307868B7
:10A16000C3F84415C3F84805F968C3F8342500223C
:10A17000C3F83815C3F81821D3F818210192019AB1
:10A1800014F0010218BF0122C3F8502514F0020296
:10A1900018BF0122C3F8402522075CBF01221A61C3
:10A1A00024226A43B25892B9D3F81821002AFBD06E
:10A1B000242303FB0565E87FFF2803D0AC7F1CB197
:10A1C000FFF75CFE0020C2E7FFF748FEFAE714F055
:10A1D00004004FF0400202D0C3F80823F2E7C3F8AE
:10A1E0000423B4E71120B2E78034002000F180435B
:10A1F00082B01A68002A14BF0120002004D0002277
:10A200001A601B680193019B02B07047014B1868EC
:10A21000704700BFA4340020014B1868704700BF8E
:10A22000AC3400200E4B1A78C2B902784FF080414E
:10A23000C2F34002C1F88025027802F00102C1F8A1
:10A240007825084A1168C9075FBFC02182F800134A
:10A250000121116001221A7000207047852070478B
:10A26000B034002000E100E0014B02681A60704742
:10A27000AC3400204FF080434FF46072C3F80423E5
:10A2800070474FF080434FF46072C3F80823704763
:10A29000014B00221A607047AC3400204FF080431D
:10A2A00010B5D3F80443620707D54FF48470FFF765
:10A2B0009DFF10B11E4B1B689847A30608D54FF4AD
:10A2C0008A70FFF793FF18B11A4B00201B6898475C
:10A2D000600608D54FF48C70FFF788FF18B1154B56
:10A2E00001201B689847210608D54FF48E70FFF7B0
:10A2F0007DFF18B1104B00201B689847E20508D578
:10A300004FF49070FFF772FF18B10B4B01201B68E0
:10A310009847A3050AD54FF49270FFF767FF28B15D
:10A32000054B02201B68BDE81040184710BD00BF58
:10A33000A4340020A8340020AC34002008B5FFF776
:10A34000ADFFBDE80840FFF7EBB90000044A916893
:10A350009368CB1A23F07F438342F9D3704700BF41
:10A3600010E000E0034B044A1B68B3FBF2F35843D0
:10A37000FFF7ECBF0C2B002040420F0000F18040A3
:10A3800000F51C3001230360BFF36F8FBFF34F8FC5
:10A3900070470000054B1B68082B01BF044B186871
:10A3A000B0FA80F0400918BF00207047300100105B
:10A3B00034010010054B10F0800FA3F1900208BF8C
:10A3C000134600F00F0003EB001070474C350020DF
:10A3D00010F0800F14BF0023102300F00F0018446A
:10A3E00070470000054B1B68082B02BF044B00227E
:10A3F0001A60044B00221A70704700BF3001001031
:10A400001C7C0240B234002007B5084A00231370B8
:10A41000074A0193137001238DF80430054B01A8FE
:10A420001B68984703B05DF804FB00BFB1340020FF
:10A43000E0350020DC3500207047000007B5002320
:10A440008DF804300B4BD3F82025ADF80620D3F857
:10A45000C034094A002B13680CBF4FF480714FF0D1
:10A4600001210B431360054B01A81B68984703B0FB
:10A470005DF804FB00700240B8340020DC35002099
:10A4800008B50146FFF7AEFFFFF794FF837B032B70
:10A490000AD10846FFF79CFF01218140C9430448C7
:10A4A000BDE80840FFF7DFB80368002BF1D008BD16
:10A4B000B43400208720FFF7E3BF8620FFF7E0BF1A
:10A4C0008520FFF7DDBF8420FFF7DABF8320FFF789
:10A4D000D7BF8220FFF7D4BF8120FFF7D1BF000094
:10A4E00008B5FFF77FFF084B93F89E20032A06D19B
:10A4F0006FF001010548BDE80840FFF7B4B8D3F894
:10A500009030002BF4D008BDBC340020B4340020BF
:10A51000FFF7E6BF07B5FFF765FF0D4B93F88E20F9
:10A52000032A11D0D3F8803073B96FF080710948D5
:10A53000FFF799F806238DF804300823ADF80630AC
:10A54000054B01A81B68984703B05DF804FB00BFEA
:10A55000BC340020B4340020DC35002007B5FFF700
:10A5600041FF104B93F81E21032A07D16FF480712D
:10A570000D48FFF778F803B05DF804FBD3F810310D
:10A58000002BF8D16FF480710748FFF76CF80623B1
:10A590008DF804308823ADF80630044B01A81B6801
:10A5A0009847E8E7BC340020B4340020DC350020B4
:10A5B000204B13B5D3F80044C3F80044BFF36F8FAA
:10A5C000BFF34F8FBFF36F8FBFF34F8FE1050BD5F5
:10A5D000194B01221A700023019302238DF80430D5
:10A5E000164B01A81B689847A2050AD5124A0023FA
:10A5F0000193137003238DF80430104B01A81B68DE
:10A600009847630513D50C4B1A7882B100221A7053
:10A61000084B0121C3F808155820FFF7AFFE0423AB
:10A6200001928DF80430054B01A81B68984702B0D1
:10A6300010BD00BF00700240B1340020DC350020A6
:10A64000012273B502FA01F51E491F4E0B6810F086
:10A65000800F43EA050304460B6027D000F00F0289
:10A660001A4B33F8123003F1804303F51C331A6898
:10A670004AB100221A60BFF36F8FBFF34F8F80285B
:10A6800011D0FFF7FDFE316829400AD106238DF86D
:10A6900004308DF806408DF807100D4B01A81B689B
:10A6A000984702B070BDFFF71BFFECE733681D420F
:10A6B000F7D106238DF804308DF806008DF80720B9
:10A6C000EBE700BFB8340020B4340020BAF2020037
:10A6D000DC35002008B5054B1A781046FFF778FEE8
:10A6E000BDE8084001461046FFF7AABFE03500204C
:10A6F0002DE9F04F7A4B87B01A780193002A40F089
:10A700008380DFF808A2DFF8DCB1764BDAF80010BE
:10A710001D68294078D011F0012578D095FAA5F56B
:10A72000B5FA85F50F2D86BFA5F11004E4B245F00A
:10A7300080042046FFF73EFE4FFA84F904F0080338
:10A74000B9F1000F06460093828965DAD0E900313D
:10A7500004A8984700B93060634B1B68082B02BF00
:10A76000624B82221A60019B059A0498012119709C
:10A77000A940B368DBF80050134425EA0101B9F1A0
:10A78000000FCBF80010B36004F00F040099584B91
:10A790007CDA002972D0C3F8A006C3F8A426FFF71C
:10A7A000F9FDA30024B26500524A534900287DD028
:10A7B000B9F1000FB5BF9146894604242824A94465
:10A7C0004E4E4F4D1C4400272F60BFF36F8FBFF3D9
:10A7D0004F8F2046FFF7D2FD0220FFF7C3FD2B6805
:10A7E000002BF1D01E20FFF7BDFD33689B065BD523
:10A7F0000120FFF7B7FDB9F8003003F1804303F5FE
:10A800001C331B68002BDFD007B0BDE8F08F91FA36
:10A81000A1F1B1FA81F585E7009B35493BB3D1F849
:10A82000C08418F4803F18BF4FF000084346716899
:10A83000376804A8B847049B002B8BD0059B434581
:10A8400088D201214FF00208A94086F80E80C94342
:10A850005046FEF708FF06238DF80C30294B8DF883
:10A860000E408DF80F801B6803A898474DE704F051
:10A870000F0303F5947351F82380D7E7142101FBEC
:10A880000433C3F80006C3F8042688E721B1C3F8EF
:10A89000A007C3F8A42782E7142101FB0433C3F8FF
:10A8A0000007C3F804277AE702209CE7B9F1000FFC
:10A8B000B4BF042028201844FFF760FD12EA2909DC
:10A8C00038BF8946104939F8143003F1804303F545
:10A8D0001C331A68002A97D10A68002AF9D093E736
:10A8E000B2340020B8340020300100101C7C02403B
:10A8F00000700240BAF20200CCF20200747402400E
:10A9000004710240DC35002000710240B4340020A4
:10A9100038B5174BD3F86C44C3F86C44BFF36F8F52
:10A92000BFF34F8FFFF736FD38B1124A136823F09B
:10A93000011103F001130C43136001251CB9BDE89C
:10A940003840FFF7D5BE94FAA4F3B3FA83F30F2B84
:10A95000D9B2C8BFA1F1100005FA03F3CCBFC0B251
:10A9600041F0800024EA0304FFF76AFEE6E700BF37
:10A9700000700240E435002037B50446FFF732FD91
:10A98000FFF718FD837B032B0CD12046FFF720FD3A
:10A9900001218140C9430F48FEF765FEFFF7A8FE7D
:10A9A00003B030BD0568002DF8D12046FFF710FD3B
:10A9B00001218140C9430748FEF755FE06238DF863
:10A9C0000430054B8DF806408DF807501B6801A830
:10A9D0009847E3E7B4340020DC3500200720FFF778
:10A9E000CBBF0620FFF7C8BF0520FFF7C5BF042077
:10A9F000FFF7C2BF0320FFF7BFBF0220FFF7BCBFB6
:10AA00000120FFF7B9BF08B5FFF7C4FC58B1EFF359
:10AA1000108272B64C20FFF7B1FC4C20FFF7AEFC61
:10AA200082F3108808BD4C20BDE80840FFF7A6BCA3
:10AA300013B5FFF7D7FC0F4B9A7B032A06D16FF4AF
:10AA400080310D48FEF70FFE02B010BD1C6874B9CE
:10AA50006FF480310848FEF706FE06238DF80430B7
:10AA6000064BADF806401B6801A89847ECE7FFF7D6
:10AA7000CAFFE9E7BC340020B4340020DC350020F4
:10AA8000F7B50446FFF786FC02462046FFF7A0FC18
:10AA900001258540ED431B4ED2B100270DF1070083
:10AAA0008DF8077004F00F04FDF780FD3068164B39
:10AAB0006400284004F2C5743060043343F8044C49
:10AAC0001F601B689DF80700FDF794FD03B0F0BD03
:10AAD0000DF107008DF80720FDF768FD306814F0D0
:10AAE000080200EA05003060ECD104F00F0404F520
:10AAF0009474064B43F82420BFF36F8FBFF34F8F3E
:10AB0000E0E700BFB8340020007802400070024047
:10AB1000F7B5002304460DF103008DF80330FDF76F
:10AB200045FD2046FFF746FC05462046FFF750FC52
:10AB3000012314F0800F03FA00F0294917D10B68A4
:10AB400030EA03020AD02046FFF79AFF0323AB73D3
:10AB50009DF80300FDF74EFD03B0F0BD2A60C04331
:10AB6000204A03400B60136803401360EEE723079D
:10AB700011D4802C1C4E1D4B29D004F00F0202F280
:10AB8000DA32520032601A681E68D2B242F0020213
:10AB900032431A601B68134E0A68336862EA03077F
:10ABA0000742D5D022EA0002184300230A602B6036
:10ABB0000323AB738DF807300D4B306006228DF800
:10ABC00004208DF806401B6801A89847C0E740F2B2
:10ABD000B47232601A681E68D2B242F00402D7E73B
:10ABE000B4340020B83400200078024004780240D9
:10ABF000DC350020F7B5174B174CD3F88054236889
:10AC0000164EDA43164B37781B6892B238461A4311
:10AC1000FFF7DEFB012303FA00F0104202D03846B2
:10AC2000FFF776FF6FF0011105F080050C483570D5
:10AC3000FEF719FD236843F001032360002301930D
:10AC400005238DF80430074B01A81B68984703B013
:10AC5000F0BD00BF00700240B8340020E035002095
:10AC6000B4340020DC350020554B2DE9F041D3F8F9
:10AC70000453002229461646012400297CD1FFF7FF
:10AC800089FB002869D04F4B1B78002B65D19602B9
:10AC900063D54D494C4E40F2A9730B604B4B1C6879
:10ACA00014F0FF041CBF1868044040F2AA7008604A
:10ACB000186810F0FF001CBF1968084040F2AB7123
:10ACC0003160196811F0FF01B4461CBF1E683140A5
:10ACD00040F2AC76CCF800601E6834403C4E08D0A0
:10ACE00037682743376040F2A977CCF800701C60C2
:10ACF0001C68354F40F2AD743C601C68204008D0A1
:10AD0000346844EA0044346040F2AA743C6018603D
:10AD100018682D4840F2AE740460186801400DD0E8
:10AD2000CC0748BF42F40002C806274840F2AB7483
:10AD3000046019601B6848BF42F00102336833F0B9
:10AD400001111CBF05F08070024313F0011F04D0F5
:10AD50006B0544BF316042F480621E4F02F400066E
:10AD600022F400044FF00108E4B9FFF7C1FC2EB350
:10AD7000BDE8F041FFF73EBF91FAA1F31648B3FAE0
:10AD800083F39F00384407683FB10660BFF36F8FBD
:10AD9000BFF34F8F04FA03F0024304FA03F321EAEE
:10ADA00003016AE794FAA4F5B5FA85F557F825305A
:10ADB00008FA05F5984724EA0504D5E7BDE8F081CF
:10ADC00000700240B2340020007802400478024053
:10ADD000E4350020E0F202000071024036DF7047E7
:10ADE0004DDF70474EDF70474FDF704750DF7047D1
:10ADF00010B50446FFF7F6FF40B92046FFF7F0FF15
:10AE000020B92046BDE81040FFF7EEBF10BD012875
:10AE100010B5044602D1FFF7F9F98047FFF7FCF9B6
:10AE2000034668B10A2C07D00B2C07D0092C07D198
:10AE30000220BDE8104018470020FAE70120F8E79B
:10AE400010BD0000012813B5044603D003281AD012
:10AE500002B010BD00230DF107008DF80730FDF79B
:10AE6000A5FBFFF7D3F910B12046FFF7B7FF9DF818
:10AE70000700FDF7BFFBFFF7CFF90028E8D001205E
:10AE8000FFF7B6FFE4E70C4BC02283F80023012252
:10AE90001A60FFF7BBF920B14FF080430422C3F8DA
:10AEA0000423FFF7B9F90028D2D04FF080434FF4C4
:10AEB0006072C3F80423CBE700E100E038B50A4C28
:10AEC0002378054663B902F0E5FE58B90748002D1E
:10AED00018BF2846FFF7A6F908B90123237038BD2B
:10AEE0008520FCE70820FAE7E835002049F3020056
:10AEF00013B500240DF107008DF80740FDF756FB50
:10AF000002F0C8FE50B12046FFF772FF9DF807001F
:10AF1000FDF770FBFFF7BCF902B010BDFFF7B1F908
:10AF2000F4E713B50446FFF7E3FF2046FFF79CF96B
:10AF300002F0B0FE0446A0B10120FFF759FF04461D
:10AF400060B901A8FFF752FF044638B9019BDB073F
:10AF500004D5FFF761F9034620469847204602B022
:10AF600010BDFFF787F9F9E708B5094B1B7853B116
:10AF70000020FEF703FA0120FEF700FA0320BDE8E7
:10AF80000840FEF7FBB9BDE80840FEF70BBA00BF6A
:10AF9000E9350020F8B57B4C237805461BB100232A
:10AFA0002370FFF7E1FF172D00F28880DFE805F03E
:10AFB0000C17174354657680888D888D959A9A9AD8
:10AFC0009A9AC4C9D1D9E4E4FFF7CEFF6E48FDF7E1
:10AFD000DAF96E4B002204461A702046F8BD0020B4
:10AFE000FEF7A4F9F8B10020FEF7C8F9022D0CBF56
:10AFF0004FF4E1614FF47A61644B1D704FF40040EF
:10B000004FF47A740025E0FB01454FF4FA62002307
:10B010002046294602F020FF002201465A48BDE89A
:10B02000F840FDF798B9FEF795F9022D0CBFC8213D
:10B030004FF4C871E0E70020FEF778F940B1002036
:10B04000FEF79CF94FF44871504B03221A70D5E774
:10B05000FEF780F9C821F7E70020FEF767F938B15D
:10B060000020FEF78BF94FF47A61484B0422EDE79C
:10B07000FEF770F94FF4C871F7E70020FEF756F9B4
:10B0800048B10020FEF77AF9404B05221A7040F6CD
:10B09000CD410022C2E7FEF75DF9F5E70020FEF79B
:10B0A0009FF93A4B06221A70002240F26661B5E71A
:10B0B0000020FEF74FF9354B07221A7000248CE769
:10B0C00001202070FEF78CF9EEE701202070FEF7DA
:10B0D00087F900224FF40051A0E7FEF772F92B4BDD
:10B0E0000C22EAE72A482B4EFDF74DF9D5F1110560
:10B0F00004461CD0D8B9012D13D0C8235D434FF4AA
:10B1000000474FF47A7000214FF4FA620023C7FB26
:10B11000050102F0A1FE224601461D48FDF71BF97C
:10B1200004460220FEF716F90123337055E702208A
:10B13000FEF724F90023F8E7FFF716FF134B12225E
:10B14000BBE7FFF711FF0020FEF704F90F4B1322B6
:10B15000B3E7FFF709FF0120FEF7FCF80B4B1422C1
:10B16000ABE7FFF701FF0020FEF7F4F80120FEF740
:10B17000F1F8064B1522A0E7FEF723F9034B1D70EB
:10B180009CE700BF403600201036002041360020EA
:10B19000F0350020E9350020002910B514BF032444
:10B1A0000024FEF737F91F288ABF0A4B4FF0A0434F
:10B1B00000F01F0003EB8000D0F8002722F440329B
:10B1C000C0F80027D0F8003743EA0443C0F800373E
:10B1D000002010BD00030050044B1B6813F0010356
:10B1E00001D0FFF7D7BE1846704700BF3C3600209D
:10B1F000032813D8012A0BD1012908D100F10E022E
:10B20000D2B200EB40000C4B1A54002070470022D1
:10B210000129F6D04BB24BB1022901D0072070476B
:10B22000054B00EB400018444270EEE7024900EB8A
:10B23000400008448270E8E730360020032802D836
:10B240000121FFF7A9BF0620704708B5012202219E
:10B250000020FFF7CDFF08B1072810D107220221F7
:10B260000120FFF7C5FF08B1072808D100210A22F5
:10B270000846FFF7BDFF10B1072808BF002008BD32
:10B280000388102B10B502D0112B1ED010BD1A4C04
:10B290002168B1B901220846FFF7AAFF08B10728C3
:10B2A00024D1072202210120FFF7A2FF08B10728BD
:10B2B0001CD1042202210020FFF79AFF08B10728C1
:10B2C00014D1236801332360E0E70B4A1368013B84
:10B2D0001360002BDAD1FFF7B8FF0028D6D0074B58
:10B2E0001B68002BD2D0BDE810401847034B1B68E9
:10B2F000002BE6D09847E4E748360020443600208B
:10B3000008B50020FFF79AFF08B1062806D10120F2
:10B31000FFF794FF10B1062808BF002008BD76DFB4
:10B3200070477ADF70477CDF70477FDF70478FDFC1
:10B330007047B1DF704733DF7047FCF757BE08B581
:10B340000020FFF749FF08B1FCF750FEFFF7D8FFD8
:10B3500008B1FCF74BFEFFF7EEFF18B1BDE808405F
:10B36000FCF744BE08BD00000D4B4A881B889A427A
:10B3700014D10A8840F677239A420FD18B88094A64
:10B3800009480A49033B9BB21380094A801AC00846
:10B3900000041A4640F00300FCF751BB704700BFA1
:10B3A000162B0020142B002098EA020063F3020001
:10B3B00060EA020008B503784BB9054B3B211888B9
:10B3C000FFF7ADFF18B1BDE80840FCF70FBE08BDA0
:10B3D000162B002008B548B103280BD10220FFF737
:10B3E000FBFE38B1BDE80840FCF700BEBDE80840F0
:10B3F000FFF7A5BF08BDFCF7F9BD00001F2886BFF9
:10B4000000F01F00044A4FF0A042012303FA00F0AD
:10B41000C2F80805704700BF000300501F2886BF10
:10B4200000F01F00044A4FF0A042012303FA00F08D
:10B43000C2F80C05704700BF000300500388212BA1
:10B4400013B5044627D012D8112B1BD0132B2AD0AA
:10B45000102B1ED11B20FFF7D1FF1B4BA1881B48CF
:10B46000198002F025FAA0B1FCF7C0FD11E0522BC3
:10B4700021D0562B01D03B2B0BD11321A088FFF7F5
:10B480004EFFF0E71B20FFF7C9FF0F4B4FF6FF728F
:10B490001A8002B010BD002301A98088ADF80430E5
:10B4A000FFF745FFDFE7084800231A46852100889B
:10B4B000FFF73BFFD7E7044800231A4619460088E8
:10B4C000FFF737FFCFE700BF162B0020483B0020D7
:10B4D00010B504780146ACBB8A8A0B69A24209D830
:10B4E000134413F8013C0D2B2CD10A20FDF736F83C
:10B4F0001128F9E71B78312B08D11B20FFF78EFFAD
:10B500001A20FFF78BFF1E20FFF778FF0B691B78CF
:10B51000322B08D11B20FFF771FF1E20FFF77EFFA3
:10B520001A20FFF76BFF0B691B78332B08D11E2005
:10B53000FFF764FF1A20FFF771FF1B20FFF75EFF84
:10B540000134C9E710BD000008B50849084802F0F9
:10B550009BF808B1FCF74AFDF721054802F0A8F86E
:10B5600018B1BDE80840FCF741BD08BD69B3020051
:10B57000303B002000B5ADB000F034FE4FF4804108
:10B580000020FCF78BF808B1FCF730FDFBF7BCFF9F
:10B59000FCF7A4FE08B1FCF729FDFDF731FD08B169
:10B5A000FCF724FD02F03EFB08B1FCF71FFD002371
:10B5B00001A90120019302F0BDFB08B1FCF716FDC3
:10B5C00001A802F01FFC08B1FCF710FD4C4A0A214B
:10B5D0000820FCF7DDFD08B1FCF708FD1123494800
:10B5E0008DF8003002F026FE464982B26846FFF729
:10B5F0009AFE08B1FCF7FAFC0021082201A802F02B
:10B60000C4FD41494FF0C87301A8CDE90113FFF70C
:10B6100088FE08B1FCF7EAFCFFF796FF3B4B3C487D
:10B62000019301A902F032F908B1FCF7DFFC002117
:10B630000422684602F0A9FD364B3748009369465C
:10B6400002F030FA08B1FCF7D1FCAC22002101A8CD
:10B6500002F09BFD02238DF804304FF4C0632F4AA3
:10B66000ADF806300123ADF8503015928DF88030DA
:10B6700040220023CDE9232301A9294B29482A93FD
:10B6800001F02DFB08B1FCF7B1FC0121254801F0C8
:10B6900023FB1C22002101A802F077FD00234FF4B8
:10B6A000A032CDE90132ADF812304FF4F0228DF81E
:10B6B00014301D4B0392069303221C4B8DF810206F
:10B6C00001A8079301F0C8FD08B1FCF78FFC032126
:10B6D000144801F07BFB08B1FCF788FC00F09EFDEC
:10B6E00000F0B6F800F044FA00F012FA00F08EFE16
:10B6F00000F042FE00F0E6FD2DB05DF804FB00BF57
:10B700004C36002056F3020010003C003BB3020010
:10B71000483B0020D1B40200182B0020102B002041
:10B72000D5B30200FC360020B5B30200F7B3020027
:10B7300038B500F061F92420FFF770FE21200B4D91
:10B74000FFF76CFE4FF47A7445F001054FF47A4030
:10B75000A847013CFAD14FF0A043054AC3F814278B
:10B760004FF080430122C3F8002538BD50F302009A
:10B770000C00030008B500F04BF94FF080430122A4
:10B78000C3F878254FF0A043D3F8102592060CD4C7
:10B79000D3F81035DB0508D4FFF7ECFEFBF7D8FF34
:10B7A0000028FBD1FDF742FCF8E7FFF7C1FFF5E702
:10B7B00001290DD1074B1A78013252B2052AC8BFB0
:10B7C00005221A70044A93F90000117800F050BE67
:10B7D000704700BF553B0020783B002008B5124B56
:10B7E000124A197851B1117841B900F005F94FF0BA
:10B7F000A0434FF00062C3F8082508BD117841B19D
:10B80000197831B900F0F8F84FF0A0434FF08042BA
:10B81000F1E71278002AF0D01B78002BEDD0BDE8BC
:10B820000840FFF785BF00BF7A3B0020543B002053
:10B8300008B5054A05480021FCF782FD18B1BDE8AE
:10B840000840FCF7D3BB08BDDDB7020080F302005F
:10B8500008B5FFF7EDFF1E2203210748FCF75AFB4E
:10B8600008B1FCF7C3FBFCF7ABFB18B1BDE808401F
:10B87000FCF7BCBB08BD00BF3C2B002010B5084C3A
:10B88000217801F0FF0239B94FF480410548FCF7F7
:10B8900062FD08B1FCF7AAFB0123237010BD00BFB5
:10B8A000563B0020583B002008B5064B06480022B6
:10B8B0001A70FCF768FD18B1BDE80840FCF796BBAC
:10B8C00008BD00BF563B0020583B0020012908B5A9
:10B8D00013D10E4B1970FFF7D1FF0D4B1A78013AB7
:10B8E00052B2002AB8BF00221A700A4A93F9000027
:10B8F0001178BDE8084000F0BBBD29B9034B1970B1
:10B90000BDE80840FFF7D0BF08BD00BF7A3B00206C
:10B91000553B0020783B00200129F8B51DD1134B81
:10B92000134D1970FFF7AAFF124B134E1A782C789B
:10B9300034700132D2B21C460027022A1A702F70CE
:10B9400088BF1F7000F080FC227896F9001095F9EE
:10B950000000BDE8F84000F02BBE29B9034B197078
:10B96000BDE8F840FFF7A0BFF8BD00BF543B002082
:10B97000553B0020783B0020793B00201F2886BFE4
:10B9800000F01F00044B4FF0A04300F5E070890069
:10B9900043F82010704700BF0003005038B5054D34
:10B9A000044645F001054FF47A40A847013CFAD11E
:10B9B00038BD00BF90F302001F2886BF00F01F00B3
:10B9C000044B4FF0A04300F5E070032243F8202021
:10B9D000704700BF000300501F2886BF00F01F0003
:10B9E000044A4FF0A042012303FA00F0C2F80C050C
:10B9F000704700BF0003005008B51B20FFF7ECFFA5
:10BA00001A20FFF7E9FF1E20BDE80840FFF7E4BF5A
:10BA100008B52420FFF7D0FF2520FFF7CDFF212018
:10BA2000FFF7CAFF0B20FFF7C7FF1B20FFF7C4FF7C
:10BA30001A20FFF7C1FF1E20FFF7BEFFFFF7DCFF54
:10BA400003210820FFF79AFF03212220FFF796FF2A
:10BA500003210520FFF792FF03210120FFF78EFF4E
:10BA600001210020BDE80840FFF788BF70B5234CD6
:10BA7000234E00F0E9FB4021052000F099FB214B0B
:10BA800094E80600F82000F02FFB00F0ABF94FF42B
:10BA9000FA70FFF783FF0C252C21152000F088FB9E
:10BAA00094E806003346002000F01EFB00F09AF9EF
:10BAB0002C21152000F07CFB334694E806004FF65D
:10BAC000077000F011FB00F08DF9013DE4D1A720D3
:10BAD00000F09CF800F086F9A62000F097F873219A
:10BAE0000C2000F065FB084A084B06CA4FF6FF70B1
:10BAF00000F0FAFABDE8704000F074B9542B002051
:10BB000096F302005BF302005C2B00209CF3020022
:10BB100008B5074B0222C3F808250A20FFF73EFFAD
:10BB200000F0B6F800F090FBBDE80840FFF79EBFBC
:10BB30000003005038B5054D044645F001054FF4AB
:10BB40007A40A847013CFAD138BD00BFC0F30200DB
:10BB50001F2886BF00F01F00044A4FF0A0420123B7
:10BB600003FA00F0C2F80805704700BF0003005058
:10BB70001FB5094B0FCB6C4684E80F00074B0093B1
:10BB800000231A4621460648FEF736F908B1FCF7AD
:10BB90002DFA04B010BD00BFACF3020029282A26FC
:10BBA000C8F302001FB50022C9B2084B0090CDE9CE
:10BBB000011207481A7069460392FEF78DFA08B120
:10BBC000FCF714FA05B05DF804FB00BF7EBB002053
:10BBD000CCF302007FB50B4B8DF8070000221A70E2
:10BBE0000DF10703029302A9012307480592CDE94D
:10BBF0000332FEF771FA08B1FCF7F8F907B05DF807
:10BC000004FB00BF7EBB0020CCF3020010B5064B46
:10BC100020220446C3F80C250120FFF78BFF2046A5
:10BC2000BDE81040FFF7D6BF0003005010B5044632
:10BC30002520FFF78DFF0120FFF77CFF2046BDE8A0
:10BC40001040FFF7C7BFF8B5064625200C46FFF7A2
:10BC50007FFF0120FFF76EFFFF2C17D90025FF277C
:10BC6000B4FBF7F7C5EB0520FF2130440135FFF7A2
:10BC700099FFBD42F6D1FF21B4FBF1F1C1EB0121E7
:10BC8000611A3046BDE8F840FFF78CBF2146F8E75F
:10BC900008B52420FFF75CFFC820FFF74BFF4A4B95
:10BCA0001022C3F80C25C820FFF744FF2420FFF71B
:10BCB0004FFFC820FFF73EFFFD20FFF7A7FF122030
:10BCC000FFF7B4FFFD20FFF7A1FFB120FFF7AEFFA4
:10BCD000AE20FFF79BFFB320FFF798FFF120FFF79F
:10BCE000A5FFCA20FFF792FF7F20FFF79FFF4FF4C9
:10BCF0009670FFF71FFFA020FFF788FF3220FFF7A5
:10BD000095FF1520FFF782FF0020FFF78FFF7F20B0
:10BD1000FFF78CFF7520FFF779FF0020FFF786FF04
:10BD20007F20FFF783FFA120FFF770FF0020FFF7C0
:10BD30007DFFA220FFF76AFF0020FFF777FFB52005
:10BD4000FFF764FF0020FFF771FFAB20FFF75EFFF6
:10BD50000120FFF76BFFB120FFF758FF3220FFF7FC
:10BD600065FFBE20FFF752FF0520FFF75FFFA6200B
:10BD7000FFF74CFFC120FFF749FF8A20FFF756FF6E
:10BD80005120FFF753FF8A20FFF750FFC720FFF72E
:10BD90003DFF0F20FFF74AFFB420FFF737FFA02039
:10BDA000FFF744FFB520FFF741FF5520FFF73EFFA7
:10BDB000B620FFF72BFF0120FFF738FFAF20BDE8CB
:10BDC0000840FFF723BF00BF00030050044A0023D0
:10BDD0000133B3F5804F22F8020BF9D1704700BF51
:10BDE0007E3B002008B55C20FFF710FF4FF40041B8
:10BDF0000248BDE80840FFF726BF00BF7E3B002099
:10BE000083B27F2B09D88BB27F2B9FBFC0F17F00FD
:10BE100000EBC110014B23F8102070477E3B00203F
:10BE20002DE9F84F0F46904691B29BB2BAB29E1AD6
:10BE300036B2002EB8BFD61A84B2B8BF36B2A1EB64
:10BE4000040B4FEA46061FFA8BFBB6B2A4EB0104C3
:10BE5000B4BF4FF0FF3A4FF0010A34444FEA4B0BA6
:10BE600080450546BDF8289024B21FFA8BFB16DDED
:10BE7000394628464A46FFF7C3FF002CC8BFA4EB4B
:10BE80000B0405F10105C4BF574424B22DB2C8BF4D
:10BE90003FB23444A84524B2EADABDE8F88F394607
:10BEA00028464A46FFF7ACFF002CC8BFA4EB0B04A2
:10BEB00005F1FF35C4BF574424B22DB2C8BF3FB20D
:10BEC0003444A84524B2EADDE7E72DE9F84F92B201
:10BED000994683B20D46D11A09B20029B8BF991A02
:10BEE000ACB2B8BF09B206461FFA89F0A0EB04074E
:10BEF0004FEA4101BFB21FFA81FBA4EB0004B4BFBB
:10BF00004FF0FF3A4FF0010A5C447F00A945BDF8AD
:10BF1000288024B2BFB215DD304629464246FFF7DD
:10BF20006FFF002CC8BFE41B05F10105C4BF5644D8
:10BF300024B22DB2C8BF36B25C44A94524B2EBDAB4
:10BF4000BDE8F88F304629464246FFF759FF002CDE
:10BF5000C8BFE41B05F1FF35C4BF564424B22DB25F
:10BF6000C8BF36B25C44A94524B2EBDDE8E7000067
:10BF70002DE9F84F214C0E46217831447F29154692
:10BF800080469DF8282027DC617829447F2923DC1E
:10BF90000A2A0FD0203A6A4303EB420A4FF0000905
:10BFA0004D4509DD3AF802BB0027BE4216DC09F117
:10BFB0000109F5E77F232370217863783144C9B202
:10BFC000217031447E2907DD5A197F2A04DC0233AF
:10BFD0001D44002365702370BDE8F88F0BFA07F34A
:10BFE0001B0408D56178207849443844424609B298
:10BFF00000B2FFF705FF0137D7E700BF7B3B00200A
:10C000002DE9F0470446581A16460D461F46BDF85E
:10C01000208002F00CF88146301B02F008F88145C0
:10C02000CDF820800EDAA642BFBF2B462246394605
:10C030003046A1BF3B46324629462046BDE8F04780
:10C04000FFF7EEBEAF42BFBF2B4622463946304611
:10C05000A1BF3B46324629462046BDE8F047FFF7E0
:10C0600034BF2DE9F34102440E461C46BDF8207052
:10C07000009715B2344424B20B462A468046FFF797
:10C08000BFFF23462A46314628460097FFF7B8FFF0
:10C0900023464246214628460097FFF7B1FF334624
:10C0A000424621464046089702B0BDE8F041FFF7FE
:10C0B000A7BF2DE9F047BDF820800E4604461718AB
:10C0C00003EB0109A74201DCBDE8F08735460FFA12
:10C0D00084FAA94501DC0134F4E729B2424650460E
:10C0E000FFF78EFE0135F4E708B42DE9F04789B07B
:10C0F00002AB119C814683E806005CB112AB9DF84F
:10C1000008609DF80970DDF80C80DFF8A0A00593A9
:10C11000237823B909B0BDE8F04701B07047252B5B
:10C1200008D000933A46434631464846FFF720FF81
:10C130000134EDE76378692B22D0732B0DD0632B8C
:10C1400014D1059B1A1D1B78059200933A4643466D
:10C1500031464846FFF70CFF08E0059B1D681A1D95
:10C1600005921DB1013D15F8013F0BB90234CFE72F
:10C1700000933A46434631464846FFF7F9FEF2E758
:10C18000059B1A1D0592514693F9002006A801F05F
:10C19000ADFF06AD15F8013B002BE7D000933A4602
:10C1A000434631464846FFF7E3FEF3E7BCF302009F
:10C1B000014B1870597070477B3B002010B101286B
:10C1C00009D070474FF0A0430422C3F804270C2283
:10C1D000C3F8002770474FF0A0430C22C3F8042790
:10C1E0000422F5E708B5FDF749F908B1FBF7FEFEB3
:10C1F0000020FEF763FE08B1FBF7F8FE0020FDF714
:10C20000DFF90020FDF756F9FDF714FA0028FBD0FE
:10C21000FDF7CAF90028F7D008BD000008B50448AA
:10C22000FEF77FFE18B1BDE80840FBF7DFBE08BD92
:10C23000900E030008B5102001F00EFF0022C0E9A7
:10C240000022C0E9022208BD08B50020FFF7BEFDAC
:10C25000FFF7C8FD024B1B6800221A8408BD00BF0F
:10C2600080BB002007B5F82300937C221E232D21DC
:10C270000220FFF7F6FEFFF7B5FD044B1B68012215
:10C2800083F8202003B05DF804FB00BF80BB0020D2
:10C2900010B50121094C0846FFF78AFF2368084AB8
:10C2A0005B6806CA4FF6FF70FFF71EFFFFF79AFDA7
:10C2B0002368012283F8212010BD00BF80BB00202D
:10C2C0005C2B002038B51F4D1F4C2B6800221A70C4
:10C2D0001E4A5A601E4A1268926812689A60FFF7F6
:10C2E000A9FF1C4B1860FFF7AFFFFFF7BBFFFFF77D
:10C2F000CFFF39210A20FFF75BFF2B6894E8060087
:10C300009B684FF6FF70FFF7EFFE53210A20FFF7FF
:10C310004FFF2B6894E80600DB684FF6FF70FFF7CD
:10C32000E3FE69210A20FFF743FF2B6894E806002B
:10C330001B694FF6FF70FFF7D7FEBDE83840FFF7E7
:10C3400051BD00BF80BB00205C2B00207E2B002055
:10C3500090BB002088BB002008B5242001F07CFEA3
:10C3600000220270C0E90122C0E90322C0E90522CF
:10C37000C261028408BD000008B5FFF7EDFF014B64
:10C38000186008BD80BB002008B50C2001F064FED9
:10C39000024A426000220260826008BD8E2B0020AB
:10C3A00008B5142001F058FE034A02600022C26062
:10C3B000C0E90122026108BD940E030008B51420F3
:10C3C00001F04AFE054A02600022C0E90122C0E9EC
:10C3D0000322034A13780133137008BD940E03003F
:10C3E0007FBB002008B5102001F036FE054A026030
:10C3F0000022C0E90122C260034A1378013313709E
:10C4000008BD00BF940E030084BB002038B5FFF7C1
:10C41000BBFF094C05462060FFF7E4FF2368A860D6
:10C420009D68FFF7CBFF2368E8609B68DC68FFF737
:10C43000B7FFE06038BD00BF90BB002013B50024FB
:10C44000009414236E2235210A20FFF732FE009457
:10C4500014236E2250210A20FFF72BFE0094142390
:10C460006E2269210A20FFF724FE02B010BD0000F1
:10C4700038B558BB4C4D4D4CFFF7E0FF39210A2031
:10C48000FFF796FE2B6894E806009B684FF6FF7056
:10C49000FFF72AFE53210A20FFF78AFE2B6894E853
:10C4A0000600DB684FF6FF70FFF71EFE69210A20C9
:10C4B000FFF77EFE2B681B6994E806004FF6FF70BD
:10C4C000FFF712FEBDE83840FFF78CBC012822D1EF
:10C4D000354D364CFFF7B2FF39210A20FFF768FED1
:10C4E0002B6894E80600DB684FF6FF70FFF7FCFD51
:10C4F00053210A20FFF75CFE2B6894E806001B69B5
:10C500004FF6FF70FFF7F0FD69210A20FFF750FE9C
:10C510002B685B69D0E7022822D1234D234CFFF71B
:10C520008DFF39210A20FFF743FE2B6894E80600AF
:10C530001B694FF6FF70FFF7D7FD53210A20FFF765
:10C5400037FE2B6894E806005B694FF6FF70FFF733
:10C55000CBFD69210A20FFF72BFE2B689B69ABE717
:10C56000032811D1104D114CFFF768FF39210A2023
:10C57000FFF71EFE2B6894E806005B694FF6FF701C
:10C58000FFF7B2FD5321E5E704280BD1FFF756FF73
:10C5900039210A20FFF70CFE034B044A1B6806CA28
:10C5A0009B698BE738BD00BF80BB00205C2B00205F
:10C5B000012A38B51F4C1FD055B29DB1022A28D090
:10C5C0001146FFF755FF236893F820300BB9FFF7AA
:10C5D00049FE236893F82130002B29D1BDE838406B
:10C5E000FFF756BE23681449596014491D70096845
:10C5F000896809689960E3E72368114D1A705D60E6
:10C600000029DDD10F4D29700C4909688968C96876
:10C61000EFE723680C4D5D600A4D1A702D780D43CD
:10C6200015F0FF0FCCD1054909688968C968EEE7A4
:10C6300038BD00BF80BB00207E2B002090BB0020B7
:10C64000642B00208CBB0020712B00200369C16883
:10C650008B429DBF8268D21802F1FF3203F1FF3393
:10C6600094BF501A581A70472DE9F041D0E902746E
:10C6700005463E1B4068964220448846144404D92F
:10C6800001F05AFDEC60BDE8F0813246E41B01F098
:10C6900053FD224608EB06016868F1E72DE9F843EF
:10C6A000C5680646894617464FF000083469B368E6
:10C6B0007068A54228BFE418013C621B5C1BBC42A9
:10C6C00028BF3C46944228BF144649462844224687
:10C6D00001F032FDB3682544AB4208BF00253F1B83
:10C6E000A044A144F560E1D14046BDE8F8830000D4
:10C6F00010B5114C114AA2610223C4E90433104B56
:10C70000E361A2644FF400730E4A2362E2640023E3
:10C7100010220D49A362E01D6362E362A3656365B5
:10C72000E365226501F064FD0849204601F060FDE3
:10C730002023A37110BD00BF94BB00209A0E0300FC
:10C740001CBC00200CBC0020A30E0300A70E03009D
:10C75000F8B5184C182300FB033503FB00402544B3
:10C76000C46A012C0F46164611D024B1022C1BD0EE
:10C7700000242046F8BD2846FFF768FFB042F8D3F2
:10C78000324639462846FFF76FFF3446F1E7284620
:10C79000FFF75CFF8642344628BF044622463946EE
:10C7A0002846FFF761FFE4E72846BDE8F840FFF7B9
:10C7B00075BF00BF94BB0020FFF79ABF6DDF7047C5
:10C7C00079DF70477DDF704764DF70472DE9F04FF8
:10C7D00085B000250E9CBDF83CB0278801918046AD
:10C7E00091469A462E46B8F80020B2420CDC3DB184
:10C7F0002288013AD21B92B2FF2A3BD80AF80720BE
:10C80000002005B0BDE8F08FD8F8042052F82600CB
:10C81000039000220DF10B0103A8FFF7D5FF0028BC
:10C82000EFD19DF80B204A4522D12288002D14BF5C
:10C830000020022002EB0901014459451ADC45B9E8
:10C84000013292B2019B22800AF802302288013222
:10C85000228022880DF10B01524403A8FFF7B4FF98
:10C860000028CED121889DF80B200A442280012582
:10C870000136B8E70C20C4E72DE9F341089CBDF868
:10C8800024501746CDE90045022206469846FFF798
:10C890009DFF50B94346102239463046CDE9084540
:10C8A00002B0BDE8F041FFF791BF02B0BDE8F081F2
:10C8B0002DE9F04F00231688138090F82D3085B0B5
:10C8C00007460D46144653B3082E01D80C2027E125
:10C8D00002A8FFF773FF002840F022812388082276
:10C8E000EA54238801339BB21B222380EA54208818
:10C8F000013080B2208006220DF10901284401F0A8
:10C900001BFC23889DF8082006339BB212F0FE0220
:10C9100018BF01222380EA54238801332380BB7887
:10C92000FBB123880433B342D0D802A8FFF748FFF5
:10C93000002840F0F58023880322EA54238801333D
:10C940009BB219222380EA542388BDF808200133C2
:10C950009BB2E9182380EA54120A4A7023880233F2
:10C960002380FA789AB12388D91CB142AED802212B
:10C97000E954238801339BB201212380E9542388A1
:10C980000B449BB22380EA5423880B4423807A68AB
:10C99000AAB12388D91CB14298D8022192F900206B
:10C9A000E954238801339BB20A212380E954238868
:10C9B00001339BB22380EA542388013323803B89CF
:10C9C000002B40F0A1803B8A5BB1CDE900462B46AD
:10C9D0000722032107F11000FFF74EFF002840F067
:10C9E0009F803B8B5BB1CDE900462B46152214217D
:10C9F00007F11800FFF740FF002840F091803A6AE5
:10CA0000002A40F09080D7F82480B8F1000F30D091
:10CA1000B8F804302188981C8A1C0244B2423FF6C0
:10CA200055AFFE283FF652AF03336B5423880133D2
:10CA30009BB2FF222380EA54238801339BB22380D8
:10CA4000B8F80020EA54E918120A4A702088023027
:10CA500080B22080B8F804205AB1D8F80810002914
:10CA60006BD0284401F068FB2388B8F804201344F5
:10CA7000238097F82C30002B40F09A8038780028DB
:10CA80004ED03B88012B58D0228802F1020CB445CD
:10CA90003FF61CAF012805D17B78023313449E4238
:10CAA000FFF414AF023EB61AB6B202A905EB0C00B1
:10CAB000ADF80860FFF786FE90BB3978BDF8082016
:10CAC000022900F0BA807B78934202D3B24240F24E
:10CAD000B280012940F0B3809BB29E42C0F0AF808B
