:020000022000DC
:1070000000000420757302005D7302005F730200CC
:1070100061730200637302006573020000000000E8
:107020000000000000000000000000006773020084
:1070300069730200000000006B7302006D730200B0
:10704000F59602006F730200AD9B020091A602004C
:10705000B1AB02006F730200019A02006F7302006D
:107060006F7302006F7302006F7302006F73020090
:107070006F7302006F7302006F7302006F73020080
:107080006F7302000D8902006F7302006F730200BC
:107090006F7302006F73020021D802006F73020049
:1070A0006F7302006F7302006F7302006F73020050
:1070B0006F7302006F730200000000000000000008
:1070C0006F7302006F7302006F7302006F73020030
:1070D0006F7302006F7302006F7302006F73020020
:1070E0006F7302006F7302006F73020000000000F4
:1070F000000000006F730200000000006F730200C8
:10710000000000000000000000000000000000007F
:10711000000000000000000000000000000000006F
:10712000000000000000000000000000000000005F
:10713000000000000000000000000000000000004F
:10714000000000000000000000000000000000003F
:10715000000000000000000000000000000000002F
:10716000000000000000000000000000000000001F
:10717000000000000000000000000000000000000F
:1071800000000000000000000000000000000000FF
:1071900000000000000000000000000000000000EF
:1071A00000000000000000000000000000000000DF
:1071B00000000000000000000000000000000000CF
:1071C00000000000000000000000000000000000BF
:1071D00000000000000000000000000000000000AF
:1071E000000000000000000000000000000000009F
:1071F000000000000000000000000000000000008F
:10720000354936480A1A02D0072291438D4634493F
:1072100034480A1A06D00722914381F309880222D2
:1072200082F3148830483149314A00F044F831483B
:107230003149324A00F03FF831483249324A00F0D1
:107240003AF832483249334A00F035F83248334987
:10725000334A00F030F833483349344A00F02BF811
:1072600033483449344A00F026F83448344900227F
:1072700000F02CF833483449002200F027F8334856
:107280003349091A082902DB002202604160314AB1
:1072900090471F481F49884205D00268043003B454
:1072A000904703BCF7E700208646EC46002000210B
:1072B000294A9047FEE7884207D0521A05D0037842
:1072C00001300B700131013AF9D17047884202D088
:1072D00002700130FAE770470000042000E003204C
:1072E000000004200000042074EB0200E82A0020C3
:1072F000142F0020D0730200D073020030DD020092
:1073000074EB0200E82A0020E82A002044DE020094
:1073100044DE020044DE020044DE020044DE0200DD
:1073200044DE020044DE020044DE020074EB020090
:10733000A0EF0200142F0020142F0020142F002093
:107340006847002068470020684700206847002001
:10735000686700209D7302008DB60200FEE7FEE71D
:10736000FEE7FEE7FEE7FEE7FEE7FEE7FEE7FEE7F5
:1073700000F002B8FFF7FCBF0F484FF00701884349
:1073800085460E4880470E48016841F4700101604F
:10739000BFF34F8FBFF36F8FFFF732BF09480A4922
:1073A0000A4A884207D0521A05D0037801300B7080
:1073B0000131013AF9D1704700000420FD9102002B
:1073C00088ED00E044DE0200E82A0020E82A0020E0
:1073D0007047000007B5044B0093044A402300F0B7
:1073E00032F803B05DF804FBF1730200152F0020A2
:1073F0002DE9F84389461446B2B10F4B0F4E0325D1
:10740000002743F00108224609EB0701002004F0A1
:107410000FFF0744241A48B933782BB14FF47A4050
:10742000C047013D02D13570BDE8F88301233370B8
:10743000002CE8D1F8E700BF50DE0200142F002036
:10744000704704F029BFF0B595B01C4616460846B3
:107450000D4601F0F0FD1A9B0D93CDE90864002460
:107460002346082205A928460A948DF82C400C943E
:1074700001F0FEFD079B0293069B03939DF81430D9
:107480008DF8114003F00302012A1DD1BDF814400C
:10749000059EC3F3C203C4F383148DF81030A20019
:1074A00008230EA9284601F0E3FDC6F3952608AB94
:1074B0000093224602AB0EA9304600F05DFB284641
:1074C00001F0BDFD15B0F0BD022AF8D1BDF816409F
:1074D000C3F3C203A4098DF810300827082C2646F0
:1074E00028BF08263B4632460EA9284601F0C0FDBB
:1074F000A41B08AB02AA31460EA8374400F0A0FB3B
:10750000002CEBD1DBE7000008B5FFF79AFF042160
:10751000034800F09FFA034B01225A7108BD00BFD7
:1075200034DE0200E82A0020037813F0040216D0AB
:1075300003F00303012B03D0022B09D00120704775
:107540000A6800880232C0F3831002440A60F5E73B
:107550000B684288023303EB92130B60EEE7104690
:10756000704700002DE9F04F87B000230446851CCA
:107570000DF107000F4690468DF8073001F05AF8DC
:10758000454806683E60D0E90132134401339B1B35
:10759000824600F21C4600F5836900F21447AB42B4
:1075A0001BD30022B8F1000F70D0052363F307024C
:1075B00064F38912DAF80010DAF808309DF8070051
:1075C0000B4003330D444AF82320CAF8005001F061
:1075D00055F8012007B0BDE8F08F0121304601F0D9
:1075E0006EFA484601F081FA384601F07EFADAF880
:1075F0000400DAF808B0029000EA0B0003300AEB4E
:10760000800002A9FFF790FF029B50BB0BEA030228
:107610000AEB820203F1020CD2680392013303EAFF
:107620000B0B0AEB8B0B02F00302012ACDF808C00A
:10763000DBF80C1022D0022A16D08346384601F01F
:1076400057FA10B1029BCAF804305946304601F08F
:1076500036FADAE901231344DAF8002001339B1AE1
:107660009DE70BEA0300C9E7BDF80E309B09033321
:107670004FEA114B0CEB93030293DFE7BDF80C309C
:10768000C3F383134FEA114B6344F5E7062363F317
:10769000070264F39F528DE7283000200B4B0C4803
:1076A000FF2210B59A600022C3F81824C3E9002213
:1076B000C3F8142483F8202401F076FC044610B9A2
:1076C000044801F01DFD204610BD00BF28300020F9
:1076D00090DD020074DE020030B50A4C71B10A4A36
:1076E0000A49121BD20800239A4201D1002030BD62
:1076F00031F82350854202D00133F5E7034654F8B0
:107700003300F4E7A4DD020034DE0200E82A0020A2
:10771000094B013903EBC000032909D8DFE801F068
:107720000A020406042070470079704740797047C8
:107730000020704702207047A4DD0200034BD3E90C
:107740000030C31A58425841704700BF283000200B
:107750002DE9F04387B0FFF7F1FF0646002840F01F
:10776000FB807E4DC5F81804BFF34F8F6868AC6886
:1077700002902040033005EB800002A9FFF7D4FE01
:10778000029B18B1D5F81824002A5FD004EA03023E
:10779000991C013305EB8202234005EB8303D26879
:1077A000DB68049302F00303022B0392029162D17F
:1077B000BDF80E306A484FEA9318B8F1500FC14631
:1077C00028BF4FF0500969F38F1309F10801ADF894
:1077D0000E3001F001FC0746002800F0A88001F0FF
:1077E0002AFC03A900230822384601F037FC02993D
:1077F00024EA01060136B600B14535D95FFA89F9A8
:107800007EB3F6B2A9EB0609214003315FFA89F491
:10781000B146544E05EB810108234A46384601F033
:107820001DFC36B109F1080322463146384601F005
:1078300015FC029B08F1030803EB98030293D5F8AB
:107840001834002B4BD1D5F810445BE02A689A42DB
:1078500004D86A60304607B0BDE8F08304EA03004C
:1078600088E740493446D7E72140033108234A4698
:1078700005EB8101DAE7012B59D1BDF80C3038480E
:10788000C3F38311062928BF062161F3891302314E
:107890008900ADF80C3001F09FFB0746002846D068
:1078A00001F0C9FB0023082203A9384601F0D6FBEA
:1078B0000026BDF80C20C2F38312B300964203F1F8
:1078C0000803BCD202994A1C21400331029205EB05
:1078D00081010422384601F0C1FB0136E9E7384650
:1078E00001F0ADFBFFF72AFF80F00100C6B2B1E75F
:1078F000E3685B7923B1236839461B6820469847C3
:10790000E3681C68002CF3D1384601F098FB0DF1B8
:1079100007008DF8074000F08DFED5F818340BB93C
:10792000029B6B609DF8070000F0A8FEDAE7D5F82F
:10793000104454B90C4B0D480D49C01AC00800043E
:1079400040F0020000F06EF8CCE7236820469B6808
:107950009847E3681C68ECE700267BE728300020A6
:1079600090DD020034300020A4DD0200DCDD0200E6
:1079700080DE02002DE9F74F284C80460F469246E4
:1079800001A9012218469B46D4F80890FFF7EAFDAA
:1079900080B3019D0026A91C5E4506EB010233D190
:1079A00000211F4801F060F880F310006A1C02EA11
:1079B000090204EB8202000405EA0903033340EAEA
:1079C0001840D06014F8232068F3C50204F823207F
:1079D00034F8232066F3891224F8232054F8232056
:1079E00067F39F2244F8232002F0F80242F00102DC
:1079F00004F8232094F820341BB1FFF7A9FE0028D7
:107A0000FBD103B0BDE8F08F09EA020204EB820269
:107A10005AF82630D3600136BEE700BF2830002078
:107A20004434002000231A46FFF7A4BF07B5012302
:107A3000019201AAFFF79EFF03B05DF804FB07B5B2
:107A4000CDE9002302236A46FFF794FF03B05DF8F7
:107A500004FB000030B50F49D1F810240023144670
:107A60003CB9C468237152B9C1F8100422601846A9
:107A700030BDE46825799D4206D02468F0E7D268DD
:107A8000116821601060F2E701330A2BE7D14FF053
:107A9000FF33ECE728300020094A38B50123D2F83B
:107AA000104482F820341D4604B938BDE3685D7186
:107AB000236820465B689847E3681C68F4E700BFCA
:107AC00028300020037A052B10B50C460FD0437ADE
:107AD00023B1084A0849204601F06DF807492046BD
:107AE00001F069F82046BDE8104001F059B8002ABD
:107AF000F8D0F3E7CBDE0200D0DE0200F0DE0200B9
:107B0000C38873B504460D4633B1144A0092144934
:107B1000144A284601F04FF8217A05291CD0637ACF
:107B20004BB1A088FFF7F4FD0F4B104953F820200C
:107B3000284601F040F8227A0D4BA08853F82260C5
:107B40000021FFF7C9FD0B4903463246284602B023
:107B5000BDE8704001F02FB802B070BDCBDE02006E
:107B6000DBDE0200D3DE020098DE0200D0DE02007F
:107B700000DF0200F3DE02002DE9F04385B01F466E
:107B80000C9D002306460C46904695F80C902B73EE
:107B900029463846FFF7B4FFB8F1060F09D8DFE8E9
:107BA00008F00412181F283340003146284601F01F
:107BB00002F8002229463846FFF784FF85F80C902A
:107BC00005B0BDE8F08322683146284600F0F3FF97
:107BD000EFE7D4E900233146284600F0ECFFE8E760
:107BE000A36800933146D4E90023284600F0E3FF60
:107BF000DFE7E3680193A36800933146D4E90023EB
:107C0000284600F0D8FFD4E723690293E368019384
:107C1000A36800933146D4E90023284600F0CBFF47
:107C2000C7E76369039323690293E3680193A36839
:107C300000933146D4E90023284600F0BCFFB8E7A2
:107C400008292DE9F84F80460E4617461C463AD8BB
:107C5000002593F80C901D7319461046FFF750FF4E
:107C6000DFF884A0DFF884B0AE422ED918F80520E2
:107C70005946204600F09FFF0135082DF4D11849E0
:107C8000DFF86CB0204600F096FF4FF0000A564532
:107C900020D918F80A507E2D03D8284605F048FF51
:107CA00000B92E252A465946204600F084FF0AF1E5
:107CB000010ABAF1080FEAD1012221463846FFF73E
:107CC00001FF84F80C90BDE8F88F5146204600F083
:107CD00072FFD1E70349204600F06DFFE7E700BFE0
:107CE000C6DE0200C4DE0200C2DE0200BCDE02000C
:107CF000C8DE0200C30710B507D4F0234008054AC8
:107D0000145C23401943115410BD0901C9B20F235B
:107D1000F4E700BF1835002030B5094B1C78094B3B
:107D2000196800239C4202DC0022104630BD11F885
:107D30003350854201EBC302F7D00133F2E700BFB5
:107D4000E43400203835002070B504460D46FFF7B6
:107D5000E3FF30B1436823B129462046BDE87040B7
:107D6000184770BD034B044819680022490800F009
:107D700064BA00BFE8340020F034002010B5C0B26F
:107D8000FFF7CAFF0446007801F02CFE63785A1E04
:107D900053425341834208D1044BD3E90023134398
:107DA00003D1BDE81040FFF7DDBF10BD1035002046
:107DB00037B54308364AD35CC2074CBF1B0903F0F2
:107DC0000F0304460D46042B36D8DFE803F00326E4
:107DD0002D393D0081B30121FFF78CFF00230DF108
:107DE00007008DF8073000F025FC0122A4F12003E4
:107DF000C4F12000274902FA03F322FA00F00343FA
:107E000002FA04F4D1E9002014430343C1E900431A
:107E10009DF8070000F032FC0EE0002918BF022197
:107E20002046FFF767FF07E041B10321FFF762FF3C
:107E300001212046FFF788FF03B030BD0121EFE7A5
:107E40000029F9D10421EBE709B10321E8E7FFF7A5
:107E500051FF29462046FFF777FF0DF107008DF807
:107E6000075000F0E7FB0122A4F12003C4F1200039
:107E7000084902FA03F322FA00F0034302FA04F479
:107E8000D1E9002022EA040420EA0303BEE700BF90
:107E900018350020103500202DE9F041124E134F07
:107EA00000243378A34208DC114BD3E900231343A9
:107EB00018D0BDE8F041FFF755BF3D6805EBC40899
:107EC00015F8340001F08EFD98F801104B1E594250
:107ED00059410A1A514215F834005141FFF768FF21
:107EE0000134DEE7BDE8F081E434002038350020BD
:107EF00010350020092AF7B505460C4616463DD92F
:107F000001F0A0FCD8B11E4B1E481D601E4B1F4F38
:107F10001C701F4B002120221E6005F082FE1D4BAD
:107F200000200021C3E90001013CE4B20326FF2C3C
:107F30000BD1194A1948002100F074F903E001F04F
:107F400049FC0028DFD003B0F0BD20B29DF8063018
:107F50008DF8046005EBC00223F007038DF80630AE
:107F600001A9937815F830008DF805303A4601F0F4
:107F700073FC013CE4B20028D9D0E4E70720E2E733
:107F80003835002018350020E43400207D7D0200C3
:107F9000E834002010350020997E020060DF0200E6
:107FA00070B5084D084E00242B789C4201D3002068
:107FB00070BD3368012113F8340001F0C9FC0134AD
:107FC000F2E700BFE4340020383500201FB500215F
:107FD000039001AA44F20100CDE9011100F004F878
:107FE00005B05DF804FB000010B572B6FFF754FD54
:107FF000FFF7AEFB0028FBD1104B114C1149E41ADE
:10800000E408240444F00100FFF70CFD0E4B1B684C
:10801000DB0700D500BE0D4944F00200FFF702FD6A
:10802000BFF34F8F0A490B4BCA6802F4E062134357
:10803000CB60BFF34F8F00BFFDE700BFA4DD0200A0
:10804000DCDD02006FDF0200F0ED00E07BDF02000C
:1080500000ED00E00400FA0549B152B1531E1A4088
:1080600007D1826001608380C260104670470E2095
:1080700070470920704710B58468C2688388121B56
:10808000934208D3C26813400268D154C3680133D5
:10809000C360002010BD0420FCE78268C3689A42D8
:1080A0000AD08268838813400268D35C0B708368AF
:1080B000013383600020704705207047D0E9022318
:1080C000D1E90201994208BF90422CBF0120002053
:1080D000704700002DE900480C4800F002FC0C4BF2
:1080E000D3E9002312EB000B43F1000C094BD3E959
:1080F00000239C4508BF93455846614603D21BF1B7
:1081000080704CF10001BDE8008800BFF02A00201B
:10811000403500205836002037B505460C460A4841
:1081200001A900F010FC60B10570446001A9064887
:1081300000F033FC18B1054800F0D8FB002003B074
:1081400030BD0420FBE700BF44360020F02A0020A9
:10815000194B1B782DE9304804461BB900252846E9
:10816000BDE830880028F9D0037F03F0FF05002B1D
:10817000F4D0FFF7AFFFD4E90223994208BF904241
:1081800015D3236903B92377D4E9053098472169CA
:108190000029E3D0237F03F0FF05002BDED0D4E9D4
:1081A000022312EB010B43F1000CC4E902BC21468F
:1081B000024800F0C4FFD2E7483500208CDF0200FF
:1081C00013B5114B1149186801900823F822104883
:1081D00000F0A6FB044698B90E4A0F4801A900F02A
:1081E00071FA044660B901210B4800F05DFB0123E0
:1081F0000A4A0948194600F0C3FA094B01221A70CD
:10820000204602B010BD00BF88DF02004C350020C0
:108210004436002085820200F02A0020FFFF7F0004
:10822000483500203AB103685A614A1E5142514113
:108230001961002070470720704738B5037F044656
:108240000D4683B98261FFF745FF421941F10003F2
:10825000C4E90223236903B1256121460020BDE85A
:108260003840FFF759BF002038BD0023014603778F
:108270000120FFF751BF0000014800F032BB00BFF2
:10828000F02A00202DE9F04F85B0074600F014FBDE
:1082900040B1594AD2E9003113F1807341F1000134
:1082A000C2E900310021384600F015FB38B1534CCB
:1082B000236823B12068FFF74BFF002323600121CF
:1082C000384600F008FB20B1FFF704FF4C4BC3E930
:1082D000000103A94B48494D4B4C4C4E00F06DFB3F
:1082E000002845D1DFF820A1444CDFF828B15046E2
:1082F00000F03BFF2368002875D07BB12368D0E9EC
:108300000201D3E90223994208BF90422DD223688B
:108310001B7F1BB12168504600F011FF504600F052
:108320001EFFD0E9026305460193FFF7D3FE019BD0
:10833000B6EB000863EB0109B8F1010F79F1000316
:1083400044DB334EB0453FD9FFF796FF82194FF417
:1083500096030021584600F033FA00283ED12368E6
:1083600013B9384600F004FA256005B0BDE8F08F77
:108370000378012B1DD05BB1022B11D14FF0000A05
:10838000204600F0ECFE002833D080F81CA0F7E770
:1083900041680B7F23B901230B77204600F0CFFE05
:1083A00003A9184800F034FB03A9164800F005FBA8
:1083B00096E741682B68994202D100232B60EFE7D2
:1083C000204600F0D5FEEBE7AA68C0E7002158463A
:1083D00000F077FA2846FFF7BBFE01E00D28F9D040
:1083E0000023236083E7002BBFD1384600F0C4F997
:1083F000BBE701233370D3E740350020603600200F
:1084000058360020443600208CDF0200483500201A
:10841000FFFFB400F02A00200648074A0378074906
:10842000D35C012213B1043002F056B80C3001F0D5
:10843000FDBD00BFF82A0020DC3600208C3600206D
:108440000648074A03780749D35C012213B1043078
:1084500001F0EEBF0C3001F093BD00BFF82A002000
:10846000DC3600208D36002037B50578012D05D08B
:10847000002D32D0022D25D003B030BD037A13B9C0
:10848000FFF7CAFFF8E743681A4C19782046FFF750
:10849000F2FD80B18DF800500190174B68461B68C3
:1084A0009847A168E368A2885B1A9A42E8D2134B06
:1084B00001221A70E0E7A268E3689A42F1D08DF8D1
:1084C0000000EAE7C3688DF800500193FFF7A4FFAE
:1084D000094B68461B689847CEE709490948FFF7EA
:1084E000DCFD10B9FFF7ACFFC6E703238DF80030C1
:1084F000EEE700BF683600206436002078360020A2
:108500008D3600207C360020F0B51F46234B89B005
:1085100006461A600C4600293DD08A882048096822
:10852000FFF79AFD002834D1A289A1681D48FFF702
:1085300093FD00282DD11C4D0FCD6C460FC495E83E
:108540000F0084E80F0073690693337C174A1848BC
:108550008DF81C70003318BF01238DF81430737C24
:10856000002B14BF0E2300238DF81530F3680293FF
:10857000B36803933368019369467368009301F00D
:1085800053F830B90B4B18703368013301D0FFF743
:1085900043FF09B0F0BD0720FBE700BF64360020B1
:1085A000683600207C360020A4DF020069840200C7
:1085B000F82A00207836002070B5084C014608489B
:1085C0002678FFF76AFD054636B100232370FFF7D2
:1085D00023FF08B1FFF7FAFC284670BD783600206B
:1085E0006836002010B501460E48FFF744FD0446EA
:1085F000A8B90D480D4A0378D35C63B1043001F08B
:108600005FFF60B90A490748FFF747FD38B9BDE881
:108610001040FFF715BF0C3001F0FCFCF1E72046DD
:1086200010BD00BF7C360020F82A0020DC36002078
:108630008D36002070B5EFF3108672B60C4A946840
:1086400001239CB993600B4B0B4DD3F8801029404C
:108650001160C3F88050D3F8841051604FF0FF329E
:10866000C3F88420047006B962B670BD0370FAE7DF
:108670009036002000E100E0FC06FFBD084B9A6840
:1086800010B55AB150B9EFF3108172B6054A1C68A3
:1086900014605C685460986001B962B610BD00BF98
:1086A0009036002000E100E0435882B03BB1002347
:1086B000435043580193019B012002B07047184674
:1086C000FBE70000F8B5224B4679224D43F82620FF
:1086D000214A224BF7009B1AEA19DB0812791B0486
:1086E00032B143F002001E49FFF79CF90820F8BDA3
:1086F00002680C88C2F8084590F904208978002A9D
:10870000A8BF02F1604CD4B2BABF04F00F0EDFF87C
:1087100058C00CF5614C4FEA4111C9B2B4BF0CF816
:108720000E108CF8001352090121DFF840C004F04C
:108730001F042F4401FA04F44CF82240397145F823
:108740003600084943F00300FFF76CF90020CEE73C
:10875000A43600209C360020A4DD0200ECDD0200DF
:10876000D6DF0200F8DF020014ED00E000E100E0D7
:10877000036801221A607047036801225A6070473B
:1087800073B501F15005AD000068ADB24FF480340F
:108790008C400026C0F80843C0F84843465101F514
:1087A000A8714559019522F07F42019D40F8212092
:1087B000C0F844430BB1C0F8044302B070BD0000E0
:1087C0002DE9F74F884699464FF48036036808F143
:1087D00050058E404FEA880AAD00C3F84863ADB239
:1087E000C3F80863074603EB0A00D3F804154FF0FB
:1087F000000B22F07F44D0F84025C0F8401543F824
:1088000005B05B590093009B531A23F07F43012B63
:108810000BD1244B4FF4806043F0010398473B6831
:1088200043F805B05B590193019B3868D0F80455B3
:10883000C0F84463631B23F07F43012B1AD108F572
:10884000A878184B013440F8284043F001034FF456
:10885000806098473B68D3F804359D4208D13B6857
:108860000020C3F84463C3F8046303B0BDE8F08F8D
:108870000D20FAE78244C9F1FF19CAF84045D0F843
:108880000435E21A013A22F07F4209F57F49914509
:10889000EED3002AE3D10134CAF84045D0F80425CC
:1088A0009342DBE7D0DF020003680222C3F84423CF
:1088B00009B1C3F8042370474FF482710068FFF7D1
:1088C000F3BE4FF4803303FA01F10368C3F8481391
:1088D000C3F8081370475031890089B20068FFF768
:1088E000E3BE0368D3F804057047000090F9043034
:1088F00001215A0903F01F0301FA03F34032024930
:1089000041F82230704700BF00E100E0024B034A0B
:108910001B681068184700BFA43600209C36002052
:1089200010B561B1B2FBF3F403FB1424A4B244B953
:10893000C0E9001484608281C381204610BD0E20EE
:10894000FCE70920FAE737B550E8013F9DB2C4893A
:1089500025448489A54228BF2D1B0489A54202BF56
:10896000BFF32F8F002207E0C5EA030540E801545A
:10897000002CE9D14FF001028DF803200193019BF7
:108980009DF803200B6002F0FF0322B10B88006802
:10899000184403B030BD1846FBE70A884B889A425A
:1089A00009D150E8012FC2EA024240E80123002B1E
:1089B000F7D1012070470020704737B550E8023FDB
:1089C0001FFAA3F5C488A54202BFBFF32F8F002270
:1089D0000DE0C48925448489A54228BF2D1BC3EA24
:1089E000054540E80254002CE8D14FF001028DF813
:1089F00003200193019B9DF803200B6002F0FF030D
:108A000022B14B880068184403B030BD1846FBE71C
:108A10000A884B889A4209D150E8022FC2EA2242C2
:108A200040E80223002BF7D1012070470020704757
:108A300001F01F024B090121914000EB830000F07F
:108A40001DB801F01F0301229A404B0900EB83007F
:108A5000D14300F029B84B0901F01F0150F8230061
:108A6000C84000F00100704750E8002F0B4640E876
:108A7000003C9CF0000FF7D11046704750E8003FD3
:108A800043EA010240E8002C9CF0000FF6D11046AA
:108A9000704750E8002F02EA010340E8003C9CF0D8
:108AA000000FF6D11046704750E8003F03EA01027C
:108AB00040E8002C9CF0000FF6D11046704750E8BB
:108AC000003F03EB010240E8002C9CF0000FF6D1C0
:108AD0001046704750E8003FA3EB010240E8002C2D
:108AE0009CF0000FF6D1104670470121FFF7C6BF7A
:108AF0000021FFF7CEBF10B590B1D0E90123016886
:108B00009B1ADBB20A60013BDBB2FF2B026802D189
:108B10000020107110BD11684C1C14600B70F2E73E
:108B20000E20F7E737B5054600240DF107008DF854
:108B30000740FFF77FFD2A686B68116899420ED9DC
:108B4000481E106011F8014CEB68298A01FB0434BF
:108B5000AB6811791B1ADBB2994238BF13719DF8CB
:108B60000700FFF78BFD204603B030BD37B5054643
:108B700000230DF107000C468DF80730FFF75AFD72
:108B80002A681368591C1160E968641A298AB4FBC1
:108B9000F1F41C709DF80700FFF770FD03B030BDC5
:108BA000826810B504462AB1436901680069984794
:108BB0000023A36010BD0EB403B5039921B104AB2B
:108BC00001AA019300F074F802B05DF804EB03B061
:108BD00070470A2938B504460D4602D10D21FFF72A
:108BE000F8FFA3682268591CA160D554D4E901326A
:108BF0009A4204D32046BDE83840FFF7D1BF38BDC4
:108C00002DE9F84F9946DDE90A4317468246884622
:108C10000A460126BA420FD24E4538BF4E4613F0DF
:108C2000010B01D164B900240125B9F1010F1AD952
:108C300009F1FF397D43F8E7B2FBF7F20136E9E7C6
:108C40009B070ED5B9F1000F0CBF30252025A64299
:108C5000EAD2013C29465046FFF7BBFF002CF6D173
:108C6000E1E72025F3E7B8FBF5F39F42E2D9DFF80F
:108C70003C90B8FBF5F3504619F8031005FB138838
:108C8000FFF7A7FFB5FBF7F3BD4207D2BBF1000F1B
:108C900002D00CB1A64203D3BDE8F88F1D46E8E729
:108CA00020215046013CFFF794FFF2E70AE0020062
:108CB0002DE9F74F054617468846002900F0308118
:108CC00018F8011B49B92B7B002B00F0298128469D
:108CD00003B0BDE8F04FFFF763BF252940F0C08027
:108CE000002698F800302D2B424608F1010823D0C9
:108CF000302B24D02B2B25D000242A2B02F101016C
:108D000023D13B681A1D1B683A601C440A4613783D
:108D10002E2B26D101324FF00009104610F8011B0E
:108D2000A1F1300CBCF1090F1DD80A2303FB091374
:108D3000A3F130090246F0E746F00106D1E746F01C
:108D40000206CEE746F00406CBE711F8013CA3F19A
:108D500030000928DBD80A2202FB0434303C0A46E2
:108D6000CBE74FF0000912F8011B01F0FB00682867
:108D70009046F8D069290ED04AD8582964D006D830
:108D800025296DD098F80030002B99D19BE76329F5
:108D900062D06429F6D13A68D2F800A0111D8AEA9F
:108DA000EA723960A2EBEA724FF0010B092A5BDC30
:108DB000CB4538BFCB462CB1BAF1000F01DB7207AF
:108DC00000D5013CB30702D5B9F1000F04D0F0077C
:108DD00002D4002C4ED10024BAF1000F52DACAF1AD
:108DE000000A2D212846FFF7F4FE06F00302022AAE
:108DF00005D1B9F1000F02D1002C47D10024CDE9F3
:108E000000464B460A2251462846FFF7F9FEB9E7CD
:108E100073294CD014D87029B4D13B681A1D3A601C
:108E2000302128461C68FFF7D4FE78212846FFF73A
:108E3000D0FE00220823CDE9003221461022E3E7CC
:108E400075292BD078299DD139680A1D3A60CDE962
:108E500000464B46102228E03B681A1D19783A60FC
:108E60002846FFF7B6FE8DE70A230BF1010BB2FB94
:108E7000F3F29BE7A345AFD220212846013CFFF740
:108E8000A8FEA6E77107B0D52B21ABE7A345B6D264
:108E900030212846013CFFF79CFEADE73968CDE95B
:108EA00000460A1D3A604B460A220968ACE73B6857
:108EB0001A1D3A6016F00106D3F800A020D1BAF1CD
:108EC000000F03D0504604F001FF0646B44200D91B
:108ED000C4B90AF1FF3A1EE028460136FFF779FED1
:108EE0001AF806100029F7D1A642BFF44BAF002CA8
:108EF0003FF448AF20212846013CFFF76AFEF3E724
:108F00000026EDE720212846013CFFF762FEDDE761
:108F10002846FFF75EFE1AF8011F0029F8D131E755
:108F200003B0BDE8F08F2DE9F047B0F80690447922
:108F3000D2F800A09DF8208009FB04F4043C06460A
:108F40000AEB0300A0420F4688BFA4EB030A191DD9
:108F5000C2F800A0B1FBF9F509FB15114DB9A9EB59
:108F60000104544528BF5446BAF1000F04D1BDE8AE
:108F7000F0873668013DF1E704317B19701822460D
:108F8000B8F1000F0ED001461846AAEB040A04F00F
:108F90001FFED145254436684C464FF0000128BFDE
:108FA0005446E1E71946F0E7FFF7A5BDF8B5467965
:108FB0000146721E0546002393422D6803D3002408
:108FC000A64202D8F8BD0133F6E70F682846FFF73E
:108FD000CDFD01343946F3E72DE9F843068ACD1C6F
:108FE0000746FFF79FFD043E35440446B5FBF6F502
:108FF000F0B14FF48073EDB28380C680013D07600D
:1090000081464FF00008A84512D23846FFF78AFD86
:10901000064648B163790133637108F10108C9F864
:10902000000007608146EEE72046FFF7BFFF3446A9
:109030002046BDE8F88301210430FFF740BD10B59C
:10904000012104460430FFF745FD10F0FF0F04D165
:109050002046BDE81040FFF7A9BF10BD1FB5039221
:109060000022009203AAFFF75EFF05B05DF804FB43
:109070001FB503920122009203AAFFF754FF05B027
:109080005DF804FB41DF7047064B10B500241C70EF
:10909000054B1C60BFF35F8F0449054800F039F8A9
:1090A000204610BDB0360020B43600201CE002007F
:1090B000A836002007B500230DF107008DF8073012
:1090C000FFF7B8FAF1EE103A23F09F03E1EE103A01
:1090D000BFF35F8F094B4022C3F884219DF807003E
:1090E000FFF7CCFA04F082FB20B1FFF7CBFF03B00F
:1090F0005DF804FB20BF40BF20BFF8E700E100E0BF
:10910000836800225A609A60C3E90422DA601A6018
:1091100070470B684A684360934208BF00230160B0
:1091200008BF43607047436843B102689168526862
:109130000B449342436004BF00234360704770B503
:10914000446806460D46206818B1B368294698471A
:1091500018B923682B60256070BD2468F3E7436865
:10916000186808B102681A60704743681868704749
:109170004368186800B97047884203D102681A60D2
:109180000120704703460068F4E7000010B50D4960
:10919000A1F59472914201D800200FE08B1ADB10E8
:1091A00003EBD3735B1002EBC30452F833308342FA
:1091B00005D802D204F10802ECE7606810BD214630
:1091C000E8E700BF78E1020008B5FFF7DFFF024BD8
:1091D000002808BF184608BD3AE00200054B1B688E
:1091E000082B01BF044B1868B0FA80F0400918BF83
:1091F00000207047300100103401001008B54FF016
:1092000080430022C3F80C21C3F81021C3F838258D
:109210004FF0805203F54043D2F80414C3F82015F0
:10922000D2F80814C3F82415D2F80C14C3F8281582
:10923000D2F81014C3F82C15D2F81414C3F8301552
:10924000D2F81814C3F83415D2F81C14C3F840151A
:10925000D2F82014C3F84415D2F82414C3F84815E2
:10926000D2F82814C3F84C15D2F82C14C3F85015B2
:10927000D2F83014C3F85415D2F83414C3F860157A
:10928000D2F83814C3F86415D2F83C14C3F8681542
:10929000D2F84014C3F86C15D2F84424C3F87025F2
:1092A000FFF79CFF10B1384B384A1A60FFF796FF62
:1092B00018B1374BFB22C3F81825FFF78FFF48B1D1
:1092C0003449354B0A681B6822F00F0203F00F0384
:1092D00013430B60FFF782FF18B1304B4FF400725D
:1092E0001A604FF08043D3F80024D20744BF6FF0D8
:1092F0000102C3F800242A4AD2F8883043F47003EC
:10930000C2F88830BFF34F8FBFF36F8F4FF0102339
:10931000D3F80022002A03DBD3F80432002B2FDA23
:10932000204B0122C3F80425D3F80024002AFBD0E7
:109330004FF010221221C2F80012D3F80024002AA4
:10934000FBD04FF010231222C3F80422154B1A460B
:10935000D3F800140029FBD00021C3F80415D2F87B
:109360000034002BFBD0BFF34F8F0D490E4BCA6862
:1093700002F4E0621343CB60BFF34F8F00BFFDE701
:109380000A4B0B4A1A6008BD8C5600404881030006
:1093900000F00040E40E00405802001040960240E9
:1093A00000ED00E000E001400400FA050C2B002075
:1093B0000090D003074B1B5C1F2B8ABF064A4FF05F
:1093C000A04203F01F03D2F80405D840C04300F0C8
:1093D0000100704736E5020000030050074B1B5C9C
:1093E0001F2B86BF03F01F0305494FF0A041012248
:1093F00002FA03F3C1F80C35704700BF36E50200EE
:1094000000030050074B1B5C1F2B86BF03F01F039C
:1094100005494FF0A041012202FA03F3C1F80835D3
:10942000704700BF36E502000003005008B5002079
:10943000FFF7E8FF0120FFF7E5FF0220FFF7E2FF5B
:109440000320BDE80840FFF7DDBF08B50020FFF7A7
:10945000C5FF0120FFF7C2FF0220FFF7BFFF032077
:10946000BDE80840FFF7BABF0A4B185C1F288ABF47
:10947000094B4FF0A04300F01F00D3F80425012151
:10948000814021EA02000A40C3F80805C3F80C2510
:10949000704700BF36E5020000030050014B185C26
:1094A000704700BF32E5020038B5074C051E04F1D5
:1094B000080318BF1C4623682BB11A6822605B683A
:1094C00028469847F7E738BDC036002020B9054B3D
:1094D00001225A70FFF7E8BF012802D1014A9070BB
:1094E000F8E77047B836002020B9034B01225A70C4
:1094F000FFF7DABF704700BFB836002038B50B4C15
:10950000237883B90A486360A3602361E36000F0B5
:10951000C7F8054604F06AF908B900F0CDF8012350
:109520002370284638BD8525FBE700BFB8360020EC
:10953000CD94020037B50B4C00230DF107008DF8D8
:109540000730FFF777F8E368013BE360E56815B99A
:1095500000F0C4F8A5709DF80700FFF78FF803B07E
:1095600030BD00BFB8360020012813B509D018B1AE
:1095700003281CD002B010BD0F4B0122C3F880207D
:10958000F8E70E4C00230DF107008DF80730FFF7C8
:1095900051F823780BB9FFF7B1FFE3689DF8070096
:1095A0000133E3600123A370FFF768F8E2E700F0FE
:1095B00083F8FFF7BFFFDDE700E100E0B8360020E9
:1095C0001FB503788DF800304368019383688DF8E8
:1095D0000830C3680393054A054B684653F82130A9
:1095E00052F82110984705B05DF804FBCC360020F6
:1095F000D43600201FB503788DF8003043680193FE
:1096000083688DF80830C3680393054A054B6846A4
:1096100053F8213052F82110984705B05DF804FB4B
:10962000CC360020D4360020F0B5184B0778DFF890
:109630006CE043F82720164B16460A6943F82720AA
:109640004B7F0EF807300C4684460FCC89B06D4630
:109650000FC594E80F0085E80F001EF80730049747
:1096600053B1002E0B4A694608BF32460CF1040084
:1096700000F0FCFD09B0F0BD002E074A694608BFA6
:1096800032460CF10C0000F0A7FBF3E7D4360020C3
:10969000CC360020C1950200F5950200DC36002092
:1096A000044A137923B9012110609180184670474C
:1096B00085207047E0360020074B1A68D2075FBF4D
:1096C000C02283F8002301221A604FF08043012258
:1096D000C3F81825704700BF00E100E0044B0122E9
:1096E0001A604FF08042D2F81834DB03FBD4704785
:1096F0000C000040154B07B51A687AB100221A60B9
:109700001B680093009B4FF080430122C3F808239D
:109710000F4B587910B95A711B6898470D4B1A684E
:1097200082B100221A601B680193019B4FF08043B5
:109730000222C3F80823064B1B68012003B05DF822
:1097400004EB184703B05DF804FB00BF00010040C4
:10975000E03600200401004000F1804000F5C040E8
:10976000002382B0036003680193019B02B070473D
:1097700003681F2B83BF03F01F03036001484FF0F2
:10978000A04070470003005007B5019001A8FFF703
:10979000EFFF019B00EB8300D0F8002722F440325A
:1097A000C0F80027D0F8003743EA0143C0F800377B
:1097B00003B05DF804FB0000054B4FF0FF320728B3
:1097C00043F8202084BF1B1883F85820704700BF3F
:1097D000E836002010B5174C94F86A3043BB04F10A
:1097E00030033021FF22013911F0FF0103F8012B72
:1097F000F9D1C8B2FFF7E0FF01310C29F9D10622F7
:1098000000210D4804F00DFA0C4BC02283F806230A
:1098100040221A604FF4BE70FFF79EFF084B4FF0D6
:109820000042C3F80423012384F86A30002010BDED
:109830000820FCE7E83600204C37002000E100E07B
:1098400000600040034B93F86A00003018BF01200D
:10985000704700BFE8360020F7B53B4E3318054689
:1098600093F93030002B6CDA8B78C3F34003002B74
:109870000BBF082400240C200820844202D10420BD
:1098800003B0F0BD56F82470013743D1701946F883
:10989000242080F8304013B9331983F858508B785E
:1098A0005A0717D4D80737D501A80195FFF760FFED
:1098B000019B00EB8300D0F8003723F00203C0F8CF
:1098C00000372248EA0805F007070123BB40875C00
:1098D0003B43835488780A7810F0020028D0A40013
:1098E00004F1804404F5C0442D02D4F8103523F46B
:1098F0004F3323F44073C4F810351204D4F81035F4
:1099000005F47C5502F4403215431D43C4F810554C
:109910000020B5E70134B0E701A84A780195FFF7C8
:1099200027FF019B03F5E073920040F82320C8E76E
:10993000083C344494F8605045EA821284F8602070
:109940009EE708209CE700BFE83600204C37002047
:1099500073B5224C2518064695F93020072A19DDE3
:10996000224492F858309B09032B0FD1019001A893
:10997000FFF7FEFE019AD0F81035D340DB0707D47D
:1099800002213046FFF700FF02B070BD012BF7D077
:109990000321F6E7D3B2072BF6D8930003F18043F7
:1099A00003F5C043D3F8100540F00100C3F81005DB
:1099B00002F14000800080B2FFF7CEFE0029E3D024
:1099C00095F9303054F82330002BDDD0012303FA11
:1099D00002F2034BC3F80423D6E700BFE8360020A9
:1099E0000060004007B5019001A8FFF7C1FE019B90
:1099F000D0F81005D84000F0010003B05DF804FB7A
:109A00002DE9F04F002489B0CDE90244624D4FF4B6
:109A10008072012102F1804303F5C04390B21B68BC
:109A2000012B06D1D5F804330B4202D0FFF794FE88
:109A30000C430432B2F5907F4FEA4101EAD1574B13
:109A40001B68012B0ED14FF4BE70FFF785FE4FF05F
:109A5000A04344F00044D3F810350293504BD3F8A0
:109A60001035039314F0FF0F1AD04E4F0025012636
:109A7000344210D0AB0003F1804303F5C043D3F868
:109A80001005D3F8101557F8253023B1C1F3014163
:109A9000C0F3052098470135082D4FEA4606E7D167
:109AA000002C75DA0DF1100800230493C8F8043077
:109AB0004FF0FF33CDE90633DFF8E8A0DFF8E89098
:109AC00000273D4619F9014B631C48D0E4B201233D
:109AD00024F0C00604F0070203FA02F2F00808AB13
:109AE000191811F8083C134239D00AEB0603A409EF
:109AF00093F930305AF823B0BBF1000F08D1032C92
:109B00002DD118F800C04CEA020C08F800C001E0A2
:109B1000032CF6D001A80196FFF72AFE019B11F84D
:109B2000181C03F5E07C114250F82C00C0F30140F2
:109B300005D0022813D1032C0BD1214604E00328C1
:109B40000DD1032C05D102213046FFF71DFE013552
:109B5000EDB2BBF1000F02D021463046D8470137A5
:109B6000042FAFD1A5B14FF0A0430299D3F810252F
:109B700003F540739142D3F8103502D1039999420D
:109B800006D002920393049A059B0692079395E7E9
:109B900009B0BDE8F08F00BF006000407C6100406C
:109BA00000030050E836002048370020014B1B68B6
:109BB000184700BF543700200E4B984237B50D466A
:109BC00002D0002003B030BD00230DF107008DF856
:109BD0000730FEF72FFD084B1C7914B901221D60D8
:109BE0001A719DF80700FEF749FD002CE9D01120FD
:109BF000E8E700BF00200040543700200023435016
:109C000082B043580193019B02B070470A4610B5D9
:109C10004FF48E71FFF7F2FF136A9168C95C136A03
:109C200001331362C0F81C1510BD024608B54FF48D
:109C300092710068FFF7E2FF4FF484711068FFF73C
:109C4000DDFF136801221A6008BD8B690A4610B552
:109C50004FF4847123B9FFF7D1FFD0F8183510BD48
:109C6000FFF7CCFF536AD168D0F81805C854536A7F
:109C700001335362F3E700001FB501238DF8003074
:109C8000044BCDE90110D3E900126846904705B0B6
:109C90005DF804FB5C37002030B54D4AD2F8043340
:109CA00013F4007F85B015464FD0D2F82431002B35
:109CB0004BD04FF492711046FFF7A0FF4FF40173A1
:109CC000C2F80833434B93F8291009B901215160B8
:109CD0003F4902228DF80020D1F88024C1F8802469
:109CE00003929A690292DA6801920022C3E906227D
:109CF0006846D3E9001290473548D0F81C315BB173
:109D000034494A690B6A9A420A464BD991F828307D
:109D1000002B47D1FFF77AFF2D4AD2F8443193B197
:109D20004FF4A2711046FFF769FF2A4B93F82910F0
:109D300009B1012111609A692AB100229A61586A19
:109D4000D968FFF799FF05B030BDD5F804335B073C
:109D5000D2D5D5F80831002BCED01E4C1C48214658
:109D6000FFF773FF636AA2699A422346C4D1E2698E
:109D7000E1684AB12369E3600023606AA261E3619C
:109D80006362FFF779FFB7E794F829200AB9012247
:109D90006A600F4A4FF40170C2F8080300229A610A
:109DA000586AEEE74FF48E710948FFF727FF5369B1
:109DB000002BB1D051690291002391688DF80030D9
:109DC000019153616846D2E900139847A4E700BFA8
:109DD000002000405C3700202DE9F843624F0479F1
:109DE00091462C2202FB0472064692F82A200D4668
:109DF000002A40F0B3805D490068FFF7DDFE804631
:109E0000002840F0AE8029684A1C10D01F2987BF67
:109E100001F01F03564A0B464FF0A0420120984024
:109E200003F5E073C2F80805032042F823006868D0
:109E3000431C0DD01F288BBF00F01F0303464C4A64
:109E40004FF0A04203F5E0734FF0000C42F823C03E
:109E50003368AA6995F814C0C3F824256A7DBCF15B
:109E6000010F4CEA0202C3F86C25C3F81405C3F8CD
:109E70000C152BD1A968481C0DD01F298BBF01F0F0
:109E80001F020A463A484FF0A04002F5E0724FF038
:109E9000000C40F822C0E868421C13D01F2887BF7E
:109EA00000F01F0C324A84464FF0A0424FF0010EE2
:109EB0000EFA0CFE0CF5E07CC2F808E54FF0030E3C
:109EC00042F82CE0C3F80805C3F810152C236343AF
:109ED000FA18C2F804902A69FA50B9F1000F2AD092
:109EE0004FF48E7130682D7FFFF788FE30684FF495
:109EF000A271FFF783FE32681E4BC2F80433120BC7
:109F000051B20029A8BF01F160404FEA4513BABF22
:109F1000194802F00F0500F56140DBB2B4BF4355AC
:109F200080F8003302F01F02012303FA02F249090C
:109F3000124B43F8212033680422C3F800252C2358
:109F400003FB04730022C3E9062283F829205A6127
:109F5000012283F82A204046BDE8F8834FF0080824
:109F6000F9E74FF01108F6E75C370020999C0200F2
:109F7000000300508000020014ED00E000E100E06A
:109F80002DE9F84F224F06794FF02C0909FB067492
:109F900080466569002D38D16261A16025624FF469
:109FA0008E71006884F82850FFF728FED8F800006A
:109FB000012383602146FFF729FE6368A1469BB910
:109FC000D8F800A0D4F814B0236A9B4512D8D8F86A
:109FD0000020D2F81C31002BFBD00123D3602C23AE
:109FE00003FB067300225A612846BDE8F88F94F8F7
:109FF000283043B9DAF81C31002BF8D049465046D6
:10A00000FFF704FEE0E70F25E9E71125ECE700BFC5
:10A010005C3700200379044A2C2101FB0323586993
:10A02000003018BF012070475C3700202DE9F8434D
:10A03000394E05792C2303FB056307465C6824B180
:10A0400003684FF40170C3F808032C2303FB056376
:10A05000986950B1D86900283ED024B13B684FF4CC
:10A060000172C3F80423112433E09A61D960586265
:10A07000D8612C2303FB056393F829301BB910B971
:10A080003846FFF7D2FD4FF02C0909FB0568386808
:10A09000D8F80430002B34D14FF4A271FFF7AEFD95
:10A0A000C1463868D0F82431D0F80821D0F84441AE
:10A0B000B2B90CB9002BF4D02C2202FB05650022AA
:10A0C000AA6123BB2CBB95F829103B680122B1B1D2
:10A0D0001A602046BDE8F8831961DA610120C8E7FB
:10A0E000002BE9D1002CE7D14946FFF7AEFDD8F8A7
:10A0F0002430D8F818209A42D3D82346DCE75A6097
:10A10000E7E74FF40173C0F804330024E1E70324C8
:10A11000DFE70F24DDE700BF5C370020002343505A
:10A1200082B043580193019B02B070471FB50123D1
:10A130008DF80030044BCDE90110D3E900126846D8
:10A14000904705B05DF804FB883700207FB5454A8D
:10A15000D2F82461002E63D010464FF49271FFF7BD
:10A16000DDFF02238DF80030D2F88034C2F880344D
:10A170000393D2F83C3502933B4BDA6801920022FC
:10A18000C3E906226846D3E900129047354AD2F85F
:10A1900044317BB14FF4A2711046FFF7BFFF324B41
:10A1A000996939B10021C3E90611D968D2F83C0593
:10A1B000FFF7BCFF2B4AD2F82031B3B14FF49071B6
:10A1C0001046FFF7ABFF0123D360274B596961B1FC
:10A1D000D2F84C150291002299688DF80020019167
:10A1E0005A616846D3E9001290471E4AD2F85831A6
:10A1F000A3B14FF4AC711046FFF790FF1A4B5969A9
:10A2000061B1D2F84C150291002299688DF80020B6
:10A2100001915A616846D3E90012904704B070BDBD
:10A22000D2F81031002BB1D04FF488711046FFF7EF
:10A2300075FF0D4BD2F83C0599698842A6D1DC69BF
:10A24000D96864B1D2F8005225F02005C2F8005256
:10A250001A699C61DA60DE61FFF768FF96E79C612E
:10A26000FAE700BF00200040883700202DE9F843BE
:10A27000694F06799146242202FB0672044692F841
:10A2800020200D46002A40F0C08064490068FFF796
:10A2900093FC8046002840F0BB802868421C10D008
:10A2A0001F2887BF00F01F035D4A03464FF0A042FE
:10A2B0000121994003F5E073C2F80815032142F823
:10A2C000231069684B1C0DD01F298BBF01F01F03A1
:10A2D0000B46534A4FF0A04203F5E0734FF0000CD9
:10A2E00042F823C02368AA6995F814C0C3F824254E
:10A2F0006A7DBCF1010F4CEA0202C3F86C25C3F879
:10A300000C05C3F814152BD1A968481C0DD01F29C2
:10A310008BBF01F01F020A4641484FF0A04002F5F2
:10A32000E0724FF0000C40F822C0E868421C13D0E5
:10A330001F2887BF00F01F0C394A84464FF0A04207
:10A340004FF0010E0EFA0CFE0CF5E07CC2F808E5A9
:10A350004FF0030E42F82CE0C3F80805C3F81015BF
:10A3600024237343FA18C2F804902A69FA50B9F109
:10A37000000F39D04FF4887120682D7FFFF7CEFE93
:10A380004FF490712068FFF7C9FE4FF49271206876
:10A39000FFF7C4FE4FF4A2712068FFF7BFFE2068EC
:10A3A0004FF4AC71FFF7BAFE22681E4BC2F80433BB
:10A3B000120B51B20029A8BF01F160404FEA4513CA
:10A3C000BABF194802F00F0500F56140DBB2B4BF17
:10A3D000435580F8003302F01F02012303FA02F212
:10A3E0004909124B43F8212023680822C3F80025AD
:10A3F000242303FB06730022C3E906225A610122CB
:10A4000083F820204046BDE8F8834FF00808F9E7BC
:10A410004FF01108F6E700BF883700204DA1020079
:10A42000000300501003420014ED00E000E100E0E2
:10A4300001F06043B3F1005F2DE9F041074638D1E8
:10A440001E4B0679242505FB063598466C69002CC1
:10A4500031D16A61A96000684FF49071FFF75EFE28
:10A460004FF4AC713868FFF759FE3B686A69A96818
:10A47000C3F84415C3F8482501229A606A68AAB94E
:10A48000D3F82021D3F858411AB9002CF8D00F2462
:10A4900007E0002CFBD10122DA60D3F85821002A12
:10A4A000FBD0242303FB0686002373612046BDE80E
:10A4B000F0811024FAE71124F8E700BF8837002064
:10A4C0000379044A242101FB03235869003018BF93
:10A4D0000120704788370020F8B501F06043B3F1E0
:10A4E000005F04460F465ED10379304D242101FB05
:10A4F0000351486820B121684FF40476C1F808631D
:10A50000242101FB03539E6956B1D969002939D032
:10A5100020B123684FF40472C3F80423112030E003
:10A520009A61DF60DE614FF488712068FFF7F6FD05
:10A530004FF4A2712068FFF7F1FD2368C3F834756A
:10A54000C3F8382516BB01221A602179242202FBA8
:10A55000015252680ABBD3F81041D3F84421D3F812
:10A560002401144302D10028F5D02246242303FB02
:10A5700001550023984218BF03209A42AB6118BFCF
:10A580000F20F8BD1F61DA610126CCE7D3F8002265
:10A5900042F02002C3F80022D7E74FF40472C3F858
:10A5A00004230020EDE71020EBE700BF88370020F0
:10A5B0007FB503788DF804304368029383688DF883
:10A5C0000C30C368049303698DF81430054A064BB8
:10A5D00001A853F8213052F82110984707B05DF8D0
:10A5E00004FB00BFAC370020BC370020F0B50646A6
:10A5F000174616F804CB124A42F82C70114A42F85A
:10A600002C30114B0D460FCB85B06C4684E80F0003
:10A610002B6800932B798DF805306B798DF8063017
:10A62000AB680293002FAB89ADF80C30074A634644
:10A6300008BF3A462146304600F056F805B0F0BD56
:10A64000BC370020AC37002058E50200B1A502005D
:10A650001F2886BF00F01F00044A4FF0A0420123CC
:10A6600003FA00F0C2F80805704700BF000300506D
:10A670001F2886BF00F01F00044A4FF0A0420123AC
:10A6800003FA00F0C2F80C05704700BF0003005049
:10A69000114BD3F8183107B5D3B1104B1049002234
:10A6A0001A60C87F1B680193FF28019B03D08B7F32
:10A6B0005BB1FFF7DDFF00234B770B72D1E900316F
:10A6C000084803B05DF804EB1847FFF7C1FFF2E755
:10A6D00003B05DF804FB00BF0030004018310040BB
:10A6E000CC370020D43700202DE9F74F0679724F80
:10A6F00001934FF0240909FB06F907EB090A934679
:10A700009AF81C2080460C46002A40F0D18005684B
:10A710006A492846FFF750FA0146002840F0CA80EF
:10A72000019BCAF80430237B47F809B0012B20783D
:10A7300000F2AC80FFF79CFF23781F2B86BF03F04D
:10A740001F035F4A4FF0A04203F5E073012042F877
:10A75000230094F80190B9F1FF0F00F09A80484669
:10A76000FFF786FFB9F11F0F8BBF09F01F034B46A0
:10A77000534A4FF0A04203F5E073032042F8230050
:10A78000A378FF2B00F088801F2B8BBF03F01F02E4
:10A790001A464B484FF0A04002F5E0724FF0040C0F
:10A7A00040F822C09A46242202FB067282F820302A
:10A7B000E078D077FF2816D02379002B6FD0FFF7F1
:10A7C00057FFE3781F2B86BF03F01F033C4A4FF06F
:10A7D000A04203F5E073032042F82300242303FB87
:10A7E000067322799A772378C5F80835A368C5F8E7
:10A7F0000C95C5F810A5C5F82435637B227B003382
:10A8000018BF0123022A4DD0032A4ED0012A01D1BC
:10A8100043F00203C5F85435A379C5F8C0352423A5
:10A820007343FB5813B14022C5F804230722C5F82F
:10A83000002503B3D8F8003062791B0B58B200280A
:10A84000A8BF00F16044DBB2B8BF03F00F054FEAC8
:10A850004212B4BF1B4C04F56144D2B2B4BF62557E
:10A8600084F8002303F01F03012202FA03F34009D6
:10A87000154A42F82030242303FB06760023737721
:10A8800001233377084603B0BDE8F08FFFF7E0FE01
:10A8900052E74FF0FF3973E74FF0FF3A83E7FFF7D6
:10A8A000D7FE8EE743F00403B4E743F00603B1E7B5
:10A8B0000821E7E71121E5E7CC37002091A6020047
:10A8C0000003005014ED00E000E100E000234350DD
:10A8D00082B043580193019B02B070474B6B8A6A68
:10A8E000934208D24A6AD25CC0F81C2501334B63FC
:10A8F00001231846704791F82C301BB10123C36126
:10A900000023F6E70A6A12F0400F4FF0010215BF6C
:10A91000C261426181F82D201346EAE791F82F20A9
:10A92000F8B504460D46002A60D1D0F824314E6BAC
:10A930008F6AB3B14FF49271FFF7C8FF01236361CF
:10A9400085F82F30BE424FD1D4F80431002B4BD0C4
:10A950004FF482712046FFF7B9FF002285F82D20C1
:10A9600013E0D0F81C3193B14FF48E71FFF7AEFFB6
:10A97000D0F824311BB14FF492712046DCE7294610
:10A98000FFF7ACFF02460028DCD11046F8BDD0F836
:10A990000831002BD6D04FF48471FFF797FFD0F821
:10A9A0002431002BE7D16B6BA96A8B42CAD2696A4A
:10A9B000D0F81805C8546B6BA96A0133481E83424E
:10A9C0006B6308D1286A40061DD40223C4F8003204
:10A9D00001232362B6E78B42FAD12B6A5B06B1D51D
:10A9E000022385F82D30D0E70122CEE74FF4927193
:10A9F000FFF76CFF4FF48E71FFF768FF4FF484711F
:10AA0000FFF764FFA0E78B42E2D1E9E737B5344BAB
:10AA100001930D464FF482710446FFF757FF4FF440
:10AA20009271FFF753FF4FF48E71FFF74FFF4FF412
:10AA30008471FFF74BFF00236B6385F82F30AB6AFF
:10AA4000012B18D12B6A5B0615D4022395F82D2013
:10AA5000C4F80032022A4FF00103236218BF2360BA
:10AA60002B6893B140F28623AB60AB68C4F8043323
:10AA7000002003B030BD0123E8E729462046FFF758
:10AA80004DFF28B1019B013B0193019B002BF4DC9E
:10AA900095F82F305BB90020019B002BE9DC0023E7
:10AAA000C4F800350523C4F800350320E1E7D4F8E5
:10AAB000C434C4F8C434002BEDD013F0010F14BF1C
:10AAC0004FF40240032048F2012213F0020F18BF96
:10AAD000104613F0040F48F2022318BF1846DBE7B4
:10AAE000A086010037B5314B01930D464FF48271BA
:10AAF0000446FFF7EBFE4FF49271FFF7E7FE4FF4C9
:10AB00008E71FFF7E3FE4FF48471FFF7DFFE002341
:10AB100095F82D20C0F800326B6385F82F300123A3
:10AB20009A420362294618BF8360FFF7D7FE2B685D
:10AB300083B140F28623AB60AB68C4F804330020D5
:10AB400003B030BD29462046FFF7E8FE28B1019B3F
:10AB5000013B0193019B002BF4DC95F82F305BB98E
:10AB60000020019B002BEBDC0023C4F800350523FB
:10AB7000C4F800350320E3E7D4F8C434C4F8C4347F
:10AB8000002BEDD013F0010F14BF4FF4024003204F
:10AB900048F2012213F0020F18BF104613F0040F01
:10ABA00048F2022318BF1846DBE700BFA086010069
:10ABB000F0B5294C87B021464FF04020FFF7AEFE9C
:10ABC000A446E0B994F82F70266AEFB9237B9A1E49
:10ABD000012A19D8616AA269914215D1E2696262BB
:10ABE000C6F340166269A262032B84F82C6084F8D5
:10ABF0002D7021464FF0402003D1FFF773FF07B0BF
:10AC0000F0BDFFF703FFFAE7144D0FCD01AC0FC401
:10AC10002B682360E7B14FF04022D2F8C434C2F869
:10AC2000C43498070CD501238DF8003000238CF82C
:10AC300030307307E3D4DCE9003168469847DEE73B
:10AC4000590701D50223EFE7DA07EFD50323EBE736
:10AC50008DF80070EAE700BFF0370020FC370020D5
:10AC60002DE9F84F06793D4D4FF03C0A0AFB06FAF4
:10AC700005EB0A049B4694F82E3080460F46914619
:10AC8000002B67D136490068FEF796FF002863D194
:10AC90003A687B7B84F838301F2A8CBF02F01F0390
:10ACA0001346A060C4F804B084F8300084F82D0086
:10ACB00084F8310003F5E07188BF2A4C45F80A900A
:10ACC00098BF4FF0A04440F20C6344F821307968FB
:10ACD0001F291C468CBF01F01F030B4603F5E073D0
:10ACE0008CBFDFF880C04FF0A04C4CF82340D8F860
:10ACF0000030C3F80825BA68C3F80C15C3F824253A
:10AD0000B9F1000F1ED01B0B59B200293A7BB4BF1A
:10AD1000154C01F16044DBB2B8BF03F00F074FEAF6
:10AD20004212A8BF04F56144D2B2B4BFE25584F820
:10AD3000002303F01F03012202FA03F349090B4A1F
:10AD400042F821303C2303FB0655012385F82E30C1
:10AD5000BDE8F88F0820FBE71120F9E7F037002065
:10AD6000B1AB02000003005014ED00E000E100E090
:10AD7000026803790521C2F80015044A3C2101FB51
:10AD80000323022283F82E20704700BFF0370020F3
:10AD90002DE9F047324D90F80480D0F800903C2324
:10ADA00003FB08530E4693F82D30012B964604D131
:10ADB0000B78012B06D1082011E0022B02D10B7871
:10ADC000012BF8D13C24274BC9F8083304FB085465
:10ADD00094F830302BB1A368C9F804331120BDE8D2
:10ADE000F0878EF00403C3F3800384F83030C4F896
:10ADF00020E0B446BCE80F0004F10C070FC7DCF8F4
:10AE000000303B607368A362F36863627378C9F8CB
:10AE100088353378C8EB081A012B05EB8A0A1AD05B
:10AE2000B3B9CEF3401E3C2303FB0853514683F8CD
:10AE30002CE04846FFF756FE3C2303FB08F805EBE1
:10AE4000080255F80830002BC9D182F83030C6E727
:10AE50004FF0010EE7E751464846FFF7D7FDEBE715
:10AE6000F03700208642040010B586B00024CDE9FA
:10AE700002349DF820308DF80510A342CDE904245A
:10AE800001A914BF202222468DF80440FFF780FF5D
:10AE900006B010BD1FB503788DF800308388ADF87B
:10AEA000043083688DF80630C3688DF80730036975
:10AEB000029343690393054A054B684653F82130D2
:10AEC00052F82110984705B05DF804FB2C3800209B
:10AED00034380020024B4FF4807043F001031847D0
:10AEE00080E502001F2886BF00F01F00044A4FF0D3
:10AEF000A042012303FA00F0C2F80805704700BF22
:10AF0000000300502DE9F04716460778394A42F809
:10AF10002760394A42F827304B7B80460C46A3B362
:10AF20000868DFF8DC904FF0A04100F5E07340F2D4
:10AF30000C6241F82320636803F5E073002541F8B3
:10AF40002320FFF7CFFF6068FFF7CCFF236803F5EE
:10AF5000E07340F20D6241F82320636803F5E0736B
:10AF60004FF0010A41F82320FFF7B4FF63681F2B5D
:10AF70008ABF4A464FF0A04203F01F03D2F81025C3
:10AF800022FA03F3DB070CD50DBB002E3B461B4A10
:10AF9000214608BF324608F10400BDE8F047FFF73C
:10AFA0005FBE23681F2B86BF03F01F034A464FF086
:10AFB000A0420AFA03F3C2F80C35FFF78BFF013504
:10AFC0002068FFF78FFFFFF785FF092DCED163685B
:10AFD0001F2B86BF03F01F0309494FF0A041012238
:10AFE00002FA03F3C1F80C35FFF774FF6068FFF74E
:10AFF00079FFCAE7343800202C38002095AE0200D3
:10B000000003005008B5094B1B7853B10020FEF730
:10B01000F9F90120FEF7F6F90320BDE80840FEF734
:10B02000F1B9BDE80840FEF701BA00BF3C38002086
:10B03000F8B57B4C237805461BB100232370FFF73E
:10B04000E1FF172D00F28880DFE805F00C171743A9
:10B0500054657680888D888D959A9A9A9A9AC4C9F3
:10B06000D1D9E4E4FFF7CEFF6E48FDF7FEF86E4B52
:10B07000002204461A702046F8BD0020FEF79AF917
:10B08000F8B10020FEF7BEF9022D0CBF4FF4E161CC
:10B090004FF47A61644B1D704FF400404FF47A74A2
:10B0A0000025E0FB01454FF4FA62002320462946C3
:10B0B00002F07EFC002201465A48BDE8F840FDF748
:10B0C000BCB8FEF78BF9022D0CBFC8214FF4C87134
:10B0D000E0E70020FEF76EF940B10020FEF792F99C
:10B0E0004FF44871504B03221A70D5E7FEF776F9FA
:10B0F000C821F7E70020FEF75DF938B10020FEF720
:10B1000081F94FF47A61484B0422EDE7FEF766F9C6
:10B110004FF4C871F7E70020FEF74CF948B1002062
:10B12000FEF770F9404B05221A7040F6CD4100221F
:10B13000C2E7FEF753F9F5E70020FEF795F93A4B21
:10B1400006221A70002240F26661B5E70020FEF781
:10B1500045F9354B07221A7000248CE70120207036
:10B16000FEF782F9EEE701202070FEF77DF900225C
:10B170004FF40051A0E7FEF768F92B4B0C22EAE7E9
:10B180002A482B4EFDF771F8D5F1110504461CD065
:10B19000D8B9012D13D0C8235D434FF400474FF4B5
:10B1A0007A7000214FF4FA620023C7FB050102F018
:10B1B000FFFB224601461D48FDF73FF804460220EA
:10B1C000FEF70CF90123337055E70220FEF71AF958
:10B1D0000023F8E7FFF716FF134B1222BBE7FFF738
:10B1E00011FF0020FEF7FAF80F4B1322B3E7FFF729
:10B1F00009FF0120FEF7F2F80B4B1422ABE7FFF733
:10B2000001FF0020FEF7EAF80120FEF7E7F8064B01
:10B210001522A0E7FEF719F9034B1D709CE700BF4C
:10B2200090380020603800209138002040380020FD
:10B230003C380020002910B514BF03240024FEF779
:10B240002DF91F288ABF0A4B4FF0A04300F01F00C2
:10B2500003EB8000D0F8002722F44032C0F800272A
:10B26000D0F8003743EA0443C0F80037002010BD8F
:10B2700000030050044B1B6813F0010301D0FFF7DB
:10B28000D7BE1846704700BF8C380020032813D85B
:10B29000012A0BD1012908D100F10E02D2B200EB34
:10B2A00040000C4B1A540020704700220129F6D0B0
:10B2B0004BB24BB1022901D007207047054B00EB80
:10B2C000400018444270EEE7024900EB4000084499
:10B2D0008270E8E780380020032802D80121FFF7B8
:10B2E000A9BF0620704708B5012202210020FFF700
:10B2F000CDFF08B1072810D1072202210120FFF756
:10B30000C5FF08B1072808D100210A220846FFF727
:10B31000BDFF10B1072808BF002008BD0388102B0F
:10B3200010B502D0112B1ED010BD1A4C2168B1B936
:10B3300001220846FFF7AAFF08B1072824D10722F7
:10B3400002210120FFF7A2FF08B107281CD1042227
:10B3500002210020FFF79AFF08B1072814D12368C3
:10B3600001332360E0E70B4A1368013B1360002BB5
:10B37000DAD1FFF7B8FF0028D6D0074B1B68002BA7
:10B38000D2D0BDE810401847034B1B68002BE6D015
:10B390009847E4E7983800209438002008B500204A
:10B3A000FFF79AFF08B1062806D10120FFF794FFA6
:10B3B00010B1062808BF002008BD76DF70477ADF8D
:10B3C00070477CDF70477FDF70478FDF7047B1DFEA
:10B3D000704733DF7047FCF7F9BD08B50020FFF771
:10B3E00049FF08B1FCF7F2FDFFF7D8FF08B1FCF701
:10B3F000EDFDFFF7EEFF18B1BDE80840FCF7E6BD34
:10B4000008BD00000388212B13B504463BD01FD88C
:10B41000112B28D0132B3ED0102B32D1264B27488E
:10B420002749C01AC008000440F00300FCF7FAFAEC
:10B430000720FFF71FFF08B1FCF7C8FD214BA188CB
:10B440002148198001F0A4FFD8B1FCF7BFFD18E036
:10B45000522B28D0562B01D03B2B12D11321A08880
:10B46000FFF7ABFFF0E7144B14481849C01AC008A7
:10B47000000440F00300FCF7D5FA124B4FF6FF72C0
:10B480001A8002B010BD002301A98088ADF80430F5
:10B49000FFF79BFFD8E70B4800231A468521008859
:10B4A000FFF791FFD0E7074800231A4619460088A6
:10B4B000FFF78DFFC8E700BFA4DD0200DCDD02005E
:10B4C000A0E50200162B0020E03D0020AAE50200C6
:10B4D0000D4B4A881B889A4214D10A8840F677237C
:10B4E0009A420FD18B88094A09480A49033B9BB20B
:10B4F0001380094A801AC00800041A4640F003006D
:10B50000FCF79DBA704700BF162B0020142B0020BB
:10B51000DCDD0200B7E50200A4DD020008B5037817
:10B520004BB9054B3B211888FFF747FF18B1BDE821
:10B530000840FCF74BBD08BD162B002008B548B1EC
:10B5400003280BD10220FFF795FE38B1BDE8084073
:10B55000FCF73CBDBDE80840FFF73FBF08BD000059
:10B560000378012BF7B534D01BB1022B31D003B0D7
:10B57000F0BD1A4C1A4D20782844FDF71DF82378A9
:10B580000133DBB21D44237015F8012C0A2A05D0C3
:10B590000D2A03D0134A12889A42E8D8012B15D9F4
:10B5A000114D0F4E114F2378ADF806300DF1060204
:10B5B0002B883146384602F05DF8082806D013285B
:10B5C000F1D0052802D008B1FCF700FD002323705C
:10B5D000CDE74068FCF7FAFCC9E700BF90390020CE
:10B5E0009C380020142B0020162B0020182B002044
:10B5F0002DE9F0410578064645BB154C154BDFF8A3
:10B600005880E41AE408240444F00104B28A954204
:10B610000AD33369134413F8013C0D2B16D10A20C9
:10B62000FCF7E0FF1128F9E73369585DFCF7DAFF12
:10B63000074648B11128F7D0024641462046FCF79C
:10B64000F5F93846FCF7C2FC0135DFE7BDE8F081CB
:10B65000DCDD0200A4DD0200DFE50200FCF7B6BC81
:10B6600008B50849084801F07FFD08B1FCF7AEFCB9
:10B67000F721054801F08CFD18B1BDE80840FCF742
:10B68000A5BC08BDD1B40200C83D002000B5694D7D
:10B690000FCDB1B005AC0FC495E80300664B674A07
:10B6A00001934FF4807384E80300CDE903230293F0
:10B6B000634A072301A905A8FCF726FF08B1FCF798
:10B6C00085FC00F0B9F900F09BF94FF480410020AF
:10B6D000FBF7E4FF08B1FCF779FCFBF715FFFCF77B
:10B6E0006FFD08B1FCF772FCFDF7CEFC08B1FCF76A
:10B6F0006DFC02F03DF808B1FCF768FC002305A9D9
:10B700000120059302F0C2F808B1FCF75FFC05A820
:10B7100002F024F908B1FCF759FC112349488DF8CF
:10B72000043002F0D3FA474982B201A8FFF749FE7C
:10B7300008B1FCF74BFC0021082205A802F071FAC1
:10B7400041494FF0C87305A8CDE90513FFF737FE4F
:10B7500008B1FCF73BFCFFF783FF3C4B3C480593EB
:10B7600005A901F003FE08B1FCF730FC042200211A
:10B770000DEB020002F055FA364B3748019301A950
:10B7800001F002FF08B1FCF721FCAC22002105A862
:10B7900002F047FA02238DF814304FF4A0632F4AC9
:10B7A000ADF816300123ADF8603019928DF8903065
:10B7B000402244F25063CDE9272305A9284B2948AC
:10B7C0002E9300F0FCFF08B1FCF700FC0121254896
:10B7D00000F0F2FF1C22002105A802F022FA00234B
:10B7E0004FF4A032CDE90532ADF822304FF4F0220B
:10B7F0008DF824301C4B07920A9303221B4B8DF8C3
:10B80000202005A80B9301F097FA08B1FCF7DEFBA6
:10B8100000F0A4F900F076F800F09AFA00F00EFAC1
:10B8200000F09EFAFBF794FF0028FBD1FDF742FCE5
:10B83000F8E700BF88E50200EC3D0020EC3E002068
:10B8400061B50200D3E5020010003C00D7B302004E
:10B85000E03D0020F1B50200182B0020102B002045
:10B860003DB50200943900201DB502005DB602000E
:10B8700001290BD1064B1A78013252B2052AC8BFF2
:10B8800005221A7093F9000000F020BB704700BF3A
:10B89000EC3F00200129F8B51BD10E4B0E4D1A7854
:10B8A0000E4E2C7834700132D2B21C460027022A88
:10B8B0004FF000001A702F7088BF1F7000F032F92F
:10B8C000227896F9001095F90000BDE8F84000F0E4
:10B8D00067BBF8BDED3F0020EC3F0020EE3F0020AD
:10B8E00001290BD1064B1A78013A52B2002AB8BF8F
:10B8F00000221A7093F9000000F0E8BA704700BF08
:10B90000EC3F002008B54FF0A0430C22C3F81427E9
:10B910000321C3F81C270848C3F82C270A22FCF788
:10B92000E9FA08B1FCF752FBFCF73AFB18B1BDE8A5
:10B930000840FCF74BBB08BD3C2B0020014B01220B
:10B940001A707047FE3F00201FB500238DF80C30A1
:10B950008DF80D00009303AA02233C210448FFF751
:10B9600083FA08B1FCF732FB05B05DF804FB00BFB9
:10B9700038E6020010B500EBC1120A4B61F04F012E
:10B980000446C8B21A60FFF7DFFF04F00F00FFF7AC
:10B99000DBFFC4F3031040F01000BDE81040FFF7D8
:10B9A000D3BF00BFF43F002070B5A4B040230A46C7
:10B9B0000C46064601460DF10D008DF80C3002F0E4
:10B9C00007F90022631C0092DBB203AA3C2109485C
:10B9D000FFF74AFA08B1FCF7F9FA074D07482B6858
:10B9E00022463146184402F0F3F82B681C442C60C0
:10B9F00024B070BD38E60200F43F0020044000206F
:10BA00001FB5094B0FCB6C4684E80F00074B009322
:10BA1000074A084800232146FEF7E8FD08B1FCF775
:10BA2000D5FA04B010BD00BF0CE602001A1D1E1F9F
:10BA30003DB9020044E602001FB51B211A22CDE9E0
:10BA400000124FF0CD620023029202220393694656
:10BA50008DF80C2006481A46FFF754FA08B1FCF797
:10BA6000B5FA0448FFF784F905B05DF804FB00BFA0
:10BA700034E6020038E6020037B50B46C91000EB89
:10BA8000C114B4F5806F1BD20F4D2D5D03F0070478
:10BA90000123A3405BB26CB282B924EA03038DF8A0
:10BAA00007309DF80730AB4206D0FFF763FF012156
:10BAB0000DF10700FFF778FF002003E02343EEE7D6
:10BAC0004FF0FF3003B030BD04400020022BF8B52A
:10BAD00006460F46144602D94FF0FF30F8BD104617
:10BAE00002F0F4F80546062039467043FFF742FF9E
:10BAF000AB19152BC8BFC6F11505002DECDB084EA0
:10BB00002544AC4201D10020E8E714F8010B00EB1A
:10BB10004000062106EB4000FFF746FFF1E700BFBB
:10BB2000FC2B002010B5A0B001468022684602F030
:10BB300078F8002421460020FFF71CFF0134802103
:10BB40006846FFF731FF082CF4D1034B1B68002037
:10BB5000988320B010BD00BFF83F002070B5104B97
:10BB600088B002AC03F110062246186859682546D1
:10BB700003C50833B3422C46F7D118689B88AB80C5
:10BB8000002328603C21009306481623FFF76CF938
:10BB900008B1FCF71BFA0020FFF7C4FF08B070BD26
:10BBA0001CE6020038E6020070B50546002400F1EC
:10BBB0001406012229462046FFF75EFF2046012297
:10BBC00031460134FFF758FF802CF2D1002466196A
:10BBD000012231460020FFF74FFF01340122314698
:10BBE0007F20FFF749FF142CF1D1024B1B68012283
:10BBF0001A7770BDF83F00200A4602230146012053
:10BC0000FFF764BF10B5054C236801205968FFF7A2
:10BC1000F3FF236801225A7710BD00BFF83F0020D0
:10BC200008B5042001F08AFF00220270C0E9012259
:10BC3000C0E90322C0E90522828308BD08B5FFF7E9
:10BC4000EFFF014B186008BDF83F002010B504203D
:10BC500001F074FF054A064C137854F82340046041
:10BC6000013300241370446010BD00BFF03F00207A
:10BC70009C2B002070B50F4D0F4E042001F05EFF8D
:10BC80002A780E4B53F8223003603268044662B1C2
:10BC9000FFF7DCFF606073684BB1FFF7D7FFA06070
:10BCA0002B7801332B70204670BD4260F3E7A36010
:10BCB000F6E700BFEF3F00209C2B0020642B002004
:10BCC00070B50F4D0F4E042001F038FF2A780E4B4F
:10BCD00053F8223003603268044662B1FFF7CAFFAE
:10BCE000606073684BB1FFF7C5FFA0602B7801332C
:10BCF0002B70204670BD4260F3E7A360F6E700BFFB
:10BD0000FC3F0020642B0020C42B002010B5042031
:10BD100001F014FF0C4B03600C4B1B68044683B10D
:10BD2000FFF7CEFF6060FFF7CBFFA060FFF7C8FF13
:10BD3000E060FFF7C5FF2061FFF7C2FF60612046AA
:10BD400010BD4360EFE700BFEC2B0020C42B0020A8
:10BD500008B5FFF7DBFF014B186008BD004000206D
:10BD600010B5194C236800221A70184A126811681D
:10BD7000596051680968996091680968D960D1680B
:10BD800009681961116952690968126859619A61F3
:10BD90001120FFF709FFFFF735FF226802239268A1
:10BDA00003210120FFF792FE22680223D2680521B9
:10BDB0000120FFF78BFE2268022312690721012070
:10BDC000BDE81040FFF782BEF83F00200040002091
:10BDD00010B50224002218212046FFF74DFE002254
:10BDE00019212046FFF748FE00221A212046FFF7BE
:10BDF00043FE00221B212046FFF73EFE00221C21AD
:10BE00002046FFF739FE00221D212046FFF734FEB1
:10BE100000221E212046FFF72FFE00221F21204670
:10BE2000FFF72AFE002228212046FFF725FE0022E8
:10BE300029212046FFF720FE00222A212046FFF775
:10BE40001BFE00222B212046FFF716FE00222C218C
:10BE50002046FFF711FE00222D212046FFF70CFEA1
:10BE600000222E212046FFF707FE00222F21204628
:10BE7000FFF702FE002238212046FFF7FDFD0022D9
:10BE800039212046FFF7F8FD00223A212046FFF72E
:10BE9000F3FD00223B212046FFF7EEFD00223C216E
:10BEA0002046FFF7E9FD00223D212046FFF7E4FD93
:10BEB00000223E212046FFF7DFFD204600223F21E1
:10BEC0000134FFF7D9FD7E2C84D110BD70B5044636
:10BED000C8B9324CFFF77CFF226802239268032125
:10BEE0000120FFF7F3FD22680223D268052101201B
:10BEF000FFF7ECFD22681269022307210120BDE84B
:10BF00007040FFF7E3BD012814D1244DFFF760FF17
:10BF10002A680223D26803212046FFF7D7FD2A684A
:10BF20000223126905212046FFF7D0FD2A6802236B
:10BF30005269E2E7022814D1184DFFF749FF2A6839
:10BF40002346126903210120FFF7C0FD2A6823461A
:10BF5000526905210120FFF7B9FD2A68234692693D
:10BF6000CBE703280ED10D4DFFF732FF2A680223DD
:10BF7000526921460120FFF7A9FD2A680223926930
:10BF80000521BBE7042807D1FFF722FF034B1A68FE
:10BF9000032102239269B1E770BD00BFF83F002082
:10BFA000012A38B55C4C2AD055B295B1022A61D02D
:10BFB000FFF78CFF23681B7F13B91120FFF7F4FDF7
:10BFC00023685B7F002B40F0A680BDE83840FFF778
:10BFD00019BE524A236812681D7011685960516871
:10BFE0000968996091680968D960D1680968196120
:10BFF000116952690968126859619A61D8E7236822
:10C000001A70474A5A6071B9464A1170434A126819
:10C01000526855682D689D6092681268C3E90511E1
:10C02000C3E90321C4E7012905D13E4A11703B4A07
:10C030001268926806E002290CD13A4A1170374A18
:10C040001268D26851680968996092681268DA606B
:10C05000002221E0032905D1324A11702F4A1268CB
:10C060001269EFE70429A3D12E4A11702B4A1268F6
:10C070005269E7E723681A702B4A5A6079B9294A4E
:10C080001278B2B925490968496849684D688968D4
:10C090002D689D600968D960C3E90422ADE70129D4
:10C0A00086D1204A127852B91C49096849688968C2
:10C0B000ECE7012A09D1194A12689268A8E7012A17
:10C0C00009D1164A12689268B3E7022A09D1134AC5
:10C0D0001268D2689CE7022A09D1104A1268D26815
:10C0E000A7E7032A09D10D4A1268126990E7032ACB
:10C0F0000AD10A4A126812699BE7042A7FF458AFF2
:10C10000064A1268526983E7042A7FF451AF034A52
:10C11000126852698DE738BDF83F002000400020CA
:10C12000542B0020FD3F00208C2B00200369C168A8
:10C130008B429DBF8268D21802F1FF3203F1FF33B8
:10C1400094BF501A581A70472DE9F041D0E9027493
:10C1500005463E1B4068964220448846144404D954
:10C1600001F036FDEC60BDE8F0813246E41B01F0E1
:10C170002FFD224608EB06016868F1E72DE9F84338
:10C18000C5680646894617464FF000083469B3680B
:10C190007068A54228BFE418013C621B5C1BBC42CE
:10C1A00028BF3C46944228BF1446494628442246AC
:10C1B00001F00EFDB3682544AB4208BF00253F1BCC
:10C1C000A044A144F560E1D14046BDE8F8830000F9
:10C1D00010B5114C114AA2610223C4E90433104B7B
:10C1E000E361A2644FF400730E4A2362E264002309
:10C1F00010220D49A362E01D6362E362A3656365DB
:10C20000E365226501F040FD0849204601F03CFD50
:10C210002023A37110BD00BF044400205BE702008F
:10C220008C4400207C44002064E7020068E70200A0
:10C23000F8B5184C182300FB033503FB00402544D8
:10C24000C46A012C0F46164611D024B1022C1BD013
:10C2500000242046F8BD2846FFF768FFB042F8D317
:10C26000324639462846FFF76FFF3446F1E7284645
:10C27000FFF75CFF8642344628BF04462246394613
:10C280002846FFF761FFE4E72846BDE8F840FFF7DE
:10C2900075BF00BF04440020FFF79ABF6DDF7047F1
:10C2A00079DF70477DDF704764DF70472DE9F04F1D
:10C2B00085B000250E9CBDF83CB0278801918046D2
:10C2C00091469A462E46B8F80020B2420CDC3DB1A9
:10C2D0002288013AD21B92B2FF2A3BD80AF80720E3
:10C2E000002005B0BDE8F08FD8F8042052F82600F1
:10C2F000039000220DF10B0103A8FFF7D5FF0028E2
:10C30000EFD19DF80B204A4522D12288002D14BF81
:10C310000020022002EB0901014459451ADC45B90D
:10C32000013292B2019B22800AF802302288013247
:10C33000228022880DF10B01524403A8FFF7B4FFBD
:10C340000028CED121889DF80B200A4422800125A7
:10C350000136B8E70C20C4E72DE9F341089CBDF88D
:10C3600024501746CDE90045022206469846FFF7BD
:10C370009DFF50B94346102239463046CDE9084565
:10C3800002B0BDE8F041FFF791BF02B0BDE8F08117
:10C390002DE9F04F00231688138090F82D3085B0DA
:10C3A00007460D46144653B3082E01D80C2027E14A
:10C3B00002A8FFF773FF002840F02281238808229B
:10C3C000EA54238801339BB21B222380EA5420883D
:10C3D000013080B2208006220DF10901284401F0CD
:10C3E000F7FB23889DF8082006339BB212F0FE026B
:10C3F00018BF01222380EA54238801332380BB78AD
:10C40000FBB123880433B342D0D802A8FFF748FF1A
:10C41000002840F0F58023880322EA542388013362
:10C420009BB219222380EA542388BDF808200133E7
:10C430009BB2E9182380EA54120A4A702388023317
:10C440002380FA789AB12388D91CB142AED8022150
:10C45000E954238801339BB201212380E9542388C6
:10C460000B449BB22380EA5423880B4423807A68D0
:10C47000AAB12388D91CB14298D8022192F9002090
:10C48000E954238801339BB20A212380E95423888D
:10C4900001339BB22380EA542388013323803B89F4
:10C4A000002B40F0A1803B8A5BB1CDE900462B46D2
:10C4B0000722032107F11000FFF74EFF002840F08C
:10C4C0009F803B8B5BB1CDE900462B4615221421A2
:10C4D00007F11800FFF740FF002840F091803A6A0A
:10C4E000002A40F09080D7F82480B8F1000F30D0B7
:10C4F000B8F804302188981C8A1C0244B2423FF6E6
:10C5000055AFFE283FF652AF03336B5423880133F7
:10C510009BB2FF222380EA54238801339BB22380FD
:10C52000B8F80020EA54E918120A4A70208802304C
:10C5300080B22080B8F804205AB1D8F80810002939
:10C540006BD0284401F044FB2388B8F8042013443E
:10C55000238097F82C30002B40F09A803878002800
:10C560004ED03B88012B58D0228802F1020CB445F2
:10C570003FF61CAF012805D17B78023313449E425D
:10C58000FFF414AF023EB61AB6B202A905EB0C00D6
:10C59000ADF80860FFF786FE90BB3978BDF808203B
:10C5A000022900F0BA807B78934202D3B24240F273
:10C5B000B280012940F0B3809BB29E42C0F0AF80B0
:10C5C000ADF808300821BDF80830FE2B3FF6EEAE7E
:10C5D00022880133AB542288013292B22280A954BE
:10C5E0002288134423800BE0CDE900462B46062227
:10C5F000022107F10800FFF7AFFE00283FF453AF18
:10C6000005B0BDE8F08FB4F800C00CF10603B342EA
:10C610003FF6CCAE1188052901D80720F0E76FF46A
:10C62000486E01EB0E039BB24FF27D3E7345F4D989
:10C630005388052BF1D96FF44860181880B2704503
:10C64000EBD94FF6FF70814203D0834201D099426B
:10C65000E3D8052305F80C30238801339BB212215F
:10C660002380E954238801339BB223801188E95445
:10C67000E818090A4170238802339BB2238052884C
:10C68000EA54E918120A4A702388023323802AE701
:10C69000BB6A002BC1D04FF000094FF00C0A4FF0DD
:10C6A000160B97F82C305FFA89F293427FF656AF5B
:10C6B000B96A0AFB02F201EB0208B8F80430981CD0
:10C6C000FE283FF673AE208803332B5423880133B2
:10C6D0009BB2238005F803B0238801339BB22380EB
:10C6E0008A5AEA54E918120A4A702088023080B245
:10C6F0002080B8F804205AB1D8F8081000298CD04E
:10C70000284401F065FA2388B8F8042013442380F4
:10C7100009F10109C5E7092155E7B242FBD9ADF896
:10C7200008604FE770B5E0B14AB116880024B44202
:10C7300003D305196D789D4208D0A14201D800208D
:10C740000FE0055D01352C44A4B2F0E7A142F6D913
:10C75000005DA31C01389BB280B21C188C42EEDC39
:10C76000138070BD13B50023ADF8063013460DF1EC
:10C7700006020446FFF7D6FF10B1BDF806002044BC
:10C7800002B010BD72DF704773DF704738B5012209
:10C7900004460D46B0F81414D0F81004FFF7E2FF79
:10C7A00000B1057004F13C0204F5826104F154000B
:10C7B000BDE83840FFF7E6BF80F830107047F8B5A5
:10C7C00004460F4600296DD000286BD091F87A30CE
:10C7D0001BB191F89830002B66D107F178060FCE87
:10C7E0004FF0000C251D84F802C00FC50FCE0FC5F9
:10C7F00096E8070085E8070084F830C0D7F8A43031
:10C800006363D7F8A830A3634FF6FF7504F582631E
:10C81000C4F82034A4F824540722614604F22640C8
:10C8200001F0FFF923780BB984F8545094F82430C0
:10C83000002B14BFEE231F2304F15501C4F810147C
:10C84000A4F8143404F214423846FFF7A1FD40BBAB
:10C8500094F82430002B14BFEE231F2304F231215F
:10C86000C4F81814A4F81C3404F21C4207F13C006C
:10C87000FFF78EFDA8B9A369A4F848304FF4807380
:10C880000125A4F8503063692064014684F83C50C7
:10C89000636404F13C0204F15400FFF773FF00B934
:10C8A0002570F8BD0E20FCE70720FAE7F8B50778F9
:10C8B00004460D46002F00F0098100F22646A170C3
:10C8C00007220021304601F0ACF9E38813B1A378C8
:10C8D000012B04D0E3794BB1A378022B06D1636B13
:10C8E000A3B1012284F82D2408209847334604F28E
:10C8F0002C4113F8012F12B98B42FAD117466B1E47
:10C90000032B57D8DFE803F0050B0F1284F82D3402
:10C91000ECE7A3791BB194F8243003B95FB9E3794C
:10C920000BB1002F48D1237A002B47D1637A002B1B
:10C930000CBF00250425636BA570002B40D0033D80
:10C94000012D3DD86279002A3AD094F82E24002A8D
:10C9500036D184F83024012284F82F240720984708
:10C9600004F13C0518220021284601F05AF9E26A38
:10C970000123511E994284F83C3001D9042A00D188
:10C98000D3B294F8242084F8513042B1A36A591EDE
:10C99000012902D9042B18BF012384F85230A17851
:10C9A000002384F8503004291BD8DFE801F0770D0C
:10C9B000223559000025BEE70225BCE70325BAE76A
:10C9C000002384F82F34CBE7C4F82034C4E9106383
:10C9D0000223012284F83C30802384F83120A4F81B
:10C9E0004830A378002B5CD1636B002B6AD1002008
:10C9F00067E00223002A84F8313014BF07230323A1
:10CA000084F83C302369A4F848300023C4F820346B
:10CA1000E36826646364E4E763696364A369A4F874
:10CA2000483012B1062384F83C306379B3B194F8EE
:10CA30002E349BB994F8303483B1022384F85030FB
:10CA400004212046FFF7A2FE0028CAD1052384F85E
:10CA5000313004F58263C4F82034C2E70323F6E7DB
:10CA6000E3696364236AA4F8483012B1062384F8AA
:10CA70003C30637983B194F82E346BB994F8303438
:10CA800053B1022384F8503004212046FFF77EFE84
:10CA90000028A6D10623DAE70423D8E784F831304A
:10CAA0009FE72A46D4F8201404F15400FFF76AFEE9
:10CAB00038B994F8301094F85400FFF765FE002858
:10CAC00092D0F8BD94F83100984790E70820F8E735
:10CAD0000388112B10B50C460AD0262B1FD0102B23
